:020000040000FA
:10000000E00B2020D5000000D9000000DB0000003C
:1000100000000000000000000000000000000000E0
:10002000000000000000000000000000DD000000F3
:100030000000000000000000DF000000E100000000
:10004000E3000000F90D0000E3000000E300000001
:10005000E3000000E3000000E3000000E300000014
:1000600000000000E3000000E300000000000000CA
:1000700000000000E3000000E3000000152700007E
:10008000E3000000E300000079250000E300000029
:10009000E3000000E300000000000000000000009A
:1000A000E3000000E300000000000000000000008A
:1000B000E300000000000000E3000000E300000097
:1000C0000348854600F064FC00480047092B000007
:1000D000E00B202003480047FEE7FEE7FEE7FEE7CF
:1000E000FEE7FEE7C1000000F8B502464A40D40F23
:1000F00042004B0052085B089A4202D20246084670
:1001000011464A0023D0C30D4A00DDB2120EAD1ACB
:10011000202D35DA49020126490AF6058A19002CF4
:1001200000D0524220214F1B1146B9402A411018DD
:10013000C20D9A4221D0002C17D0012D08DCDA051F
:10014000801AD20F8019D207DBB200F022FBF8BD73
:10015000DA05801A012340001B06C01880185A4295
:100160008018CA0F1043490007E04908C20711432D
:10017000DA05801A80194008801800F002FBF8BDEB
:1001800061000122511A001BF7E70122D2075140FA
:10019000AAE70122D2075040A6E7024670B54A40BE
:1001A000D30FDB0740002DD04A002AD0010E140ED9
:1001B000000212020919400A520A8418E501044695
:1001C0005443000A120A2E045043A4194219200C69
:1001D000C543AA18120C0125AD03521C5219120472
:1001E0007F39240400D0521C104301D44000491E22
:1001F000C2B20C06C0092018401C4008802A02D058
:1002000003E0002070BD40084000002900DA002013
:10021000184370BDF0B507460846584087B0C00F78
:10022000049048000E46590040084908BC1A88410D
:1002300005D2384631461E4617460B460246580040
:10024000400810434CD0300D039040055900400D3C
:10025000490D0590401A0290402872DA18030121D6
:10026000000B09050843019004980092002805D06E
:100270000199524200208841009201900298402149
:100280000A1A0199009800F059FA05460C466B4687
:1002900007CB00F063FAC0197141039A0E0D0023D9
:1002A000D71756401A467A40164344D0049A002A7B
:1002B0002DD0029A012A039A15DC1205C01A914129
:1002C00001263605001C7141D20F059ED20700930E
:1002D000019202962A46234600F0A1FA07B0F0BD2B
:1002E00038463146FAE71605224A0F46B218C01AB8
:1002F000B74101210905001C4F4100187F411146FB
:1003000018187941E20F10436D19644113E0E207B8
:100310006D0815436408C2071443039A01261205A9
:10032000C01A91413605001C7141CE074008304388
:100330004908C01851412A46234600F063FACDE728
:10034000FFE7049801224000C117121A00238B41D5
:1003500004983146C417381AA141EEE730B401249D
:10036000E407634030BC55E730B40124E407614042
:1003700030BC4FE70000E0FFF0B51FB488B00B9928
:100380000998002448400999C00F4900490809917B
:10039000C0070B990090490049080B9109990898EA
:1003A000A64608431CD00B990A98084318D0099810
:1003B00001244000420D4800410D09982405000326
:1003C000000B204309900B980003000B20430B9077
:1003D00050181C494018002201901446104605E0B0
:1003E000002001460DB0F0BD032801DA034600E00D
:1003F00003239C46C11A0AAE0AE05F0008ADED5B1C
:100400004F00F75B7D430027AA187C41491C5B1E07
:100410006145F2DD410004AB5A522104120C0A433B
:10042000240C401C0828DFDB0198029000997046DC
:1004300001910090059B049A0799069800F0EFF946
:10044000D0E700000DFCFFFFF0B50C465C4085B026
:10045000E40FE40703944C00002664085900944616
:10046000490802460296224321D062460A431ED022
:100470006200570D4A000E032303550D0124024666
:100480002C492405781B1B0B360B401823432643AD
:10049000614600901C46501AB44103D30098401C9A
:1004A000009002E0921800985B41002803DA0020D7
:1004B000014605B0F0BD002001210905074686462A
:1004C00011E064461D46141BB54106D36546521B18
:1004D000B341744607430C43A646CD07400849087C
:1004E000284392185B4105460D43EAD11046184354
:1004F00013D06046194650407140084306D060460C
:10050000101AB34106D20122002306E00022012383
:10051000DB0702E00122D243531000987446010524
:10052000381C6141029C039D0019694100F06AF981
:10053000BFE70000FD0300000122D207002800DB16
:10054000101A002900DB511A814201D201207047A4
:10055000002070470122D207002800DB101A002972
:1005600000DB511A814201D90120704700207047F9
:100570000122D207002800DB101A002900DB511AE3
:10058000814201D1012070470020704710B5002939
:1005900004DB0C460121C9074042A141002B04DBCA
:1005A0001C460123DB075242A341101A8B4101D2A2
:1005B000012010BD002010BD10B5002904DB0C4641
:1005C0000121C9074042A141002B04DB1C46012345
:1005D000DB075242A341101A8B4101D3012010BD09
:1005E000002010BD10B5002904DB0C460121C9070D
:1005F0004042A141002B04DB1C460123DB07524291
:10060000A34142404B401A4301D0002010BD0120BD
:1006100010BDC217C10F504010B54018CA0796232D
:10062000002100F0B6F810BD0EB5C217C10F504042
:10063000CA0740180021054B0293019200910A4617
:100640000B4600F0ECF803B000BD000033040000DE
:100650000EB505490291002100910A460B46019111
:1006600000F0DDF803B000BD33040000C20F41000C
:1006700040020123400ADB05D207090EC0187F297A
:1006800001DA00207047962903DC9623591AC840E6
:1006900001E096398840002AF4D040427047C20FEA
:1006A000D207400040080BD0C10D0723DB01C91859
:1006B00040020905400A1143C20840071143704730
:1006C000002001467047CB0FDB07490010B54908F1
:1006D00002460A4307D00A0D07240903E401090B67
:1006E000121B002A01DC002010BDC900440F0C437E
:1006F000C100E018D205801800F043F810BD70B5B5
:100700000446002903D000202022012310E0002805
:1007100001D00020C043C046C0460DE02546D5406C
:100720008D4205D30D469540641B1D4695404019EA
:100730001546521E002DF1DC214670BD10B5202A51
:1007400004DB0146203A9140002010BD9140202357
:100750009C1A0346E3401943904010BD10B5202A6F
:1007600006DBCB170846203A1041C1170B4306E0C1
:100770000B461341D0402024A21A91400843194649
:1007800010BD002904DA401C490001D14008400096
:10079000704770B40024050C05D11024000402D168
:1007A000002921D01124050E01D100020834050FC3
:1007B00001D10001241D850F01D18000A41C002857
:1007C00001DB4000641C002908D020252E1B0D46AB
:1007D000F540A14000D001212943084301061B1B1D
:1007E000000ADB1D02D5002070BC7047DB0518181D
:1007F00080180029F8DA401C4900F5D170BC400887
:100800004000704710B5002B08DA0024401C6141FD
:1008100092185B411A4301D14008400010BDF0B569
:100820001FB482B005460C0003D0084602F08AFAD5
:1008300002E002F087FA2030024600902146284666
:10084000FFF77CFF049B059A04460F4618431143AB
:10085000084314D0184610431BD0009840210A1AB0
:100860001846059900F0A6F805460E46009A059927
:100870000498FFF763FF084305D0012004E02046F9
:10088000394607B0F0BD0020C11705430E432C4385
:10089000374300990E986305401A7905E40A00224F
:1008A0000C43FD0A0A3002D500200146E9E70105A4
:1008B000101969410C9C0D9D00196941FFF7A2FFB9
:1008C000DFE7FEB500231A461B1A8A4103DB00202E
:1008D000014603B0F0BD4A000D0301212D0B0905AF
:1008E000520D0D43D10702D100186D41521E511017
:1008F000FF31FF310131002704463E46384600975C
:100900000191024601210020090500F053F8C319A6
:100910007141F818324684468E464A41614628465F
:10092000611A904104D36046241A954176461F46C9
:10093000241900986D41401C00903428E1DDF9191C
:1009400030467041091BA84103D20022D24313460E
:1009500001E00022134601980105381C7141FFF7A0
:1009600051FFB6E710B5002904DB0124E40740423B
:100970008C412146002B04DB1C460123DB0752423D
:10098000A3418B4200D1824210BD00000000000054
:10099000064C0125064E05E0E36807CC2B430C3CD2
:1009A00098471034B442F7D3FFF78EFB7855000018
:1009B0009855000010B5202A04DB0846203AD040A4
:1009C000002110BD0B46D340D0402024A21A9140F4
:1009D0000843194610BD70B54B005B0803430BD0AC
:1009E0004B005C0D002633466542B341D417AD1A67
:1009F000A34102DB0020014670BD120530185141B1
:100A000070BD000070B5CD0F4A0009030123090B2A
:100A10001B0519430B4BED070024520D9A4201DAD6
:100A2000002070BD074B34339A4203DC9A1AFFF75B
:100A3000C1FF02E00449511888402C43F1D04042E4
:100A400070BD0000FF030000CDFBFFFFF0B583B0D9
:100A50000F46054610461946FFF797FB04462860E7
:100A6000696AFFF741FB064668620197FF6800214B
:100A70003846FFF77DFD0028029413D10120C407FA
:100A80007C4030462146FFF757FD002800D1344610
:100A900030463946FFF75EFD002800D127466F62D9
:100AA000019901E0374601990E684868896801910B
:100AB00069680091029C6C603946FFF76EFB054641
:100AC00030462146FFF769FB2946FFF70DFB054637
:100AD00020460099FFF759FB01460198FFF75DFB9F
:100AE0002946FFF701FB03B0F0BDF0B583B00F4618
:100AF000054610461946FFF748FB04462860696A18
:100B0000FFF7F2FA064668620197FF68002138464F
:100B1000FFF72EFD0028029413D10120C4077C406A
:100B200030462146FFF708FD002800D13446304604
:100B30003946FFF70FFD002800D127466F62019963
:100B400001E0374601990E68486889680191696833
:100B50000091029C6C603946FFF71FFB054630464A
:100B60002146FFF71AFB2946FFF7BEFA0546204645
:100B70000099FFF70AFB01460198FFF70EFB294693
:100B8000FFF7B2FA03B0F0BD811E091F00BFFCD20F
:100B900070470000F0B5664A8218294BC3180879DF
:100BA00020280DD000281DD10C68641E5460D56E1D
:100BB000244C25408835D5661646703688251DE0BC
:100BC0000C68641E5460D46E1E4D2C401E4EA41939
:100BD000D466146F2C40A4191467012465071B4CBC
:100BE00016460BE00C6864085460D66E154C26401F
:100BF0000525ED017619D66616467036376827400A
:100C00002F433760D46A4C4D2C40D462146B2C4077
:100C100014630024D46414658F24E443D56F254005
:100C2000D5671D6825401D6049790143BD200840F6
:100C30001168074B0B40C018801C1060F0BDC04607
:100C40008418000024F93FF001040000FFFFFFCFEB
:100C50004000FFCFB0B5364A80184A6842600A7833
:100C6000222A57D8930001A4E3589F460B0D000099
:100C7000150D00000B0D0000150D0000150D0000F6
:100C8000150D0000150D0000150D0000150D0000DC
:100C9000150D0000150D0000150D0000150D0000CC
:100CA000150D0000150D0000150D0000F90C0000D9
:100CB000150D0000F90C0000150D0000150D0000C9
:100CC000150D0000150D0000150D0000150D00009C
:100CD000150D0000150D0000150D0000150D00008C
:100CE000150D0000150D0000150D0000F90C000099
:100CF000150D0000F90C000003231B0704689C433A
:100D000001235B07E318036004E003231B07046867
:100D10009C4304600B69C360CB68064C1C40C36AEB
:100D2000054D1D402B19C362097A11430160B0BD06
:100D300004180000777702008888FDFF10B50723AC
:100D40009B04194092008018024A84589C43611801
:100D5000815010BD3018000010B5029CA40000198D
:100D600011431943014A815010BDC046501800007C
:100D700092008018014A81507047C0461018000048
:100D800010B50122120383180C789C604B788350B5
:100D90008978014A815010BD0C110000B0B51122B4
:100DA000120283580124A34383508B780C881C4380
:100DB0008B882343094C1C408358094D1D402B1937
:100DC00083508B79CC791C43097A21437E231940C7
:100DD000801842689A4351184160B0BD18670000FE
:100DE000E798FDFF10B50122120383180C789C6070
:100DF0004978815010BD0000F0B58720C1031B4821
:100E00000246103A126813460B40194C2360012425
:100E100013046E4B09D4D5030FD5E6031F68154D97
:100E20002D68374206D06D1E05E01E68114D2D68F5
:100E3000F603F8D56D1C0F4E3560950309D45202A8
:100E40000FD564041B680C4A1268234206D0521E58
:100E500005E01B68084A12685B02F8D5521C064B75
:100E60001A6002680A430260F0BDC04648100A409A
:100E700030062020380020203C002020B0B5524809
:100E8000017802291AD0012932D0002953D14F49C3
:100E90000A684F4B1C680968490C04250D40210D58
:100EA00002240C405103C90F611849191A68D20C69
:100EB00008231340C9183ED001213BE043490A688A
:100EC000434B1C680968490C04250D40240D022180
:100ED0000C405203D20FA21852191B68DB0C0824D5
:100EE0001C4012193B4B1A880ED014321A8022E093
:100EF00036490A68520301D4012118E0344A1368C4
:100F00009B020BD4022112E0002404701C804B20B1
:100F10008000824200D801212F480BE009680903B4
:100F200001D4032103E011684902C5D4042102223F
:100F300002702A4801702948027827490978012956
:100F400003D1012A01D1012304E0022922D1012A7F
:100F500020D10223234C2370002302290DD1002B22
:100F60000BD00223204C2370121F534253410229FD
:100F70000DD1002B0BD0022107E0141F6342634107
:100F80000129F4D1042AF2D10121184A117000215B
:100F90000170B0BD012903D1022A01D1012304E06F
:100FA000022908D1022A06D102230D4C2370D41E37
:100FB00063426341D1E7D41E634263410129CCD12E
:100FC000032ACAD10123CDE7890A202080130A40D1
:100FD00080330A4046002020440020204800202082
:100FE00041002020400020204200202043002020FB
:100FF000014880210160704790120A40F0B581B02D
:10100000024806468036802702E0C046490020207C
:101010006021002272544023F2542024325532764B
:10102000327432723270354660352A762A742A72EA
:10103000354640352A762A742A72354620352A7676
:101040002A742A723546083D2A703546103D2A70AA
:101050003546183D2A703546203D2A703546283DD4
:101060002A703546303D2A703546383D2A7035465F
:10107000403D2A703546483D2A703546503D2A701D
:101080003546583D2A703546603D2A703546683DE4
:101090002A703546703D2A703546783D2A703546AF
:1010A000803D2A7001252D027619203FB0D10746D8
:1010B0008137802600937A54009BFA543A553A7649
:1010C0003A743A723A700B46394660310A760A74BD
:1010D0000A72394640310A760A740A72394620315A
:1010E0000A760A740A72394608390A703946103984
:1010F0000A70394618390A70394620390A7039465B
:1011000028390A70394630390A70394638390A7038
:10111000394640390A70394648390A7039465039DB
:101120000A70394658390A70394660390A703946AA
:1011300068390A70394670390A70394678390A7048
:101140007919803F3A70203E0F461946B3D10746C1
:10115000823780267A5400997A543A553A763A740E
:101160003A723A70394660310A760A740A72394620
:1011700040310A760A740A72394620310A760A74B6
:101180000A72394608390A70394610390A703946E8
:1011900018390A70394620390A70394628390A70D8
:1011A000394630390A70394638390A70394640397B
:1011B0000A70394648390A70394650390A7039463A
:1011C00058390A70394660390A70394668390A70E8
:1011D000394670390A70394678390A707919803F72
:1011E0003A70203E0F461946B4D107468337802611
:1011F0007A5400997A543A553A763A743A723A7077
:10120000394660310A760A740A72394640310A76E4
:101210000A740A72394620310A760A740A7239460B
:1012200008390A70394610390A70394618390A7077
:10123000394620390A70394628390A70394630391A
:101240000A70394638390A70394640390A703946C9
:1012500048390A70394650390A70394658390A7087
:10126000394660390A70394668390A70394670392A
:101270000A70394678390A707919803F3A70203EF1
:101280000F461946B4D10746843780267A54009910
:101290007A543A553A763A743A723A70394660312D
:1012A0000A760A740A72394640310A760A740A725A
:1012B000394620310A760A740A72394608390A70AA
:1012C000394610390A70394618390A7039462039BA
:1012D0000A70394628390A70394630390A70394659
:1012E00038390A70394640390A70394648390A7027
:1012F000394650390A70394658390A7039466039CA
:101300000A70394668390A70394670390A703946A8
:1013100078390A707919803F3A70203E0F46194695
:10132000B4D10746853780267A5400997A543A55C5
:101330003A763A743A723A70394660310A760A74EB
:101340000A72394640310A760A740A7239462031E7
:101350000A760A740A72394608390A703946103911
:101360000A70394618390A70394620390A703946E8
:1013700028390A70394630390A70394638390A70C6
:10138000394640390A70394648390A703946503969
:101390000A70394658390A70394660390A70394638
:1013A00068390A70394670390A70394678390A70D6
:1013B0007919803F3A70203E0F461946B4D107464E
:1013C000863780267A5400997A543A553A763A7498
:1013D0003A723A70394660310A760A740A723946AE
:1013E00040310A760A740A72394620310A760A7444
:1013F0000A72394608390A70394610390A70394676
:1014000018390A70394620390A70394628390A7065
:10141000394630390A70394638390A703946403908
:101420000A70394648390A70394650390A703946C7
:1014300058390A70394660390A70394668390A7075
:10144000394670390A70394678390A707919803FFF
:101450003A70203E0F461946B4D17F308026374679
:101460008255425400994254025502760274027227
:101470000270014660310A760A740A7201464031F0
:101480000A760A740A72014620310A760A740A72D0
:10149000014608390A70014610390A7001461839A8
:1014A0000A70014620390A70014628390A7001463F
:1014B00030390A70014638390A70014640390A70DD
:1014C000014648390A70014650390A7001465839B8
:1014D0000A70014660390A70014668390A7001468F
:1014E00070390A70411978380270203F0846194651
:1014F000B6D100F0F3FA01B0F0BD0000F0B581B054
:10150000AE200024214600F0AFFD2046214600F029
:10151000ABFD1020214600F0A7FD402528462146BE
:1015200000F0A2FD8120214600F09EFDCF20214643
:1015300000F09AFDA120214600F096FDC82021462A
:1015400000F092FDA6200090214600F08DFDA8201D
:10155000214600F089FD3F20214600F085FDD32083
:10156000214600F081FD2046214600F07DFDD5207A
:10157000214600F079FD80273846214600F074FDB1
:10158000D920214600F070FDF120214600F06CFDCD
:10159000DA20214600F068FD1220214600F064FDAB
:1015A000DB20214600F060FD2846214600F05CFD6E
:1015B00020263046214600F057FD0220214600F04B
:1015C00053FD8D20214600F04FFD1420214600F0F0
:1015D0004BFDA420214600F047FD0098214600F075
:1015E00043FD02480346803302E0C0464900202004
:1015F00060215C545C559C551C761C741C721C70DC
:101600001A4660321476147414721A4640321476F4
:10161000147414721A4620321476147414721A4612
:10162000083A14701A46103A14701A46183A147090
:101630001A46203A14701A46283A14701A46303A5C
:1016400014701A46383A14701A46403A14701A4602
:10165000483A14701A46503A14701A46583A1470A0
:101660001A46603A14701A46683A14701A46703A6C
:1016700014701A46783A14701A46803A147001228F
:1016800012029B18203FB3D1074681378023009672
:101690007C547C55009EBC553C763C743C723C703E
:1016A0002E463D4660352C762C742C723D464035D6
:1016B0002C762C742C723D4620352C762C742C7292
:1016C0003D46083D2C703D46103D2C703D46183D72
:1016D0002C703D46203D2C703D46283D2C703D46EB
:1016E000303D2C703D46383D2C703D46403D2C70C1
:1016F0003D46483D2C703D46503D2C703D46583D82
:101700002C703D46603D2C703D46683D2C703D463A
:10171000703D2C703D46783D2C70BD18803F3C706C
:10172000203B2F463546B3D10746823780237C5471
:101730007C55009D7C553C763C743C723C703D462B
:1017400060352C762C742C723D4640352C762C74EA
:101750002C723D4620352C762C742C723D46083D6B
:101760002C703D46103D2C703D46183D2C703D467A
:10177000203D2C703D46283D2C703D46303D2C7060
:101780003D46383D2C703D46403D2C703D46483D21
:101790002C703D46503D2C703D46583D2C703D46CA
:1017A000603D2C703D46683D2C703D46703D2C7070
:1017B0003D46783D2C70BD18803F3C70203B2F4645
:1017C0003546B4D10746833780237C547C55009D31
:1017D0007C553C763C743C723C703D4660352C76C2
:1017E0002C742C723D4640352C762C742C723D4660
:1017F00020352C762C742C723D46083D2C703D46CD
:10180000103D2C703D46183D2C703D46203D2C70FF
:101810003D46283D2C703D46303D2C703D46383DC0
:101820002C703D46403D2C703D46483D2C703D4659
:10183000503D2C703D46583D2C703D46603D2C700F
:101840003D46683D2C703D46703D2C703D46783DD0
:101850002C70BD18803F3C70203B2F463546B4D1DC
:101860000746843780237C547C55009D7C553C760C
:101870003C743C723C703D4660352C762C742C7266
:101880003D4640352C762C742C723D4620352C7606
:101890002C742C723D46083D2C703D46103D2C703A
:1018A0003D46183D2C703D46203D2C703D46283D60
:1018B0002C703D46303D2C703D46383D2C703D46E9
:1018C000403D2C703D46483D2C703D46503D2C70AF
:1018D0003D46583D2C703D46603D2C703D46683D70
:1018E0002C703D46703D2C703D46783D2C70BD18E7
:1018F000803F3C70203B2F463546B4D107468537A4
:1019000080237C547C55009D7C553C763C743C7215
:101910003C703D4660352C762C742C723D4640352B
:101920002C762C742C723D4620352C762C742C721F
:101930003D46083D2C703D46103D2C703D46183DFF
:101940002C703D46203D2C703D46283D2C703D4678
:10195000303D2C703D46383D2C703D46403D2C704E
:101960003D46483D2C703D46503D2C703D46583D0F
:101970002C703D46603D2C703D46683D2C703D46C8
:10198000703D2C703D46783D2C70BD18803F3C70FA
:10199000203B2F463546B4D10746863780237C54FA
:1019A0007C55009D7C553C763C743C723C703D46B9
:1019B00060352C762C742C723D4640352C762C7478
:1019C0002C723D4620352C762C742C723D46083DF9
:1019D0002C703D46103D2C703D46183D2C703D4608
:1019E000203D2C703D46283D2C703D46303D2C70EE
:1019F0003D46383D2C703D46403D2C703D46483DAF
:101A00002C703D46503D2C703D46583D2C703D4657
:101A1000603D2C703D46683D2C703D46703D2C70FD
:101A20003D46783D2C70BD18803F3C70203B2F46D2
:101A30003546B4D17F3080231F46C45444544455A6
:101A4000009D4455047604740472047005466035A4
:101A50002C762C742C72054640352C762C742C7206
:101A6000054620352C762C742C720546083D2C70CA
:101A70000546103D2C700546183D2C700546203D4E
:101A80002C700546283D2C700546303D2C700546CF
:101A9000383D2C700546403D2C700546483D2C7065
:101AA0000546503D2C700546583D2C700546603D5E
:101AB0002C700546683D2C700546703D2C708518CD
:101AC00078380470203F28463546B6D100F006F835
:101AD000AF20002100F0C8FA01B0F0BDF0B585B02C
:101AE0000020D44F02905038C0B20024214600F0AC
:101AF000BBFA2046214600F0B7FA1020214600F03C
:101B0000B3FA022531480560012606600A24204602
:101B100000F0B4FE2D480561204600F0AFFE2B48D2
:101B20000661204600F0AAFE782000F073FC2748EA
:101B30000560204600F0A2FE24480660204600F022
:101B40009DFE22480661204600F098FE402000F0ED
:101B500061FC04951D480560204600F08FFE1B487F
:101B600006600546204600F089FE03962E61204659
:101B700000F084FE80260197387800F04BFC134972
:101B8000049808600A24204600F078FE039D0F4860
:101B90000560204600F072FE0C480561204600F00A
:101BA0006DFE761E0837002EE6D1084C049D256197
:101BB000039820600A2000F061FE2560019F7F1CD1
:101BC0000298401C08288DD105B0F0BD90120A4043
:101BD000F0B58BB00A9103900620082B04460AD07A
:101BE0005C07D908002C00D0491C5C084C43E4B2C7
:101BF000002C00D113E1109F203AD1B2009148434C
:101C000088490A18580801900025039E02930897F6
:101C100009E00646079C049A069D641E521C6D1C32
:101C2000002C00D1FBE0082B104615D0182B09D052
:101C3000102B0CD00C2B00D0F1E00C200099484365
:101C40007B4907E0242000994843774902E0009847
:101C500000017649081840190990069504920794E6
:101C600007230A9A10461840012529468140059607
:101C7000F0B2C0006F4C2018D2B2D408065D3246D4
:101C80000A438E43002F114600D03146002F00D06A
:101C900016460022099FBA560992D20700D0314653
:101CA00001550A99491CCAB219402F468F40D408E1
:101CB000065D31463943BE43089F002F0A4600D0D7
:101CC0003246002F00D00E460999890700D53246CA
:101CD00002550A99891CCAB219402F468F40D40870
:101CE000065D31463943BE43089F002F0A4600D0A7
:101CF0003246002F00D00E460999490700D53246DA
:101D000002550A99C91CCAB219402F468F40D408FF
:101D1000065D31463943BE43089F002F0A4600D076
:101D20003246002F00D00E460999090700D53246E9
:101D300002550A99091DCAB219402F468F40D4088E
:101D4000065D31463943BE43089F002F0A4600D046
:101D50003246002F00D00E460999C90600D53246FA
:101D600002550A99491DCAB219402F468F40D4081E
:101D7000065D31463943BE43089F002F0A4600D016
:101D80003246002F00D00E460999890600D532460A
:101D900002550A99891DCAB219402F468F40D408AE
:101DA000065D31463943BE43089F002F0A4600D0E6
:101DB0003246002F00D00E460999490600D532461A
:101DC00002550A99C91D0B409D40C9B2CC08025D5D
:101DD0001146A9431543002F0A4600D02A46002F7A
:101DE000029B059E00D00D460999002900D42A4681
:101DF0000255701C082B00D10BE7C1B2039A891A57
:101E0000019A9142079C02D10A9A08320A92049AD6
:101E1000019DA942039E00D1FEE60646FCE60BB0FA
:101E2000F0BDC046603B0000EC470000FC410000F4
:101E3000883D000049002020F0B589B006AC07C4F9
:101E4000012A52DB1C46002B4FD00E98410805900A
:101E5000082800D1891C02910F980490671E6042E7
:101E60000390A01E019000257E4E0FE00A4602431B
:101E700002992846484306994018C0B20799059B25
:101E8000FFF7A6FE7F1E6D1CA5422ED0E8430399E6
:101E9000884201D101211BE0032100190840019A69
:101EA000521B032A01D2012105E03A468A4301214F
:101EB0007143121FFCD100280AD0012801D10A2049
:101EC00005E0022802D07D20C00000E064204143EC
:101ED0000898FEF714FC0A21FEF711FC0498009004
:101EE00030200029C2D10246C2E709B0F0BDC04689
:101EF000F0B58BB01C46119D109E0692002A0891E9
:101F0000079009950A9654D4002C00D1A8E00A98AD
:101F10004108082800D1891C0591671E6042039082
:101F2000A01E02907D20C000019000264D4D04941B
:101F300011E00A4602430899079B3046059C60431E
:101F4000C018C0B20A9BFFF743FE7F1E761C049C9C
:101F5000A64200D184E0F0430399884201D10121D7
:101F60001AE0032100190840029A921B032A01D2A9
:101F7000012105E03A468A4301216943121FFCD141
:101F8000002809D0012801D10A2004E0022801D04C
:101F9000019800E0642041430698FEF7B0FB0A2157
:101FA000FEF7ADFB0998009030200029C1D1024610
:101FB000C1E700952D223346FFF70AFE7008082E70
:101FC00000D1801C0590002C4AD006984042069013
:101FD000661E60420490A01E03907D20C000029007
:101FE0000025204F0EE00A4602430899079B0598FA
:101FF0006D1C6843C018C0B20A9BFFF7E9FD761E4E
:10200000A5422DD0E8430499884201D101211AE06C
:10201000032100190840039A521B032A01D201210F
:1020200005E032468A4301217943121FFCD1002882
:1020300009D0012801D10A2004E0022801D0029829
:1020400000E0642041430698FEF759FB0A21FEF7A1
:1020500056FB0998009030200029C4D10246C4E7FD
:102060000BB0F0BD10270000F0B583B001910290D5
:10207000244F02263E6001253D600A24204600F0E0
:10208000FDFB3E61204600F0F9FB3D61204600F07B
:10209000F5FB782000F0BEF93E60204600F0EEFB34
:1020A0003D60204600F0EAFB3D61204600F0E6FB83
:1020B0000199481E8141880100F0ACF93E6020463C
:1020C00000F0DCFB3D60204600F0D8FB3D6120467F
:1020D00000F0D4FB029800F09DF93E60204600F02D
:1020E000CDFB3D60204600F0C9FB3D61204600F07D
:1020F000C5FB3E613D60204600F0C0FB3E6003B082
:10210000F0BDC04690120A4070B5284A8720D064BE
:102110000121CC05264B1C60106508061860254C73
:10212000822020652449481C606524486063244D52
:102130006566812616605660966096612566E5653F
:10214000A165A664D160116151615163266066602A
:10215000A16191649163D1621A46303A194C1460BE
:102160001C60194A1368194C1C4314601369184CFD
:102170001C431461174A136A174C234313621368F4
:10218000234313608139154A13680B431360BF3032
:102190001169014311612320C00411490A6A0243F5
:1021A0000A620A6802430A6070BDC04688804240E5
:1021B000D0120A40048042408100040081000100E6
:1021C000810006008371040090130A401000004053
:1021D0000510000028100A400480430090330A4094
:1021E00028300A4070B582B0E24C19492046FEF70B
:1021F000C7FD18492046FEF7CDFC00250095204676
:1022000029462A462B46FEF7A7FD204629462A46A0
:10221000FEF794FD104920462A46FEF7A9FD012647
:102220000096204629462A462B46FEF795FD204675
:1022300029463246FEF782FD084920463246FEF71F
:1022400097FD074886600321016002B070BDC0465B
:10225000485500004C550000CF07000088130000CF
:1022600000B186400C48002101600C480146083945
:102270000A6803239A430A600168012291430160BE
:10228000110202688A430260FF20000204490A68C2
:1022900082430A607047C04608030B4008010B40A8
:1022A00000E400E00548042101601F214160002195
:1022B0008160016805220A430260704710E000E077
:1022C00010B50D4C0D492046FEF75AFD0C4920462D
:1022D000FEF7C0FC0B480168012211430160FF209A
:1022E000000409490B68834303208005181808601F
:1022F0000648026010BDC0460000864054550000EC
:10230000585500002810864010E400E0081186406F
:1023100010B5194C19492046FEF764FD18492046AE
:10232000FEF73CFD0320C103164802688A430260A1
:102330000169154A0A400832026141692C220A43A8
:1023400013218A434261426801210A4043688B435A
:102350009A1842608A020D4B1C6814431C60FF22CD
:1023600012060B4B1C6894438A07A2181A60026875
:102370000A43026010BDC046008010406C5500004A
:102380006E550000009110400000FFFF28901040A3
:102390000CE400E080B500F019F8FFF7B5FEFFF798
:1023A00061FFFFF71FFFFFF78BFFFFF7B1FFFFF79D
:1023B00079FFB820034900220A54742002490A54C4
:1023C00080BDC04674052020FC042020B0B50A481A
:1023D0000A4941600A4A51600A4B59600A4C6160DF
:1023E0000A4D69600A490160116019602160296025
:1023F0001020FEF7C9FBB0BD00080A40030000B181
:1024000000280A4000A88640000886400088104046
:1024100001000026F0B581B0044640B2544E0028B9
:1024200002D40220306101E0022030600A252846F3
:1024300000F024FA01273760284600F01FFA3761C0
:10244000600602D40220306101E0022030600A25DB
:10245000284600F013FA3760284600F00FFA37617B
:10246000A00602D40220306101E0022030600A257B
:10247000284600F003FA3760284600F0FFF937617C
:10248000E00602D40220306101E0022030600A251B
:10249000284600F0F3F93760284600F0EFF937617D
:1024A000200702D40220306101E0022030600A25BA
:1024B000284600F0E3F93760284600F0DFF937617D
:1024C000600702D40220306101E0022030600A255A
:1024D000284600F0D3F93760284600F0CFF937617D
:1024E000A00702D40220306101E0022030600A25FA
:1024F000284600F0C3F93760284600F0BFF937617D
:10250000E00702D10220306101E0022030600A249D
:10251000204600F0B3F93760204600F0AFF937618C
:1025200001B0F0BDF0B581B00C460146012738037B
:102530007A030F4E012902DB3060326102E0326023
:10254000306149420B4D00222846FEF711FCB803CA
:10255000B904012C02DB3060316102E0316030618E
:102560006442012228462146FEF702FC01B0F0BD7C
:1025700090120A4000A08640F0B589B05248006829
:10258000000600D19DE05149086800270F605049BE
:102590000D680F604F494D600B464F4A1178491C3A
:1025A00011704E4A1178491C11704D4A1178491C1E
:1025B000117044421C606848806AFEF770F8089009
:1025C00007912046FEF730F804460E462846FEF7EF
:1025D0002BF802460B464348059004974248039067
:1025E0004248029007980190089800902046314692
:1025F00000F066F9374DA868FEF738F8296800F052
:10260000ADF83B4908600120C407A8686040FEF7A8
:102610002DF8696800F0D6F8364908600A200146AE
:10262000FFF780FF2C49087802281DD10F704A4817
:102630008269314831493B46FEF757FA0546304E2C
:102640003146FDF787FF002801D1654000E02D4DA0
:1026500028463146FDF770FF002800D135461D4859
:102660008560322000F07AF91C490878032821D1CE
:102670000F707B20C100B84A505851184968FEF7C6
:1026800022F803463448826A1B481F49FEF7DEF9E8
:1026900004461E4D2946FDF74FFF002800D1254670
:1026A0001B4C28462146FDF747FF002800D1254650
:1026B000084885600A490878042802D10F70FEF79F
:1026C000DDFB09B0F0BDC046201086403800202058
:1026D0003C002020E4042020F8042020F9042020DD
:1026E000FA04202000002740E17A743F7B14AE47B3
:1026F000CC042020D00420208C0A20202000202080
:1027000000007A4400007AC4100020200000C8C2F3
:102710000000C84210B50C480068C0B20B2812D1A6
:102720000A484168CAB20260094C2078094A11542B
:10273000401C2070C0B22C2805D10648064900F084
:10274000EDFA0020207010BD209010402091104024
:10275000A00620207406202034062020B0B5451A9B
:10276000164801680560681AFDF753FF04462846BD
:10277000FDF74FFF01462C480068FDF70EFD0546AA
:102780002A4800682146FDF708FD2946FDF7ACFC04
:1027900004460B4D2868FDF73CFF01462046FDF737
:1027A000A3FCFDF763FF2860E1210901884202DCF8
:1027B0002049884201DA29600846B0BDD8042020AB
:1027C000D4042020B0B5451A164801680560681A7F
:1027D000FDF71FFF04462846FDF71BFF0146124880
:1027E0000068FDF7DAFC0546104800682146FDF751
:1027F000D4FC2946FDF778FC04460D4D2868FDF70A
:1028000008FF01462046FDF76FFCFDF72FFF28600B
:10281000E1210901884202DC0649884201DA296087
:102820000846B0BDE00420200C0020200800202035
:10283000DC042020F0F1FFFFB0B57D210902414307
:102840001E480368262206E0E41A051F2D68641955
:10285000A2188A4210D21C4603689C4208D1036821
:102860009C4205D103689C4202D103689C42F3D08C
:102870009C42E9D9E41AEBE7B0BDC046B0B50F49B8
:102880000B684001262206E0E41A0D1F2D6864192A
:10289000A218824210D21C460B689C4208D10B68D9
:1028A0009C4205D10B689C4202D10B689C42F3D03C
:1028B0009C42E9D9E41AEBE7B0BDC04618E000E05D
:1028C000F0B583B0FDF7A6FC0026224B3246FDF79B
:1028D00053FD04460D4608980999864A874BFDF733
:1028E0004BFDDF4B3246FDF7AFFD06460F460A9A19
:1028F0000B9B20462946FDF73FFD044602900D46FE
:1029000001913046394600F089FF02460B462046C9
:102910002946FDF731FD00900D463046394600F05E
:10292000C9FF06460F46714C0CCC00982946083C5E
:10293000FDF770FC03C40298019932463B46083CFF
:10294000FDF71AFDA268E368FDF764FCA060E16092
:1029500003B0F0BD0000E03FA8062020F0B587B02E
:10296000604E3178012927D0002900D0B7E06549B1
:102970000A78012A0ED100220A7061490A78531C94
:102980000B701101594A511838CA126808461030A4
:1029900038C0CA6154490A78012A00D09FE0544ADD
:1029A0000123137000220A7050490A604A608A604D
:1029B000CA60337007B0F0BD05904B490878012814
:1029C0000DD14B4A0120107000240C7047490C6057
:1029D0004C608C60CC6006942246234605E0434858
:1029E0001CC8006806904248007800013F490F1853
:1029F00038697969FDF7B2FC06460D46B869F96990
:102A00002246069BFDF7AAFC07460C4632462B469B
:102A100000F036FE01900691384621463A4623469C
:102A2000FDF7AAFC04460F463046294632462B469F
:102A3000FDF7A2FC22463B46FDF7ECFB00F088FFC9
:102A400003913D210A0104902849029288500025F3
:102A5000019F3846069C21462A462B46FDF796FDE7
:102A60000646244A244B384621461446FDF7D2FB3D
:102A7000002E00D13846002E00D10699784B2A4608
:102A8000FDF77AFC1D4B2246FDF7DEFC7B22D200CF
:102A9000164B985002981818039D4560981841608D
:102AA0000598FDF7D5FD02460B46049C20462946B5
:102AB000FDF782FD002812D1002220462946134648
:102AC000FDF790FD00280AD10D480078421C084807
:102AD0000178491CCBB29A4200D10121017007B0A4
:102AE000F0BDC046880A202040002020A8062020F3
:102AF00031002020282D4454FB211940FB2109409E
:102B0000300020204200202082B0FFF743FC204804
:102B10000168012421430160E0031E49086002228C
:102B20000A60A3040B601C4908600A600B60FEF792
:102B3000E5FCFEF763FA0C250095019400270426B6
:102B400038463946154A3346FFF776F90095019421
:102B50000A213846124A3346FFF7CAF90095019414
:102B6000142138460D4A3346FFF766F910200090CD
:102B700001941E2138460A4A3346FFF7B9F9FEF799
:102B8000ADFF6420FFF758FEFEF732FAD3E7C046E8
:102B900004B8864080E200E000E100E0B8220000D6
:102BA000F6E5FFFFF0B581B00C4605460078697880
:102BB0000918A8780A18E97852182B79D2186B7975
:102BC000D218AB79D218EB79D2182B7AD2186B7A4B
:102BD000D218D2B2AB7A9A423ED10902081800B29A
:102BE000FDF722FD3F221706002632463B46FDF741
:102BF000C3FB1B4B3246FDF7BFFBFDF764FD2060B6
:102C0000287969790902081800B2FDF70DFD3246EE
:102C10003B46FDF7B1FB3246114BFDF7ADFBFDF72F
:102C200052FD6060A879E9790902081800B2FDF741
:102C3000FBFC32463B46FDF79FFB3246084BFDF757
:102C40009BFBFDF740FDA060287A697A090208180D
:102C5000E060012001B0F0BD002001B0F0BDC04631
:102C600000806640F0B581B00C4605460078697872
:102C70000918A8780A18E97852182B79D2186B79B4
:102C8000D218AB79D218EB79D2182B7AD2186B7A8A
:102C9000D218D2B2AB7A9A423AD10902081800B2DD
:102CA000FDF7C2FC3F221706002632463B46FDF7E1
:102CB00063FB194B3246FDF75FFBFDF704FD206017
:102CC000287969790902081800B2FDF7ADFC32468F
:102CD0003B46FDF751FB32460F4BFDF74DFBFDF731
:102CE000F2FC6060A879E979E6600902081800B290
:102CF000FDF79AFC32463B46FDF73EFB3246064B5B
:102D0000FDF73AFBFDF7DFFCA060012001B0F0BD4C
:102D1000002001B0F0BDC04600409F40B0B50C4659
:102D200005460B301031FFF79DFF002808D01635FF
:102D3000203428462146FFF735FF411E8841B0BDAB
:102D40000020B0BD2021020C01D010211046020A43
:102D500001D010460839020901D01046091F820827
:102D600001D01046891E420801D0881E7047081AFB
:102D70007047F0B4040C8BB2264682B25E430D0C51
:102D80001046370C58433604801900217941164605
:102D90006E43370C36048019794126466E438919F3
:102DA000F0BC70474900CA020243100000D0042062
:102DB0004A0D01D001221043044A490D914201D12C
:102DC00002210843012800D105207047FF070000B9
:102DD000F7B596B014460021A160D160179909910A
:102DE0004D00CD496D088D4205DC1799616020606A
:102DF000002019B0F0BDC949C94E8D4238DAD32739
:102E000009997F050029C74A1799334617DDFDF751
:102E1000A5FAB54206D0C44AC44BFDF79FFA6160DB
:102E2000206009E03A46C14BFDF798FAC04AC14B11
:102E3000FDF794FA61602060012019B0F0BDFDF744
:102E4000E9F9B54206D0B84AB84BFDF7E3F961603D
:102E5000206009E03A46B54BFDF7DCF9B44AB54BC2
:102E6000FDF7D8F9616020600020C04319B0F0BDC3
:102E7000B1498D42179977DC490049080746AF4AA6
:102E8000AF4B0491FDF778FA0022AE4BFDF7C2F983
:102E9000FDF7B8FD0A90FDF7C7FBA24A3346039140
:102EA0000290FDF769FA3A46049BFDF75DFA064683
:102EB0000F469D4A9D4B03990298FDF75DFA2A0D36
:102EC00001250C9232463B46FDF74EFA61602060C8
:102ED000032D39D04800410D0C98401A690169183A
:102EE0001139814230DA98492801794408960D90C9
:102EF000081804974368026803990298FDF73CFAA2
:102F000002460B460791069004990898FDF726FAA9
:102F100006460F46049B089AFDF726FA079B069A79
:102F2000FDF71CFA05918949049079440D984018E1
:102F3000C368826803990298FDF71EFA059B049AFC
:102F4000FDF70CFA6D1CBDE70998002809DA01228B
:102F50006068D207504060600A9819B04042F0BDE6
:102F600002E00A9819B0F0BD09030122090B12050D
:102F70000E9089181798109140007549400D40181F
:102F80004111C006C00E0D9113902021081A149013
:102F90000020069005250790139800280D980CD066
:102FA000401982006B487844875813998F40101855
:102FB00041681498C1400F4304E0401981006648FD
:102FC0007844475810993846FFF7D3FE06460A91D1
:102FD00038460E99FFF7CDFE8A190A9B8A4201D224
:102FE000012100E00021C9188C46AF00694679181C
:102FF0008B684E68C318834201D2012000E0002094
:1030000096193618002802D0964202D903E096425B
:1030100001D2012000E00020624612184E6068468E
:103020008B60C25128466D1E0028B5DC0121029834
:1030300049074018800F1390029805998000039E5D
:10304000049D0B91FDF7F0FA074630460891FDF715
:10305000FFFA1D22D243FDF7BEFC10900F912846C7
:10306000FDF7F6FA3D22D243FDF7B5FC0E900D9127
:103070000B98FDF7EDFA5D22D243FDF7ACFC0B9106
:103080000C900D9B0E9AFDF7C5F80F9B109AFDF75B
:10309000C1F83A46089BFDF7BDF800250E463A46B2
:1030A0002846089BFDF75AF90F9B109AFDF756F931
:1030B0000D9B0E9AFDF752F90B9B0C9AFDF754F9F4
:1030C000264A274BFDF758F907460D91254A264B0E
:1030D00031462846FDF750F93A460D9BFDF79AF820
:1030E0000F4615220C9092061D4B31462846FDF7DF
:1030F00043F93B460C9AFDF78DF8179A002A05DA3A
:10310000139A524213920122D2075140616020600B
:10311000139819B0F0BD0000FB21E93F7CD90240B3
:10312000FB21F93F000040543163621A61B4D03D85
:103130007370032E8A19A33BFB21394183C8C96DE3
:10314000305FE43F0000E03F7A0B00003A0B0000E4
:103150000BFCFFFFEE0A0000D40A0000182D4454B7
:10316000FB21F93D3326A611460B113CF0B51FB4E7
:103170004E00F9207608800584B00F46864204DAB6
:103180000498FDF73FFC002838D0049A3B461046CF
:103190001946FDF7F1F8044602462C480D460B4649
:1031A0000621784400F05CF822462B46FDF7E4F84F
:1031B000019100903946079B069A0498FDF7DCF8C8
:1031C0000746029120462946019B009AFDF7D4F854
:1031D0003A46029BFDF7C2F8074600220091D2430F
:1031E00020462946FDF7F7FB194A96420ADA3A4685
:1031F000009BFDF7B3F80022164B23E00020154991
:1032000009B0F0BD144A964202DD0024134D03E0DC
:1032100001225205B51A002422462B46FDF79EF8DE
:103220000646019122462B4600200A49FDF796F8F2
:103230000D4604463A463046009B0199FDF78EF84C
:1032400022462B46FDF790F809B0F0BD8A08000031
:103250003333D33F0000F03F0000E93F0000D23F8E
:10326000F8B504464F1EC8000838211815461E46FA
:10327000086849683A4606239A4310D02A463346DE
:10328000FDF77AF83A46D200083AA3181A687F1E6A
:103290005B68FCF7BFFF06223B469343EED1022F4B
:1032A00023D0042F11D0062F2FD12A463346FDF705
:1032B00063F8E36AA26AFCF7ADFF2A463346FDF7DE
:1032C0005BF8636A226AFCF7A5FF2A463346FDF7DE
:1032D00053F8E369A269FCF79DFF2A463346FDF7E0
:1032E0004BF863692269FCF795FF2A463346FDF7E0
:1032F00043F8E368A268FCF78DFF2A463346FDF7E2
:103300003BF863682268FCF785FFF8BDF0B51FB491
:10331000054648000C46F9214008890586B08842D8
:103320000BDA28462146FFF73DFD042801D100F0C5
:1033300075F8284621460BB0F0BD2A4623461046B4
:103340001946FDF719F806460F462A462346FDF7AB
:1033500013F800902548019132463B4605217844F8
:10336000FFF77EFF029010980391002829D0204A91
:10337000204B01990098FCF7FFFF049005916846E7
:103380000FC8FCF7F9FF002201910090D243099980
:103390000898FDF720FB019B009AFCF7DFFF3246FF
:1033A0003B46FCF7E9FF099B089AFCF7D7FF059B12
:1033B000049AFCF7D3FF2A462346FCF7D5FF0BB04F
:1033C000F0BD0B4630463946029AFCF7D5FF084A55
:1033D000084BFCF71FFF019B009AFCF7CDFF2A4624
:1033E0002346FCF717FF0BB0F0BD0000D607000026
:1033F000495555555555C5BF10B50122FDF7EBFA96
:1034000010BD10B5FCF706FF10BD002210B5134625
:1034100010461146FDF718F810BD0000034A10B51C
:1034200000201107FDF7D7FA10BD000001FDFFFFD6
:1034300002E008C8121F08C1002AFAD17047000034
:103440007047000000000000002001E001C1121FD1
:10345000002AFBD170470000014908607047000056
:1034600004002020F0B589B004460D4648000691BE
:1034700072494008884215DB7149884203DC884262
:1034800007D1002C05D020462946FFF7B5FF09B02B
:10349000F0BD6C48002D02DD6B4909B0F0BD6B49F1
:1034A00009B0F0BD6A49884211DA6A4988420BDAEC
:1034B00020462946FFF776FC042801D1FFF7AEFF2E
:1034C0002046294609B0F0BD0026F6435DE06D00B8
:1034D00061496D08884232DA6049884219DA00266B
:1034E000012332469B0720462946FCF793FE0746F8
:1034F0000191012220462946FDF76DFA0022584B22
:10350000FCF72CFF3A46019BFCF79EFF04460D4654
:103510003BE001260022524B20462946FCF77AFE6A
:103520000746009100224E4B20462946FCF716FF25
:103530003A46009BFCF788FF04460D4625E04949C2
:10354000884219DA02260022474B20462946FCF71A
:1035500013FF0022424BFCF75DFE0746029100225A
:10356000414B20462946FCF7F9FE3A46029BFCF700
:103570006BFF04460D4608E0032622462B4600203A
:103580003A49FCF761FF04460D4622462B46104699
:103590001946FCF7F1FE07460B4602460191FCF77F
:1035A000EBFE0246029032480B4603910621784416
:1035B000FFF756FE3A46019BFCF7DEFE00902D48D1
:1035C000019105217844039B029AFFF749FE039B72
:1035D000029AFCF7D1FE02460B4601990098002E94
:1035E0000BDAFCF717FE22462B46FCF7C5FE2246F7
:1035F0002B46FCF7B9FE09B0F0BDFCF70BFE2246E6
:103600002B46FCF7B9FE1C4AF6007A4493191A6857
:103610005B68FCF7A3FE22462B46FCF79FFE174A89
:103620007A4493191A685B68FCF79EFE069A002A92
:10363000E1DA0122D207514009B0F0BD0000104488
:103640000000F07F182D4454FB21F93FFB21F9BF06
:103650000000DC3F0000203E0000F33F0000E63F9A
:103660000000F03F008003400000F83F0000F0BF82
:103670004E04000010040000AA03000074030000C0
:10368000F0B51FB4039A029D53006E422E43944638
:10369000F40F5B084A00574E52081C438E46B44252
:1036A00005D847420743FC0F1443B44205D92A46C4
:1036B0006346FFF7A6FE05B0F0BD4F4E66442E43AD
:1036C0000AD0CC0F6646B61702273E402643044672
:1036D0004A4F144304D00BE0FFF7C4FE05B0F0BD21
:1036E000002EFBD0012EF9D0022E32D0032E34D082
:1036F0001C462C430BD03F4CA34216D1A2420AD108
:10370000012189078B438A43114603930DE07046DC
:1037100000280FDB25E03A4D7D44002E0ED0012E0F
:1037200010D0022E15D0032E17D0A2421DD1704604
:10373000002816DA3148334905B0F0BD69682868B9
:1037400005B0F0BD01226968D2072868514005B074
:10375000F0BD38462C4905B0F0BD38462B4905B0C0
:10376000F0BD26482A4905B0F0BDD21A12153C2AF0
:1037700002DD224D264C12E06346002B05DA3C2385
:10378000DA4202DA00252C4609E0039B029AFCF794
:103790005BFE49004908FFF765FE05460C46002E12
:1037A00012D0012E0DD01B4A1B4B022E284621465B
:1037B00018D0FCF7D3FD3A46134BFCF7CFFD05B00C
:1037C000F0BD0120C0074440002213462846214690
:1037D000FDF7C8F802D10220FFF73EFE2846214639
:1037E00005B0F0BDFCF7BAFD3A46074BFCF7BCFD4F
:1037F00005B0F0BD0000F07F000010C0182D44544B
:1038000044030000FB21F9BFFB210940FB2109C053
:10381000FB21F93F075C143326A6A13C00B54A0002
:10382000224B520887B09A4202DC0022134625E060
:103830001F4B9A4208D1002808D10120FFF70CFE47
:10384000FFF7E3FD07B000BD9A4203DBFFF7D4FDAD
:1038500007B000BD02AAFFF7BBFA8107890F0BD0A2
:10386000012001290ED0022916D0009002A80FC80D
:10387000FFF74CFD07B000BD02A80FC8FFF776FCAC
:1038800007B000BD009002A80FC8FFF73FFD01225E
:10389000D207514007B000BD02A80FC8FFF766FC71
:1038A0000122D207514007B000BD0000FB21E93FD3
:1038B0000000F07F00B54A00234B520887B09A42BF
:1038C00003DC00221346009229E0204B9A4208D1E3
:1038D000002808D10120FFF7BFFDFFF796FD07B0D4
:1038E00000BD9A4203DBFFF787FD07B000BD02AAC7
:1038F000FFF76EFA8107890F012000290CD00129FA
:1039000011D0022915D002A80FC8FFF72FFC012201
:10391000D207514007B000BD009002A80FC8FFF7C2
:10392000F5FC07B000BD02A80FC8FFF71FFC07B0E9
:1039300000BD009002A80FC8FFF7E8FC0122D207E3
:10394000514007B000BD0000FB21E93F0000F07FBF
:10395000F8B506460C46FCF7B4FF051E0F4600D02E
:103960000120014349000B484908411AC90F0DD0F5
:10397000002E01D0012100E000210C436100490824
:10398000401AC00F02D10120FFF766FD28463946D4
:10399000F8BD00000000F07F4FBB610567ACDD3F64
:1039A000182D4454FB21E93F9BF681D20B73EF3F66
:1039B000182D4454FB21F93FE2652F227F2B7A3CDE
:1039C000075C143326A6813CBDCBF07A8807703C97
:1039D000075C143326A6913CC4EB98999999C9BF0A
:1039E000711623FEC671BCBF6D9A74AFF2B0B3BF3F
:1039F0009AFDDE522DDEADBF2F6C6A2C44B4A2BFFF
:103A00000D5555555555D53FFF8300922449C23F6A
:103A10006E204CC5CD45B73F513DD0A0660DB13F9E
:103A2000EB0D76244B7BA93F11DA22E33AAD903FB0
:103A30004C5555555555A53F7751C1166CC156BFCC
:103A40009015CB19A001FA3EAD529C804F7E92BEDC
:103A5000C4B1B4BD9EEE213ED43888BEE9FAA8BDFB
:103A6000000000000000000000004054FB21F93F6E
:103A70003163621A61B4D03D0000601A61B4D03D78
:103A80007370032E8A19A33B0000002E8A19A33BF2
:103A9000C14920259A837B39000000000000000006
:103AA0006E83F9A22915444ED15727FCC0DD34F5A9
:103AB000999562DB4190433CAB6351FE61C5BBDE2F
:103AC0003A6E24B7E0D24D42EA2E49061C92D10943
:103AD0001CEB1DFE3EA729B1F53582E88444BB2EC0
:103AE00026709CE9417E5FB439D69139F43953830D
:103AF0008B5F849C3B28F9BDFF97F81F0F9805DE6C
:103B00008B112FEF1F6D0A5ACF7E366DB709CB2769
:103B1000663F464F2DEA5F9EC7BA27757BF1E5EBFE
:103B2000F739073DEA92528AB15FFB6B085D8D1F42
:103B30004630035600000000A6F810111111813F15
:103B4000D561C119A0012ABF7DFEB157E31DC73E53
:103B5000EB9C2B8AE6E55ABE7CD5CF5A3AD9E53D97
:103B60000000000000000000002F0000000007001F
:103B7000070000147F147F1400242A7F2A12006299
:103B80006408132300364955225000000503000045
:103B900000001C224100000041221C000014083ECD
:103BA00008140008083E0808000000A06000000893
:103BB00008080808000060600000002010080402E7
:103BC000003E5149453E0000427F400000426151A5
:103BD0004946002141454B31001814127F1000273F
:103BE00045454539003C4A49493000017109050302
:103BF00000364949493600064949291E0000363633
:103C00000000000056360000000814224100001495
:103C10001414141400004122140800020151090672
:103C200000324959513E007C1211127C007F4949F3
:103C30004936003E41414122007F4141221C007F24
:103C400049494941007F09090901003E4149497A32
:103C5000007F0808087F0000417F410000204041AC
:103C60003F01007F08142241007F40404040007F18
:103C7000020C027F007F0408107F003E4141413E5C
:103C8000007F09090906003E4151215E007F0919A4
:103C900029460046494949310001017F0101003FA1
:103CA0004040403F001F2040201F003F4038403F21
:103CB0000063140814630007087008070061514985
:103CC000454300007F41410000552A552A55000018
:103CD00041417F0000040201020400404040404096
:103CE000000001020400002054545478007F48442E
:103CF000443800384444442000384444487F003865
:103D00005454541800087E0901020018A4A4A47C8D
:103D1000007F080404780000447D40000040808457
:103D20007D00007F102844000000417F4000007C9F
:103D300004180478007C08040478003844444438AB
:103D400000FC242424180018242418FC007C0804F7
:103D5000040800485454542000043F444020003CD0
:103D60004040207C001C2040201C003C4030403C57
:103D7000004428102844001CA0A0A07C00446454E7
:103D80004C4414141414141400000000000000002B
:103D9000000000000000FC00000000000200000025
:103DA000000C020C020000000000000090D0BCD00B
:103DB000BC900003000300001824FE448C000302A2
:103DC000070201001824D8B04C8000030001020152
:103DD000C038E438E00001020201020208060000D7
:103DE0000000000000000000000000F804020000D5
:103DF00000010204000204F80000000402010000B7
:103E00009060F86090000000010000002020FC207D
:103E10002000000001000000000000000000080673
:103E200000000000202020202000000000000000F2
:103E30000000000000000002000000000080601C84
:103E40000200040300000000F8040404F80001026A
:103E5000020201000008FC00000000020302000052
:103E600018844424180003020202020008042424D7
:103E7000D80001020202010040B088FC800000006E
:103E8000000302003C242424C400010202020100B9
:103E9000F824242CC0000102020201000C04E41CDE
:103EA0000400000003000000D8242424D8000102EC
:103EB0000202010038444444F800000302020100F9
:103EC00000001000000000000200000000002000C0
:103ED00000000000060000000020508804020000DE
:103EE00000000102909090909000000000000000FF
:103EF0000002048850200002010000001804C424BD
:103F00001800000002000000F804E494F800010228
:103F10000202020000E09CF08000020300000302A5
:103F200004FC2424D800020302020100F804040463
:103F30000C0001020202010004FC0404F800020368
:103F40000202010004FC24740C00020302020300BC
:103F500004FC24740C00020302000000F008044476
:103F6000CC4000010202010004FC2020FC040203FA
:103F7000000003020404FC04040002020302020025
:103F8000000404FC040406040403000004FC24D020
:103F90000C0402030200030204FC040000000203FC
:103FA00002020203FC3CC03CFC00030003000300CF
:103FB00004FC30C4FC04020302000300F8040404FF
:103FC000F80001020202010004FC2424180002038C
:103FD00002000000F8848404F800010202070500D2
:103FE00004FC246498000203020003021824244401
:103FF0008C000302020201000C04FC040C0000020D
:104000000302000004FC0000FC04000102020100A5
:10401000047C80E01C040000030000001CE03CE085
:104020001C00000300030000049C609C04000203C9
:1040300000030200041CE01C040000020302000054
:104040000C84641C04000203020203000000FE0250
:104050000200000007040400000E30C00000000051
:1040600000010200000202FE00000004040700003C
:104070000004020400000000000000000000000036
:1040800000000808080808080000020000000000FE
:10409000000000000040A0A0C000000102020302D6
:1040A00004FC2020C00000030202010000C0202008
:1040B000600000010202020000C02024FC00000198
:1040C0000202030200C0A0A0C00000010202020020
:1040D0000020F82424040002030202000040A0A0F3
:1040E000602000070A0A0A0404FC2020C000020322
:1040F000020003020020E4000000000203020000AE
:10410000000020E4000008080807000004FC80E02C
:1041100020200203020003020404FC00000002024B
:1041200003020200E020E020C000030003000300BF
:1041300020E02020C00002030200030200C0202073
:10414000C00000010202010020E02020C000080F92
:104150000A02010000C02020E0000001020A0F084E
:1041600020E0402020000203020000000060A0A028
:1041700020000002020203000020F82000000000DE
:104180000102020020E00020E00000010202030220
:1041900020E0208060200000030100006080E080BB
:1041A0006000000300030000206080602000020324
:1041B0000003020020E020806020080807010000C2
:1041C0000020A0602000000203020200000020DEA8
:1041D0000200000000070400000000FF00000000D3
:1041E000000F00000002DE200000000407000000B5
:1041F00002010204040200000000000000000000B0
:10420000000000000000000000000000000000F8B6
:1042100000000000000000333000000000100C0619
:10422000100C0600000000000000000040C07840B4
:10423000C0784000043F04043F040400007088FC80
:1042400008300000001820FF211E0000F008F000D8
:10425000E018000000211C031E211E0000F0088849
:10426000700000001E2123241927211010160E00B3
:10427000000000000000000000000000000000E05E
:104280001804020000000007182040000002041873
:10429000E00000000040201807000000404080F0CF
:1042A000804040000202010F01020200000000F005
:1042B000000000000101011F0101010000000000D9
:1042C0000000000080B0700000000000000000004E
:1042D00000000000000101010101010100000000D7
:1042E000000000000030300000000000000000006E
:1042F00080601804006018060100000000E010084B
:104300000810E000000F102020100F00001010F81F
:10431000000000000020203F20200000007008085E
:1043200008887000003028242221300000300888DE
:10433000884830000018202020110E000000C02006
:1043400010F8000000070424243F240000F8088827
:10435000880808000019212020110E0000E01088B4
:1043600088180000000F112020110E0000380808E6
:10437000C83808000000003F0000000000708808F6
:1043800008887000001C222121221C0000E0100877
:104390000810E0000000312222110F00000000C0D0
:1043A000C00000000000003030000000000000806D
:1043B000000000000000806000000000000080405D
:1043C0002010080000010204081020004040404076
:1043D00040404000040404040404040000081020C9
:1043E000408000000020100804020100007048080E
:1043F0000808F0000000003036010000C030C82876
:10440000E810E0000718272423140B000000C03830
:10441000E0000000203C23020227382008F88888AA
:1044200088700000203F202020110E00C0300808B6
:1044300008083800071820202010080008F808088D
:104440000810E000203F202020100F0008F8888886
:10445000E8081000203F20202320180008F8888852
:10446000E8081000203F200003000000C0300808CA
:104470000838000007182020221E020008F8080053
:104480000008F808203F210101213F20000808F81A
:10449000080800000020203F20200000000008083D
:1044A000F8080800C08080807F00000008F888C0FD
:1044B00028180800203F20012638200008F80800AE
:1044C00000000000203F20202020300008F8F800E5
:1044D000F8F80800203F003F003F200008F830C0F7
:1044E0000008F808203F200007183F00E0100808E7
:1044F0000810E0000F10202020100F0008F8080816
:104500000808F000203F210101010000E010080828
:104510000810E0000F18242438504F0008F888884D
:1045200088887000203F2000030C3020007088082D
:10453000080838000038202121221C00180808F83B
:10454000080818000000203F2000000008F80800BC
:104550000008F808001F202020201F00087888008D
:1045600000C83808000007380E010000F80800F8FD
:104570000008F800033C0700073C030008186880A7
:104580008068180820302C03032C30200838C8001D
:10459000C83808000000203F20000000100808086C
:1045A000C83808002038262120201800000000FE0E
:1045B000020202000000007F40404000000C30C0BA
:1045C00000000000000000010638C00000020202E6
:1045D000FE000000004040407F0000000000040298
:1045E00002020400000000000000000000000000C3
:1045F00000000000808080808080808000020204B3
:1046000000000000000000000000000000008080AA
:10461000808000000019242222223F2008F8008018
:1046200080000000003F112020110E0000000080DB
:1046300080800000000E112020201100000000806A
:104640008088F800000E112020103F20000080809C
:1046500080800000001F222222221300008080F0B0
:10466000888888180020203F2020000000008080DB
:1046700080808000006B94949493600008F8008020
:1046800080800000203F210000203F20008098987B
:10469000000000000020203F2020000000000080DB
:1046A0009898000000C08080807F000008F800001B
:1046B00080808000203F24022D302000000808F870
:1046C000000000000020203F20200000808080802B
:1046D00080808000203F20003F20003F80800080BD
:1046E00080800000203F210000203F2000008080CB
:1046F00080800000001F202020201F00808000807C
:104700008000000080FFA12020110E00000000802A
:1047100080808000000E112020A0FF80808080001B
:104720008080800020203F21200001000000808048
:10473000808080000033242424241900008080E03D
:10474000808000000000001F20200000808000000A
:1047500000808000001F202020103F2080808000EB
:104760000080808000010E300806010080800080FB
:10477000008080800F300C030C300F000080800020
:10478000808080000020312E0E312000808080004B
:104790000080808080818E701806010000808080FB
:1047A000808080000021302C222130000000000099
:1047B000807C020200000000003F4040000000003A
:1047C000FF00000000000000FF0000000002027C6B
:1047D000800000000040403F000000000006010192
:1047E00002020404000000000000000000000000BD
:1047F00000000000000000000000000000000000B9
:1048000000000000000000000000000000000000A8
:104810000000000000F0F0F00000000000000000C8
:1048200000017F010000000000000000001C1C1CB3
:104830000000000000008060301C8C60301C0C0008
:104840000000000000000000000000000000000068
:104850000000000000000000000000E00000000078
:1048600000E000000086E69F86868686E69F86003A
:1048700000011F01010101011F010100000080C0B2
:104880006020F820E0C00000000003070C18FF7053
:10489000E18100000000070F10107F100F070000DB
:1048A0008060206080000000E02000000F30203099
:1048B0009F70DC371030C0000000100E0300071896
:1048C000101807000000C02020E0C0000000000019
:1048D00080E01F38E88703C43C040000070F18106D
:1048E000100B070D1010080000808C4C38000000E1
:1048F00000000000000000000000000000000000B8
:1049000000000000000000000000000000000000A7
:10491000000080E0300804000000000000FEFF01FD
:1049200000000000000000000000030F18204000FD
:1049300000040830E08000000000000000000000DB
:1049400001FFFE0000000000004020180F030000DF
:1049500000000000000000000000C0000000000097
:10496000004266663C18FF183C6666420000000084
:1049700000000300000000000000000000008000B4
:1049800000000000001010101010FF101010101088
:104990000000000000000300000000000000000014
:1049A0000000000000000000000000000000000007
:1049B0000000000000808C4C380000000000000067
:1049C00000000000000000000000000000101010B7
:1049D0001010101010101000000000000000000067
:1049E00000000000000000000000000000000000C7
:1049F00000000000000000000000000000001C1C7F
:104A00001C0000000000000000000000000000008A
:104A1000E0380C000000000080701C030000000063
:104A20000060380E0100000000000000000080C09F
:104A300060202060C080000000FEFF010000000038
:104A400001FFFE000001070E181010180E070100EC
:104A50000000808080C0E000000000000000000036
:104A600000FFFF000000000000001010101F1F10CA
:104A7000101000000080402020202060C080000036
:104A800000030300804020381F070000001C1A1993
:104A900018181818181F00000080C020202060C0BF
:104AA00080000000000303001010182FE7800000B2
:104AB00000070F10101010180F0700000000000072
:104AC0000000C0E0F000000000C0B088868180FFD8
:104AD000FF808000000000000010101F1F10100059
:104AE0000000E060606060606060000000003F10F7
:104AF00008080818F0E0000000070B101010101C48
:104B00000F030000000080C040202020E0C0000013
:104B100000FCFF211008080818F0E0000001070C55
:104B200018101010080F03000000C0E06060606003
:104B300060E06000000003000000E01807000000D3
:104B400000000000001F1F00000000000080C06087
:104B50002020202060C080000087EF2C1818303003
:104B600068CF830000070F0810101010180F0700FF
:104B70000000C0C020202020C0800000001F3F6037
:104B80004040402010FFFE0000000C1C10101008D8
:104B90000F03000000000000000000000000000003
:104BA00000000000000E0E0E0000000000000000DB
:104BB000001C1C1C000000000000000000000000A1
:104BC0000000000000000000000C0C0000000000CD
:104BD0000000000000583800000000000000000045
:104BE00000000080402010000000102844820100D6
:104BF0000000000000000000000001020408100096
:104C00000000000000000000000000000084848418
:104C100084848484848484000000000000000000F8
:104C20000000000000001020408000000000000094
:104C3000000000000000018244281000000010085D
:104C4000040201000000000000C02020101010101D
:104C500030E0C0000003030000F010080C07030060
:104C6000000000001C1C1C0000000000000000C030
:104C7000406020202040C00000FCFF01F00E03C176
:104C8000FE03807F0001070E0811111011090402B4
:104C90000000000080E0E000000000000000807CD8
:104CA0004340477FF880000010181F1000000000EC
:104CB000131F1C1020E0E02020202060C080000096
:104CC00000FFFF10101010182FE78000101F1F109A
:104CD00010101010180F0700000080C04020202086
:104CE0002060E00000FCFF01000000000000010067
:104CF0000001070E181010100804030020E0E02047
:104D000020202040C080000000FFFF0000000000C5
:104D100001FFFE00101F1F10101018080E070100E1
:104D200020E0E020202020202060800000FFFF10F5
:104D30001010107C00000000101F1F101010101029
:104D40001018060020E0E020202020206060800075
:104D500000FFFF101010107C00000100101F1F103A
:104D60000000000000000000000080C06020202043
:104D700040E0000000FCFF0100004040C0C1404096
:104D80000001070E181010100F0F000020E0E020A7
:104D90000000000020E0E02000FFFF1010101010C5
:104DA00010FFFF00101F1F1000000000101F1F1039
:104DB0000000202020E0E020202000000000000073
:104DC00000FFFF000000000000001010101F1F1067
:104DD0001010000000000000202020E0E020202033
:104DE00000000000000000FFFF0000000060E08005
:104DF0008080C07F3F00000020E0E020000020A075
:104E00006020200000FFFF30187CE3C0000000009D
:104E1000101F1F10000001131F1C181020E0E020BD
:104E2000000000000000000000FFFF000000000084
:104E300000000000101F1F101010101010180600A6
:104E400020E0E0E000000000E0E0E02000FF013FA3
:104E5000FEC0E01E01FFFF00101F1000031F030033
:104E6000101F1F1020E0E0C0000000000020E02024
:104E700000FF0003071C78E08000FF00101F1000F7
:104E800000000000030F1F00000080C060202060B1
:104E9000C080000000FEFF010000000000FFFE00D7
:104EA0000001070E181010180C07010020E0E02088
:104EB0002020202060C0800000FFFF202020202034
:104EC000301F0F00101F1F10000000000000000026
:104ED000000080C060202060C080000000FEFF0154
:104EE0000000000000FFFE000001070E1111133C3E
:104EF0007C67210020E0E0202020202060C080008E
:104F000000FFFF101030F0D0080F0700101F1F1017
:104F1000000000030F1C10100080C0602020202023
:104F20004040E00000070F0C1818303060E08100AE
:104F3000001F0C0810101010180F070080602020B0
:104F400020E0E020202060800100000000FFFF0042
:104F50000000000100000000101F1F1000000000F2
:104F600020E0E020000000000020E02000FFFF0023
:104F7000000000000000FF0000070F1810101010C4
:104F8000100807002060E0E02000000020E0602022
:104F90000000077FF88000807C0300000000000014
:104FA000071F1C070000000020E0E02000E0E020D8
:104FB0000020E0200007FFF8E01FFFFCE01F0000DA
:104FC0000000031F0300011F03000000002060E039
:104FD000A0000020E0602000000000038F7CF8C6E5
:104FE000010000000010181E130001171F18100008
:104FF0002060E0E02000000020E0602000000107C9
:105000003EF8E0180700000000000010101F1F10FD
:105010001000000000806020202020A0E0E02000A0
:1050200000000000C0F03E0F0300000000101C1F35
:1050300017101010101806000000000000FC0404F7
:10504000040404000000000000FF00000000000055
:1050500000000000007F404040404000000010E0A1
:10506000000000000000000000000000031C608041
:105070000000000000000000000000030C70800031
:1050800000000404040404FC000000000000000010
:10509000000000FF00000000000040404040407F52
:1050A0000000000000000010080C040C08100000B4
:1050B00000000000000000000000000000000000F0
:1050C00000000000000000000000000000000000E0
:1050D00000000000000000000000000000000000D0
:1050E00080808080808080808080808000000004BC
:1050F000040808000000000000000000000000009C
:10510000000000000000000000000000000000009F
:10511000000000000000000000000000000098D81F
:1051200044642424FCF80000000F1F18101010081D
:105130001F1F10180020E0F0000000000000000019
:105140000000FFFF180804040CF8F00000001F0F17
:1051500018101010180F03000000000000000000DD
:105160000000000000E0F8180404043C38000000CF
:1051700000030F0C101010100806000000000000C3
:1051800000000020E0F0000000E0F81C0404040827
:10519000FFFF000000030F18101010081F0F080079
:1051A0000000000000000000000000000000E0F827
:1051B000484444444C7870000000030F0C18101051
:1051C000100804000000000080C0602020E0C00043
:1051D00000040404FFFF0404040400000000101095
:1051E0001F1F101010000000000000000000000051
:1051F00000000000000070F88C04048CF874040CAB
:10520000007076CF8D8D8D89C87870000020E0F019
:1052100000000000000000000000FFFF080404047C
:10522000FCF8000000101F1F100000101F1F1000CE
:1052300000000000006060000000000000000404A6
:1052400004FCFC000000000000001010101F1F10E4
:10525000101000000000000000000060600000006E
:1052600000000000040404FCFC0000000000C0C0BA
:105270008080C07F3F0000000020E0F000000000C0
:10528000000000000000FFFF80C0F41C04040000C8
:1052900000101F1F1100031F1C1010000000202011
:1052A00020E0F000000000000000000000FFFF0010
:1052B0000000000000001010101F1F101010000050
:1052C00000000000000000000000000004FCFC08DA
:1052D00004FCFC0804FCFC00101F1F10001F1F1022
:1052E000001F1F1000000000000000000000000070
:1052F0000004FCFC08080404FCF8000000101F1F58
:10530000100000101F1F100000000000000000002F
:105310000000000000E0F0180C04040C18F0E0009D
:1053200000030F0C101010100C0F03000000000001
:1053300000000000000000000004FCFC080404045D
:105340000CF8F0000080FFFF889010101C0F030085
:1053500000000000000000000000000000E0F81C59
:1053600004040408F8FC000000030F1810109088D3
:10537000FFFF8000000000000000000000000000AF
:10538000040404FCFC100804040C0C001010101F92
:105390001F101010000000000000000000000000BE
:1053A0000000000000003078CCC48484840C1C0011
:1053B00000001E1810101011190F06000000000048
:1053C00000C000000000000000040404FFFF04040B
:1053D00004000000000000000F1F1010100C00005F
:1053E0000000000000000000000000000004FCFEBF
:1053F00000000004FCFE000000000F1F1810100841
:105400001F0F080000000000000000000000000066
:1054100000040C3CFCC40000C43C0C040000000070
:10542000010F1E0E0100000000000000000000003F
:1054300000000000043CFCC400E47CFC84807C048C
:105440000000071F070000071F0700000000000002
:1054500000000000000000000004041C7CE4C034D4
:105460001C0404000010101C1601131F1C1810004F
:1054700000000000000000000000000000040C3CE0
:10548000FCC400C43C0404000000C080C1370E010D
:10549000000000000000000000000000000000000C
:1054A00000001C0404C4F47C1C0400000000101C58
:1054B0001F17111010180E0000000000000000F867
:1054C0000C04000000000000001028EF00000000A5
:1054D000000000000000003F6040000000000000ED
:1054E0000000FF0000000000000000000000FF00BE
:1054F00000000000000000000000FF0000000000AD
:105500000000040CF8000000000000000000000093
:10551000EF28100000000000000040603F00000085
:1055200000000000001806020204081020203008C5
:10553000000000000000000000000000000000006B
:105540000000000000000000080700001027000015
:10555000000100000807C70002000000630000000F
:105560000100000000000000000000000800000032
:1055700018000000003000009855000000002020B6
:105580003800000030340000D055000038002020E2
:10559000A80B0000483400000100000000000000DB
:1055A0000000003F0000803F33335340A69B443B44
:1055B000000070420000803F00008C4200000000AC
:1055C00000000000000000000101000000000000D9
:04000005000000C136
:00000001FF
