:020000040000FA
:1000000018132020D5000000D9000000DB000000FC
:1000100000000000000000000000000000000000E0
:10002000000000000000000000000000DD000000F3
:100030000000000000000000DF000000E100000000
:10004000E3000000B90D0000E3000000E300000041
:10005000E3000000E3000000E3000000E300000014
:1000600000000000E3000000E300000000000000CA
:1000700000000000E3000000E3000000DD130000CA
:10008000E3000000E300000039120000E30000007C
:10009000E3000000E300000000000000000000009A
:1000A000E3000000E300000000000000000000008A
:1000B000E300000000000000E3000000E300000097
:1000C0000348854600F098FC00480047C11700002F
:1000D0001813202003480047FEE7FEE7FEE7FEE78F
:1000E000FEE7FEE7C1000000F8B502464A40D40F23
:1000F00042004B0052085B089A4202D20246084670
:1001000011464A0023D0C30D4A00DDB2120EAD1ACB
:10011000202D35DA49020126490AF6058A19002CF4
:1001200000D0524220214F1B1146B9402A411018DD
:10013000C20D9A4221D0002C17D0012D08DCDA051F
:10014000801AD20F8019D207DBB200F055FBF8BD40
:10015000DA05801A012340001B06C01880185A4295
:100160008018CA0F1043490007E04908C20711432D
:10017000DA05801A80194008801800F035FBF8BDB8
:1001800061000122511A001BF7E70122D2075140FA
:10019000AAE70122D2075040A6E7024670B54A40BE
:1001A000D30FDB0740002DD04A002AD0010E140ED9
:1001B000000212020919400A520A8418E501044695
:1001C0005443000A120A2E045043A4194219200C69
:1001D000C543AA18120C0125AD03521C5219120472
:1001E0007F39240400D0521C104301D44000491E22
:1001F000C2B20C06C0092018401C4008802A02D058
:1002000003E0002070BD40084000002900DA002013
:10021000184370BDF0B507460846584087B0C00F78
:10022000049048000E46590040084908BC1A88410D
:1002300005D2384631461E4617460B460246580040
:10024000400810434CD0300D039040055900400D3C
:10025000490D0590401A0290402872DA18030121D6
:10026000000B09050843019004980092002805D06E
:100270000199524200208841009201900298402149
:100280000A1A0199009800F07BFA05460C466B4665
:1002900007CB00F096FAC0197141039A0E0D0023A6
:1002A000D71756401A467A40164344D0049A002A7B
:1002B0002DD0029A012A039A15DC1205C01A914129
:1002C00001263605001C7141D20F059ED20700930E
:1002D000019202962A46234600F0D4FA07B0F0BDF8
:1002E00038463146FAE71605224A0F46B218C01AB8
:1002F000B74101210905001C4F4100187F411146FB
:1003000018187941E20F10436D19644113E0E207B8
:100310006D0815436408C2071443039A01261205A9
:10032000C01A91413605001C7141CE074008304388
:100330004908C01851412A46234600F096FACDE7F5
:10034000FFE7049801224000C117121A00238B41D5
:1003500004983146C417381AA141EEE730B401249D
:10036000E407634030BC55E730B40124E407614042
:1003700030BC4FE70000E0FFF0B51FB488B00B9928
:100380000998002448400999C00F4900490809917B
:10039000C0070B990090490049080B9109990898EA
:1003A000A64608431CD00B990A98084318D0099810
:1003B00001244000420D4800410D09982405000326
:1003C000000B204309900B980003000B20430B9077
:1003D00050181C494018002201901446104605E0B0
:1003E000002001460DB0F0BD032801DA034600E00D
:1003F00003239C46C11A0AAE0AE05F0008ADED5B1C
:100400004F00F75B7D430027AA187C41491C5B1E07
:100410006145F2DD410004AB5A522104120C0A433B
:10042000240C401C0828DFDB0198029000997046DC
:1004300001910090059B049A0799069800F022FA12
:10044000D0E700000DFCFFFFF0B50C465C4085B026
:10045000E40FE40703944C00002664085900944616
:10046000490802460296224321D062460A431ED022
:100470006200570D4A000E032303550D0124024666
:100480002C492405781B1B0B360B401823432643AD
:10049000614600901C46501AB44103D30098401C9A
:1004A000009002E0921800985B41002803DA0020D7
:1004B000014605B0F0BD002001210905074686462A
:1004C00011E064461D46141BB54106D36546521B18
:1004D000B341744607430C43A646CD07400849087C
:1004E000284392185B4105460D43EAD11046184354
:1004F00013D06046194650407140084306D060460C
:10050000101AB34106D20122002306E00022012383
:10051000DB0702E00122D243531000987446010524
:10052000381C6141029C039D0019694100F09DF94E
:10053000BFE70000FD0300000122D207002800DB16
:10054000101A002900DB511A814201D8012070479E
:10055000002070470122D207002800DB101A002972
:1005600000DB511A814201D2012070470020704700
:100570000122D207002800DB101A002900DB511AE3
:10058000814201D301207047002070470122D20729
:10059000002800DB101A002900DB511A814201D922
:1005A00001207047002070470122D207002800DB9D
:1005B000101A002900DB511A814201D10120704735
:1005C0000020704710B5002904DB0C460121C90743
:1005D0004042A141002B04DB1C460123DB075242B1
:1005E000A341101A8B4101D2012010BD002010BD83
:1005F00010B5002904DB0C460121C9074042A14186
:10060000002B04DB1C460123DB075242A341101AD6
:100610008B4101D3012010BD002010BD10B5002971
:1006200004DB0C460121C9074042A141002B04DB39
:100630001C460123DB075242A34142404B401A4370
:1006400001D0002010BD012010BDC217C10F5040C5
:1006500010B54018CA079623002100F0CDF810BD50
:100660000EB5C217C10F5040CA0740180021054BF4
:100670000293019200910A460B4600F003F903B081
:1006800000BD0000330400000EB5054902910021B1
:1006900000910A460B46019100F0F4F803B000BD4A
:1006A00033040000C20F410040020123400ADB0571
:1006B000D207090EC0187F2901DA00207047962959
:1006C00003DC9623591AC84001E096398840002A75
:1006D000F4D040427047000070B5CD0F4A000903C6
:1006E0000123090B1B0519430B4BED070024520D89
:1006F0009A4201DA002070BD074B34339A4203DC82
:100700009A1A00F04DF802E00449511888402C4331
:10071000F1D0404270BD0000FF030000CDFBFFFFA1
:10072000C20FD207400040080BD0C10D0723DB01E8
:10073000C91840020905400A1143C2084007114385
:100740007047002001467047CB0FDB07490010B50A
:10075000490802460A4307D00A0D07240903E401A9
:10076000090B121B002A01DC002010BDC900440F38
:100770000C43C100E018D205801800F035F810BD18
:1007800010B5202A04DB0146203A9140002010BD1C
:10079000914020239C1A0346E3401943904010BD2A
:1007A00010B5202A04DB0846203AD040002110BDB5
:1007B0000B46D340D0402024A21A9140084319464A
:1007C00010BD10B5202A06DBCB170846203A104191
:1007D000C1170B4306E00B461341D0402024A21A58
:1007E00091400843194610BD002904DA401C490015
:1007F00001D140084000704770B40024050C05D1B9
:100800001024000402D1002921D01124050E01D1A9
:1008100000020834050F01D10001241D850F01D10C
:100820008000A41C002801DB4000641C002908D0C3
:1008300020252E1B0D46F540A14000D00121294363
:10084000084301061B1B000ADB1D02D5002070BCFB
:100850007047DB05181880180029F8DA401C490099
:10086000F5D170BC40084000704710B5002B08DA85
:100870000024401C614192185B411A4301D1400899
:10088000400010BDF0B51FB482B005460C0003D087
:10089000084601F07DF802E001F07AF820300246C7
:1008A000009021462846FFF76BFF049B059A0446FB
:1008B0000F4618431143084314D0184610431BD069
:1008C000009840210A1A18460599FFF769FF054666
:1008D0000E46009A05990498FFF752FF084305D089
:1008E000012004E02046394607B0F0BD0020C117C2
:1008F00005430E432C43374300990E986305401A75
:100900007905E40A00220C43FD0A0A3002D50020D2
:100910000146E9E70105101969410C9C0D9D00197C
:100920006941FFF7A2FFDFE7FEB500231A461B1A55
:100930008A4103DB0020014603B0F0BD4A000D03ED
:1009400001212D0B0905520D0D43D10702D10018CD
:100950006D41521E5110FF31FF3101310027044615
:100960003E463846009701910246012100200905C4
:10097000FFF716FFC3197141F818324684468E46B8
:100980004A4161462846611A904104D36046241AC0
:10099000954176461F46241900986D41401C0090F1
:1009A0003428E1DDF91930467041091BA84103D212
:1009B0000022D243134601E00022134601980105AC
:1009C000381C7141FFF751FFB6E7000010B5002950
:1009D00004DB0124E40740428C412146002B04DB68
:1009E0001C460123DB075242A3418B4200D18242C5
:1009F00010BD0000000000001CB509480090094827
:100A0000019005460126009C05E0E36807CC3343CE
:100A10000C3C98471034AC42F7D3FFF755FB00006D
:100A2000E02700000028000070B54B005B0803437E
:100A30000BD04B005C0D002633466542B341D41702
:100A4000AD1AA34102DB0020014670BD120530182B
:100A5000514170BDF0B583B002910446104619466D
:100A6000FFF793FB05462060616AFFF73DFB0090AE
:100A7000606231492846FFF77BFD07462F4928462B
:100A8000FFF732FB0646002F00D12E462C49304698
:100A9000FFF752FD05462B493046FFF725FB019035
:100AA000002D00D10196002F009D05D1244930462C
:100AB000FFF76CFD002801D1019820600298C768FB
:100AC00000213846FFF770FD002812D10120C6072B
:100AD0007E4028463146FFF73DFD002800D12E46D6
:100AE00028463946FFF752FD002800D13746676295
:100AF00000E02F4602990D68486889680291616894
:100B00000091019E66603946FFF747FB0446284680
:100B10003146FFF742FB2146FFF7E6FA044630462E
:100B20000099FFF732FB01460298FFF736FB21469A
:100B3000FFF7DAFA03B0F0BD000034430000B4C39D
:100B4000000034C30000B443811E091F00BFFCD263
:100B500070470000F0B5664A8218294BC31808791F
:100B600020280DD000281DD10C68641E5460D56E5D
:100B7000244C25408835D5661646703688251DE0FC
:100B80000C68641E5460D46E1E4D2C401E4EA41979
:100B9000D466146F2C40A4191467012465071B4CFC
:100BA00016460BE00C6864085460D66E154C26405F
:100BB0000525ED017619D66616467036376827404A
:100BC0002F433760D46A4C4D2C40D462146B2C40B8
:100BD00014630024D46414658F24E443D56F254046
:100BE000D5671D6825401D6049790143BD20084037
:100BF0001168074B0B40C018801C1060F0BDC04648
:100C00008418000024F93FF001040000FFFFFFCF2B
:100C10004000FFCFB0B5364A80184A6842600A7873
:100C2000222A57D8930001A4E3589F46CB0C00001A
:100C3000D50C0000CB0C0000D50C0000D50C00003A
:100C4000D50C0000D50C0000D50C0000D50C000020
:100C5000D50C0000D50C0000D50C0000D50C000010
:100C6000D50C0000D50C0000D50C0000B90C00001C
:100C7000D50C0000B90C0000D50C0000D50C00000C
:100C8000D50C0000D50C0000D50C0000D50C0000E0
:100C9000D50C0000D50C0000D50C0000D50C0000D0
:100CA000D50C0000D50C0000D50C0000B90C0000DC
:100CB000D50C0000B90C000003231B0704689C43FB
:100CC00001235B07E318036004E003231B070468A8
:100CD0009C4304600B69C360CB68064C1C40C36A2C
:100CE000054D1D402B19C362097A11430160B0BD47
:100CF00004180000777702008888FDFF10B50723ED
:100D00009B04194092008018024A84589C43611841
:100D1000815010BD3018000010B5029CA4000019CD
:100D200011431943014A815010BDC04650180000BC
:100D300092008018014A81507047C0461018000088
:100D400010B50122120383180C789C604B788350F5
:100D50008978014A815010BD0C110000B0B51122F4
:100D6000120283580124A34383508B780C881C43C0
:100D70008B882343094C1C408358094D1D402B1977
:100D800083508B79CC791C43097A21437E23194007
:100D9000801842689A4351184160B0BD186700003E
:100DA000E798FDFF10B50122120383180C789C60B0
:100DB0004978815010BD0000F0B581B08720C20392
:100DC000344908461038046820461040324B1860F9
:100DD00001202304314B09D4E5030FD5C6031F6856
:100DE0002F4D2D68374206D06D1E05E01E682C4D34
:100DF0002D68F603F8D56D1C294E3560A50309D47E
:100E000064020FD545041E68264C24682E4206D085
:100E1000641E05E01D68234C24686D02F8D5641C2F
:100E2000204D2C600C6814430C601968490701D5EB
:100E30001D4908701968490702D41B4900220A702D
:100E400002061A490B68DB0101D5174B58700B6875
:100E5000134202D1144A0023537002050B68DB02CF
:100E600001D5114B98700B68134202D10E4A002332
:100E70009370C2040B681B0301D50B4BD870086834
:100E8000104202D108480021C17000F05BFC01B0A3
:100E9000F0BDC04648100A408C01202080130A4053
:100EA00020002020240020201003202080330A402E
:100EB0000348802101600121090201607047C0469A
:100EC000A0120A40DA4880210160034901220A7019
:100ED000110201607047C0465000202010B528481C
:100EE000862181600122130726490B608723436115
:100EF000D2070A6082220265234A531C4365234BB2
:100F00004363234B81241C605C609C609C6184640F
:100F1000DA601A615A615A630460446082619A64BB
:100F20009A63DA628265C2650266426608463038B4
:100F3000184A02600A6018480168184A0A430260A9
:100F40000169174A0A4302611648016A164A1143A9
:100F50000162016811430160FF20000313490A6820
:100F600002430A600869124A02430A611148016A91
:100F7000114A1143016201681143016010BDC0466E
:100F800004804240D0120A40810004008100010028
:100F9000888042408371040090130A403000004072
:100FA0000510000028100A400480430090330A40D6
:100FB000C003030028300A40C003180170B582B096
:100FC0009C4C19492046FFF7BBFE18492046FFF705
:100FD000C1FD00250095204629462A462B46FFF7ED
:100FE0009BFE204629462A46FFF788FE20462946D2
:100FF0002A46FFF79DFE01260096204629462A46EE
:101000002B46FFF789FE204629463246FFF776FE3B
:10101000204629463246FFF78BFE054886600321AD
:10102000016002B070BDC046B0270000B4270000C8
:1010300000B186400D48002101600D490A46083A7A
:1010400013680320834313600A6801239A430A60EC
:101050001A020B6893430B60FF210902054A1368CB
:101060008B438003181810607047C04608030B407C
:1010700008010B4000E400E00548042101601F2145
:10108000416000218160016805220A4302607047C7
:1010900010E000E010B50C4C0C492046FFF750FE64
:1010A0000B492046FFF7B6FD0A48016801221143AB
:1010B0000160FF20000408490B688343900518185D
:1010C00008600648026010BD00008640BC27000092
:1010D000C02700002810864010E400E00811864078
:1010E00010B5194C19492046FFF75CFE18492046F7
:1010F000FFF734FE0320C103164802688A430260EA
:101100000169154A0A4011320261416917220A43F6
:1011100028218A434261426801210A4043688B4387
:101120009A1842608A020D4B1C6814431C60FF220F
:1011300012060B4B1C6894438A07A2181A600268B7
:101140000A43026010BDC04600801040D427000052
:10115000D6270000009110400000FFFF28901040AB
:101160000CE400E080B500F019F8FFF7B7FEFFF7D8
:1011700061FFFFF723FFFFF78DFFFFF7B1FFFFF7D9
:101180007BFFB820034900220A54742002490A5404
:1011900080BDC046D000202058002020B0B50A48AD
:1011A0000A4941600A4A51600A4B59600A4C616021
:1011B0000A4D69600A490160116019602160296067
:1011C0001020FFF7C1FCB0BD00080A40030000B1C9
:1011D00000280A4000A88640000886400088104089
:1011E00001000026F0B581B00C4601460127380306
:1011F0007A030F4E012902DB3060326102E0326077
:10120000306149420B4D00222846FFF791FDB8039B
:10121000B904012C02DB3060316102E031603061E1
:101220006442012228462146FFF782FD01B0F0BD4D
:1012300090120A4000A08640F0B587B0544800687C
:10124000000600D1A1E0534C2078401C2070524889
:101250000178491C0170514D2878401C2870504E6F
:101260003078401C3070142000F054F920780228A7
:1012700001D1002020702878042855D10020287042
:10128000B820A3490858B8314968FFF75DFA03460A
:101290007B48826A434828304349FFF7DBFB054619
:1012A0004248C5604069FFF7D0F906902946FEF72D
:1012B0006CFF06463E4C2146FFF74CF900282746B6
:1012C00000D137463B493846FFF744F9002800D1A2
:1012D000384F3846FFF7E6F9074637480760284693
:1012E0000699FEF701FF05462146FFF733F900286E
:1012F0002B4E00D12C4620462E4D2946FFF72AF9C9
:10130000002800D12C462046FFF7CCF92B49086075
:101310002649097E002902D00020014602E07A42D7
:1013200041421046FFF75EFF3078082821D10027A0
:1013300037702348046807601C4822490A680F6018
:101340005142046041604E48806AFFF7E9F9054662
:101350000E462046FFF784F91B4A059204971B4A64
:1013600003921B4A02920196009502460B4600F03A
:101370008BF8184801780C2901D10021017016481A
:101380000178102901D10021017007B0F0BDC046DD
:1013900020108640510020205200202053002020A1
:1013A00054002020C00220200800202034002020EB
:1013B000000048C400004844280020202C002020C1
:1013C00020002020240020200000F03FE17AA43FEC
:1013D0007B14AE47550020205600202070B52348CE
:1013E0000068C0B20B2840D121494868C0B20860EB
:1013F000204D2978012909D0002916D155280FD16F
:101400001E48552101700120287070BD512807D158
:101410001A4851214170022028701749087070BD88
:10142000154800210170297070BD134E3178134AA0
:101430005054481C3070C0B22C2816D10F48104CA4
:10144000214600F093FA0021317029700120C00775
:10145000A56A6840A0622846FFF76EF8002804D10C
:1014600008482946FEF791FEA06270BD209010400A
:101470002091104030002020FC012020D0012020AD
:10148000900120200000B443F0B583B00C4605461F
:1014900008980999A54AA84BFEF76EFF0022A54BB4
:1014A000FEF7D2FF06460F460A9A0B9B28462146B6
:1014B000FEF762FF044602900D4601913046394620
:1014C00000F0D4FF02460B4620462946FEF754FFA3
:1014D00000900D463046394601F014F806460F4696
:1014E0008F4C0CCC00982946083CFEF793FE03C4B1
:1014F0000298019932463B46083CFEF73DFFA26840
:10150000E368FEF787FEA060E16003B0F0BDC0466F
:1015100000022020F0B587B0804D297800291FD027
:10152000012900D0C3E0B04A136801218B43136046
:10153000A24A1278521E032A00D9E9E07A441279AD
:101540005200974401B6BDE3754A0023754C2170E3
:10155000136053609360D3602B7073480376D7E0B9
:101560000490A1480168012211430160934800786A
:101570000128009208D0022816D16948002404608E
:1015800044608460C4600BE06548002465490A70CB
:10159000046044608460C4607D20800062494861CA
:1015A00006942246234603E05D481CC80068069066
:1015B0005C48007800015A490F1838697969FEF7CC
:1015C000CDFE06460D46B869F9692246069BFEF730
:1015D000C5FE07460C4632462B4600F079FE0590C4
:1015E0000691384621463A462346FEF7C5FE044694
:1015F0000F463046294632462B46FEF7BDFE2246B0
:10160000474C3B46FEF706FE00F0CAFF0391B021AF
:10161000029060500022059D2846069F394601929F
:101620001346FEF7CFFF06464049414B28460D467C
:1016300039462A46FEF7EEFD002E00D10598002E11
:1016400000D106999A4B019AFEF796FE3A4B2A462C
:10165000FEF7FAFEB822A0502046B030039D456048
:10166000B83461600498FFF70FF802460B46029801
:101670002946FEF7BDFF002819D1FFF723FC294BAF
:101680001878421C1A702D4800782D490978D2B27A
:101690008A4205D1002803D00098187007B0F0BD29
:1016A0008A4204D1002802D11F480099017607B070
:1016B000F0BD1B480021016041608160C16027E0EE
:1016C0001F480678701E0001154F3C182269636997
:1016D00021CF06902946083FFEF7A0FF002817D12A
:1016E000A269E369BC68F96820460591FEF796FF98
:1016F00000280DD1701C1249087030013818069965
:101700000161456184610599C16101E00B48017087
:1017100005480021416107B0F0BDC04618002020F7
:10172000000220201B00202034002020282D4454BB
:10173000FB21194000806640FB2109401403202052
:101740001A002020F0B581B00126370274021A4D2C
:101750002868400605D4FFF7B5FB2868000605D5C4
:1017600007E0FFF7A5FB2868000609D4FFF7AAFBEE
:1017700002262868384208D02868204211D013E099
:10178000FFF796FB2868384206D1FFF79BFB2868D5
:10179000204206D0032607E0FFF78AFB2868204294
:1017A00006D1FFF78FFB04260448067001B0F0BD98
:1017B000FFF77EFB0026F7E780330A401900202060
:1017C000FFF7D0FC08480168012211430160D003F3
:1017D0000649086002230B6092040A60044908600D
:1017E0000B600A60FEE7C04604B8864080E200E075
:1017F00000E100E0F0B581B00C460546007869785C
:101800000918A8780A18E97852182B79D2186B7938
:10181000D218AB79D218EB79D2182B7AD2186B7A0E
:10182000D218D2B2AB7A9A423ED10902081800B25D
:10183000FEF716FF3F221706002632463B46FEF70C
:101840009BFD1B4B3246FEF797FDFEF77DFF2060A8
:10185000287969790902081800B2FEF701FF3246BB
:101860003B46FEF789FD3246114BFEF785FDFEF73C
:101870006BFF6060A879E9790902081800B2FEF7E9
:10188000EFFE32463B46FEF777FD3246084BFEF749
:1018900073FDFEF759FFA060287A697A09020818DB
:1018A000E060012001B0F0BD002001B0F0BDC046F5
:1018B00000806640F0B581B00C4605460078697836
:1018C0000918A8780A18E97852182B79D2186B7978
:1018D000D218AB79D218EB79D2182B7AD2186B7A4E
:1018E000D218D2B2AB7A9A423AD10902081800B2A1
:1018F000FEF7B6FE3F221706002632463B46FEF7AD
:101900003BFD194B3246FEF737FDFEF71DFF206009
:10191000287969790902081800B2FEF7A1FE32465B
:101920003B46FEF729FD32460F4BFEF725FDFEF73D
:101930000BFF6060A879E979E6600902081800B237
:10194000FEF78EFE32463B46FEF716FD3246064B4C
:10195000FEF712FDFEF7F8FEA060012001B0F0BD19
:10196000002001B0F0BDC04600409F40B0B50C461D
:1019700005460B301031FFF79DFF002806D01635C5
:10198000203428462146FFF735FFB0BD0020B0BD0A
:101990002021020C01D010211046020A01D010466D
:1019A0000839020901D01046091F820801D01046EB
:1019B000891E420801D0881E7047081A7047F0B48B
:1019C000040C8BB2264682B25E430D0C1046370CD7
:1019D0005843360480190021794116466E43370C6E
:1019E00036048019794126466E438919F0BC704748
:1019F0004900CA020243100000D004204A0D01D061
:101A000001221043044A490D914201D102210843A9
:101A1000012800D105207047FF070000F7B596B0F8
:101A200014460021A160D160179909914D00CD495C
:101A30006D088D4205DC179961602060002019B0A7
:101A4000F0BDC949C94E8D4238DAD32709997F05BF
:101A50000029C74A1799334617DDFEF77FFCB542C8
:101A600006D0C44AC44BFEF779FC6160206009E0EF
:101A70003A46C14BFEF772FCC04AC14BFEF76EFC02
:101A800061602060012019B0F0BDFEF7C3FBB542D4
:101A900006D0B84AB84BFEF7BDFB6160206009E094
:101AA0003A46B54BFEF7B6FBB44AB54BFEF7B2FB70
:101AB000616020600020C04319B0F0BDB1498D4283
:101AC000179977DC490049080746AF4AAF4B0491A4
:101AD000FEF752FC0022AE4BFEF79CFBFEF7FCFD2E
:101AE0000A90FEF7BDFDA24A334603910290FEF72D
:101AF00043FC3A46049BFEF737FC06460F469D4AD8
:101B00009D4B03990298FEF737FC2A0D01250C9294
:101B100032463B46FEF728FC61602060032D39D039
:101B20004800410D0C98401A690169181139814229
:101B300030DA98492801794408960D9008180497DE
:101B40004368026803990298FEF716FC02460B46AA
:101B50000791069004990898FEF700FC06460F4688
:101B6000049B089AFEF700FC079B069AFEF7F6FB1B
:101B700005918949049079440D984018C36882689A
:101B800003990298FEF7F8FB059B049AFEF7E6FB23
:101B90006D1CBDE70998002809DA01226068D207A8
:101BA000504060600A9819B04042F0BD02E00A98C7
:101BB00019B0F0BD09030122090B12050E90891816
:101BC0001798109140007549400D40184111C0060A
:101BD000C00E0D9113902021081A14900020069039
:101BE00005250790139800280D980CD04019820005
:101BF0006B487844875813998F401018416814989F
:101C0000C1400F4304E040198100664878444758BA
:101C100010993846FFF7D3FE06460A9138460E99CA
:101C2000FFF7CDFE8A190A9B8A4201D2012100E00A
:101C30000021C9188C46AF00694679188B684E6838
:101C4000C318834201D2012000E000209619361803
:101C5000002802D0964202D903E0964201D2012028
:101C600000E00020624612184E6068468B60C25148
:101C700028466D1E0028B5DC01210298490740184E
:101C8000800F1390029805998000039E049D0B918C
:101C9000FEF7E6FC074630460891FEF7F5FC1D22EC
:101CA000D243FEF7C1FE10900F912846FEF7ECFCE0
:101CB0003D22D243FEF7B8FE0E900D910B98FEF731
:101CC000E3FC5D22D243FEF7AFFE0B910C900D9B1F
:101CD0000E9AFEF79FFA0F9B109AFEF79BFA3A4670
:101CE000089BFEF797FA00250E463A462846089BC1
:101CF000FEF734FB0F9B109AFEF730FB0D9B0E9AFC
:101D0000FEF72CFB0B9B0C9AFEF72EFB264A274B6B
:101D1000FEF732FB07460D91254A264B31462846F1
:101D2000FEF72AFB3A460D9BFEF774FA0F46152282
:101D30000C9092061D4B31462846FEF71DFB3B4694
:101D40000C9AFEF767FA179A002A05DA139A52429C
:101D500013920122D207514061602060139819B09C
:101D6000F0BD0000FB21E93F7CD90240FB21F93F97
:101D7000000040543163621A61B4D03D7370032E89
:101D80008A19A33BFB21394183C8C96D305FE43F09
:101D90000000E03F7E0B00003E0B00000BFCFFFF4D
:101DA000F20A0000D80A0000182D4454FB21F93D26
:101DB0003326A611460B113CF0B51FB44E00F92096
:101DC0007608800584B00F46864204DA0498FEF750
:101DD00083FC002838D0049A3B4610461946FEF78B
:101DE000CBFA044602462C480D460B4606217844A1
:101DF00000F05CF822462B46FEF7BEFA01910090F7
:101E00003946079B069A0498FEF7B6FA07460291F0
:101E100020462946019B009AFEF7AEFA3A46029BFD
:101E2000FEF79CFA074600220091D243204629463D
:101E3000FEF7FAFD194A96420ADA3A46009BFEF787
:101E40008DFA0022164B23E00020154909B0F0BDA1
:101E5000144A964202DD0024134D03E0012252058C
:101E6000B51A002422462B46FEF778FA0646019161
:101E700022462B4600200A49FEF770FA0D4604461A
:101E80003A463046009B0199FEF768FA22462B46F7
:101E9000FEF76AFA09B0F0BD8E0800003333D33F75
:101EA0000000F03F0000E93F0000D23FF8B50446D3
:101EB0004F1EC8000838211815461E460868496894
:101EC0003A4606239A4310D02A463346FEF754FA80
:101ED0003A46D200083AA3181A687F1E5B68FEF7DC
:101EE00099F906223B469343EED1022F23D0042FCB
:101EF00011D0062F2FD12A463346FEF73DFAE36A6A
:101F0000A26AFEF787F92A463346FEF735FA636A76
:101F1000226AFEF77FF92A463346FEF72DFAE36977
:101F2000A269FEF777F92A463346FEF725FA636978
:101F30002269FEF76FF92A463346FEF71DFAE36879
:101F4000A268FEF767F92A463346FEF715FA63687A
:101F50002268FEF75FF9F8BDF0B51FB405464800EA
:101F60000C46F9214008890586B088420BDA2846DC
:101F70002146FFF73DFD042801D100F075F8284601
:101F800021460BB0F0BD2A46234610461946FEF7FF
:101F9000F3F906460F462A462346FEF7EDF9009070
:101FA0002548019132463B4605217844FFF77EFFE4
:101FB000029010980391002829D0204A204B0199C3
:101FC0000098FEF7D9F90490059168460FC8FEF70E
:101FD000D3F9002201910090D24309990898FEF7A5
:101FE00023FD019B009AFEF7B9F932463B46FEF706
:101FF000C3F9099B089AFEF7B1F9059B049AFEF70D
:10200000ADF92A462346FEF7AFF90BB0F0BD0B46FB
:1020100030463946029AFEF7AFF9084A084BFEF7F8
:10202000F9F8019B009AFEF7A7F92A462346FEF726
:10203000F1F80BB0F0BD0000DA0700004955555526
:102040005555C5BF10B50122FEF7EEFC10BD10B509
:10205000FEF7E0F810BD002210B5134610461146F9
:10206000FEF7F2F910BD0000034A10B50020110779
:10207000FEF7DAFC10BD000001FDFFFF00000000CC
:1020800002E008C8121F08C1002AFAD170470000F8
:102090007047000000000000002001E001C1121F95
:1020A000002AFBD17047000001490860704700001A
:1020B00004002020F0B589B004460D464800069182
:1020C00072494008884215DB7149884203DC884226
:1020D00007D1002C05D020462946FFF7B3FF09B0F1
:1020E000F0BD6C48002D02DD6B4909B0F0BD6B49B5
:1020F00009B0F0BD6A49884211DA6A4988420BDAB0
:1021000020462946FFF774FC042801D1FFF7ACFFF5
:102110002046294609B0F0BD0026F6435DE06D007B
:1021200061496D08884232DA6049884219DA00262E
:10213000012332469B0720462946FEF76BF80746E7
:102140000191012220462946FEF76EFC0022584BE1
:10215000FEF704F93A46019BFEF776F904460D4670
:102160003BE001260022524B20462946FEF752F85A
:102170000746009100224E4B20462946FEF7EEF816
:102180003A46009BFEF760F904460D4625E04949B2
:10219000884219DA02260022474B20462946FEF7DC
:1021A000EBF80022424BFEF735F807460291002279
:1021B000414B20462946FEF7D1F83A46029BFEF7EE
:1021C00043F904460D4608E0032622462B4600202C
:1021D0003A49FEF739F904460D4622462B46104689
:1021E0001946FEF7C9F807460B4602460191FEF76D
:1021F000C3F80246029032480B4603910621784408
:10220000FFF754FE3A46019BFEF7B6F800902D48C2
:10221000019105217844039B029AFFF747FE039B37
:10222000029AFEF7A9F802460B4601990098002E83
:102230000BDAFDF7EFFF22462B46FEF79DF822460C
:102240002B46FEF791F809B0F0BDFDF7E3FF2246FB
:102250002B46FEF791F81C4AF6007A4493191A6847
:102260005B68FEF77BF822462B46FEF777F8174AA5
:102270007A4493191A685B68FEF776F8069A002A82
:10228000E1DA0122D207514009B0F0BD000010444C
:102290000000F07F182D4454FB21F93FFB21F9BFCA
:1022A0000000DC3F0000203E0000F33F0000E63F5E
:1022B0000000F03F008003400000F83F0000F0BF46
:1022C0004E04000010040000AA0300007403000084
:1022D000F0B51FB4039A029D53006E422E439446FC
:1022E000F40F5B084A00574E52081C438E46B44216
:1022F00005D847420743FC0F1443B44205D92A4688
:102300006346FFF7A4FE05B0F0BD4F4E66442E4372
:102310000AD0CC0F6646B61702273E402643044635
:102320004A4F144304D00BE0FFF7C4FE05B0F0BDE4
:10233000002EFBD0012EF9D0022E32D0032E34D045
:102340001C462C430BD03F4CA34216D1A2420AD1CB
:10235000012189078B438A43114603930DE07046A0
:1023600000280FDB25E03A4D7D44002E0ED0012ED3
:1023700010D0022E15D0032E17D0A2421DD17046C8
:10238000002816DA3148334905B0F0BD696828687D
:1023900005B0F0BD01226968D2072868514005B038
:1023A000F0BD38462C4905B0F0BD38462B4905B084
:1023B000F0BD26482A4905B0F0BDD21A12153C2AB4
:1023C00002DD224D264C12E06346002B05DA3C2349
:1023D000DA4202DA00252C4609E0039B029AFEF756
:1023E00033F849004908FFF765FE05460C46002E04
:1023F00012D0012E0DD01B4A1B4B022E284621461F
:1024000018D0FDF7ABFF3A46134BFDF7A7FF05B019
:10241000F0BD0120C0074440002213462846214653
:10242000FEF7D4FA02D10220FFF73EFE28462146ED
:1024300005B0F0BDFDF792FF3A46074BFDF794FF5C
:1024400005B0F0BD0000F07F000010C0182D44540E
:1024500044030000FB21F9BFFB210940FB2109C017
:10246000FB21F93F075C143326A6A13C00B54A00C6
:10247000224B520887B09A4202DC0022134625E024
:102480001F4B9A4208D1002808D10120FFF70CFE0B
:10249000FFF7E1FD07B000BD9A4203DBFFF7D2FD75
:1024A00007B000BD02AAFFF7B9FA8107890F0BD068
:1024B000012001290ED0022916D0009002A80FC8D1
:1024C000FFF74AFD07B000BD02A80FC8FFF774FC74
:1024D00007B000BD009002A80FC8FFF73DFD012224
:1024E000D207514007B000BD02A80FC8FFF764FC37
:1024F0000122D207514007B000BD0000FB21E93F97
:102500000000F07F00B54A00234B520887B09A4282
:1025100003DC00221346009229E0204B9A4208D1A6
:10252000002808D10120FFF7BFFDFFF794FD07B099
:1025300000BD9A4203DBFFF785FD07B000BD02AA8C
:10254000FFF76CFA8107890F012000290CD00129BF
:1025500011D0022915D002A80FC8FFF72DFC0122C7
:10256000D207514007B000BD009002A80FC8FFF786
:10257000F3FC07B000BD02A80FC8FFF71DFC07B0B1
:1025800000BD009002A80FC8FFF7E6FC0122D207A9
:10259000514007B000BD0000FB21E93F0000F07F83
:1025A000F8B506460C46FEF7BFF9051E0F4600D0EB
:1025B0000120014349000B484908411AC90F0DD0B9
:1025C000002E01D0012100E000210C4361004908E8
:1025D000401AC00F02D10120FFF766FD2846394698
:1025E000F8BD00000000F07F4FBB610567ACDD3F28
:1025F000182D4454FB21E93F9BF681D20B73EF3F2A
:10260000182D4454FB21F93FE2652F227F2B7A3CA1
:10261000075C143326A6813CBDCBF07A8807703C5A
:10262000075C143326A6913CC4EB98999999C9BFCD
:10263000711623FEC671BCBF6D9A74AFF2B0B3BF02
:102640009AFDDE522DDEADBF2F6C6A2C44B4A2BFC2
:102650000D5555555555D53FFF8300922449C23F2E
:102660006E204CC5CD45B73F513DD0A0660DB13F62
:10267000EB0D76244B7BA93F11DA22E33AAD903F74
:102680004C5555555555A53F7751C1166CC156BF90
:102690009015CB19A001FA3EAD529C804F7E92BEA0
:1026A000C4B1B4BD9EEE213ED43888BEE9FAA8BDBF
:1026B000000000000000000000004054FB21F93F32
:1026C0003163621A61B4D03D0000601A61B4D03D3C
:1026D0007370032E8A19A33B0000002E8A19A33BB6
:1026E000C14920259A837B390000000000000000CA
:1026F0006E83F9A22915444ED15727FCC0DD34F56D
:10270000999562DB4190433CAB6351FE61C5BBDEF2
:102710003A6E24B7E0D24D42EA2E49061C92D10906
:102720001CEB1DFE3EA729B1F53582E88444BB2E83
:1027300026709CE9417E5FB439D69139F4395383D0
:102740008B5F849C3B28F9BDFF97F81F0F9805DE2F
:102750008B112FEF1F6D0A5ACF7E366DB709CB272D
:10276000663F464F2DEA5F9EC7BA27757BF1E5EBC2
:10277000F739073DEA92528AB15FFB6B085D8D1F06
:102780004630035600000000A6F810111111813FD9
:10279000D561C119A0012ABF7DFEB157E31DC73E17
:1027A000EB9C2B8AE6E55ABE7CD5CF5A3AD9E53D5B
:1027B00008070000E8030000200100000807C70028
:1027C00002000000630000000100000000000000A3
:1027D00000000000080000001800000000300000A9
:1027E00000280000000020202000000080200000C1
:1027F0002028000020002020F8120000982000006F
:102800000100000000000000000080400000000007
:1028100000000000000000000105010100000000B0
:04000005000000C136
:00000001FF
