:020000040000FA
:10000000E01A2020D5000000D9000000DB0000002D
:1000100000000000000000000000000000000000E0
:10002000000000000000000000000000DD000000F3
:100030000000000000000000DF000000E100000000
:10004000E3000000010E0000E3000000E3000000F8
:10005000E3000000E3000000E3000000E300000014
:1000600000000000E3000000E300000000000000CA
:1000700000000000E3000000E30000006129000030
:10008000E3000000E3000000C5270000E3000000DB
:10009000E3000000E300000000000000000000009A
:1000A000E3000000E300000000000000000000008A
:1000B000E300000000000000E3000000E300000097
:1000C0000348854600F064FC00480047112D0000FD
:1000D000E01A202003480047FEE7FEE7FEE7FEE7C0
:1000E000FEE7FEE7C1000000F8B502464A40D40F23
:1000F00042004B0052085B089A4202D20246084670
:1001000011464A0023D0C30D4A00DDB2120EAD1ACB
:10011000202D35DA49020126490AF6058A19002CF4
:1001200000D0524220214F1B1146B9402A411018DD
:10013000C20D9A4221D0002C17D0012D08DCDA051F
:10014000801AD20F8019D207DBB200F022FBF8BD73
:10015000DA05801A012340001B06C01880185A4295
:100160008018CA0F1043490007E04908C20711432D
:10017000DA05801A80194008801800F002FBF8BDEB
:1001800061000122511A001BF7E70122D2075140FA
:10019000AAE70122D2075040A6E7024670B54A40BE
:1001A000D30FDB0740002DD04A002AD0010E140ED9
:1001B000000212020919400A520A8418E501044695
:1001C0005443000A120A2E045043A4194219200C69
:1001D000C543AA18120C0125AD03521C5219120472
:1001E0007F39240400D0521C104301D44000491E22
:1001F000C2B20C06C0092018401C4008802A02D058
:1002000003E0002070BD40084000002900DA002013
:10021000184370BDF0B507460846584087B0C00F78
:10022000049048000E46590040084908BC1A88410D
:1002300005D2384631461E4617460B460246580040
:10024000400810434CD0300D039040055900400D3C
:10025000490D0590401A0290402872DA18030121D6
:10026000000B09050843019004980092002805D06E
:100270000199524200208841009201900298402149
:100280000A1A0199009800F059FA05460C466B4687
:1002900007CB00F063FAC0197141039A0E0D0023D9
:1002A000D71756401A467A40164344D0049A002A7B
:1002B0002DD0029A012A039A15DC1205C01A914129
:1002C00001263605001C7141D20F059ED20700930E
:1002D000019202962A46234600F0A1FA07B0F0BD2B
:1002E00038463146FAE71605224A0F46B218C01AB8
:1002F000B74101210905001C4F4100187F411146FB
:1003000018187941E20F10436D19644113E0E207B8
:100310006D0815436408C2071443039A01261205A9
:10032000C01A91413605001C7141CE074008304388
:100330004908C01851412A46234600F063FACDE728
:10034000FFE7049801224000C117121A00238B41D5
:1003500004983146C417381AA141EEE730B401249D
:10036000E407634030BC55E730B40124E407614042
:1003700030BC4FE70000E0FFF0B51FB488B00B9928
:100380000998002448400999C00F4900490809917B
:10039000C0070B990090490049080B9109990898EA
:1003A000A64608431CD00B990A98084318D0099810
:1003B00001244000420D4800410D09982405000326
:1003C000000B204309900B980003000B20430B9077
:1003D00050181C494018002201901446104605E0B0
:1003E000002001460DB0F0BD032801DA034600E00D
:1003F00003239C46C11A0AAE0AE05F0008ADED5B1C
:100400004F00F75B7D430027AA187C41491C5B1E07
:100410006145F2DD410004AB5A522104120C0A433B
:10042000240C401C0828DFDB0198029000997046DC
:1004300001910090059B049A0799069800F0EFF946
:10044000D0E700000DFCFFFFF0B50C465C4085B026
:10045000E40FE40703944C00002664085900944616
:10046000490802460296224321D062460A431ED022
:100470006200570D4A000E032303550D0124024666
:100480002C492405781B1B0B360B401823432643AD
:10049000614600901C46501AB44103D30098401C9A
:1004A000009002E0921800985B41002803DA0020D7
:1004B000014605B0F0BD002001210905074686462A
:1004C00011E064461D46141BB54106D36546521B18
:1004D000B341744607430C43A646CD07400849087C
:1004E000284392185B4105460D43EAD11046184354
:1004F00013D06046194650407140084306D060460C
:10050000101AB34106D20122002306E00022012383
:10051000DB0702E00122D243531000987446010524
:10052000381C6141029C039D0019694100F06AF981
:10053000BFE70000FD0300000122D207002800DB16
:10054000101A002900DB511A814201D201207047A4
:10055000002070470122D207002800DB101A002972
:1005600000DB511A814201D90120704700207047F9
:100570000122D207002800DB101A002900DB511AE3
:10058000814201D1012070470020704710B5002939
:1005900004DB0C460121C9074042A141002B04DBCA
:1005A0001C460123DB075242A341101A8B4101D2A2
:1005B000012010BD002010BD10B5002904DB0C4641
:1005C0000121C9074042A141002B04DB1C46012345
:1005D000DB075242A341101A8B4101D3012010BD09
:1005E000002010BD10B5002904DB0C460121C9070D
:1005F0004042A141002B04DB1C460123DB07524291
:10060000A34142404B401A4301D0002010BD0120BD
:1006100010BDC217C10F504010B54018CA0796232D
:10062000002100F0B6F810BD0EB5C217C10F504042
:10063000CA0740180021054B0293019200910A4617
:100640000B4600F0ECF803B000BD000033040000DE
:100650000EB505490291002100910A460B46019111
:1006600000F0DDF803B000BD33040000C20F41000C
:1006700040020123400ADB05D207090EC0187F297A
:1006800001DA00207047962903DC9623591AC840E6
:1006900001E096398840002AF4D040427047C20FEA
:1006A000D207400040080BD0C10D0723DB01C91859
:1006B00040020905400A1143C20840071143704730
:1006C000002001467047CB0FDB07490010B54908F1
:1006D00002460A4307D00A0D07240903E401090B67
:1006E000121B002A01DC002010BDC900440F0C437E
:1006F000C100E018D205801800F043F810BD70B5B5
:100700000446002903D000202022012310E0002805
:1007100001D00020C043C046C0460DE02546D5406C
:100720008D4205D30D469540641B1D4695404019EA
:100730001546521E002DF1DC214670BD10B5202A51
:1007400004DB0146203A9140002010BD9140202357
:100750009C1A0346E3401943904010BD10B5202A6F
:1007600006DBCB170846203A1041C1170B4306E0C1
:100770000B461341D0402024A21A91400843194649
:1007800010BD002904DA401C490001D14008400096
:10079000704770B40024050C05D11024000402D168
:1007A000002921D01124050E01D100020834050FC3
:1007B00001D10001241D850F01D18000A41C002857
:1007C00001DB4000641C002908D020252E1B0D46AB
:1007D000F540A14000D001212943084301061B1B1D
:1007E000000ADB1D02D5002070BC7047DB0518181D
:1007F00080180029F8DA401C4900F5D170BC400887
:100800004000704710B5002B08DA0024401C6141FD
:1008100092185B411A4301D14008400010BDF0B569
:100820001FB482B005460C0003D0084602F08CFBD2
:1008300002E002F089FB2030024600902146284663
:10084000FFF77CFF049B059A04460F4618431143AB
:10085000084314D0184610431BD0009840210A1AB0
:100860001846059900F0ACF805460E46009A059921
:100870000498FFF763FF084305D0012004E02046F9
:10088000394607B0F0BD0020C11705430E432C4385
:10089000374300990E986305401A7905E40A00224F
:1008A0000C43FD0A0A3002D500200146E9E70105A4
:1008B000101969410C9C0D9D00196941FFF7A2FFB9
:1008C000DFE7FEB500231A461B1A8A4103DB00202E
:1008D000014603B0F0BD4A000D0301212D0B0905AF
:1008E000520D0D43D10702D100186D41521E511017
:1008F000FF31FF310131002704463E46384600975C
:100900000191024601210020090500F059F8C319A0
:100910007141F818324684468E464A41614628465F
:10092000611A904104D36046241A954176461F46C9
:10093000241900986D41401C00903428E1DDF9191C
:1009400030467041091BA84103D20022D24313460E
:1009500001E00022134601980105381C7141FFF7A0
:1009600051FFB6E710B5002904DB0124E40740423B
:100970008C412146002B04DB1C460123DB0752423D
:10098000A3418B4200D1824210BD00000000000054
:100990001CB5094800900948019005460126009CB5
:1009A00005E0E36807CC33430C3C98471034AC4275
:1009B000F7D3FFF789FB000080570000A057000025
:1009C00010B5202A04DB0846203AD040002110BD93
:1009D0000B46D340D0402024A21A91400843194628
:1009E00010BD70B54B005B0803430BD04B005C0D92
:1009F000002633466542B341D417AD1AA34102DB4A
:100A00000020014670BD12053018514170BD000034
:100A100070B5CD0F4A0009030123090B1B051943CB
:100A20000B4BED070024520D9A4201DA002070BDF5
:100A3000074B34339A4203DC9A1AFFF7C1FF02E0F6
:100A40000449511888402C43F1D0404270BD000049
:100A5000FF030000CDFBFFFFF0B583B00F46054656
:100A600010461946FFF791FB04462860696AFFF7B4
:100A70003BFB064668620197FF6800213846FFF796
:100A800077FD0028029412D10120C4077C40304633
:100A90002146FFF751FD002800D134463046394643
:100AA000FFF758FD002800D127466F6200E0374667
:100AB00001990E6848688968019169680091029CF3
:100AC0006C603946FFF769FB054630462146FFF763
:100AD00064FB2946FFF708FB054620460099FFF70F
:100AE00054FB01460198FFF758FB2946FFF7FCFA33
:100AF00003B0F0BDF0B583B00F4605461046194669
:100B0000FFF743FB04462860696AFFF7EDFA0646E3
:100B100068620197FF6800213846FFF729FD002829
:100B2000029412D10120C4077C4030462146FFF7D1
:100B300003FD002800D1344630463946FFF70AFD50
:100B4000002800D127466F6200E0374601990E6801
:100B500048688968019169680091029C6C60394617
:100B6000FFF71BFB054630462146FFF716FB2946DB
:100B7000FFF7BAFA054620460099FFF706FB014643
:100B80000198FFF70AFB2946FFF7AEFA03B0F0BD64
:100B9000811E091F00BFFCD270470000F0B5664AF5
:100BA0008218294BC318087920280DD000281DD1A0
:100BB0000C68641E5460D56E244C25408835D5667B
:100BC0001646703688251DE00C68641E5460D46E8D
:100BD0001E4D2C401E4EA419D466146F2C40A4192F
:100BE0001467012465071B4C16460BE00C6864086B
:100BF0005460D66E154C26400525ED017619D66653
:100C000016467036376827402F433760D46A4C4DFC
:100C10002C40D462146B2C4014630024D4641465FB
:100C20008F24E443D56F2540D5671D6825401D609E
:100C300049790143BD2008401168074B0B40C0189B
:100C4000801C1060F0BDC0468418000024F93FF0FD
:100C500001040000FFFFFFCF4000FFCFB0B5364AD0
:100C600080184A6842600A78222A57D8930001A463
:100C7000E3589F46130D00001D0D0000130D0000EA
:100C80001D0D00001D0D00001D0D00001D0D0000BC
:100C90001D0D00001D0D00001D0D00001D0D0000AC
:100CA0001D0D00001D0D00001D0D00001D0D00009C
:100CB0001D0D0000010D00001D0D0000010D0000C4
:100CC0001D0D00001D0D00001D0D00001D0D00007C
:100CD0001D0D00001D0D00001D0D00001D0D00006C
:100CE0001D0D00001D0D00001D0D00001D0D00005C
:100CF0001D0D0000010D00001D0D0000010D000084
:100D000003231B0704689C4301235B07E31803606C
:100D100004E003231B0704689C4304600B69C36061
:100D2000CB68064C1C40C36A054D1D402B19C3629D
:100D3000097A11430160B0BD041800007777020002
:100D40008888FDFF10B507239B0419409200801886
:100D5000024A84589C436118815010BD301800002D
:100D600010B5029CA400001911431943014A815097
:100D700010BDC0465018000092008018014A8150F2
:100D80007047C0461018000010B5012212038318E6
:100D90000C789C604B7883508978014A815010BD53
:100DA0000C110000B0B51122120283580124A34394
:100DB00083508B780C881C438B882343094C1C4040
:100DC0008358094D1D402B1983508B79CC791C43D6
:100DD000097A21437E231940801842689A435118AA
:100DE0004160B0BD18670000E798FDFF10B5012213
:100DF000120383180C789C604978815010BD000064
:100E0000F0B58720C20333490846103804682046ED
:100E10001040314B186001202304874B09D4E503AF
:100E20000FD5C6031F682D4D2D68374206D06D1EA5
:100E300005E01E68294D2D68F603F8D56D1C274E78
:100E40003560A50309D464020FD545041E68244CFF
:100E500024682E4206D0641E05E01D68204C2468DC
:100E60006D02F8D5641C1E4D2C600C6814430C6098
:100E70001968490701D51B4908701968490702D448
:100E8000184900220A7002066C490B68DB0101D583
:100E9000144B58700B68134202D1124A002353704E
:100EA00002050B68DB0201D50E4B98700B681342EC
:100EB00002D10C4A00239370C2040B681B0301D5B6
:100EC000084BD8700868104202D106480021C17052
:100ED000F0BDC04648100A403006202038002020CF
:100EE0003C002020DC0A2020B0B5524801780229BD
:100EF0001AD0012932D0002953D14F490A684F4BEB
:100F00001C680968490C04250D40210D02240C4081
:100F10005103C90F611849191A68D20C08231340EC
:100F2000C9183ED001213BE043490A68434B1C6885
:100F30000968490C04250D40240D02210C40520380
:100F4000D20FA21852191B68DB0C08241C4012197E
:100F50003B4B1A880ED014321A8022E036490A68B8
:100F6000520301D4012118E0344A13689B020BD4C8
:100F7000022112E0002404701C804B208000824279
:100F800000D801212F480BE00968090301D403218F
:100F900003E011684902C5D40421022202702A48E4
:100FA00001702948027827490978012903D1012ACB
:100FB00001D1012304E0022922D1012A20D10223F8
:100FC000234C2370002302290DD1002B0BD00223C8
:100FD000204C2370121F5342534102290DD1002B84
:100FE0000BD0022107E0141F634263410129F4D1B1
:100FF000042AF2D10121184A117000210170B0BDFC
:10100000012903D1022A01D1012304E0022908D1D8
:10101000022A06D102230D4C2370D41E6342634181
:10102000D1E7D41E634263410129CCD1032ACAD13E
:101030000123CDE7890A202080130A4080330A402B
:10104000460020204400202048002020410020208D
:101050004000202042002020430020200148802121
:101060000160704790120A40B0B502480346F83359
:10107000802401E049002020002119701A46083A16
:1010800011701A46103A11701A46183A11701A4621
:10109000203A11701A46283A11701A46303A1170E7
:1010A0001A46383A11701A46403A11701A46483AB0
:1010B00011701A46503A11701A46583A11701A4671
:1010C000603A11701A46683A11701A46703A1170F7
:1010D0001A46783A11701A46803A11701A46883AC0
:1010E00011701A46903A11701A46983A11701A46C1
:1010F000A03A11701A46A83A11701A46B03A117007
:101100001A46B83A11701A46C03A11701A46C83ACF
:1011100011701A46D03A11701A46D83A11701A4610
:10112000E03A11701A46E83A11701A46F03A117016
:101130001A46F83A1170012212029B18203C9BD1EA
:101140000446F934802321702546083D2970254640
:10115000103D29702546183D29702546203D2970EF
:101160002546283D29702546303D29702546383DC5
:1011700029702546403D29702546483D2970254661
:10118000503D29702546583D29702546603D2970FF
:101190002546683D29702546703D29702546783DD5
:1011A00029702546803D29702546883D29702546B1
:1011B000903D29702546983D29702546A03D29700F
:1011C0002546A83D29702546B03D29702546B83DE5
:1011D00029702546C03D29702546C83D2970254601
:1011E000D03D29702546D83D29702546E03D29701F
:1011F0002546E83D29702546F03D2970A518F83CA4
:101200002170203B2C469ED10446FA348023217065
:101210002546083D29702546103D29702546183D74
:1012200029702546203D29702546283D29702546F0
:10123000303D29702546383D29702546403D2970AE
:101240002546483D29702546503D29702546583D84
:1012500029702546603D29702546683D2970254640
:10126000703D29702546783D29702546803D2970BE
:101270002546883D29702546903D29702546983D94
:1012800029702546A03D29702546A83D2970254690
:10129000B03D29702546B83D29702546C03D2970CE
:1012A0002546C83D29702546D03D29702546D83DA4
:1012B00029702546E03D29702546E83D29702546E0
:1012C000F03D2970A518F83C2170203B2C469ED19A
:1012D0000446FB34802321702546083D29702546AD
:1012E000103D29702546183D29702546203D29705E
:1012F0002546283D29702546303D29702546383D34
:1013000029702546403D29702546483D29702546CF
:10131000503D29702546583D29702546603D29706D
:101320002546683D29702546703D29702546783D43
:1013300029702546803D29702546883D297025461F
:10134000903D29702546983D29702546A03D29707D
:101350002546A83D29702546B03D29702546B83D53
:1013600029702546C03D29702546C83D297025466F
:10137000D03D29702546D83D29702546E03D29708D
:101380002546E83D29702546F03D2970A518F83C12
:101390002170203B2C469ED10446FC3480232170D2
:1013A0002546083D29702546103D29702546183DE3
:1013B00029702546203D29702546283D297025465F
:1013C000303D29702546383D29702546403D29701D
:1013D0002546483D29702546503D29702546583DF3
:1013E00029702546603D29702546683D29702546AF
:1013F000703D29702546783D29702546803D29702D
:101400002546883D29702546903D29702546983D02
:1014100029702546A03D29702546A83D29702546FE
:10142000B03D29702546B83D29702546C03D29703C
:101430002546C83D29702546D03D29702546D83D12
:1014400029702546E03D29702546E83D297025464E
:10145000F03D2970A518F83C2170203B2C469ED108
:101460000446FD34802321702546083D2970254619
:10147000103D29702546183D29702546203D2970CC
:101480002546283D29702546303D29702546383DA2
:1014900029702546403D29702546483D297025463E
:1014A000503D29702546583D29702546603D2970DC
:1014B0002546683D29702546703D29702546783DB2
:1014C00029702546803D29702546883D297025468E
:1014D000903D29702546983D29702546A03D2970EC
:1014E0002546A83D29702546B03D29702546B83DC2
:1014F00029702546C03D29702546C83D29702546DE
:10150000D03D29702546D83D29702546E03D2970FB
:101510002546E83D29702546F03D2970A518F83C80
:101520002170203B2C469ED10446FE34802321703E
:101530002546083D29702546103D29702546183D51
:1015400029702546203D29702546283D29702546CD
:10155000303D29702546383D29702546403D29708B
:101560002546483D29702546503D29702546583D61
:1015700029702546603D29702546683D297025461D
:10158000703D29702546783D29702546803D29709B
:101590002546883D29702546903D29702546983D71
:1015A00029702546A03D29702546A83D297025466D
:1015B000B03D29702546B83D29702546C03D2970AB
:1015C0002546C83D29702546D03D29702546D83D81
:1015D00029702546E03D29702546E83D29702546BD
:1015E000F03D2970A518F83C2170203B2C469ED177
:1015F000FF30802301700446083C21700446103CF3
:1016000021700446183C21700446203C2170044699
:10161000283C21700446303C21700446383C21703F
:101620000446403C21700446483C21700446503C2E
:1016300021700446583C21700446603C21700446E9
:10164000683C21700446703C21700446783C21704F
:101650000446803C21700446883C21700446903C3E
:1016600021700446983C21700446A03C2170044639
:10167000A83C21700446B03C21700446B83C21705F
:101680000446C03C21700446C83C21700446D03C4E
:1016900021700446D83C21700446E03C2170044689
:1016A000E83C21700446F03C21708418F838017041
:1016B000203B20469ED100F09FFBB0BDF0B581B02D
:1016C000AE200024214600F0F3FD2046214600F024
:1016D000EFFD1020214600F0EBFD40273846214663
:1016E00000F0E6FD8120214600F0E2FDCF202146FA
:1016F00000F0DEFDA120214600F0DAFDC8202146E1
:1017000000F0D6FDA6263046214600F0D1FDA820E7
:10171000214600F0CDFD3F20214600F0C9FDD32039
:10172000214600F0C5FD2046214600F0C1FDD52030
:10173000214600F0BDFD80252846214600F0B8FD79
:10174000D920214600F0B4FDF120214600F0B0FD83
:10175000DA20214600F0ACFD1220214600F0A8FD61
:10176000DB20214600F0A4FD3846214600F0A0FD14
:101770002020214600F09CFD0220214600F098FD2B
:101780008D20214600F094FD1420214600F090FDAC
:10179000A420214600F08CFD3046214600F088FD53
:1017A00001480246F83201E0490020201470114639
:1017B00008390C70114610390C70114618390C702C
:1017C000114620390C70114628390C7011463039F9
:1017D0000C70114638390C70114640390C701146A6
:1017E00048390C70114650390C70114658390C703C
:1017F000114660390C70114668390C701146703909
:101800000C70114678390C70114680390C701146F5
:1018100088390C70114690390C70114698390C704B
:101820001146A0390C701146A8390C701146B03918
:101830000C701146B8390C701146C0390C70114645
:10184000C8390C701146D0390C701146D8390C705B
:101850001146E0390C701146E8390C701146F03928
:101860000C701146F8390C70012109025218203D04
:101870009CD10346F93380221C701D46083D2C7014
:101880001D46103D2C701D46183D2C701D46203DF8
:101890002C701D46283D2C701D46303D2C701D4679
:1018A000383D2C701D46403D2C701D46483D2C7027
:1018B0001D46503D2C701D46583D2C701D46603D08
:1018C0002C701D46683D2C701D46703D2C701D46C9
:1018D000783D2C701D46803D2C701D46883D2C7037
:1018E0001D46903D2C701D46983D2C701D46A03D18
:1018F0002C701D46A83D2C701D46B03D2C701D4619
:10190000B83D2C701D46C03D2C701D46C83D2C7046
:101910001D46D03D2C701D46D83D2C701D46E03D27
:101920002C701D46E83D2C701D46F03D2C705D1856
:10193000F83B1C70203A2B469ED10346FA33802296
:101940001C701D46083D2C701D46103D2C701D4618
:10195000183D2C701D46203D2C701D46283D2C70D6
:101960001D46303D2C701D46383D2C701D46403DB7
:101970002C701D46483D2C701D46503D2C701D4658
:10198000583D2C701D46603D2C701D46683D2C70E6
:101990001D46703D2C701D46783D2C701D46803DC7
:1019A0002C701D46883D2C701D46903D2C701D46A8
:1019B000983D2C701D46A03D2C701D46A83D2C70F6
:1019C0001D46B03D2C701D46B83D2C701D46C03DD7
:1019D0002C701D46C83D2C701D46D03D2C701D46F8
:1019E000D83D2C701D46E03D2C701D46E83D2C7006
:1019F0001D46F03D2C705D18F83B1C70203A2B46BC
:101A00009ED10346FB3380221C701D46083D2C707E
:101A10001D46103D2C701D46183D2C701D46203D66
:101A20002C701D46283D2C701D46303D2C701D46E7
:101A3000383D2C701D46403D2C701D46483D2C7095
:101A40001D46503D2C701D46583D2C701D46603D76
:101A50002C701D46683D2C701D46703D2C701D4637
:101A6000783D2C701D46803D2C701D46883D2C70A5
:101A70001D46903D2C701D46983D2C701D46A03D86
:101A80002C701D46A83D2C701D46B03D2C701D4687
:101A9000B83D2C701D46C03D2C701D46C83D2C70B5
:101AA0001D46D03D2C701D46D83D2C701D46E03D96
:101AB0002C701D46E83D2C701D46F03D2C705D18C5
:101AC000F83B1C70203A2B469ED10346FC33802203
:101AD0001C701D46083D2C701D46103D2C701D4687
:101AE000183D2C701D46203D2C701D46283D2C7045
:101AF0001D46303D2C701D46383D2C701D46403D26
:101B00002C701D46483D2C701D46503D2C701D46C6
:101B1000583D2C701D46603D2C701D46683D2C7054
:101B20001D46703D2C701D46783D2C701D46803D35
:101B30002C701D46883D2C701D46903D2C701D4616
:101B4000983D2C701D46A03D2C701D46A83D2C7064
:101B50001D46B03D2C701D46B83D2C701D46C03D45
:101B60002C701D46C83D2C701D46D03D2C701D4666
:101B7000D83D2C701D46E03D2C701D46E83D2C7074
:101B80001D46F03D2C705D18F83B1C70203A2B462A
:101B90009ED10346FD3380221C701D46083D2C70EB
:101BA0001D46103D2C701D46183D2C701D46203DD5
:101BB0002C701D46283D2C701D46303D2C701D4656
:101BC000383D2C701D46403D2C701D46483D2C7004
:101BD0001D46503D2C701D46583D2C701D46603DE5
:101BE0002C701D46683D2C701D46703D2C701D46A6
:101BF000783D2C701D46803D2C701D46883D2C7014
:101C00001D46903D2C701D46983D2C701D46A03DF4
:101C10002C701D46A83D2C701D46B03D2C701D46F5
:101C2000B83D2C701D46C03D2C701D46C83D2C7023
:101C30001D46D03D2C701D46D83D2C701D46E03D04
:101C40002C701D46E83D2C701D46F03D2C705D1833
:101C5000F83B1C70203A2B469ED10346FE3380226F
:101C60001C701D46083D2C701D46103D2C701D46F5
:101C7000183D2C701D46203D2C701D46283D2C70B3
:101C80001D46303D2C701D46383D2C701D46403D94
:101C90002C701D46483D2C701D46503D2C701D4635
:101CA000583D2C701D46603D2C701D46683D2C70C3
:101CB0001D46703D2C701D46783D2C701D46803DA4
:101CC0002C701D46883D2C701D46903D2C701D4685
:101CD000983D2C701D46A03D2C701D46A83D2C70D3
:101CE0001D46B03D2C701D46B83D2C701D46C03DB4
:101CF0002C701D46C83D2C701D46D03D2C701D46D5
:101D0000D83D2C701D46E03D2C701D46E83D2C70E2
:101D10001D46F03D2C705D18F83B1C70203A2B4698
:101D20009ED1FF30802204700346083B1C7003469E
:101D3000103B1C700346183B1C700346203B1C7074
:101D40000346283B1C700346303B1C700346383B5F
:101D50001C700346403B1C700346483B1C70034606
:101D6000503B1C700346583B1C700346603B1C7084
:101D70000346683B1C700346703B1C700346783B6F
:101D80001C700346803B1C700346883B1C70034656
:101D9000903B1C700346983B1C700346A03B1C7094
:101DA0000346A83B1C700346B03B1C700346B83B7F
:101DB0001C700346C03B1C700346C83B1C700346A6
:101DC000D03B1C700346D83B1C700346E03B1C70A4
:101DD0000346E83B1C700346F03B1C704318F83880
:101DE0000470203A18469ED100F006F8AF2000217A
:101DF00000F05EFA01B0F0BDF0B585B00020D44F20
:101E000002905038C0B20024214600F051FA20461A
:101E1000214600F04DFA1020214600F049FA022533
:101E200031480560012606600A24204600F02AFE9B
:101E30002D480561204600F025FE2B48066120460E
:101E400000F020FE782000F00BFC274805602046BB
:101E500000F018FE24480660204600F013FE2248D9
:101E60000661204600F00EFE402000F0F9FB0495CC
:101E70001D480560204600F005FE1B48066005462B
:101E8000204600F0FFFD03962E61204600F0FAFD8B
:101E900080260197387800F0E3FB13490498086026
:101EA0000A24204600F0EEFD039D0F480560204601
:101EB00000F0E8FD0C480561204600F0E3FD761EC9
:101EC0000837002EE6D1084C049D25610398206058
:101ED0000A2000F0D7FD2560019F7F1C0298401C5E
:101EE00008288DD105B0F0BD90120A40F0B58BB036
:101EF0000A9103900620082B04460AD05C07D908F3
:101F0000002C00D0491C5C084C43E4B2002C00D1EA
:101F100013E1109F203AD1B20091484388490A1832
:101F2000580801900025039E0293089709E0064691
:101F3000079C049A069D641E521C6D1C002C00D147
:101F4000FBE0082B104615D0182B09D0102B0CD015
:101F50000C2B00D0F1E00C20009948437B4907E0AE
:101F6000242000994843774902E00098000176490F
:101F700008184019099006950492079407230A9AB5
:101F8000104618400125294681400596F0B2C00050
:101F90006F4C2018D2B2D408065D32460A438E43F5
:101FA000002F114600D03146002F00D016460022E7
:101FB000099FBA560992D20700D0314601550A99B5
:101FC000491CCAB219402F468F40D408065D3146DD
:101FD0003943BE43089F002F0A4600D03246002FE7
:101FE00000D00E460999890700D5324602550A9954
:101FF000891CCAB219402F468F40D408065D31466D
:102000003943BE43089F002F0A4600D03246002FB6
:1020100000D00E460999490700D5324602550A9963
:10202000C91CCAB219402F468F40D408065D3146FC
:102030003943BE43089F002F0A4600D03246002F86
:1020400000D00E460999090700D5324602550A9973
:10205000091DCAB219402F468F40D408065D31468B
:102060003943BE43089F002F0A4600D03246002F56
:1020700000D00E460999C90600D5324602550A9984
:10208000491DCAB219402F468F40D408065D31461B
:102090003943BE43089F002F0A4600D03246002F26
:1020A00000D00E460999890600D5324602550A9994
:1020B000891DCAB219402F468F40D408065D3146AB
:1020C0003943BE43089F002F0A4600D03246002FF6
:1020D00000D00E460999490600D5324602550A99A4
:1020E000C91D0B409D40C9B2CC08025D1146A943F1
:1020F0001543002F0A4600D02A46002F029B059E5A
:1021000000D00D460999002900D42A460255701CBA
:10211000082B00D10BE7C1B2039A891A019A9142A8
:10212000079C02D10A9A08320A92049A019DA94298
:10213000039E00D1FEE60646FCE60BB0F0BDC046AD
:10214000683D0000F449000004440000903F000096
:1021500049002020F0B58BB01C46119B109D0692C3
:10216000002A0991089007930A954BD4002C00D1BE
:1021700099E00A984108082800D1891C0591671E3A
:1021800060420490A01E03907D20C00002900026B3
:10219000464D18E001210698FEF7B1FA0A21FEF734
:1021A000AEFA0798009030220A433046059948431A
:1021B00008994018C0B209990A9BFFF797FE7F1E45
:1021C000761CA6426FD0F04304998842E2D00322E5
:1021D0000399891B032901D2012105E03B46934362
:1021E000012169431B1FFCD100191040D3D00128E5
:1021F00001D10A2004E0022801D0029800E0642006
:102200004143C8E700932D222B46FFF76FFE680875
:10221000082D00D1801C0590002C44D00698404227
:102220000690661E60420490A01E03907D20C000B0
:10223000029000251D4F17E001210698FEF75FFA76
:102240000A21FEF75CFA0798009030220A436D1CC1
:102250000598684308994018C0B209990A9BFFF78E
:1022600045FE761EA5421ED0E84304998842E3D07D
:1022700003220399491B032901D2012105E03346BA
:102280009343012179431B1FFCD100191040D4D086
:10229000012801D10A2004E0022801D0029800E0C0
:1022A00064204143C9E70BB0F0BDC04610270000D1
:1022B000F0B583B001910290244F02263E600125C3
:1022C0003D600A24204600F0DDFB3E61204600F020
:1022D000D9FB3D61204600F0D5FB782000F0C0F925
:1022E0003E60204600F0CEFB3D60204600F0CAFB79
:1022F0003D61204600F0C6FB0199481E81418801DE
:1023000000F0AEF93E60204600F0BCFB3D60204688
:1023100000F0B8FB3D61204600F0B4FB029800F0ED
:102320009FF93E60204600F0ADFB3D60204600F086
:10233000A9FB3D61204600F0A5FB3E613D602046C3
:1023400000F0A0FB3E6003B0F0BDC04690120A4012
:10235000B0B528498720C8640123DC05264A1460EB
:10236000086518061060254B822018652448441C17
:102370005C65244C5C63244C5C6681250D604D607B
:102380008D608D611C66DC6598659D64C860086120
:10239000486148631D605D60986188648863C862B5
:1023A00011463039194B0B60136019490A68194BF3
:1023B00013430B600A69184B13430B6117490A6AF0
:1023C000174B1A430A620A681A430A608138154992
:1023D0000A6802430A600869134A02430A6123201B
:1023E000C00412490A6A02430A620A6802430A6088
:1023F000B0BDC04688804240D0120A4004804240AE
:102400008100040081000100810006008371040046
:1024100090130A40300000400510000028100A40C8
:102420000480430090330A40C003030028300A4070
:1024300070B582B0E24C19492046FEF7A5FC184958
:102440002046FEF7ABFB00250095204629462A468C
:102450002B46FEF785FC204629462A46FEF772FCED
:10246000104920462A46FEF787FC012600962046A2
:1024700029462A462B46FEF773FC2046294632465B
:10248000FEF760FC084920463246FEF775FC074817
:1024900086600321016002B070BDC0465057000045
:1024A00054570000CF0700008813000000B1864099
:1024B0000C48002101600C48014608390A680323D2
:1024C0009A430A6001680122914301601102026887
:1024D0008A430260FF20000204490A6882430A60BE
:1024E0007047C04608030B4008010B4000E400E0C1
:1024F0000548042101601F214160002181600168BD
:1025000005220A430260704710E000E010B50D4C50
:102510000D492046FEF738FC0C492046FEF79EFB8D
:102520000B480168012211430160FF2000040949A2
:102530000B68834303208005181808600648026072
:1025400010BDC046000086405C5700006057000088
:102550002810864010E400E00811864010B5194CA0
:1025600019492046FEF742FC18492046FEF71AFC9E
:102570000320C103164802688A4302600169154AB4
:102580000A4011320261416917220A4328218A4315
:102590004261426801210A4043688B439A184260B5
:1025A0008A020D4B1C6814431C60FF2212060B4B61
:1025B0001C6894438A07A2181A6002680A430260E2
:1025C00010BDC046008010407457000076570000D0
:1025D000009110400000FFFF289010400CE400E044
:1025E00080B500F019F8FFF7B3FEFFF761FFFFF7C2
:1025F0001FFFFFF78BFFFFF7B1FFFFF779FFB82051
:10260000034900220A54742002490A5480BDC0467E
:1026100074052020FC042020B0B50A480A49416016
:102620000A4A51600A4B59600A4C61600A4D696060
:102630000A49016011601960216029601020FEF7CD
:10264000A7FAB0BD00080A40030000B100280A4004
:1026500000A886400008864000881040010000263F
:10266000F0B581B0044640B2544E002802D4022096
:10267000306101E0022030600A25284600F002FAAD
:1026800001273760284600F0FDF93761600602D463
:102690000220306101E0022030600A25284600F067
:1026A000F1F93760284600F0EDF93761A00602D451
:1026B0000220306101E0022030600A25284600F047
:1026C000E1F93760284600F0DDF93761E00602D411
:1026D0000220306101E0022030600A25284600F027
:1026E000D1F93760284600F0CDF93761200702D4D0
:1026F0000220306101E0022030600A25284600F007
:10270000C1F93760284600F0BDF93761600702D48F
:102710000220306101E0022030600A25284600F0E6
:10272000B1F93760284600F0ADF93761A00702D44F
:102730000220306101E0022030600A25284600F0C6
:10274000A1F93760284600F09DF93761E00702D112
:102750000220306101E0022030600A24204600F0AF
:1027600091F93760204600F08DF9376101B0F0BD76
:10277000F0B581B00C460146012738037A030F4EAD
:10278000012902DB3060326102E03260306149428F
:102790000B4D00222846FEF7EFFAB803B904012CCE
:1027A00002DB3060316102E031603061644201225D
:1027B00028462146FEF7E0FA01B0F0BD90120A402B
:1027C00000A08640F0B589B052480068000600D1EC
:1027D0009DE05149086800270F6050490D680F605F
:1027E0004F494D600B464F4A1178491C11704E4AB3
:1027F0001178491C11704D4A1178491C11704442DE
:102800001C606848806AFDF74AFF089007912046DF
:10281000FDF70AFF04460E462846FDF705FF02466F
:102820000B46434805900497424803904248029063
:1028300007980190089800902046314600F044F92E
:10284000374DA868FDF712FF296800F0ADF83B4945
:1028500008600120C407A8686040FDF707FF6968A9
:1028600000F0D6F8364908600A200146FFF780FFDD
:102870002C49087802281DD10F704A4882693148D6
:1028800031493B46FEF736F90546304E3146FDF7F5
:1028900061FE002801D1654000E02D4D28463146FB
:1028A000FDF74AFE002800D135461D4885603220DC
:1028B00000F058F91C490878032821D10F707B20BB
:1028C000C100A74A505851184968FDF7FCFE03465D
:1028D0003448826A1B481F49FEF7BEF804461E4D65
:1028E0002946FDF729FE002800D125461B4C284625
:1028F0002146FDF721FE002800D1254608488560C5
:102900000A490878042802D10F70FEF7EDFA09B0E1
:10291000F0BDC04620108640380020203C0020201A
:10292000E4042020F8042020F9042020FA042020C8
:1029300000002740E17A743F7B14AE47CC0420208E
:10294000D00420208C0A20202000202000007A447F
:1029500000007AC4100020200000C8C20000C84255
:1029600010B50C480068C0B20B2812D10A48416863
:10297000CAB20260094C2078094A1154401C2070E8
:10298000C0B22C2805D10648064900F0CBFA002039
:10299000207010BD2090104020911040A0062020F3
:1029A0007406202034062020B0B5451A1648016868
:1029B0000560681AFDF72DFE04462846FDF729FE3E
:1029C00001462C480068FDF7E8FB05462A480068E8
:1029D0002146FDF7E2FB2946FDF786FB04460B4D39
:1029E0002868FDF716FE01462046FDF77DFBFDF742
:1029F0003DFE2860E1210901884202DC204988422D
:102A000001DA29600846B0BDD8042020D404202073
:102A1000B0B5451A164801680560681AFDF7F9FD5A
:102A200004462846FDF7F5FD014612480068FDF70B
:102A3000B4FB0546104800682146FDF7AEFB294669
:102A4000FDF752FB04460D4D2868FDF7E2FD0146F7
:102A50002046FDF749FBFDF709FE2860E121090149
:102A6000884202DC0649884201DA29600846B0BD86
:102A7000E00420200C00202008002020DC0420207E
:102A8000F0F1FFFFB0B50F490B684001262206E0C8
:102A9000E41A0D1F2D686419A218824210D21C4638
:102AA0000B68A34208D10B68A34205D10B68A3426F
:102AB00002D10B68A342F3D09C42E9D9E41AEBE7B8
:102AC000B0BDC04618E000E0F0B583B0FDF7A2FB52
:102AD0000026224B3246FDF74FFC04460D4608986F
:102AE0000999864A874BFDF747FCDF4B3246FDF7D5
:102AF000ABFC06460F460A9A0B9B20462946FDF77B
:102B00003BFC044602900D4601913046394600F0E8
:102B100089FF02460B4620462946FDF72DFC009012
:102B20000D463046394600F0C9FF06460F46714C47
:102B30000CCC00982946083CFDF76CFB03C40298B6
:102B4000019932463B46083CFDF716FCA268E36853
:102B5000FDF760FBA060E16003B0F0BD0000E03F66
:102B6000A8062020F0B587B0604E3178012927D023
:102B7000002900D0B7E065490A78012A0ED1002269
:102B80000A7061490A78531C0B701101594A511897
:102B900038CA12680846103038C0CA6154490A78E9
:102BA000012A00D09FE0544A0123137000220A70CA
:102BB00050490A604A608A60CA60337007B0F0BD4D
:102BC00005904B49087801280DD14B4A012010701F
:102BD00000240C7047490C604C608C60CC600694FB
:102BE0002246234605E043481CC800680690424838
:102BF000007800013F490F1838697969FDF7AEFB8D
:102C000006460D46B869F9692246069BFDF7A6FB04
:102C100007460C4632462B4600F036FE01900691E0
:102C2000384621463A462346FDF7A6FB04460F46A2
:102C30003046294632462B46FDF79EFB22463B4650
:102C4000FDF7E8FA00F088FF03913D210A010490A6
:102C50002849029288500025019F3846069C21464B
:102C60002A462B46FDF792FC0646244A244B38465A
:102C700021461446FDF7CEFA002E00D13846002E2C
:102C800000D10699784B2A46FDF776FB1D4B22466C
:102C9000FDF7DAFB7B22D200164B985002981818E9
:102CA000039D4560981841600598FDF7D1FC0246E8
:102CB0000B46049C20462946FDF77EFC002812D1D5
:102CC0000022204629461346FDF78CFC00280AD135
:102CD0000D480078421C08480178491CCBB29A4242
:102CE00000D10121017007B0F0BDC046880A202044
:102CF00040002020A806202031002020282D445408
:102D0000FB211940FB2109403000202042002020F7
:102D100084B0FFF765FC2148016801231943016075
:102D2000D8031F49086002220A6003939B040B60CA
:102D30001C4908600A600B60FEF7C0FCFEF794F9BE
:102D4000194E306AFDF792FC024610270097039E49
:102D5000019600250424284629462346FFF7FAF960
:102D60001148406AFDF782FC024600970196142143
:102D700028462346FFF7EEF90B48806AFDF776FCFC
:102D8000024600970196282128462346FFF7E2F9DC
:102D9000FFF732F8FEF762F9D2E7C04604B8864082
:102DA00080E200E000E100E034062020F0B581B0D0
:102DB0000C460546007869780918A8780A18E97859
:102DC00052182B79D2186B79D218AB79D218EB79CB
:102DD000D2182B7AD2186B7AD218D2B2AB7A9A4226
:102DE0003ED10902081800B2FDF71EFC3F2217066B
:102DF000002632463B46FDF7BFFA1B4B3246FDF735
:102E0000BBFAFDF760FC206028796979090208188F
:102E100000B2FDF709FC32463B46FDF7ADFA3246FB
:102E2000114BFDF7A9FAFDF74EFC6060A879E9792E
:102E30000902081800B2FDF7F7FB32463B46FDF7E2
:102E40009BFA3246084BFDF797FAFDF73CFCA06071
:102E5000287A697A09020818E060012001B0F0BD03
:102E6000002001B0F0BDC04600806640F0B581B0E2
:102E70000C460546007869780918A8780A18E97898
:102E800052182B79D2186B79D218AB79D218EB790A
:102E9000D2182B7AD2186B7AD218D2B2AB7A9A4265
:102EA0003AD10902081800B2FDF7BEFB3F2217060F
:102EB000002632463B46FDF75FFA194B3246FDF7D6
:102EC0005BFAFDF700FC206028796979090208188F
:102ED00000B2FDF7A9FB32463B46FDF74DFA3246FC
:102EE0000F4BFDF749FAFDF7EEFB6060A879E97931
:102EF000E6600902081800B2FDF796FB32463B4631
:102F0000FDF73AFA3246064BFDF736FAFDF7DBFBE2
:102F1000A060012001B0F0BD002001B0F0BDC046AE
:102F200000409F40B0B50C4605460B301031FFF70E
:102F30009DFF002806D01635203428462146FFF78D
:102F400035FFB0BD0020B0BD2021020C01D0102102
:102F50001046020A01D010460839020901D0104675
:102F6000091F820801D01046891E420801D0881E20
:102F70007047081A7047F0B4040C8BB2264682B230
:102F80005E430D0C1046370C58433604801900215F
:102F9000794116466E43370C36048019794126462E
:102FA0006E438919F0BC70474900CA020243100001
:102FB00000D004204A0D01D001221043044A490DDB
:102FC000914201D102210843012800D10520704718
:102FD000FF070000F7B596B014460021A160D1604C
:102FE000179909914D00CD496D088D4205DC17995F
:102FF00061602060002019B0F0BDC949C94E8D4202
:1030000038DAD32709997F050029C74A179933462B
:1030100017DDFDF7A3F9B54206D0C44AC44BFDF74E
:103020009DF96160206009E03A46C14BFDF796F9D1
:10303000C04AC14BFDF792F961602060012019B0D0
:10304000F0BDFDF7E7F8B54206D0B84AB84BFDF73A
:10305000E1F86160206009E03A46B54BFDF7DAF827
:10306000B44AB54BFDF7D6F8616020600020C0433C
:1030700019B0F0BDB1498D42179977DC4900490874
:103080000746AF4AAF4B0491FDF776F90022AE4BED
:10309000FDF7C0F8FDF7BCFC0A90FDF7C5FAA24A9F
:1030A000334603910290FDF767F93A46049BFDF71A
:1030B0005BF906460F469D4A9D4B03990298FDF722
:1030C0005BF92A0D01250C9232463B46FDF74CF97F
:1030D00061602060032D39D04800410D0C98401AE2
:1030E000690169181139814230DA98492801794417
:1030F00008960D900818049743680268039902988F
:10310000FDF73AF902460B46079106900499089894
:10311000FDF724F906460F46049B089AFDF724F9AB
:10312000079B069AFDF71AF905918949049079449D
:103130000D984018C368826803990298FDF71CF93E
:10314000059B049AFDF70AF96D1CBDE70998002854
:1031500009DA01226068D207504060600A9819B00D
:103160004042F0BD02E00A9819B0F0BD0903012207
:10317000090B12050E908918179810914000754997
:10318000400D40184111C006C00E0D911390202132
:10319000081A14900020069005250790139800281F
:1031A0000D980CD0401982006B48784487581399C9
:1031B0008F40101841681498C1400F4304E0401933
:1031C000810066487844475810993846FFF7D3FE87
:1031D00006460A9138460E99FFF7CDFE8A190A9BDA
:1031E0008A4201D2012100E00021C9188C46AF00BB
:1031F000694679188B684E68C318834201D2012052
:1032000000E0002096193618002802D0964202D914
:1032100003E0964201D2012000E00020624612182D
:103220004E6068468B60C25128466D1E0028B5DC92
:103230000121029849074018800F139002980599C0
:103240008000039E049D0B91FDF7EEF90746304682
:103250000891FDF7FDF91D22D243FDF7C2FB109046
:103260000F912846FDF7F4F93D22D243FDF7B9FB53
:103270000E900D910B98FDF7EBF95D22D243FDF70F
:10328000B0FB0B910C900D9B0E9AFCF7C3FF0F9BAC
:10329000109AFCF7BFFF3A46089BFCF7BBFF0025DE
:1032A0000E463A462846089BFDF758F80F9B109AA1
:1032B000FDF754F80D9B0E9AFDF750F80B9B0C9AF6
:1032C000FDF752F8264A274BFDF756F807460D91B1
:1032D000254A264B31462846FDF74EF83A460D9BC7
:1032E000FCF798FF0F4615220C9092061D4B3146B5
:1032F0002846FDF741F83B460C9AFCF78BFF179ADE
:10330000002A05DA139A524213920122D207514041
:1033100061602060139819B0F0BD0000FB21E93F07
:103320007CD90240FB21F93F000040543163621A0E
:1033300061B4D03D7370032E8A19A33BFB21394140
:1033400083C8C96D305FE43F0000E03F7E0B0000A2
:103350003E0B00000BFCFFFFF20A0000D80A000041
:10336000182D4454FB21F93D3326A611460B113C80
:10337000F0B51FB44E00F9207608800584B00F46E2
:10338000864204DA0498FDF743FB002838D0049AFB
:103390003B4610461946FCF7EFFF044602462C4810
:1033A0000D460B460621784400F05CF822462B4679
:1033B000FCF7E2FF019100903946079B069A0498BA
:1033C000FCF7DAFF0746029120462946019B009A46
:1033D000FCF7D2FF3A46029BFCF7C0FF07460022EB
:1033E0000091D24320462946FDF7FBFA194A96423E
:1033F0000ADA3A46009BFCF7B1FF0022164B23E0A5
:103400000020154909B0F0BD144A964202DD00249F
:10341000134D03E001225205B51A002422462B4623
:10342000FCF79CFF0646019122462B4600200A49E4
:10343000FCF794FF0D4604463A463046009B01993E
:10344000FCF78CFF22462B46FCF78EFF09B0F0BD3F
:103450008E0800003333D33F0000F03F0000E93F07
:103460000000D23FF8B504464F1EC80008382118A6
:1034700015461E46086849683A4606239A4310D006
:103480002A463346FCF778FF3A46D200083AA3189A
:103490001A687F1E5B68FCF7BDFE06223B4693431D
:1034A000EED1022F23D0042F11D0062F2FD12A4680
:1034B0003346FCF761FFE36AA26AFCF7ABFE2A46DB
:1034C0003346FCF759FF636A226AFCF7A3FE2A46DB
:1034D0003346FCF751FFE369A269FCF79BFE2A46DD
:1034E0003346FCF749FF63692269FCF793FE2A46DD
:1034F0003346FCF741FFE368A268FCF78BFE2A46DF
:103500003346FCF739FF63682268FCF783FEF8BD99
:10351000F0B51FB4054648000C46F921400889055E
:1035200086B088420BDA28462146FFF73DFD042885
:1035300001D100F075F8284621460BB0F0BD2A46AF
:10354000234610461946FCF717FF06460F462A4643
:103550002346FCF711FF00902548019132463B4677
:1035600005217844FFF77EFF029010980391002810
:1035700029D0204A204B01990098FCF7FDFE0490C9
:10358000059168460FC8FCF7F7FE002201910090F4
:10359000D24309990898FDF724FA019B009AFCF799
:1035A000DDFE32463B46FCF7E7FE099B089AFCF736
:1035B000D5FE059B049AFCF7D1FE2A462346FCF76C
:1035C000D3FE0BB0F0BD0B4630463946029AFCF7ED
:1035D000D3FE084A084BFCF71DFE019B009AFCF73E
:1035E000CBFE2A462346FCF715FE0BB0F0BD0000CB
:1035F000DA070000495555555555C5BF10B501228C
:10360000FDF7EFF910BD10B5FCF704FE10BD002268
:1036100010B5134610461146FCF716FF10BD00000A
:10362000034A10B500201107FDF7DBF910BD0000BB
:1036300001FDFFFF0000000002E008C8121F08C1E2
:10364000002AFAD170470000704700000000000017
:10365000002001E001C1121F002AFBD170470000C9
:10366000014908607047000004002020F0B589B0CF
:1036700004460D464800069172494008884215DB11
:103680007149884203DC884207D1002C05D02046CE
:103690002946FFF7B3FF09B0F0BD6C48002D02DDED
:1036A0006B4909B0F0BD6B4909B0F0BD6A49884269
:1036B00011DA6A4988420BDA20462946FFF774FC82
:1036C000042801D1FFF7ACFF2046294609B0F0BD20
:1036D0000026F6435DE06D0061496D08884232DAEC
:1036E0006049884219DA0026012332469B072046AA
:1036F0002946FCF78FFD0746019101222046294605
:10370000FDF76FF90022584BFCF728FE3A46019B63
:10371000FCF79AFE04460D463BE001260022524B80
:1037200020462946FCF776FD0746009100224E4BC5
:1037300020462946FCF712FE3A46009BFCF784FE21
:1037400004460D4625E04949884219DA022600223E
:10375000474B20462946FCF70FFE0022424BFCF760
:1037600059FD074602910022414B20462946FCF7AD
:10377000F5FD3A46029BFCF767FE04460D4608E05D
:10378000032622462B4600203A49FCF75DFE0446FC
:103790000D4622462B4610461946FCF7EDFD07461E
:1037A0000B4602460191FCF7E7FD024602903248C3
:1037B0000B46039106217844FFF754FE3A46019BDD
:1037C000FCF7DAFD00902D48019105217844039B18
:1037D000029AFFF747FE039B029AFCF7CDFD0246D3
:1037E0000B4601990098002E0BDAFCF713FD2246D8
:1037F0002B46FCF7C1FD22462B46FCF7B5FD09B070
:10380000F0BDFCF707FD22462B46FCF7B5FD1C4A30
:10381000F6007A4493191A685B68FCF79FFD22460C
:103820002B46FCF79BFD174A7A4493191A685B688C
:10383000FCF79AFD069A002AE1DA0122D2075140EC
:1038400009B0F0BD000010440000F07F182D445472
:10385000FB21F93FFB21F9BF0000DC3F0000203EC7
:103860000000F33F0000E63F0000F03F008003400F
:103870000000F83F0000F0BF4E04000010040000FC
:10388000AA03000074030000F0B51FB4039A029D60
:1038900053006E422E439446F40F5B084A00574E85
:1038A00052081C438E46B44205D847420743FC0FDA
:1038B0001443B44205D92A466346FFF7A4FE05B077
:1038C000F0BD4F4E66442E430AD0CC0F6646B61765
:1038D00002273E40264304464A4F144304D00BE0DF
:1038E000FFF7C4FE05B0F0BD002EFBD0012EF9D0CD
:1038F000022E32D0032E34D01C462C430BD03F4C2A
:10390000A34216D1A2420AD1012189078B438A43DF
:10391000114603930DE0704600280FDB25E03A4D79
:103920007D44002E0ED0012E10D0022E15D0032E75
:1039300017D0A2421DD17046002816DA314833490B
:1039400005B0F0BD6968286805B0F0BD012269685E
:10395000D2072868514005B0F0BD38462C4905B063
:10396000F0BD38462B4905B0F0BD26482A4905B0C0
:10397000F0BDD21A12153C2A02DD224D264C12E06F
:103980006346002B05DA3C23DA4202DA00252C4696
:1039900009E0039B029AFCF757FD49004908FFF72D
:1039A00065FE05460C46002E12D0012E0DD01B4A96
:1039B0001B4B022E2846214618D0FCF7CFFC3A4676
:1039C000134BFCF7CBFC05B0F0BD0120C007444011
:1039D0000022134628462146FCF7C4FF02D10220EC
:1039E000FFF73EFE2846214605B0F0BDFCF7B6FCC9
:1039F0003A46074BFCF7B8FC05B0F0BD0000F07F7D
:103A0000000010C0182D445444030000FB21F9BFEE
:103A1000FB210940FB2109C0FB21F93F075C14335E
:103A200026A6A13C00B54A00224B520887B09A4214
:103A300002DC0022134625E01F4B9A4208D10028E1
:103A400008D10120FFF70CFEFFF7E1FD07B000BD34
:103A50009A4203DBFFF7D2FD07B000BD02AAFFF7D1
:103A6000B9FA8107890F0BD0012001290ED0022954
:103A700016D0009002A80FC8FFF74AFD07B000BD9E
:103A800002A80FC8FFF774FC07B000BD009002A8A1
:103A90000FC8FFF73DFD0122D207514007B000BD1E
:103AA00002A80FC8FFF764FC0122D207514007B0FB
:103AB00000BD0000FB21E93F0000F07F00B54A0097
:103AC000234B520887B09A4203DC0022134600922F
:103AD00029E0204B9A4208D1002808D10120FFF7A5
:103AE000BFFDFFF794FD07B000BD9A4203DBFFF76F
:103AF00085FD07B000BD02AAFFF76CFA8107890FA8
:103B0000012000290CD0012911D0022915D002A8CA
:103B10000FC8FFF72DFC0122D207514007B000BDAE
:103B2000009002A80FC8FFF7F3FC07B000BD02A881
:103B30000FC8FFF71DFC07B000BD009002A80FC81A
:103B4000FFF7E6FC0122D207514007B000BD00009C
:103B5000FB21E93F0000F07FF8B506460C46FCF774
:103B6000B0FE051E0F4600D00120014349000B485E
:103B70004908411AC90F0DD0002E01D0012100E0E3
:103B800000210C4361004908401AC00F02D10120F6
:103B9000FFF766FD28463946F8BD00000000F07FBB
:103BA0004FBB610567ACDD3F182D4454FB21E93F55
:103BB0009BF681D20B73EF3F182D4454FB21F93F44
:103BC000E2652F227F2B7A3C075C143326A6813CCA
:103BD000BDCBF07A8807703C075C143326A6913C75
:103BE000C4EB98999999C9BF711623FEC671BCBFE1
:103BF0006D9A74AFF2B0B3BF9AFDDE522DDEADBF49
:103C00002F6C6A2C44B4A2BF0D5555555555D53F60
:103C1000FF8300922449C23F6E204CC5CD45B73F7B
:103C2000513DD0A0660DB13FEB0D76244B7BA93FF3
:103C300011DA22E33AAD903F4C5555555555A53F05
:103C40007751C1166CC156BF9015CB19A001FA3E31
:103C5000AD529C804F7E92BEC4B1B4BD9EEE213E5B
:103C6000D43888BEE9FAA8BD0000000000000000BA
:103C700000004054FB21F93F3163621A61B4D03D2A
:103C80000000601A61B4D03D7370032E8A19A33B03
:103C90000000002E8A19A33BC14920259A837B3955
:103CA00000000000000000006E83F9A22915444EB8
:103CB000D15727FCC0DD34F5999562DB4190433C38
:103CC000AB6351FE61C5BBDE3A6E24B7E0D24D4214
:103CD000EA2E49061C92D1091CEB1DFE3EA729B114
:103CE000F53582E88444BB2E26709CE9417E5FB4A2
:103CF00039D69139F43953838B5F849C3B28F9BDC5
:103D0000FF97F81F0F9805DE8B112FEF1F6D0A5AD2
:103D1000CF7E366DB709CB27663F464F2DEA5F9EB3
:103D2000C7BA27757BF1E5EBF739073DEA92528A6E
:103D3000B15FFB6B085D8D1F46300356000000002D
:103D4000A6F810111111813FD561C119A0012ABF38
:103D50007DFEB157E31DC73EEB9C2B8AE6E55ABEBC
:103D60007CD5CF5A3AD9E53D0000000000000000A4
:103D7000002F000000000700070000147F147F14CC
:103D800000242A7F2A120062640813230036495552
:103D9000225000000503000000001C22410000002A
:103DA00041221C000014083E08140008083E0808C0
:103DB000000000A06000000808080808000060601B
:103DC0000000002010080402003E5149453E00005A
:103DD000427F4000004261514946002141454B313C
:103DE000001814127F10002745454539003C4A4908
:103DF000493000017109050300364949493600067A
:103E00004949291E000036360000000056360000E1
:103E1000000814224100001414141414000041225C
:103E2000140800020151090600324959513E007C34
:103E30001211127C007F49494936003E414141221E
:103E4000007F4141221C007F49494941007F090907
:103E50000901003E4149497A007F0808087F0000B7
:103E6000417F4100002040413F01007F0814224172
:103E7000007F40404040007F020C027F007F04082A
:103E8000107F003E4141413E007F09090906003E86
:103E90004151215E007F09192946004649494931AF
:103EA0000001017F0101003F4040403F001F2040D2
:103EB000201F003F4038403F006314081463000790
:103EC0000870080700615149454300007F414100E7
:103ED00000552A552A55000041417F000004020187
:103EE0000204004040404040000001020400002065
:103EF00054545478007F48444438003844444420A3
:103F000000384444487F00385454541800087E094F
:103F100001020018A4A4A47C007F08040478000017
:103F2000447D4000004080847D00007F10284400D4
:103F30000000417F4000007C04180478007C0804E5
:103F4000047800384444443800FC24242418001821
:103F5000242418FC007C080404080048545454200D
:103F600000043F444020003C4040207C001C204096
:103F7000201C003C4030403C004428102844001CD9
:103F8000A0A0A07C004464544C44141414141414D1
:103F90000000000000000000000000000000FC0025
:103FA0000000000002000000000C020C02000000F3
:103FB0000000000090D0BCD0BC90000300030000C3
:103FC0001824FE448C000302070201001824D8B014
:103FD0004C80000300010201C038E438E000010217
:103FE00002010202080600000000000000000000BC
:103FF000000000F80402000000010204000204F8BE
:1040000000000004020100009060F86090000000D1
:10401000010000002020FC20200000000100000022
:104020000000000000000806000000002020202002
:10403000200000000000000000000000000000025E
:10404000000000000080601C02000403000000006B
:10405000F8040404F8000102020201000008FC0058
:104060000000000203020000188444241800030228
:104070000202020008042424D80001020202010006
:1040800040B088FC80000000000302003C2424248F
:10409000C400010202020100F824242CC000010225
:1040A000020201000C04E41C0400000003000000F4
:1040B000D8242424D80001020202010038444444D8
:1040C000F8000003020201000000100000000000E0
:1040D00002000000000020000000000006000000B8
:1040E000002050880402000000000102909090908F
:1040F0009000000000000000000204885020000230
:10410000010000001804C424180000000200000090
:10411000F804E494F80001020202020000E09CF0BE
:10412000800002030000030204FC2424D8000203E0
:1041300002020100F80404040C0001020202010062
:1041400004FC0404F80002030202010004FC2474CD
:104150000C0002030202030004FC24740C0002039E
:1041600002000000F0080444CC40000102020100FB
:1041700004FC2020FC040203000003020404FC04ED
:104180000400020203020200000404FC040406040A
:104190000403000004FC24D00C0402030200030208
:1041A00004FC04000000020302020203FC3CC03CC9
:1041B000FC0003000300030004FC30C4FC04020301
:1041C00002000300F8040404F800010202020100E6
:1041D00004FC24241800020302000000F884840474
:1041E000F80001020207050004FC246498000203A1
:1041F00002000302182424448C000302020201007E
:104200000C04FC040C0000020302000004FC00008B
:10421000FC04000102020100047C80E01C04000098
:10422000030000001CE03CE01C0000030003000051
:10423000049C609C0400020300030200041CE01CB8
:1042400004000002030200000C84641C040002034A
:10425000020203000000FE02020000000704040046
:10426000000E30C00000000000010200000202FE4B
:104270000000000404070000000402040000000025
:1042800000000000000000000000080808080808FE
:104290000000020000000000000000000040A0A09C
:1042A000C00000010202030204FC2020C000000341
:1042B0000202010000C02020600000010202020092
:1042C00000C02024FC0000010202030200C0A0A0E4
:1042D000C0000001020202000020F82424040002B1
:1042E000030202000040A0A0602000070A0A0A049E
:1042F00004FC2020C0000203020003020020E400AE
:104300000000000203020000000020E40000080892
:104310000807000004FC80E02020020302000302E2
:104320000404FC000000020203020200E020E0207E
:10433000C00003000300030020E02020C0000203AF
:104340000200030200C02020C000000102020100A0
:1043500020E02020C000080F0A02010000C0202039
:10436000E0000001020A0F0820E0402020000203C4
:10437000020000000060A0A0200000020202030072
:104380000020F820000000000102020020E00020D0
:10439000E00000010202030220E020806020000013
:1043A000030100006080E080600000030003000063
:1043B00020608060200002030003020020E02080D3
:1043C00060200808070100000020A0602000000213
:1043D00003020200000020DE0200000000070400CB
:1043E000000000FF00000000000F00000002DE20BF
:1043F00000000004070000000201020404020000A3
:1044000000000000000000000000000000000000AC
:1044100000000000000000F8000000000000003371
:104420003000000000100C06100C06000000000018
:104430000000000040C07840C0784000043F040401
:104440003F040400007088FC08300000001820FFC2
:10445000211E0000F008F000E018000000211C03FD
:104460001E211E0000F00888700000001E21232479
:104470001927211010160E00000000000000000097
:1044800000000000000000E0180402000000000727
:104490001820400000020418E0000000004020182E
:1044A00007000000404080F0804040000202010F01
:1044B00001020200000000F0000000000101011FE5
:1044C00001010100000000000000000080B0700049
:1044D00000000000000000000000000000010101D9
:1044E0000101010100000000000000000030300068
:1044F0000000000000000000806018040060180642
:104500000100000000E010080810E000000F10207B
:1045100020100F00001010F8000000000020203FC5
:10452000202000000070080808887000003028244F
:1045300022213000003008888848300000182020F0
:1045400020110E000000C02010F800000007042415
:10455000243F240000F8088888080800001921205A
:1045600020110E0000E0108888180000000F1120B4
:1045700020110E0000380808C83808000000003F6D
:10458000000000000070880808887000001C2221CC
:1045900021221C0000E010080810E0000000312279
:1045A00022110F00000000C0C00000000000003019
:1045B000300000000000008000000000000080606B
:1045C00000000000000080402010080000010204EC
:1045D00008102000404040404040400004040404D3
:1045E000040404000008102040800000002010088F
:1045F00004020100007048080808F00000000030C4
:1046000036010000C030C828E810E0000718272451
:1046100023140B000000C038E0000000203C2302FF
:104620000227382008F8888888700000203F202062
:1046300020110E00C0300808080838000718202094
:104640002010080008F808080810E000203F20208B
:1046500020100F0008F88888E8081000203F20206C
:104660002320180008F88888E8081000203F200060
:1046700003000000C0300808083800000718202098
:10468000221E020008F808000008F808203F210157
:1046900001213F20000808F8080800000020203F02
:1046A0002020000000000808F8080800C080808072
:1046B0007F00000008F888C028180800203F20016B
:1046C0002638200008F8080000000000203F2020C5
:1046D0002020300008F8F800F8F80800203F003FDC
:1046E000003F200008F830C00008F808203F2000F4
:1046F00007183F00E01008080810E0000F10202005
:1047000020100F0008F808080808F000203F2101D9
:1047100001010000E01008080810E0000F18242430
:1047200038504F0008F8888888887000203F2000A3
:10473000030C302000708808080838000038202159
:1047400021221C00180808F8080818000000203F63
:104750002000000008F808000008F808001F2020CA
:1047600020201F000878880000C83808000007389B
:104770000E010000F80800F80008F800033C0700EC
:10478000073C0300081868808068180820302C0354
:10479000032C30200838C800C83808000000203F2B
:1047A0002000000010080808C8380800203826211A
:1047B00020201800000000FE020202000000007F1E
:1047C00040404000000C30C000000000000000012C
:1047D0000638C00000020202FE0000000040404017
:1047E0007F0000000000040202020400000000003C
:1047F00000000000000000000000000080808080B9
:1048000080808080000202040000000000000000A0
:104810000000000000008080808000000019242239
:1048200022223F2008F8008080000000003F112075
:1048300020110E000000008080800000000E11207A
:1048400020201100000000808088F800000E112058
:1048500020103F200000808080800000001F222266
:1048600022221300008080F0888888180020203FD2
:10487000202000000000808080808000006B9494E5
:104880009493600008F8008080800000203F2100A1
:1048900000203F2000809898000000000020203F6A
:1048A00020200000000000809898000000C0808058
:1048B000807F000008F8000080808000203F2402F4
:1048C0002D302000000808F8000000000020203FE4
:1048D000202000008080808080808000203F200099
:1048E0003F20003F8080008080800000203F21002A
:1048F00000203F200000808080800000001F2020DA
:1049000020201F00808000808000000080FFA12008
:1049100020110E000000008080808000000E112019
:1049200020A0FF80808080008080800020203F21A8
:10493000200001000000808080808000003324245B
:1049400024241900008080E0808000000000001F07
:10495000202000008080000000808000001F2020B8
:1049600020103F20808080000080808000010E3079
:104970000806010080800080008080800F300C03DA
:104980000C300F0000808000808080000020312EDD
:104990000E312000808080000080808080818E70B9
:1049A0001806010000808080808080000021302C6B
:1049B0002221300000000000807C02020000000084
:1049C000003F404000000000FF0000000000000029
:1049D000FF0000000002027C800000000040403F19
:1049E00000000000000601010202040400000000B3
:1049F00000000000000000000000000000000000B7
:104A000000000000000000000000000000000000A6
:104A100000000000000000000000000000F0F0F0C6
:104A2000000000000000000000017F010000000005
:104A300000000000001C1C1C000000000000806042
:104A4000301C8C60301C0C000000000000000000D6
:104A50000000000000000000000000000000000056
:104A6000000000E00000000000E000000086E69F7B
:104A700086868686E69F860000011F0101010101EE
:104A80001F010100000080C06020F820E0C000008D
:104A9000000003070C18FF70E18100000000070F01
:104AA00010107F100F070000806020608000000061
:104AB000E02000000F3020309F70DC371030C00045
:104AC0000000100E03000718101807000000C02097
:104AD00020E0C0000000000080E01F38E88703C429
:104AE0003C040000070F1810100B070D10100800F1
:104AF00000808C4C38000000000000000000000026
:104B000000000000000000000000000000000000A5
:104B10000000000000000000000080E030080400F9
:104B20000000000000FEFF01000000000000000087
:104B30000000030F1820400000040830E08000004F
:104B4000000000000000000001FFFE000000000067
:104B5000004020180F0300000000000000000000CB
:104B60000000C00000000000004266663C18FF180C
:104B70003C666642000000000000030000000000E8
:104B80000000000000008000000000000010101075
:104B90001010FF10101010100000000000000300A3
:104BA0000000000000000000000000000000000005
:104BB00000000000000000000000000000808C4C9D
:104BC00038000000000000000000000000000000AD
:104BD0000000000000101010101010101010100035
:104BE00000000000000000000000000000000000C5
:104BF00000000000000000000000000000000000B5
:104C00000000000000001C1C1C0000000000000050
:104C10000000000000000000E0380C000000000070
:104C200080701C03000000000060380E01000000CE
:104C300000000000000080C060202060C0800000F4
:104C400000FEFF010000000001FFFE000001070E52
:104C5000181010180E0701000000808080C0E000CE
:104C6000000000000000000000FFFF000000000046
:104C700000001010101F1F101010000000804020B6
:104C800020202060C0800000000303008040203806
:104C90001F070000001C1A1918181818181F000008
:104CA0000080C020202060C08000000000030300BE
:104CB0001010182FE780000000070F1010101018B8
:104CC0000F070000000000000000C0E0F00000003E
:104CD00000C0B088868180FFFF8080000000000057
:104CE0000010101F1F1010000000E0606060606086
:104CF0006060000000003F1008080818F0E00000A5
:104D000000070B101010101C0F030000000080C0E3
:104D100040202020E0C0000000FCFF21100808080F
:104D200018F0E0000001070C18101010080F030025
:104D30000000C0E06060606060E0600000000300B0
:104D40000000E0180700000000000000001F1F0026
:104D5000000000000080C0602020202060C0800093
:104D60000087EF2C1818303068CF830000070F0839
:104D700010101010180F07000000C0C020202020C5
:104D8000C0800000001F3F604040402010FFFE0038
:104D900000000C1C101010080F03000000000000A1
:104DA000000000000000000000000000000E0E0ED9
:104DB0000000000000000000001C1C1C000000009F
:104DC00000000000000000000000000000000000E3
:104DD000000C0C000000000000000000005838002B
:104DE00000000000000000000000008040201000D3
:104DF00000001028448201000000000000000000B4
:104E00000000010204081000000000000000000083
:104E1000000000000084848484848484848484006A
:104E20000000000000000000000000000000102052
:104E3000408000000000000000000000000001822F
:104E400044281000000010080402010000000000C7
:104E500000C020201010101030E0C000000303003C
:104E600000F010080C070300000000001C1C1C00D0
:104E700000000000000000C0406020202040C00072
:104E800000FCFF01F00E03C1FE03807F0001070E4E
:104E900008111110110904020000000080E0E00078
:104EA000000000000000807C4340477FF880000045
:104EB00010181F1000000000131F1C1020E0E0203D
:104EC00020202060C080000000FFFF10101010188C
:104ED0002FE78000101F1F1010101010180F070070
:104EE000000080C0402020202060E00000FCFF0186
:104EF00000000000000001000001070E1810101053
:104F00000804030020E0E02020202040C0800000B2
:104F100000FFFF000000000001FFFE00101F1F1037
:104F2000101018080E07010020E0E02020202020AB
:104F30002060800000FFFF101010107C00000000B7
:104F4000101F1F10101010101018060020E0E02095
:104F5000202020206060800000FFFF101010107CD7
:104F600000000100101F1F100000000000000000E2
:104F7000000080C06020202040E0000000FCFF0115
:104F800000004040C0C140400001070E1810101042
:104F90000F0F000020E0E0200000000020E0E020F3
:104FA00000FFFF101010101010FFFF00101F1F1047
:104FB00000000000101F1F100000202020E0E02053
:104FC000202000000000000000FFFF0000000000A3
:104FD00000001010101F1F10101000000000000033
:104FE000202020E0E020202000000000000000FF42
:104FF000FF0000000060E0808080C07F3F00000074
:1050000020E0E020000020A06020200000FFFF3012
:10501000187CE3C000000000101F1F1000000113E7
:105020001F1C181020E0E02000000000000000001D
:1050300000FFFF000000000000000000101F1F1014
:10504000101010101018060020E0E0E00000000032
:10505000E0E0E02000FF013FFEC0E01E01FFFF0096
:10506000101F1000031F0300101F1F1020E0E0C0DE
:10507000000000000020E02000FF0003071C78E093
:105080008000FF00101F100000000000030F1F0031
:10509000000080C060202060C080000000FEFF0192
:1050A0000000000000FFFE000001070E181010189D
:1050B0000C07010020E0E0202020202060C08000BC
:1050C00000FFFF2020202020301F0F00101F1F1086
:1050D0000000000000000000000080C06020206090
:1050E000C080000000FEFF010000000000FFFE0085
:1050F0000001070E1111133C7C67210020E0E02025
:105100002020202060C0800000FFFF101030F0D071
:10511000080F0700101F1F10000000030F1C1010C5
:105120000080C060202020204040E00000070F0CDD
:105130001818303060E08100001F0C0810101010AB
:10514000180F07008060202020E0E02020206080F1
:105150000100000000FFFF0000000001000000004F
:10516000101F1F100000000020E0E02000000000E1
:105170000020E02000FFFF00000000000000FF0012
:1051800000070F1810101010100807002060E0E052
:105190002000000020E060200000077FF8800080F1
:1051A0007C03000000000000071F1C070000000037
:1051B00020E0E02000E0E0200020E0200007FFF8F1
:1051C000E01FFFFCE01F00000000031F0300011FA1
:1051D00003000000002060E0A0000020E06020004C
:1051E000000000038F7CF8C6010000000010181EAC
:1051F000130001171F1810002060E0E020000000DD
:1052000020E06020000001073EF8E01807000000E1
:1052100000000010101F1F10100000000080602010
:10522000202020A0E0E0200000000000C0F03E0FA1
:105230000300000000101C1F1710101010180600AB
:105240000000000000FC040404040400000000004E
:1052500000FF00000000000000000000007F404050
:1052600040404000000010E000000000000000008E
:1052700000000000031C608000000000000000002F
:10528000000000030C70800000000404040404FC0F
:105290000000000000000000000000FF000000000F
:1052A000000040404040407F00000000000000102F
:1052B000080C040C081000000000000000000000B2
:1052C00000000000000000000000000000000000DE
:1052D00000000000000000000000000000000000CE
:1052E00000000000000000008080808080808080BE
:1052F0008080808000000004040808000000000096
:10530000000000000000000000000000000000009D
:10531000000000000000000000000000000000008D
:1053200000000000000098D844642424FCF8000029
:10533000000F1F18101010081F1F10180020E0F099
:1053400000000000000000000000FFFF1808040437
:105350000CF8F00000001F0F18101010180F0300B9
:1053600000000000000000000000000000E0F8184D
:105370000404043C3800000000030F0C101010104F
:10538000080600000000000000000020E0F000001F
:1053900000E0F81C04040408FFFF000000030F18DD
:1053A000101010081F0F080000000000000000008F
:1053B000000000000000E0F8484444444C787000CD
:1053C0000000030F0C18101010080400000000006B
:1053D00080C0602020E0C00000040404FFFF04043B
:1053E00004040000000010101F1F10101000000027
:1053F000000000000000000000000000000070F845
:105400008C04048CF874040C007076CF8D8D8D891B
:10541000C87870000020E0F00000000000000000EC
:105420000000FFFF08040404FCF8000000101F1F28
:10543000100000101F1F100000000000006060003E
:10544000000000000000040404FCFC000000000058
:1054500000001010101F1F101010000000000000AE
:10546000000000606000000000000000040404FC74
:10547000FC0000000000C0C08080C07F3F00000032
:105480000020E0F000000000000000000000FFFF2E
:1054900080C0F41C0404000000101F1F1100031F33
:1054A0001C1010000000202020E0F0000000000090
:1054B0000000000000FFFF000000000000001010CE
:1054C000101F1F101010000000000000000000005E
:1054D0000000000004FCFC0804FCFC0804FCFC00C8
:1054E000101F1F10001F1F10001F1F1000000000C2
:1054F00000000000000000000004FCFC0808040498
:10550000FCF8000000101F1F100000101F1F1000EB
:1055100000000000000000000000000000E0F018A3
:105520000C04040C18F0E00000030F0C1010101015
:105530000C0F03000000000000000000000000004D
:105540000004FCFC080404040CF8F0000080FFFFD9
:10555000889010101C0F03000000000000000000E5
:105560000000000000E0F81C04040408F8FC00003F
:1055700000030F1810109088FFFF8000000000004B
:105580000000000000000000040404FCFC100804FB
:10559000040C0C001010101F1F1010100000000051
:1055A0000000000000000000000000000000307853
:1055B000CCC48484840C1C0000001E181010101130
:1055C000190F06000000000000C0000000000000ED
:1055D00000040404FFFF04040400000000000000B5
:1055E0000F1F1010100C0000000000000000000051
:1055F000000000000004FCFE00000004FCFE0000AF
:1056000000000F1F181010081F0F080000000000F6
:10561000000000000000000000040C3CFCC400007E
:10562000C43C0C0400000000010F1E0E010000002D
:10563000000000000000000000000000043CFCC46A
:1056400000E47CFC84807C040000071F0700000746
:105650001F07000000000000000000000000000024
:105660000004041C7CE4C0341C0404000010101C62
:105670001601131F1C18100000000000000000009D
:105680000000000000040C3CFCC400C43C04040006
:105690000000C080C1370E010000000000000000C3
:1056A000000000000000000000001C0404C4F47CA2
:1056B0001C0400000000101C1F17111010180E0011
:1056C00000000000000000F80C04000000000000D2
:1056D000001028EF00000000000000000000003F64
:1056E00060400000000000000000FF00000000001B
:1056F000000000000000FF000000000000000000AB
:105700000000FF00000000000000040CF800000092
:105710000000000000000000EF2810000000000062
:10572000000040603F00000000000000001806027A
:1057300002040810202030080000000000000000D3
:105740000000000000000000000000000000000059
:105750000807000010270000000100000807C7002C
:1057600002000000630000000100000000000000D3
:1057700000000000080000001800000000300000D9
:10578000A05700000000202038000000383600003C
:10579000D857000038002020A81A0000503600001A
:1057A00001000000000000000000003F0000803FFA
:1057B00033335340A69B443B000070420000803FBF
:1057C00000008C420000000000000000000000000B
:0857D0000101000000000000CF
:04000005000000C136
:00000001FF
