:020000040000FA
:10000000E00B2020D5000000D9000000DB0000003C
:1000100000000000000000000000000000000000E0
:10002000000000000000000000000000DD000000F3
:100030000000000000000000DF000000E100000000
:10004000E3000000C10D0000E3000000E300000039
:10005000E3000000E3000000E3000000E300000014
:1000600000000000E3000000E300000000000000CA
:1000700000000000E3000000E30000005125000044
:10008000E3000000E3000000B5230000E3000000EF
:10009000E3000000E300000000000000000000009A
:1000A000E3000000E300000000000000000000008A
:1000B000E300000000000000E3000000E300000097
:1000C0000348854600F044FC004800470129000031
:1000D000E00B202003480047FEE7FEE7FEE7FEE7CF
:1000E000FEE7FEE7C1000000F8B502464A40D40F23
:1000F00042004B0052085B089A4202D20246084670
:1001000011464A0023D0C30D4A00DDB2120EAD1ACB
:10011000202D35DA49020126490AF6058A19002CF4
:1001200000D0524220214F1B1146B9402A411018DD
:10013000C20D9A4221D0002C17D0012D08DCDA051F
:10014000801AD20F8019D207DBB200F003FBF8BD92
:10015000DA05801A012340001B06C01880185A4295
:100160008018CA0F1043490007E04908C20711432D
:10017000DA05801A80194008801800F0E3FAF8BD0B
:1001800061000122511A001BF7E70122D2075140FA
:10019000AAE70122D2075040A6E7024670B54A40BE
:1001A000D30FDB0740002DD04A002AD0010E140ED9
:1001B000000212020919400A520A8418E501044695
:1001C0005443000A120A2E045043A4194219200C69
:1001D000C543AA18120C0125AD03521C5219120472
:1001E0007F39240400D0521C104301D44000491E22
:1001F000C2B20C06C0092018401C4008802A02D058
:1002000003E0002070BD40084000002900DA002013
:10021000184370BDF0B507460846584087B0C00F78
:10022000049048000E46590040084908BC1A88410D
:1002300005D2384631461E4617460B460246580040
:10024000400810434CD0300D039040055900400D3C
:10025000490D0590401A0290402872DA18030121D6
:10026000000B09050843019004980092002805D06E
:100270000199524200208841009201900298402149
:100280000A1A0199009800F03AFA05460C466B46A6
:1002900007CB00F044FAC0197141039A0E0D0023F8
:1002A000D71756401A467A40164344D0049A002A7B
:1002B0002DD0029A012A039A15DC1205C01A914129
:1002C00001263605001C7141D20F059ED20700930E
:1002D000019202962A46234600F082FA07B0F0BD4A
:1002E00038463146FAE71605224A0F46B218C01AB8
:1002F000B74101210905001C4F4100187F411146FB
:1003000018187941E20F10436D19644113E0E207B8
:100310006D0815436408C2071443039A01261205A9
:10032000C01A91413605001C7141CE074008304388
:100330004908C01851412A46234600F044FACDE747
:10034000FFE7049801224000C117121A00238B41D5
:1003500004983146C417381AA141EEE730B401249D
:10036000E407634030BC55E730B40124E407614042
:1003700030BC4FE70000E0FFF0B51FB488B00B9928
:100380000998002448400999C00F4900490809917B
:10039000C0070B990090490049080B9109990898EA
:1003A000A64608431CD00B990A98084318D0099810
:1003B00001244000420D4800410D09982405000326
:1003C000000B204309900B980003000B20430B9077
:1003D00050181C494018002201901446104605E0B0
:1003E000002001460DB0F0BD032801DA034600E00D
:1003F00003239C46C11A0AAE0AE05F0008ADED5B1C
:100400004F00F75B7D430027AA187C41491C5B1E07
:100410006145F2DD410004AB5A522104120C0A433B
:10042000240C401C0828DFDB0198029000997046DC
:1004300001910090059B049A0799069800F0D0F965
:10044000D0E700000DFCFFFFF0B50C465C4085B026
:10045000E40FE40703944C00002664085900944616
:10046000490802460296224321D062460A431ED022
:100470006200570D4A000E032303550D0124024666
:100480002C492405781B1B0B360B401823432643AD
:10049000614600901C46501AB44103D30098401C9A
:1004A000009002E0921800985B41002803DA0020D7
:1004B000014605B0F0BD002001210905074686462A
:1004C00011E064461D46141BB54106D36546521B18
:1004D000B341744607430C43A646CD07400849087C
:1004E000284392185B4105460D43EAD11046184354
:1004F00013D06046194650407140084306D060460C
:10050000101AB34106D20122002306E00022012383
:10051000DB0702E00122D243531000987446010524
:10052000381C6141029C039D0019694100F04BF9A0
:10053000BFE70000FD0300000122D207002800DB16
:10054000101A002900DB511A814201D201207047A4
:10055000002070470122D207002800DB101A002972
:1005600000DB511A814201D90120704700207047F9
:100570000122D207002800DB101A002900DB511AE3
:10058000814201D1012070470020704710B5002939
:1005900004DB0C460121C9074042A141002B04DBCA
:1005A0001C460123DB075242A341101A8B4101D2A2
:1005B000012010BD002010BD10B5002904DB0C4641
:1005C0000121C9074042A141002B04DB1C46012345
:1005D000DB075242A341101A8B4101D3012010BD09
:1005E000002010BD10B5002904DB0C460121C9070D
:1005F0004042A141002B04DB1C460123DB07524291
:10060000A34142404B401A4301D0002010BD0120BD
:1006100010BDC217C10F504010B54018CA0796232D
:10062000002100F097F810BD0EB5C217C10F504061
:10063000CA0740180021054B0293019200910A4617
:100640000B4600F0CDF803B000BD000033040000FD
:100650000EB505490291002100910A460B46019111
:1006600000F0BEF803B000BD33040000C20F41002B
:1006700040020123400ADB05D207090EC0187F297A
:1006800001DA00207047962903DC9623591AC840E6
:1006900001E096398840002AF4D040427047C20FEA
:1006A000D207400040080BD0C10D0723DB01C91859
:1006B00040020905400A1143C20840071143704730
:1006C000002001467047CB0FDB07490010B54908F1
:1006D00002460A4307D00A0D07240903E401090B67
:1006E000121B002A01DC002010BDC900440F0C437E
:1006F000C100E018D205801800F024F810BD10B534
:10070000202A04DB0146203A9140002010BD914090
:1007100020239C1A0346E3401943904010BD10B5B6
:10072000202A06DBCB170846203A1041C1170B439D
:1007300006E00B461341D0402024A21A9140084302
:10074000194610BD002904DA401C490001D14008B7
:100750004000704770B40024050C05D1102400043B
:1007600002D1002921D01124050E01D10002083444
:10077000050F01D10001241D850F01D18000A41CAB
:10078000002801DB4000641C002908D020252E1B16
:100790000D46F540A14000D0012129430843010640
:1007A0001B1B000ADB1D02D5002070BC7047DB0557
:1007B000181880180029F8DA401C4900F5D170BCDF
:1007C00040084000704710B5002B08DA0024401C98
:1007D000614192185B411A4301D14008400010BDAD
:1007E000F0B51FB482B005460C0003D0084602F0F5
:1007F00073F902E002F070F92030024600902146C1
:100800002846FFF77CFF049B059A04460F461843D1
:100810001143084314D0184610431BD000984021C0
:100820000A1A1846059900F0ABF805460E46009ADC
:1008300005990498FFF763FF084305D0012004E001
:100840002046394607B0F0BD0020C11705430E43CE
:100850002C43374300990E986305401A7905E40A42
:1008600000220C43FD0A0A3002D500200146E9E7C8
:100870000105101969410C9C0D9D00196941FFF794
:10088000A2FFDFE7FEB500231A461B1A8A4103DBED
:100890000020014603B0F0BD4A000D0301212D0BDD
:1008A0000905520D0D43D10702D100186D41521EAA
:1008B0005110FF31FF310131002704463E463846D2
:1008C00000970191024601210020090500F058F827
:1008D000C3197141F818324684468E464A41614632
:1008E0002846611A904104D36046241A9541764601
:1008F0001F46241900986D41401C00903428E1DD0A
:10090000F91930467041091BA84103D20022D24395
:10091000134601E00022134601980105381C71417D
:10092000FFF751FFB6E7000010B5002904DB0124F2
:10093000E40740428C412146002B04DB1C46012386
:10094000DB075242A3418B4200D1824210BD00001E
:100950001CB5094800900948019005460126009CF5
:1009600005E0E36807CC33430C3C98471034AC42B5
:10097000F7D3FFF7A9FB0000283900004839000031
:1009800010B5202A04DB0846203AD040002110BDD3
:100990000B46D340D0402024A21A91400843194668
:1009A00010BD70B54B005B0803430BD04B005C0DD2
:1009B000002633466542B341D417AD1AA34102DB8A
:1009C0000020014670BD12053018514170BD000075
:1009D00070B5CD0F4A0009030123090B1B0519430C
:1009E0000B4BED070024520D9A4201DA002070BD36
:1009F000074B34339A4203DC9A1AFFF7C1FF02E037
:100A00000449511888402C43F1D0404270BD000089
:100A1000FF030000CDFBFFFFF0B583B00F46054696
:100A200010461946FFF7B1FB04462860696AFFF7D4
:100A30005BFB064668620197FF6800213846FFF7B6
:100A400097FD0028029412D10120C4077C40304653
:100A50002146FFF771FD002800D134463046394663
:100A6000FFF778FD002800D127466F6200E0374687
:100A700001990E6848688968019169680091029C33
:100A80006C603946FFF789FB054630462146FFF783
:100A900084FB2946FFF728FB054620460099FFF70F
:100AA00074FB01460198FFF778FB2946FFF71CFB12
:100AB00003B0F0BDF0B583B00F46054610461946A9
:100AC000FFF763FB04462860696AFFF70DFB0646E3
:100AD00068620197FF6800213846FFF749FD00284A
:100AE000029412D10120C4077C4030462146FFF712
:100AF00023FD002800D1344630463946FFF72AFD51
:100B0000002800D127466F6200E0374601990E6841
:100B100048688968019169680091029C6C60394657
:100B2000FFF73BFB054630462146FFF736FB2946DB
:100B3000FFF7DAFA054620460099FFF726FB014643
:100B40000198FFF72AFB2946FFF7CEFA03B0F0BD64
:100B5000811E091F00BFFCD270470000F0B5664A35
:100B60008218294BC318087920280DD000281DD1E0
:100B70000C68641E5460D56E244C25408835D566BB
:100B80001646703688251DE00C68641E5460D46ECD
:100B90001E4D2C401E4EA419D466146F2C40A4196F
:100BA0001467012465071B4C16460BE00C686408AB
:100BB0005460D66E154C26400525ED017619D66693
:100BC00016467036376827402F433760D46A4C4D3D
:100BD0002C40D462146B2C4014630024D46414653C
:100BE0008F24E443D56F2540D5671D6825401D60DF
:100BF00049790143BD2008401168074B0B40C018DC
:100C0000801C1060F0BDC0468418000024F93FF03D
:100C100001040000FFFFFFCF4000FFCFB0B5364A10
:100C200080184A6842600A78222A57D8930001A4A3
:100C3000E3589F46D30C0000DD0C0000D30C0000ED
:100C4000DD0C0000DD0C0000DD0C0000DD0C000000
:100C5000DD0C0000DD0C0000DD0C0000DD0C0000F0
:100C6000DD0C0000DD0C0000DD0C0000DD0C0000E0
:100C7000DD0C0000C10C0000DD0C0000C10C000008
:100C8000DD0C0000DD0C0000DD0C0000DD0C0000C0
:100C9000DD0C0000DD0C0000DD0C0000DD0C0000B0
:100CA000DD0C0000DD0C0000DD0C0000DD0C0000A0
:100CB000DD0C0000C10C0000DD0C0000C10C0000C8
:100CC00003231B0704689C4301235B07E3180360AD
:100CD00004E003231B0704689C4304600B69C360A2
:100CE000CB68064C1C40C36A054D1D402B19C362DE
:100CF000097A11430160B0BD041800007777020043
:100D00008888FDFF10B507239B04194092008018C6
:100D1000024A84589C436118815010BD301800006D
:100D200010B5029CA400001911431943014A8150D7
:100D300010BDC0465018000092008018014A815032
:100D40007047C0461018000010B501221203831826
:100D50000C789C604B7883508978014A815010BD93
:100D60000C110000B0B51122120283580124A343D4
:100D700083508B780C881C438B882343094C1C4080
:100D80008358094D1D402B1983508B79CC791C4316
:100D9000097A21437E231940801842689A435118EA
:100DA0004160B0BD18670000E798FDFF10B5012253
:100DB000120383180C789C604978815010BD0000A4
:100DC000F0B58720C203334908461038046820462E
:100DD0001040314B186001202304874B09D4E503F0
:100DE0000FD5C6031F682D4D2D68374206D06D1EE6
:100DF00005E01E68294D2D68F603F8D56D1C274EB9
:100E00003560A50309D464020FD545041E68244C3F
:100E100024682E4206D0641E05E01D68204C24681C
:100E20006D02F8D5641C1E4D2C600C6814430C60D8
:100E30001968490701D51B4908701968490702D488
:100E4000184900220A7002066C490B68DB0101D5C3
:100E5000144B58700B68134202D1124A002353708E
:100E600002050B68DB0201D50E4B98700B6813422C
:100E700002D10C4A00239370C2040B681B0301D5F6
:100E8000084BD8700868104202D106480021C17092
:100E9000F0BDC04648100A4030062020380020200F
:100EA0003C002020DC0A2020B0B5524801780229FD
:100EB0001AD0012932D0002953D14F490A684F4B2B
:100EC0001C680968490C04250D40210D02240C40C2
:100ED0005103C90F611849191A68D20C082313402D
:100EE000C9183ED001213BE043490A68434B1C68C6
:100EF0000968490C04250D40240D02210C405203C1
:100F0000D20FA21852191B68DB0C08241C401219BE
:100F10003B4B1A880ED014321A8022E036490A68F8
:100F2000520301D4012118E0344A13689B020BD408
:100F3000022112E0002404701C804B2080008242B9
:100F400000D801212F480BE00968090301D40321CF
:100F500003E011684902C5D40421022202702A4824
:100F600001702948027827490978012903D1012A0B
:100F700001D1012304E0022922D1012A20D1022338
:100F8000234C2370002302290DD1002B0BD0022308
:100F9000204C2370121F5342534102290DD1002BC4
:100FA0000BD0022107E0141F634263410129F4D1F1
:100FB000042AF2D10121184A117000210170B0BD3C
:100FC000012903D1022A01D1012304E0022908D119
:100FD000022A06D102230D4C2370D41E63426341C2
:100FE000D1E7D41E634263410129CCD1032ACAD17F
:100FF0000123CDE7890A202080130A4080330A406C
:1010000046002020440020204800202041002020CD
:10101000400020204200202043002020B0B502489C
:101020000346F833802401E0490020200021197094
:101030001A46083A11701A46103A11701A46183AB0
:1010400011701A46203A11701A46283A11701A4641
:10105000303A11701A46383A11701A46403A1170F7
:101060001A46483A11701A46503A11701A46583AC0
:1010700011701A46603A11701A46683A11701A4691
:10108000703A11701A46783A11701A46803A117007
:101090001A46883A11701A46903A11701A46983AD0
:1010A00011701A46A03A11701A46A83A11701A46E1
:1010B000B03A11701A46B83A11701A46C03A117017
:1010C0001A46C83A11701A46D03A11701A46D83AE0
:1010D00011701A46E03A11701A46E83A11701A4631
:1010E000F03A11701A46F83A1170012212029B1858
:1010F000203C9BD10446F934802321702546083DCD
:1011000029702546103D29702546183D2970254631
:10111000203D29702546283D29702546303D2970FF
:101120002546383D29702546403D29702546483DD5
:1011300029702546503D29702546583D2970254681
:10114000603D29702546683D29702546703D29700F
:101150002546783D29702546803D29702546883DE5
:1011600029702546903D29702546983D29702546D1
:10117000A03D29702546A83D29702546B03D29701F
:101180002546B83D29702546C03D29702546C83DF5
:1011900029702546D03D29702546D83D2970254621
:1011A000E03D29702546E83D29702546F03D29702F
:1011B000A518F83C2170203B2C469ED10446FA34F9
:1011C000802321702546083D29702546103D297051
:1011D0002546183D29702546203D29702546283D85
:1011E00029702546303D29702546383D2970254611
:1011F000403D29702546483D29702546503D2970BF
:101200002546583D29702546603D29702546683D94
:1012100029702546703D29702546783D2970254660
:10122000803D29702546883D29702546903D2970CE
:101230002546983D29702546A03D29702546A83DA4
:1012400029702546B03D29702546B83D29702546B0
:10125000C03D29702546C83D29702546D03D2970DE
:101260002546D83D29702546E03D29702546E83DB4
:1012700029702546F03D2970A518F83C2170203BC7
:101280002C469ED10446FB34802321702546083D20
:1012900029702546103D29702546183D29702546A0
:1012A000203D29702546283D29702546303D29706E
:1012B0002546383D29702546403D29702546483D44
:1012C00029702546503D29702546583D29702546F0
:1012D000603D29702546683D29702546703D29707E
:1012E0002546783D29702546803D29702546883D54
:1012F00029702546903D29702546983D2970254640
:10130000A03D29702546A83D29702546B03D29708D
:101310002546B83D29702546C03D29702546C83D63
:1013200029702546D03D29702546D83D297025468F
:10133000E03D29702546E83D29702546F03D29709D
:10134000A518F83C2170203B2C469ED10446FC3465
:10135000802321702546083D29702546103D2970BF
:101360002546183D29702546203D29702546283DF3
:1013700029702546303D29702546383D297025467F
:10138000403D29702546483D29702546503D29702D
:101390002546583D29702546603D29702546683D03
:1013A00029702546703D29702546783D29702546CF
:1013B000803D29702546883D29702546903D29703D
:1013C0002546983D29702546A03D29702546A83D13
:1013D00029702546B03D29702546B83D297025461F
:1013E000C03D29702546C83D29702546D03D29704D
:1013F0002546D83D29702546E03D29702546E83D23
:1014000029702546F03D2970A518F83C2170203B35
:101410002C469ED10446FD34802321702546083D8C
:1014200029702546103D29702546183D297025460E
:10143000203D29702546283D29702546303D2970DC
:101440002546383D29702546403D29702546483DB2
:1014500029702546503D29702546583D297025465E
:10146000603D29702546683D29702546703D2970EC
:101470002546783D29702546803D29702546883DC2
:1014800029702546903D29702546983D29702546AE
:10149000A03D29702546A83D29702546B03D2970FC
:1014A0002546B83D29702546C03D29702546C83DD2
:1014B00029702546D03D29702546D83D29702546FE
:1014C000E03D29702546E83D29702546F03D29700C
:1014D000A518F83C2170203B2C469ED10446FE34D2
:1014E000802321702546083D29702546103D29702E
:1014F0002546183D29702546203D29702546283D62
:1015000029702546303D29702546383D29702546ED
:10151000403D29702546483D29702546503D29709B
:101520002546583D29702546603D29702546683D71
:1015300029702546703D29702546783D297025463D
:10154000803D29702546883D29702546903D2970AB
:101550002546983D29702546A03D29702546A83D81
:1015600029702546B03D29702546B83D297025468D
:10157000C03D29702546C83D29702546D03D2970BB
:101580002546D83D29702546E03D29702546E83D91
:1015900029702546F03D2970A518F83C2170203BA4
:1015A0002C469ED1FF30802301700446083C2170F8
:1015B0000446103C21700446183C21700446203C2F
:1015C00021700446283C21700446303C21700446BA
:1015D000383C21700446403C21700446483C217050
:1015E0000446503C21700446583C21700446603C3F
:1015F00021700446683C21700446703C217004460A
:10160000783C21700446803C21700446883C21705F
:101610000446903C21700446983C21700446A03C4E
:1016200021700446A83C21700446B03C2170044659
:10163000B83C21700446C03C21700446C83C21706F
:101640000446D03C21700446D83C21700446E03C5E
:1016500021700446E83C21700446F03C2170841857
:10166000F8380170203B20469ED100F09FFBB0BDB2
:10167000F0B581B0AE200024214600F011FC2046D8
:10168000214600F00DFC1020214600F009FC402707
:101690003846214600F004FC8120214600F000FC81
:1016A000CF20214600F0FCFBA120214600F0F8FBF2
:1016B000C820214600F0F4FBA6263046214600F063
:1016C000EFFBA820214600F0EBFB3F20214600F075
:1016D000E7FBD320214600F0E3FB2046214600F043
:1016E000DFFBD520214600F0DBFB80252846214684
:1016F00000F0D6FBD920214600F0D2FBF120214694
:1017000000F0CEFBDA20214600F0CAFB1220214671
:1017100000F0C6FBDB20214600F0C2FB3846214624
:1017200000F0BEFB2020214600F0BAFB022021463B
:1017300000F0B6FB8D20214600F0B2FB14202146BC
:1017400000F0AEFBA420214600F0AAFB3046214663
:1017500000F0A6FB01480246F83201E049002020D3
:101760001470114608390C70114610390C7011466E
:1017700018390C70114620390C70114628390C703C
:10178000114630390C70114638390C701146403909
:101790000C70114648390C70114650390C701146C6
:1017A00058390C70114660390C70114668390C704C
:1017B000114670390C70114678390C701146803919
:1017C0000C70114688390C70114690390C70114616
:1017D00098390C701146A0390C701146A8390C705C
:1017E0001146B0390C701146B8390C701146C03929
:1017F0000C701146C8390C701146D0390C70114666
:10180000D8390C701146E0390C701146E8390C706B
:101810001146F0390C701146F8390C70012109029B
:101820005218203D9CD10346F93380221C701D467E
:10183000083D2C701D46103D2C701D46183D2C7027
:101840001D46203D2C701D46283D2C701D46303D08
:101850002C701D46383D2C701D46403D2C701D4699
:10186000483D2C701D46503D2C701D46583D2C7037
:101870001D46603D2C701D46683D2C701D46703D18
:101880002C701D46783D2C701D46803D2C701D46E9
:10189000883D2C701D46903D2C701D46983D2C7047
:1018A0001D46A03D2C701D46A83D2C701D46B03D28
:1018B0002C701D46B83D2C701D46C03D2C701D4639
:1018C000C83D2C701D46D03D2C701D46D83D2C7057
:1018D0001D46E03D2C701D46E83D2C701D46F03D38
:1018E0002C705D18F83B1C70203A2B469ED10346A5
:1018F000FA3380221C701D46083D2C701D46103D99
:101900002C701D46183D2C701D46203D2C701D4628
:10191000283D2C701D46303D2C701D46383D2C70E6
:101920001D46403D2C701D46483D2C701D46503DC7
:101930002C701D46583D2C701D46603D2C701D4678
:10194000683D2C701D46703D2C701D46783D2C70F6
:101950001D46803D2C701D46883D2C701D46903DD7
:101960002C701D46983D2C701D46A03D2C701D46C8
:10197000A83D2C701D46B03D2C701D46B83D2C7006
:101980001D46C03D2C701D46C83D2C701D46D03DE7
:101990002C701D46D83D2C701D46E03D2C701D4618
:1019A000E83D2C701D46F03D2C705D18F83B1C7016
:1019B000203A2B469ED10346FB3380221C701D46E5
:1019C000083D2C701D46103D2C701D46183D2C7096
:1019D0001D46203D2C701D46283D2C701D46303D77
:1019E0002C701D46383D2C701D46403D2C701D4608
:1019F000483D2C701D46503D2C701D46583D2C70A6
:101A00001D46603D2C701D46683D2C701D46703D86
:101A10002C701D46783D2C701D46803D2C701D4657
:101A2000883D2C701D46903D2C701D46983D2C70B5
:101A30001D46A03D2C701D46A83D2C701D46B03D96
:101A40002C701D46B83D2C701D46C03D2C701D46A7
:101A5000C83D2C701D46D03D2C701D46D83D2C70C5
:101A60001D46E03D2C701D46E83D2C701D46F03DA6
:101A70002C705D18F83B1C70203A2B469ED1034613
:101A8000FC3380221C701D46083D2C701D46103D05
:101A90002C701D46183D2C701D46203D2C701D4697
:101AA000283D2C701D46303D2C701D46383D2C7055
:101AB0001D46403D2C701D46483D2C701D46503D36
:101AC0002C701D46583D2C701D46603D2C701D46E7
:101AD000683D2C701D46703D2C701D46783D2C7065
:101AE0001D46803D2C701D46883D2C701D46903D46
:101AF0002C701D46983D2C701D46A03D2C701D4637
:101B0000A83D2C701D46B03D2C701D46B83D2C7074
:101B10001D46C03D2C701D46C83D2C701D46D03D55
:101B20002C701D46D83D2C701D46E03D2C701D4686
:101B3000E83D2C701D46F03D2C705D18F83B1C7084
:101B4000203A2B469ED10346FD3380221C701D4651
:101B5000083D2C701D46103D2C701D46183D2C7004
:101B60001D46203D2C701D46283D2C701D46303DE5
:101B70002C701D46383D2C701D46403D2C701D4676
:101B8000483D2C701D46503D2C701D46583D2C7014
:101B90001D46603D2C701D46683D2C701D46703DF5
:101BA0002C701D46783D2C701D46803D2C701D46C6
:101BB000883D2C701D46903D2C701D46983D2C7024
:101BC0001D46A03D2C701D46A83D2C701D46B03D05
:101BD0002C701D46B83D2C701D46C03D2C701D4616
:101BE000C83D2C701D46D03D2C701D46D83D2C7034
:101BF0001D46E03D2C701D46E83D2C701D46F03D15
:101C00002C705D18F83B1C70203A2B469ED1034681
:101C1000FE3380221C701D46083D2C701D46103D71
:101C20002C701D46183D2C701D46203D2C701D4605
:101C3000283D2C701D46303D2C701D46383D2C70C3
:101C40001D46403D2C701D46483D2C701D46503DA4
:101C50002C701D46583D2C701D46603D2C701D4655
:101C6000683D2C701D46703D2C701D46783D2C70D3
:101C70001D46803D2C701D46883D2C701D46903DB4
:101C80002C701D46983D2C701D46A03D2C701D46A5
:101C9000A83D2C701D46B03D2C701D46B83D2C70E3
:101CA0001D46C03D2C701D46C83D2C701D46D03DC4
:101CB0002C701D46D83D2C701D46E03D2C701D46F5
:101CC000E83D2C701D46F03D2C705D18F83B1C70F3
:101CD000203A2B469ED1FF30802204700346083BF9
:101CE0001C700346103B1C700346183B1C700346D7
:101CF000203B1C700346283B1C700346303B1C7085
:101D00000346383B1C700346403B1C700346483B6F
:101D10001C700346503B1C700346583B1C70034626
:101D2000603B1C700346683B1C700346703B1C7094
:101D30000346783B1C700346803B1C700346883B7F
:101D40001C700346903B1C700346983B1C70034676
:101D5000A03B1C700346A83B1C700346B03B1C70A4
:101D60000346B83B1C700346C03B1C700346C83B8F
:101D70001C700346D03B1C700346D83B1C700346C6
:101D8000E03B1C700346E83B1C700346F03B1C70B4
:101D90004318F8380470203A18469ED100F006F82F
:101DA000AF20002100F07CF801B0F0BDF0B585B0A7
:101DB00000203A4F02905038C0B20024214600F073
:101DC0006FF82046214600F06BF81020214600F005
:101DD00067F8022559480560012606600A24204656
:101DE00000F048FC55480561204600F043FC53488C
:101DF0000661204600F03EFC782000F029FA4F48AA
:101E00000560204600F036FC4C480660204600F095
:101E100031FC4A480661204600F02CFC402000F0CE
:101E200017FA049545480560204600F023FC434816
:101E300006600546204600F01DFC03962E612046F4
:101E400000F018FC80260197387800F001FA3B4931
:101E5000049808600A24204600F00CFC039D3748D3
:101E60000560204600F006FC34480561204600F07D
:101E700001FC761E0837002EE6D1304C049D25610A
:101E8000039820600A2000F0F5FB2560019F7F1C6D
:101E90000298401C08288DD105B0F0BD49002020D3
:101EA000F0B583B001910290244F02263E600125D7
:101EB0003D600A24204600F0DDFB3E61204600F034
:101EC000D9FB3D61204600F0D5FB782000F0C0F939
:101ED0003E60204600F0CEFB3D60204600F0CAFB8D
:101EE0003D61204600F0C6FB0199481E81418801F2
:101EF00000F0AEF93E60204600F0BCFB3D6020469D
:101F000000F0B8FB3D61204600F0B4FB029800F001
:101F10009FF93E60204600F0ADFB3D60204600F09A
:101F2000A9FB3D61204600F0A5FB3E613D602046D7
:101F300000F0A0FB3E6003B0F0BDC04690120A4026
:101F4000B0B528498720C8640123DC05264A1460FF
:101F5000086518061060254B822018652448441C2B
:101F60005C65244C5C63244C5C6681250D604D608F
:101F70008D608D611C66DC6598659D64C860086134
:101F8000486148631D605D60986188648863C862C9
:101F900011463039194B0B60136019490A68194B07
:101FA00013430B600A69184B13430B6117490A6A04
:101FB000174B1A430A620A681A430A6081381549A6
:101FC0000A6802430A600869134A02430A6123202F
:101FD000C00412490A6A02430A620A6802430A609C
:101FE000B0BDC04688804240D0120A4004804240C2
:101FF000810004008100010081000600837104005B
:1020000090130A40300000400510000028100A40DC
:102010000480430090330A40C003030028300A4084
:1020200070B582B0E24C19492046FEF78DFE184982
:102030002046FEF793FD00250095204629462A46B6
:102040002B46FEF76DFE204629462A46FEF75AFE2D
:10205000104920462A46FEF76FFE012600962046CC
:1020600029462A462B46FEF75BFE20462946324685
:10207000FEF748FE084920463246FEF75DFE074857
:1020800086600321016002B070BDC046F8380000D0
:10209000FC380000CF0700008813000000B1864024
:1020A0000C48002101600C48014608390A680323E6
:1020B0009A430A600168012291430160110202689B
:1020C0008A430260FF20000204490A6882430A60D2
:1020D0007047C04608030B4008010B4000E400E0D5
:1020E0000548042101601F214160002181600168D1
:1020F00005220A430260704710E000E010B50D4C65
:102100000D492046FEF720FE0C492046FEF786FDCD
:102110000B480168012211430160FF2000040949B6
:102120000B68834303208005181808600648026086
:1021300010BDC04600008640043900000839000088
:102140002810864010E400E00811864010B5194CB4
:1021500019492046FEF72AFE18492046FEF702FEDE
:102160000320C103164802688A4302600169154AC8
:102170000A400832026141692C220A4313218A4332
:102180004261426801210A4043688B439A184260C9
:102190008A020D4B1C6814431C60FF2212060B4B75
:1021A0001C6894438A07A2181A6002680A430260F6
:1021B00010BDC046008010401C3900001E390000D0
:1021C000009110400000FFFF289010400CE400E058
:1021D00080B500F019F8FFF7B3FEFFF761FFFFF7D6
:1021E0001FFFFFF78BFFFFF7B1FFFFF779FFB82065
:1021F000034900220A54742002490A5480BDC04693
:1022000074052020FC042020B0B50A480A4941602A
:102210000A4A51600A4B59600A4C61600A4D696074
:102220000A49016011601960216029601020FEF7E1
:102230008FFCB0BD00080A40030000B100280A402E
:1022400000A8864000088640008810400100002653
:10225000F0B581B0044640B2544E002802D40220AA
:10226000306101E0022030600A25284600F002FAC1
:1022700001273760284600F0FDF93761600602D477
:102280000220306101E0022030600A25284600F07B
:10229000F1F93760284600F0EDF93761A00602D465
:1022A0000220306101E0022030600A25284600F05B
:1022B000E1F93760284600F0DDF93761E00602D425
:1022C0000220306101E0022030600A25284600F03B
:1022D000D1F93760284600F0CDF93761200702D4E4
:1022E0000220306101E0022030600A25284600F01B
:1022F000C1F93760284600F0BDF93761600702D4A4
:102300000220306101E0022030600A25284600F0FA
:10231000B1F93760284600F0ADF93761A00702D463
:102320000220306101E0022030600A25284600F0DA
:10233000A1F93760284600F09DF93761E00702D126
:102340000220306101E0022030600A24204600F0C3
:1023500091F93760204600F08DF9376101B0F0BD8A
:10236000F0B581B00C460146012738037A030F4EC1
:10237000012902DB3060326102E0326030614942A3
:102380000B4D00222846FEF7D7FCB803B904012CF8
:1023900002DB3060316102E0316030616442012271
:1023A00028462146FEF7C8FC01B0F0BD90120A4055
:1023B00000A08640F0B589B052480068000600D100
:1023C0009DE05149086800270F6050490D680F6073
:1023D0004F494D600B464F4A1178491C11704E4AC7
:1023E0001178491C11704D4A1178491C11704442F2
:1023F0001C606848806AFEF752F9089007912046F1
:10240000FEF712F904460E462846FEF70DF902467D
:102410000B46434805900497424803904248029077
:1024200007980190089800902046314600F044F942
:10243000374DA868FEF71AF9296800F0ADF83B4956
:1024400008600120C407A8686040FEF70FF96968BA
:1024500000F0D6F8364908600A200146FFF780FFF1
:102460002C49087802281DD10F704A4882693148EA
:1024700031493B46FEF71EFB0546304E3146FEF71E
:1024800069F8002801D1654000E02D4D284631460D
:10249000FEF752F8002800D135461D4885603220ED
:1024A00000F058F91C490878032821D10F707B20CF
:1024B000C100A74A505851184968FEF704F903466D
:1024C0003448826A1B481F49FEF7A6FA04461E4D8F
:1024D0002946FEF731F8002800D125461B4C284636
:1024E0002146FEF729F8002800D1254608488560D6
:1024F0000A490878042802D10F70FEF7D5FC09B00C
:10250000F0BDC04620108640380020203C0020202E
:10251000E4042020F8042020F9042020FA042020DC
:1025200000002740E17A743F7B14AE47CC042020A2
:10253000D00420208C0A20202000202000007A4493
:1025400000007AC4100020200000C8C20000C84269
:1025500010B50C480068C0B20B2812D10A48416877
:10256000CAB20260094C2078094A1154401C2070FC
:10257000C0B22C2805D10648064900F09BFA00207D
:10258000207010BD2090104020911040A006202007
:102590007406202034062020B0B5451A164801687C
:1025A0000560681AFEF735F804462846FEF731F84C
:1025B00001462C480068FDF7F0FD05462A480068F2
:1025C0002146FDF7EAFD2946FDF78EFD04460B4D39
:1025D0002868FEF71EF801462046FDF785FDFEF748
:1025E00045F82860E1210901884202DC204988423F
:1025F00001DA29600846B0BDD8042020D404202088
:10260000B0B5451A164801680560681AFEF701F86A
:1026100004462846FDF7FDFF014612480068FDF715
:10262000BCFD0546104800682146FDF7B6FD294669
:10263000FDF75AFD04460D4D2868FDF7EAFF0146F7
:102640002046FDF751FDFEF711F82860E121090150
:10265000884202DC0649884201DA29600846B0BD9A
:10266000E00420200C00202008002020DC04202092
:10267000F0F1FFFFB0B50F490B684001262206E0DC
:10268000E41A0D1F2D686419A218824210D21C464C
:102690000B68A34208D10B68A34205D10B68A34283
:1026A00002D10B68A342F3D09C42E9D9E41AEBE7CC
:1026B000B0BDC04618E000E0F0B583B0FDF7AAFD5C
:1026C0000026224B3246FDF757FE04460D46089879
:1026D0000999864A874BFDF74FFEC74B3246FDF7F7
:1026E000B3FE06460F460A9A0B9B20462946FDF785
:1026F00043FE044602900D4601913046394600F0F3
:1027000059FF02460B4620462946FDF735FE00904C
:102710000D463046394600F099FF06460F46714C8B
:102720000CCC00982946083CFDF774FD03C40298C0
:10273000019932463B46083CFDF71EFEA268E3685D
:10274000FDF768FDA060E16003B0F0BD0000E03F70
:10275000A8062020F0B587B0604E3178012927D037
:10276000002900D0B7E065490A78012A0ED100227D
:102770000A7061490A78531C0B701101594A5118AB
:1027800038CA12680846103038C0CA6154490A78FD
:10279000012A00D09FE0544A0123137000220A70DE
:1027A00050490A604A608A60CA60337007B0F0BD61
:1027B00005904B49087801280DD14B4A0120107033
:1027C00000240C7047490C604C608C60CC6006940F
:1027D0002246234605E043481CC80068069042484C
:1027E000007800013F490F1838697969FDF7B6FD97
:1027F00006460D46B869F9692246069BFDF7AEFD0F
:1028000007460C4632462B4600F006FE0190069124
:10281000384621463A462346FDF7AEFD04460F46AC
:102820003046294632462B46FDF7A6FD22463B465A
:10283000FDF7F0FC00F058FF03913D210A010490E0
:102840002849029288500025019F3846069C21465F
:102850002A462B46FDF79AFE0646244A244B384664
:1028600021461446FDF7D6FC002E00D13846002E36
:1028700000D10699604B2A46FDF77EFD1D4B22468E
:10288000FDF7E2FD7B22D200164B985002981818F3
:10289000039D4560981841600598FDF7D9FE0246F2
:1028A0000B46049C20462946FDF786FE002812D1DF
:1028B0000022204629461346FDF794FE00280AD13F
:1028C0000D480078421C08480178491CCBB29A4256
:1028D00000D10121017007B0F0BDC046880A202058
:1028E00040002020A806202031002020282D44541C
:1028F000FB211940FB21094030002020420020200C
:10290000FFF766FC0A480168012211430160D00309
:102910000849086002230B6092040A6006490860B7
:102920000B600A60FEF7A4FEFEF778FBFEE7C046E8
:1029300004B8864080E200E000E100E0F0B581B03C
:102940000C460546007869780918A8780A18E978CD
:1029500052182B79D2186B79D218AB79D218EB793F
:10296000D2182B7AD2186B7AD218D2B2AB7A9A429A
:102970003ED10902081800B2FDF756FE3F221706A5
:10298000002632463B46FDF7F7FC1B4B3246FDF76F
:10299000F3FCFDF798FE2060287969790902081890
:1029A00000B2FDF741FE32463B46FDF7E5FC3246FC
:1029B000114BFDF7E1FCFDF786FE6060A879E9792F
:1029C0000902081800B2FDF72FFE32463B46FDF71C
:1029D000D3FC3246084BFDF7CFFCFDF774FEA06038
:1029E000287A697A09020818E060012001B0F0BD78
:1029F000002001B0F0BDC04600806640F0B581B057
:102A00000C460546007869780918A8780A18E9780C
:102A100052182B79D2186B79D218AB79D218EB797E
:102A2000D2182B7AD2186B7AD218D2B2AB7A9A42D9
:102A30003AD10902081800B2FDF7F6FD3F22170649
:102A4000002632463B46FDF797FC194B3246FDF710
:102A500093FCFDF738FE206028796979090208188F
:102A600000B2FDF7E1FD32463B46FDF785FC3246FC
:102A70000F4BFDF781FCFDF726FE6060A879E97930
:102A8000E6600902081800B2FDF7CEFD32463B466B
:102A9000FDF772FC3246064BFDF76EFCFDF713FEA8
:102AA000A060012001B0F0BD002001B0F0BDC04623
:102AB00000409F40B0B50C4605460B301031FFF783
:102AC0009DFF002806D01635203428462146FFF702
:102AD00035FFB0BD0020B0BD2021020C01D0102177
:102AE0001046020A01D010460839020901D01046EA
:102AF000091F820801D01046891E420801D0881E95
:102B00007047081A7047F0B4040C8BB2264682B2A4
:102B10005E430D0C1046370C5843360480190021D3
:102B2000794116466E43370C3604801979412646A2
:102B30006E438919F0BC70474900CA020243100075
:102B400000D004204A0D01D001221043044A490D4F
:102B5000914201D102210843012800D1052070478C
:102B6000FF070000F7B596B014460021A160D160C0
:102B7000179909914D00CD496D088D4205DC1799D3
:102B800061602060002019B0F0BDC949C94E8D4276
:102B900038DAD32709997F050029C74A17993346A0
:102BA00017DDFDF7DBFBB54206D0C44AC44BFDF789
:102BB000D5FB6160206009E03A46C14BFDF7CEFBD2
:102BC000C04AC14BFDF7CAFB61602060012019B00B
:102BD000F0BDFDF71FFBB54206D0B84AB84BFDF774
:102BE00019FB6160206009E03A46B54BFDF712FB26
:102BF000B44AB54BFDF70EFB616020600020C04376
:102C000019B0F0BDB1498D42179977DC49004908E8
:102C10000746AF4AAF4B0491FDF7AEFB0022AE4B27
:102C2000FDF7F8FAFDF7D4FE0A90FDF7FDFCA24A85
:102C3000334603910290FDF79FFB3A46049BFDF754
:102C400093FB06460F469D4A9D4B03990298FDF75C
:102C500093FB2A0D01250C9232463B46FDF784FB7F
:102C600061602060032D39D04800410D0C98401A56
:102C7000690169181139814230DA9849280179448B
:102C800008960D9008180497436802680399029803
:102C9000FDF772FB02460B460791069004990898CF
:102CA000FDF75CFB06460F46049B089AFDF75CFBAC
:102CB000079B069AFDF752FB0591894904907944D8
:102CC0000D984018C368826803990298FDF754FB79
:102CD000059B049AFDF742FB6D1CBDE7099800288F
:102CE00009DA01226068D207504060600A9819B082
:102CF0004042F0BD02E00A9819B0F0BD090301227C
:102D0000090B12050E90891817981091400075490B
:102D1000400D40184111C006C00E0D9113902021A6
:102D2000081A149000200690052507901398002893
:102D30000D980CD0401982006B487844875813993D
:102D40008F40101841681498C1400F4304E04019A7
:102D5000810066487844475810993846FFF7D3FEFB
:102D600006460A9138460E99FFF7CDFE8A190A9B4E
:102D70008A4201D2012100E00021C9188C46AF002F
:102D8000694679188B684E68C318834201D20120C6
:102D900000E0002096193618002802D0964202D989
:102DA00003E0964201D2012000E0002062461218A2
:102DB0004E6068468B60C25128466D1E0028B5DC07
:102DC0000121029849074018800F13900298059935
:102DD0008000039E049D0B91FDF726FC07463046BC
:102DE0000891FDF735FC1D22D243FDF7DAFD109066
:102DF0000F912846FDF72CFC3D22D243FDF7D1FD73
:102E00000E900D910B98FDF723FC5D22D243FDF748
:102E1000C8FD0B910C900D9B0E9AFDF7FBF90F9BD3
:102E2000109AFDF7F7F93A46089BFDF7F3F90025EC
:102E30000E463A462846089BFDF790FA0F9B109ADB
:102E4000FDF78CFA0D9B0E9AFDF788FA0B9B0C9AF6
:102E5000FDF78AFA264A274BFDF78EFA07460D91B1
:102E6000254A264B31462846FDF786FA3A460D9B01
:102E7000FDF7D0F90F4615220C9092061D4B3146F6
:102E80002846FDF779FA3B460C9AFDF7C3F9179AE5
:102E9000002A05DA139A524213920122D2075140B6
:102EA00061602060139819B0F0BD0000FB21E93F7C
:102EB0007CD90240FB21F93F000040543163621A83
:102EC00061B4D03D7370032E8A19A33BFB213941B5
:102ED00083C8C96D305FE43F0000E03F7E0B000017
:102EE0003E0B00000BFCFFFFF20A0000D80A0000B6
:102EF000182D4454FB21F93D3326A611460B113CF5
:102F0000F0B51FB44E00F9207608800584B00F4656
:102F1000864204DA0498FDF75BFD002838D0049A55
:102F20003B4610461946FDF727FA044602462C4850
:102F30000D460B460621784400F05CF822462B46ED
:102F4000FDF71AFA019100903946079B069A0498FA
:102F5000FDF712FA0746029120462946019B009A86
:102F6000FDF70AFA3A46029BFDF7F8F907460022F8
:102F70000091D24320462946FDF713FD194A964297
:102F80000ADA3A46009BFDF7E9F90022164B23E0E6
:102F90000020154909B0F0BD144A964202DD002414
:102FA000134D03E001225205B51A002422462B4698
:102FB000FDF7D4F90646019122462B4600200A4926
:102FC000FDF7CCF90D4604463A463046009B019980
:102FD000FDF7C4F922462B46FDF7C6F909B0F0BD4E
:102FE0008E0800003333D33F0000F03F0000E93F7C
:102FF0000000D23FF8B504464F1EC800083821181B
:1030000015461E46086849683A4606239A4310D07A
:103010002A463346FDF7B0F93A46D200083AA318DB
:103020001A687F1E5B68FDF7F5F806223B4693435E
:10303000EED1022F23D0042F11D0062F2FD12A46F4
:103040003346FDF799F9E36AA26AFDF7E3F82A46E9
:103050003346FDF791F9636A226AFDF7DBF82A46E9
:103060003346FDF789F9E369A269FDF7D3F82A46EB
:103070003346FDF781F963692269FDF7CBF82A46EB
:103080003346FDF779F9E368A268FDF7C3F82A46ED
:103090003346FDF771F963682268FDF7BBF8F8BDA8
:1030A000F0B51FB4054648000C46F92140088905D3
:1030B00086B088420BDA28462146FFF73DFD0428FA
:1030C00001D100F075F8284621460BB0F0BD2A4624
:1030D000234610461946FDF74FF906460F462A4685
:1030E0002346FDF749F900902548019132463B46B9
:1030F00005217844FFF77EFF029010980391002885
:1031000029D0204A204B01990098FDF735F9049009
:10311000059168460FC8FDF72FF900220191009034
:10312000D24309990898FDF73CFC019B009AFDF7F2
:1031300015F932463B46FDF71FF9099B089AFDF742
:103140000DF9059B049AFDF709F92A462346FDF778
:103150000BF90BB0F0BD0B4630463946029AFDF72D
:103160000BF9084A084BFDF755F8019B009AFDF74B
:1031700003F92A462346FDF74DF80BB0F0BD0000D9
:10318000DA070000495555555555C5BF10B5012200
:10319000FDF707FC10BD10B5FDF73CF810BD00228F
:1031A00010B5134610461146FDF74EF910BD00004C
:1031B000034A10B500201107FDF7F3FB10BD000016
:1031C00001FDFFFF0000000002E008C8121F08C157
:1031D000002AFAD17047000070470000000000008C
:1031E000002001E001C1121F002AFBD1704700003E
:1031F000014908607047000004002020F0B589B044
:1032000004460D464800069172494008884215DB85
:103210007149884203DC884207D1002C05D0204642
:103220002946FFF7B3FF09B0F0BD6C48002D02DD61
:103230006B4909B0F0BD6B4909B0F0BD6A498842DD
:1032400011DA6A4988420BDA20462946FFF774FCF6
:10325000042801D1FFF7ACFF2046294609B0F0BD94
:103260000026F6435DE06D0061496D08884232DA60
:103270006049884219DA0026012332469B0720461E
:103280002946FCF7C7FF074601910122204629463F
:10329000FDF787FB0022584BFDF760F83A46019B8B
:1032A000FDF7D2F804460D463BE001260022524BC2
:1032B00020462946FCF7AEFF0746009100224E4B00
:1032C00020462946FDF74AF83A46009BFDF7BCF830
:1032D00004460D4625E04949884219DA02260022B3
:1032E000474B20462946FDF747F80022424BFCF7A2
:1032F00091FF074602910022414B20462946FDF7E7
:103300002DF83A46029BFDF79FF804460D4608E06B
:10331000032622462B4600203A49FDF795F804463D
:103320000D4622462B4610461946FDF725F807465E
:103330000B4602460191FDF71FF802460290324803
:103340000B46039106217844FFF754FE3A46019B51
:10335000FDF712F800902D48019105217844039B58
:10336000029AFFF747FE039B029AFDF705F8024613
:103370000B4601990098002E0BDAFCF74BFF224612
:103380002B46FCF7F9FF22462B46FCF7EDFF09B070
:10339000F0BDFCF73FFF22462B46FCF7EDFF1C4A31
:1033A000F6007A4493191A685B68FCF7D7FF224647
:1033B0002B46FCF7D3FF174A7A4493191A685B68C7
:1033C000FCF7D2FF069A002AE1DA0122D207514027
:1033D00009B0F0BD000010440000F07F182D4454E7
:1033E000FB21F93FFB21F9BF0000DC3F0000203E3C
:1033F0000000F33F0000E63F0000F03F0080034084
:103400000000F83F0000F0BF4E0400001004000070
:10341000AA03000074030000F0B51FB4039A029DD4
:1034200053006E422E439446F40F5B084A00574EF9
:1034300052081C438E46B44205D847420743FC0F4E
:103440001443B44205D92A466346FFF7A4FE05B0EB
:10345000F0BD4F4E66442E430AD0CC0F6646B617D9
:1034600002273E40264304464A4F144304D00BE053
:10347000FFF7C4FE05B0F0BD002EFBD0012EF9D041
:10348000022E32D0032E34D01C462C430BD03F4C9E
:10349000A34216D1A2420AD1012189078B438A4354
:1034A000114603930DE0704600280FDB25E03A4DEE
:1034B0007D44002E0ED0012E10D0022E15D0032EEA
:1034C00017D0A2421DD17046002816DA3148334980
:1034D00005B0F0BD6968286805B0F0BD01226968D3
:1034E000D2072868514005B0F0BD38462C4905B0D8
:1034F000F0BD38462B4905B0F0BD26482A4905B035
:10350000F0BDD21A12153C2A02DD224D264C12E0E3
:103510006346002B05DA3C23DA4202DA00252C460A
:1035200009E0039B029AFCF78FFF49004908FFF767
:1035300065FE05460C46002E12D0012E0DD01B4A0A
:103540001B4B022E2846214618D0FCF707FF3A46AF
:10355000134BFCF703FF05B0F0BD0120C00744404A
:103560000022134628462146FDF7DEF902D102204B
:10357000FFF73EFE2846214605B0F0BDFCF7EEFE03
:103580003A46074BFCF7F0FE05B0F0BD0000F07FB7
:10359000000010C0182D445444030000FB21F9BF63
:1035A000FB210940FB2109C0FB21F93F075C1433D3
:1035B00026A6A13C00B54A00224B520887B09A4289
:1035C00002DC0022134625E01F4B9A4208D1002856
:1035D00008D10120FFF70CFEFFF7E1FD07B000BDA9
:1035E0009A4203DBFFF7D2FD07B000BD02AAFFF746
:1035F000B9FA8107890F0BD0012001290ED00229C9
:1036000016D0009002A80FC8FFF74AFD07B000BD12
:1036100002A80FC8FFF774FC07B000BD009002A815
:103620000FC8FFF73DFD0122D207514007B000BD92
:1036300002A80FC8FFF764FC0122D207514007B06F
:1036400000BD0000FB21E93F0000F07F00B54A000B
:10365000234B520887B09A4203DC002213460092A3
:1036600029E0204B9A4208D1002808D10120FFF719
:10367000BFFDFFF794FD07B000BD9A4203DBFFF7E3
:1036800085FD07B000BD02AAFFF76CFA8107890F1C
:10369000012000290CD0012911D0022915D002A83F
:1036A0000FC8FFF72DFC0122D207514007B000BD23
:1036B000009002A80FC8FFF7F3FC07B000BD02A8F6
:1036C0000FC8FFF71DFC07B000BD009002A80FC88F
:1036D000FFF7E6FC0122D207514007B000BD000011
:1036E000FB21E93F0000F07FF8B506460C46FDF7E8
:1036F000C9F8051E0F4600D00120014349000B48C0
:103700004908411AC90F0DD0002E01D0012100E057
:1037100000210C4361004908401AC00F02D101206A
:10372000FFF766FD28463946F8BD00000000F07F2F
:103730004FBB610567ACDD3F182D4454FB21E93FC9
:103740009BF681D20B73EF3F182D4454FB21F93FB8
:10375000E2652F227F2B7A3C075C143326A6813C3E
:10376000BDCBF07A8807703C075C143326A6913CE9
:10377000C4EB98999999C9BF711623FEC671BCBF55
:103780006D9A74AFF2B0B3BF9AFDDE522DDEADBFBD
:103790002F6C6A2C44B4A2BF0D5555555555D53FD5
:1037A000FF8300922449C23F6E204CC5CD45B73FF0
:1037B000513DD0A0660DB13FEB0D76244B7BA93F68
:1037C00011DA22E33AAD903F4C5555555555A53F7A
:1037D0007751C1166CC156BF9015CB19A001FA3EA6
:1037E000AD529C804F7E92BEC4B1B4BD9EEE213ED0
:1037F000D43888BEE9FAA8BD00000000000000002F
:1038000000004054FB21F93F3163621A61B4D03D9E
:103810000000601A61B4D03D7370032E8A19A33B77
:103820000000002E8A19A33BC14920259A837B39C9
:1038300000000000000000006E83F9A22915444E2C
:10384000D15727FCC0DD34F5999562DB4190433CAC
:10385000AB6351FE61C5BBDE3A6E24B7E0D24D4288
:10386000EA2E49061C92D1091CEB1DFE3EA729B188
:10387000F53582E88444BB2E26709CE9417E5FB416
:1038800039D69139F43953838B5F849C3B28F9BD39
:10389000FF97F81F0F9805DE8B112FEF1F6D0A5A47
:1038A000CF7E366DB709CB27663F464F2DEA5F9E28
:1038B000C7BA27757BF1E5EBF739073DEA92528AE3
:1038C000B15FFB6B085D8D1F4630035600000000A2
:1038D000A6F810111111813FD561C119A0012ABFAD
:1038E0007DFEB157E31DC73EEB9C2B8AE6E55ABE31
:1038F0007CD5CF5A3AD9E53D0807000010270000D3
:10390000000100000807C70002000000630000007B
:10391000010000000000000000000000080000009E
:10392000180000000030000048390000000020208E
:1039300038000000C8310000803900003800202025
:10394000A80B0000E03100000100000000000000B2
:103950000000003F0000803F33335340A69B443BB0
:10396000000070420000803F00008C420000000018
:103970000000000000000000010100000000000045
:04000005000000C136
:00000001FF
