:020000040000FA
:10000000B8162020D5000000D9000000DB00000059
:1000100000000000000000000000000000000000E0
:10002000000000000000000000000000DD000000F3
:100030000000000000000000DF000000E100000000
:10004000E300000055080000E3000000E3000000AA
:10005000E3000000E3000000E3000000E300000014
:1000600000000000E3000000E300000000000000CA
:1000700000000000E3000000E30000002920000071
:10008000E3000000E30000005D1F0000E30000004B
:10009000E3000000E300000000000000000000009A
:1000A000E3000000E300000000000000000000008A
:1000B000E300000000000000E3000000E300000097
:1000C0000348854600F024FA0048004791210000CB
:1000D000B816202003480047FEE7FEE7FEE7FEE7EC
:1000E000FEE7FEE7C1000000F8B502464A40D40F23
:1000F00042004B0052085B089A4202D20246084670
:1001000011464A0023D0C30D4A00DDB2120EAD1ACB
:10011000202D35DA49020126490AF6058A19002CF4
:1001200000D0524220214F1B1146B9402A411018DD
:10013000C20D9A4221D0002C17D0012D08DCDA051F
:10014000801AD20F8019D207DBB200F047F9F8BD50
:10015000DA05801A012340001B06C01880185A4295
:100160008018CA0F1043490007E04908C20711432D
:10017000DA05801A80194008801800F027F9F8BDC8
:1001800061000122511A001BF7E70122D2075140FA
:10019000AAE70122D2075040A6E7024670B54A40BE
:1001A000D30FDB0740002DD04A002AD0010E140ED9
:1001B000000212020919400A520A8418E501044695
:1001C0005443000A120A2E045043A4194219200C69
:1001D000C543AA18120C0125AD03521C5219120472
:1001E0007F39240400D0521C104301D44000491E22
:1001F000C2B20C06C0092018401C4008802A02D058
:1002000003E0002070BD40084000002900DA002013
:10021000184370BDF0B51FB488B00B99099800243D
:1002200048400999C00F490049080991C0070B9936
:100230000090490049080B9109990898A64608437F
:100240001CD00B990A98084318D009980124400043
:10025000420D4800410D099824050003000B20437E
:1002600009900B980003000B20430B9050181C4979
:100270004018002201901446104605E00020014677
:100280000DB0F0BD032801DA034600E003239C46CD
:10029000C11A0AAE0AE05F0008ADED5B4F00F75BE4
:1002A0007D430027AA187C41491C5B1E6145F2DD95
:1002B000410004AB5A522104120C0A43240C401C86
:1002C0000828DFDB019802900099704601910090A8
:1002D000059B049A0799069800F0C6F8D0E700003D
:1002E0000DFCFFFFC217C10F504010B54018CA07E0
:1002F0009623002100F072F810BD00000EB5C21761
:10030000C10F5040CA0740180021054B02930192CB
:1003100000910A460B4600F0A7F803B000BD0000AC
:1003200033040000C20F410040020123400ADB05F4
:10033000D207090EC0187F2901DA002070479629DC
:1003400003DC9623591AC84001E096398840002AF8
:10035000F4D040427047CB0FDB07490010B5490885
:1003600002460A4307D00A0D07240903E401090BDA
:10037000121B002A01DC002010BDC900440F0C43F1
:10038000C100E018D205801800F020F810BD70B54B
:100390000446002903D000202022012310E0002879
:1003A00001D00020C043C046C0460DE02546D540E0
:1003B0008D4205D30D469540641B1D46954040195E
:1003C0001546521E002DF1DC214670BD002904DACD
:1003D000401C490001D140084000704770B400241F
:1003E000050C05D11024000402D1002921D01124CC
:1003F000050E01D100020834050F01D10001241DB2
:10040000850F01D18000A41C002801DB4000641C82
:10041000002908D020252E1B0D46F540A14000D014
:1004200001212943084301061B1B000ADB1D02D5DD
:10043000002070BC7047DB05181880180029F8DA16
:10044000401C4900F5D170BC40084000704710B511
:10045000002B08DA0024401C614192185B411A43CA
:1004600001D14008400010BDF0B51FB482B0054670
:100470000C0003D0084601F097FF02E001F094FF62
:100480002030024600902146284600F053F8049B95
:10049000059A04460F4618431143084314D01846E2
:1004A00010431BD0009840210A1A1846059900F005
:1004B00051F805460E46009A0599049800F03AF85E
:1004C000084305D0012004E02046394607B0F0BDBE
:1004D0000020C11705430E432C43374300990E9863
:1004E0006305401A7905E40A00220C43FD0A0A302C
:1004F00002D500200146E9E70105101969410C9C6D
:100500000D9D00196941FFF7A2FFDFE70000000021
:10051000064C0125064E05E0E36807CC2B430C3C56
:1005200098471034B442F7D3FFF7CEFDBC3000003B
:10053000DC30000010B5202A04DB0146203A91404F
:10054000002010BD914020239C1A0346E34019432C
:10055000904010BD10B5202A04DB0846203AD04058
:10056000002110BD0B46D340D0402024A21A914058
:100570000843194610BD811E091F00BFFCD27047F9
:1005800070B582B00B794A79002A24D0174A212409
:100590002401202B00D070348218002B00D1882435
:1005A000156C3F4E35402D191564556C35402C198E
:1005B00054641468774D2C40146054682C40546087
:1005C0000024146254628F24E443156D25401565A0
:1005D000556D254055656A4613718B7953710968CD
:1005E0000091114600F004F802B070BD3818000008
:1005F000F0B5664A8218294BC318087920280DD017
:1006000000281DD10C68641E5460D56E244C254012
:100610008835D5661646703688251DE00C68641E40
:100620005460D46E1E4D2C401E4EA419D466146F17
:100630002C40A4191467012465071B4C16460BE0D7
:100640000C6864085460D66E154C26400525ED01F3
:100650007619D66616467036376827402F433760BE
:10066000D46A4C4D2C40D462146B2C40146300248B
:10067000D46414658F24E443D56F2540D5671D6885
:1006800025401D6049790143BD2008401168074B92
:100690000B40C018801C1060F0BDC04684180000DC
:1006A00024F93FF001040000FFFFFFCF4000FFCF1F
:1006B000B0B5364A80184A6842600A78222A57D86C
:1006C000930001A4E3589F466707000071070000EC
:1006D0006707000071070000710700007107000044
:1006E000710700007107000071070000710700002A
:1006F000710700007107000071070000710700001A
:100700007107000071070000550700007107000025
:100710005507000071070000710700007107000015
:1007200071070000710700007107000071070000E9
:1007300071070000710700007107000071070000D9
:1007400071070000710700005507000071070000E5
:100750005507000003231B0704689C4301235B0724
:10076000E318036004E003231B0704689C43046050
:100770000B69C360CB68064C1C40C36A054D1D4025
:100780002B19C362097A11430160B0BD041800003F
:10079000777702008888FDFF10B507239B04194076
:1007A00092008018024A84589C436118815010BD01
:1007B0003018000010B5029CA40000191143194321
:1007C000014A815010BDC0465018000092008018A8
:1007D000014A81507047C0461018000010B5012230
:1007E000120383180C789C604B7883508978014AF7
:1007F000815010BD0C110000B0B5112212028358B7
:100800000124A34383508B780C881C438B8823439B
:10081000094C1C408358094D1D402B1983508B797E
:10082000CC791C43097A21437E2319408018426801
:100830009A4351184160B0BD18670000E798FDFF6A
:1008400010B50122120383180C789C6049788150FE
:1008500010BD0000F0B58720C2033C49084610389F
:100860000468204610403A4B186001202304394B9D
:1008700009D4E5030FD5C6031F68374D2D683742ED
:1008800006D06D1E05E01E68334D2D68F603F8D5C1
:100890006D1C314E3560A50309D464020FD54504A3
:1008A0001E682E4C24682E4206D0641E05E01D688A
:1008B0002A4C24686D02F8D5641C284D2C600C6805
:1008C00014430C601968490701D525490870196857
:1008D000490702D4224900220A70020621490B6806
:1008E000DB0101D51E4B58700B68134202D11C4A24
:1008F0000023537002050B68DB0201D5184B98707A
:100900000B68134202D1164A00239370C2040B688D
:100910001B0301D5124BD8700B68134202D1104A49
:100920000023D3700A680B681B0602D59209904316
:1009300000E002200A68D20500D403200968890576
:1009400000D4042008490870F0BDC04648100A4091
:100950003806202080130A40180020201C00202088
:10096000A906202080330A400C002020B0B50A4898
:1009700001684624204601F07BFB054607480168D4
:10098000204601F0A9FB29B200B24018C10F40185F
:10099000400800B2B0BDC046B4042020B8042020F6
:1009A0000348802101600121090201607047C046AF
:1009B000A0120A4003488021016001210902016060
:1009C0007047C04690120A40F0B581B00248064612
:1009D0008036802702E0C0462000202060210022CF
:1009E00072544023F25420243255327632743272DB
:1009F0003270354660352A762A742A72354640357B
:100A00002A762A742A72354620352A762A742A7262
:100A10003546083D2A703546103D2A703546183D4A
:100A20002A703546203D2A703546283D2A703546C5
:100A3000303D2A703546383D2A703546403D2A7093
:100A40003546483D2A703546503D2A703546583D5A
:100A50002A703546603D2A703546683D2A70354615
:100A6000703D2A703546783D2A703546803D2A70A3
:100A700001252D027619203FB0D107468137802607
:100A800000937A54009BFA543A553A763A743A7283
:100A90003A700B46394660310A760A740A72394652
:100AA00040310A760A740A72394620310A760A748D
:100AB0000A72394608390A70394610390A703946BF
:100AC00018390A70394620390A70394628390A70AF
:100AD000394630390A70394638390A703946403952
:100AE0000A70394648390A70394650390A70394611
:100AF00058390A70394660390A70394668390A70BF
:100B0000394670390A70394678390A707919803F48
:100B10003A70203E0F461946B3D1074682378026E9
:100B20007A5400997A543A553A763A743A723A704D
:100B3000394660310A760A740A72394640310A76BB
:100B40000A740A72394620310A760A740A723946E2
:100B500008390A70394610390A70394618390A704E
:100B6000394620390A70394628390A7039463039F1
:100B70000A70394638390A70394640390A703946A0
:100B800048390A70394650390A70394658390A705E
:100B9000394660390A70394668390A703946703901
:100BA0000A70394678390A707919803F3A70203EC8
:100BB0000F461946B4D10746833780267A540099E8
:100BC0007A543A553A763A743A723A703946603104
:100BD0000A760A740A72394640310A760A740A7231
:100BE000394620310A760A740A72394608390A7081
:100BF000394610390A70394618390A703946203991
:100C00000A70394628390A70394630390A7039462F
:100C100038390A70394640390A70394648390A70FD
:100C2000394650390A70394658390A7039466039A0
:100C30000A70394668390A70394670390A7039467F
:100C400078390A707919803F3A70203E0F4619466C
:100C5000B4D10746843780267A5400997A543A559D
:100C60003A763A743A723A70394660310A760A74C2
:100C70000A72394640310A760A740A7239462031BE
:100C80000A760A740A72394608390A7039461039E8
:100C90000A70394618390A70394620390A703946BF
:100CA00028390A70394630390A70394638390A709D
:100CB000394640390A70394648390A703946503940
:100CC0000A70394658390A70394660390A7039460F
:100CD00068390A70394670390A70394678390A70AD
:100CE0007919803F3A70203E0F461946B4D1074625
:100CF000853780267A5400997A543A553A763A7470
:100D00003A723A70394660310A760A740A72394684
:100D100040310A760A740A72394620310A760A741A
:100D20000A72394608390A70394610390A7039464C
:100D300018390A70394620390A70394628390A703C
:100D4000394630390A70394638390A7039464039DF
:100D50000A70394648390A70394650390A7039469E
:100D600058390A70394660390A70394668390A704C
:100D7000394670390A70394678390A707919803FD6
:100D80003A70203E0F461946B4D107468637802672
:100D90007A5400997A543A553A763A743A723A70DB
:100DA000394660310A760A740A72394640310A7649
:100DB0000A740A72394620310A760A740A72394670
:100DC00008390A70394610390A70394618390A70DC
:100DD000394620390A70394628390A70394630397F
:100DE0000A70394638390A70394640390A7039462E
:100DF00048390A70394650390A70394658390A70EC
:100E0000394660390A70394668390A70394670398E
:100E10000A70394678390A707919803F3A70203E55
:100E20000F461946B4D17F3080263746825542544A
:100E30000099425402550276027402720270014611
:100E400060310A760A740A72014640310A760A74E1
:100E50000A72014620310A760A740A72014608397C
:100E60000A70014610390A70014618390A700146A5
:100E700020390A70014628390A70014630390A7053
:100E8000014638390A70014640390A70014648392E
:100E90000A70014650390A70014658390A700146F5
:100EA00060390A70014668390A70014670390A7063
:100EB000411978380270203F08461946B6D100F033
:100EC000F3FA01B0F0BD0000F0B581B0AE2000240F
:100ED000214600F049FD2046214600F045FD102046
:100EE000214600F041FD40252846214600F03CFD0A
:100EF0008120214600F038FDCF20214600F034FD4E
:100F0000A120214600F030FDC820214600F02CFD34
:100F1000A6200090214600F027FDA820214600F0E1
:100F200023FD3F20214600F01FFDD320214600F085
:100F30001BFD2046214600F017FDD520214600F07C
:100F400013FD80273846214600F00EFDD9202146AA
:100F500000F00AFDF120214600F006FDDA202146CE
:100F600000F002FD1220214600F0FEFCDB202146AD
:100F700000F0FAFC2846214600F0F6FC2026304618
:100F8000214600F0F1FC0220214600F0EDFC8D200E
:100F9000214600F0E9FC1420214600F0E5FCA420E5
:100FA000214600F0E1FC0098214600F0DDFC0248FB
:100FB0000346803302E0C0462000202060215C54BC
:100FC0005C559C551C761C741C721C701A46603251
:100FD0001476147414721A4640321476147414720F
:100FE0001A4620321476147414721A46083A147091
:100FF0001A46103A14701A46183A14701A46203AD3
:1010000014701A46283A14701A46303A14701A4668
:10101000383A14701A46403A14701A46483A147016
:101020001A46503A14701A46583A14701A46603AE2
:1010300014701A46683A14701A46703A14701A46B8
:10104000783A14701A46803A1470012212029B18E2
:10105000203FB3D107468137802300967C547C55CE
:10106000009EBC553C763C743C723C702E463D461E
:1010700060352C762C742C723D4640352C762C74C1
:101080002C723D4620352C762C742C723D46083D42
:101090002C703D46103D2C703D46183D2C703D4651
:1010A000203D2C703D46283D2C703D46303D2C7037
:1010B0003D46383D2C703D46403D2C703D46483DF8
:1010C0002C703D46503D2C703D46583D2C703D46A1
:1010D000603D2C703D46683D2C703D46703D2C7047
:1010E0003D46783D2C70BD18803F3C70203B2F461C
:1010F0003546B3D10746823780237C547C55009D0A
:101100007C553C763C743C723C703D4660352C7698
:101110002C742C723D4640352C762C742C723D4636
:1011200020352C762C742C723D46083D2C703D46A3
:10113000103D2C703D46183D2C703D46203D2C70D6
:101140003D46283D2C703D46303D2C703D46383D97
:101150002C703D46403D2C703D46483D2C703D4630
:10116000503D2C703D46583D2C703D46603D2C70E6
:101170003D46683D2C703D46703D2C703D46783DA7
:101180002C70BD18803F3C70203B2F463546B4D1B3
:101190000746833780237C547C55009D7C553C76E4
:1011A0003C743C723C703D4660352C762C742C723D
:1011B0003D4640352C762C742C723D4620352C76DD
:1011C0002C742C723D46083D2C703D46103D2C7011
:1011D0003D46183D2C703D46203D2C703D46283D37
:1011E0002C703D46303D2C703D46383D2C703D46C0
:1011F000403D2C703D46483D2C703D46503D2C7086
:101200003D46583D2C703D46603D2C703D46683D46
:101210002C703D46703D2C703D46783D2C70BD18BD
:10122000803F3C70203B2F463546B4D1074684377B
:1012300080237C547C55009D7C553C763C743C72EC
:101240003C703D4660352C762C742C723D46403502
:101250002C762C742C723D4620352C762C742C72F6
:101260003D46083D2C703D46103D2C703D46183DD6
:101270002C703D46203D2C703D46283D2C703D464F
:10128000303D2C703D46383D2C703D46403D2C7025
:101290003D46483D2C703D46503D2C703D46583DE6
:1012A0002C703D46603D2C703D46683D2C703D469F
:1012B000703D2C703D46783D2C70BD18803F3C70D1
:1012C000203B2F463546B4D10746853780237C54D2
:1012D0007C55009D7C553C763C743C723C703D4690
:1012E00060352C762C742C723D4640352C762C744F
:1012F0002C723D4620352C762C742C723D46083DD0
:101300002C703D46103D2C703D46183D2C703D46DE
:10131000203D2C703D46283D2C703D46303D2C70C4
:101320003D46383D2C703D46403D2C703D46483D85
:101330002C703D46503D2C703D46583D2C703D462E
:10134000603D2C703D46683D2C703D46703D2C70D4
:101350003D46783D2C70BD18803F3C70203B2F46A9
:101360003546B4D10746863780237C547C55009D92
:101370007C553C763C743C723C703D4660352C7626
:101380002C742C723D4640352C762C742C723D46C4
:1013900020352C762C742C723D46083D2C703D4631
:1013A000103D2C703D46183D2C703D46203D2C7064
:1013B0003D46283D2C703D46303D2C703D46383D25
:1013C0002C703D46403D2C703D46483D2C703D46BE
:1013D000503D2C703D46583D2C703D46603D2C7074
:1013E0003D46683D2C703D46703D2C703D46783D35
:1013F0002C70BD18803F3C70203B2F463546B4D141
:101400007F3080231F46C45444544455009D4455A6
:101410000476047404720470054660352C762C74CE
:101420002C72054640352C762C742C7205462035DE
:101430002C762C742C720546083D2C700546103D08
:101440002C700546183D2C700546203D2C70054635
:10145000283D2C700546303D2C700546383D2C70DB
:101460000546403D2C700546483D2C700546503DD4
:101470002C700546583D2C700546603D2C70054685
:10148000683D2C700546703D2C70851878380470C6
:10149000203F28463546B6D100F006F8AF2000219F
:1014A00000F062FA01B0F0BDF0B585B00020CF4F7A
:1014B00002905038C0B20024214600F055FA204670
:1014C000214600F051FA1020214600F04DFA022585
:1014D00031480560012606600A24204600F036FEE9
:1014E0002D480561204600F031FE2B48066120465C
:1014F00000F02CFE782000F00BFC27480560204609
:1015000000F024FE24480660204600F01FFE22481A
:101510000661204600F01AFE402000F0F9FB049519
:101520001D480560204600F011FE1B480660054678
:10153000204600F00BFE03962E61204600F006FECA
:1015400080260197387800F0E3FB1349049808607F
:101550000A24204600F0FAFD039D0F48056020464E
:1015600000F0F4FD0C480561204600F0EFFD761E0A
:101570000837002EE6D1084C049D256103982060B1
:101580000A2000F0E3FD2560019F7F1C0298401CAB
:1015900008288DD105B0F0BD90120A40F0B58BB08F
:1015A0000A9103900620082B04460AD05C07D9084C
:1015B000002C00D0491C5C084C43E4B2002C00D144
:1015C0000CE1109F203AD1B20091484384490A1897
:1015D000580801900025039E0293089709E00646EB
:1015E000079C049A069D641E521C6D1C002C00D1A1
:1015F000F4E0082B10460ED0102B07D00C2B00D097
:10160000ECE00C2000994843774902E00098000183
:101610007449081840190990069504920794072305
:101620000A9A104618400125294681400596F0B2D5
:10163000C0006E4C2018D2B2D408065D32460A4370
:101640008E43002F114600D03146002F00D01646A1
:101650000022099FBA560992D20700D0314601559F
:101660000A99491CCAB219402F468F40D408065D1A
:1016700031463943BE43089F002F0A4600D0324608
:10168000002F00D00E460999890700D53246025531
:101690000A99891CCAB219402F468F40D408065DAA
:1016A00031463943BE43089F002F0A4600D03246D8
:1016B000002F00D00E460999490700D53246025541
:1016C0000A99C91CCAB219402F468F40D408065D3A
:1016D00031463943BE43089F002F0A4600D03246A8
:1016E000002F00D00E460999090700D53246025551
:1016F0000A99091DCAB219402F468F40D408065DC9
:1017000031463943BE43089F002F0A4600D0324677
:10171000002F00D00E460999C90600D53246025561
:101720000A99491DCAB219402F468F40D408065D58
:1017300031463943BE43089F002F0A4600D0324647
:10174000002F00D00E460999890600D53246025571
:101750000A99891DCAB219402F468F40D408065DE8
:1017600031463943BE43089F002F0A4600D0324617
:10177000002F00D00E460999490600D53246025581
:101780000A99C91D0B409D40C9B2CC08025D1146A3
:10179000A9431543002F0A4600D02A46002F029B7A
:1017A000059E00D00D460999002900D42A4602550D
:1017B000701C082B00D112E7C1B2039A891A019A52
:1017C0009142079C02D10A9A08320A92049A019D1A
:1017D000A942039E00D105E7064603E70BB0F0BD22
:1017E000FE2300009A2A0000262600002000202068
:1017F000F0B58BB01C46119D109E0692002A0891F0
:10180000079009950A9654D4002C00D1A8E00A98B4
:101810004108082800D1891C0591671E6042039089
:10182000A01E02907D20C000019000264D4D049422
:1018300011E00A4602430899079B3046059C604325
:10184000C018C0B20A9BFFF7A9FE7F1E761C049C3D
:10185000A64200D184E0F0430399884201D10121DE
:101860001AE0032100190840029A921B032A01D2B0
:10187000012105E03A468A4301216943121FFCD148
:10188000002809D0012801D10A2004E0022801D053
:10189000019800E0642041430698FEF778FD0A2194
:1018A000FEF775FD0998009030200029C1D102464D
:1018B000C1E700952D223346FFF770FE7008082E11
:1018C00000D1801C0590002C4AD00698404206901A
:1018D000661E60420490A01E03907D20C00002900E
:1018E0000025204F0EE00A4602430899079B059801
:1018F0006D1C6843C018C0B20A9BFFF74FFE761EEE
:10190000A5422DD0E8430499884201D101211AE073
:10191000032100190840039A521B032A01D2012116
:1019200005E032468A4301217943121FFCD1002889
:1019300009D0012801D10A2004E0022801D0029830
:1019400000E0642041430698FEF721FD0A21FEF7DE
:101950001EFD0998009030200029C4D10246C4E73A
:101960000BB0F0BD10270000F0B583B001910290DC
:10197000244F02263E6001253D600A24204600F0E7
:10198000E5FB3E61204600F0E1FB3D61204600F0B2
:10199000DDFB782000F0BCF93E60204600F0D6FB6D
:1019A0003D60204600F0D2FB3D61204600F0CEFBBA
:1019B0000199481E8141880100F0AAF93E60204645
:1019C00000F0C4FB3D60204600F0C0FB3D612046B6
:1019D00000F0BCFB029800F09BF93E60204600F04E
:1019E000B5FB3D60204600F0B1FB3D61204600F0B4
:1019F000ADFB3E613D60204600F0A8FB3E6003B0B9
:101A0000F0BDC04690120A4010B528488721816079
:101A10000122130726490B6088234361D2070A601D
:101A200082220265234A531C4365234B4363234BA5
:101A300081241C605C609C609C618464DA601A6133
:101A40005A615A630460446082619A649A63DA62FC
:101A50008265C2650266426608463038184A0260EE
:101A60000A6018480168184A0A4302600169174A67
:101A70000A4302611648016A164A1143016201686D
:101A800011430160FF20000313490A6802430A6002
:101A90000869124A02430A611148016A114A114356
:101AA000016201681143016010BDC04604804240DC
:101AB000D0120A4081000400810001008880424069
:101AC0008371040090130A403000004005100000AC
:101AD00028100A400480430090330A40C0030300EA
:101AE00028300A40C003180170B582B0E04C194993
:101AF0002046FEF773FE18492046FEF741FD0025FB
:101B00000095204629462A462B46FEF753FE2046DE
:101B100029462A46FEF740FE204629462A46FEF779
:101B200055FE01260096204629462A462B46FEF7FA
:101B300041FE204629463246FEF72EFE2046294623
:101B40003246FEF743FE054886600321016002B07D
:101B500070BDC0468A3000009030000000318640E1
:101B60000D48002101600D490A46083A1368032018
:101B7000834313600A6801239A430A601A020B68C0
:101B800093430B60FF210902054A13688B438003CE
:101B9000181810607047C04608030B4008010B403E
:101BA00000E400E00548042101601F21416000219C
:101BB0008160016805220A430260704710E000E07E
:101BC00010B50D4C0D492046FEF708FE0C49204685
:101BD000FEF76EFD0B480168012211430160FF20F2
:101BE000000409490B688343032080051818086026
:101BF0000648026010BDC0460000864098300000D4
:101C00009C3000002810864010E400E00811864057
:101C100010B5194C19492046FEF712FE1849204606
:101C2000FEF7EAFD0320C103164802688A430260FA
:101C30000169154A0A4011320261416917220A43BB
:101C400028218A434261426801210A4043688B434C
:101C50009A1842608A020D4B1C6814431C60FF22D4
:101C600012060B4B1C6894438A07A2181A6002687C
:101C70000A43026010BDC04600801040B030000032
:101C8000B2300000009110400000FFFF289010408B
:101C90000CE400E080B500F017F8FFF7B5FEFFF7A1
:101CA0005FFFFFF721FFFFF78BFFFFF7B1FFFFF7A4
:101CB00079FFB820024900220A5402490A5480BD23
:101CC0007C052020C0042020B0B50A480A494160A4
:101CD0000A4A51600A4B59600A4C61600A4D6960BA
:101CE0000A49016011601960216029601020FEF727
:101CF00042FCB0BD00080A40030000B100280A40C1
:101D00000028864000088640008810400100002618
:101D1000F0B581B0044640B2544E002802D40220EF
:101D2000306101E0022030600A25284600F00EFAFA
:101D300001273760284600F009FA3761600602D4AF
:101D40000220306101E0022030600A25284600F0C0
:101D5000FDF93760284600F0F9F93761A00602D492
:101D60000220306101E0022030600A25284600F0A0
:101D7000EDF93760284600F0E9F93761E00602D452
:101D80000220306101E0022030600A25284600F080
:101D9000DDF93760284600F0D9F93761200702D411
:101DA0000220306101E0022030600A25284600F060
:101DB000CDF93760284600F0C9F93761600702D4D1
:101DC0000220306101E0022030600A25284600F040
:101DD000BDF93760284600F0B9F93761A00702D491
:101DE0000220306101E0022030600A25284600F020
:101DF000ADF93760284600F0A9F93761E00702D154
:101E00000220306101E0022030600A24204600F008
:101E10009DF93760204600F099F9376101B0F0BDB7
:101E2000F0B581B00C460146012738037A030F4E06
:101E3000012902DB3060326102E0326130604942E8
:101E40000B4D00222846FEF7C1FCB803B904012C53
:101E500002DB3060316102E03160306164420122B6
:101E600028462146FEF7B2FC01B0F0BD90120A40B0
:101E700000208640B0B5E24801684624204600F0C4
:101E8000F7F80546DF480168204600F025F90921EA
:101E900009044D432A14484301141046FFF7C0FFBC
:101EA000B0BDC046F0B581B0274D287804280AD8C7
:101EB0007844007940008744081138020200234822
:101EC0000121016037E000263AE0FEF769FD224873
:101ED0000678701E042833D301B0F0BD46200146B9
:101EE000FFF7C8FF3F480127076000263E48805F94
:101EF0001749884214DB1748017842780A43D1B267
:101F000082780A43C07810430AD000242046214634
:101F1000FFF786FF33480460FEF74CFD0B4807606F
:101F20000A4801680129D7D109E0FEF71FFD0D21FC
:101F300000F05CF8054801680129CDD10026066053
:101F40002E7001B0F0BDC046B0042020B0062020A5
:101F5000B90B0000A90620200C00202010B51A485B
:101F6000006800062ED019480178491C01701848F5
:101F70000178491C017017480178491C0170164905
:101F80000878401C0870C0B208281BD100200870D7
:101F9000124A116810609A4A1160114B1A68186051
:101FA0005342984C23600F4B1B68002B08D0012B29
:101FB00008D1881AC10F401840080B490988081831
:101FC0000949088010BDC04620108640BC0420206E
:101FD000BD042020BE042020BF04202018002020A3
:101FE0001C002020140020201000202070B50C467A
:101FF000834801684625284600F03AF8064681489D
:102000000168284600F068F831B200B24018C10FEC
:1020100040184010092211464143001900B25043B4
:10202000FFF7FEFE70BDC04610B50C480068C0B298
:102030000B2812D10A484168CAB20260094C2078C4
:10204000094A1154401C2070C0B22C2805D1064802
:10205000064900F095F90020207010BD2090104036
:1020600020911040A80620207C0620203C0620203D
:10207000B0B5451A164801680560681AFEF732F9CE
:1020800004462846FEF72EF901462C480068FEF764
:1020900084F805462A4800682146FEF77EF829465E
:1020A000FEF722F804460B4D2868FEF71BF901469F
:1020B0002046FEF719F8FEF735F92860E1210901FD
:1020C000884202DC2049884201DA29600846B0BD16
:1020D000A4042020A0042020B0B5451A16480168A9
:1020E0000560681AFEF7FEF804462846FEF7FAF87F
:1020F000014612480068FEF750F80546104800688F
:102100002146FEF74AF82946FDF7EEFF04460D4D3D
:102110002868FEF7E7F801462046FDF7E5FFFEF7E1
:1021200001F92860E1210901884202DC0649884260
:1021300001DA29600846B0BDAC042020040020204C
:1021400008002020A8042020F0F1FFFFB0B50F49BF
:102150000B684001262206E0E41A0D1F2D68641961
:10216000A218824210D21C460B689C4208D10B6810
:102170009C4205D10B689C4202D10B689C42F3D073
:102180009C42E9D9E41AEBE7B0BDC04618E000E094
:1021900082B0FFF77FFD17480168012631430160D7
:1021A000F0031549086002220A60B3040B6013496A
:1021B00008600A600B60FEF787FEFEF705FCFFF77C
:1021C00071FE0F480268102700970196002404252D
:1021D000204621462B46FFF70BFB0A480268009772
:1021E0000196142120462B46FFF702FBFFF75CF90E
:1021F000E5E7C0460438864080E200E000E100E008
:10220000B4042020B8042020F0B581B00C46054667
:10221000007869780918A8780A18E97852182B7993
:10222000D2186B79D218AB79D218EB79D2182B7AF5
:10223000D2186B7AD218D2B2AB7A9A423ED1090246
:10224000081800B2FEF75AF83F2217060026324659
:102250003B46FDF7DFFF1B4B3246FDF7DBFFFEF78A
:102260007AF82060287969790902081800B2FEF727
:1022700045F832463B46FDF7CDFF3246114BFDF7A0
:10228000C9FFFEF768F86060A879E97909020818C3
:1022900000B2FEF733F832463B46FDF7BBFF32464D
:1022A000084BFDF7B7FFFEF756F8A060287A697A69
:1022B00009020818E060012001B0F0BD002001B063
:1022C000F0BDC04600806640F0B581B00C460546C2
:1022D000007869780918A8780A18E97852182B79D3
:1022E000D2186B79D218AB79D218EB79D2182B7A35
:1022F000D2186B7AD218D2B2AB7A9A423AD109028A
:10230000081800B2FDF7FAFF3F22170600263246F2
:102310003B46FDF77FFF194B3246FDF77BFFFEF78B
:102320001AF82060287969790902081800B2FDF7C7
:10233000E5FF32463B46FDF76DFF32460F4BFDF79A
:1023400069FFFEF708F86060A879E979E66009029C
:10235000081800B2FDF7D2FF32463B46FDF75AFFA0
:102360003246064BFDF756FFFDF7F5FFA060012052
:1023700001B0F0BD002001B0F0BDC04600409F405C
:10238000B0B50C4605460B301031FFF79DFF002815
:1023900008D01635203428462146FFF735FF411E68
:1023A0008841B0BD0020B0BD2021020C01D0102119
:1023B0001046020A01D010460839020901D0104621
:1023C000091F820801D01046891E420801D0881ECC
:1023D0007047081A7047000002E008C8121F08C1C1
:1023E000002AFAD17047000070470000000000008A
:1023F000002001E001C1121F002AFBD1704700003C
:10240000000000000000002F00000000070007008F
:1024100000147F147F1400242A7F2A1200626408AB
:102420001323003649552250000005030000000028
:102430001C224100000041221C000014083E081428
:102440000008083E0808000000A060000008080816
:102450000808000060600000002010080402003E30
:102460005149453E0000427F4000004261514946CB
:10247000002141454B31001814127F1000274545BB
:102480004539003C4A4949300001710905030036CD
:102490004949493600064949291E000036360000E0
:1024A00000005636000000081422410000141414E5
:1024B00014140000412214080002015109060032E0
:1024C0004959513E007C1211127C007F494949361E
:1024D000003E41414122007F4141221C007F494989
:1024E0004941007F09090901003E4149497A007FBD
:1024F0000808087F0000417F4100002040413F0163
:10250000007F08142241007F40404040007F020CC1
:10251000027F007F0408107F003E4141413E007F62
:1025200009090906003E4151215E007F091929462B
:102530000046494949310001017F0101003F404007
:10254000403F001F2040201F003F4038403F0063B5
:1025500014081463000708700807006151494543D7
:1025600000007F41410000552A552A550000414195
:102570007F0000040201020400404040404000008F
:1025800001020400002054545478007F4844443829
:1025900000384444442000384444487F00385454B0
:1025A000541800087E0901020018A4A4A47C007F2E
:1025B000080404780000447D4000004080847D00D1
:1025C000007F102844000000417F4000007C041878
:1025D0000478007C0804047800384444443800FC43
:1025E000242424180018242418FC007C080404085F
:1025F00000485454542000043F444020003C4040D4
:10260000207C001C2040201C003C4030403C00440A
:1026100028102844001CA0A0A07C004464544C4412
:102620001414141414140000000000000000000032
:1026300000000000FC000000000002000000000C90
:10264000020C020000000000000090D0BCD0BC9042
:102650000003000300001824FE448C00030207025C
:1026600001001824D8B04C80000300010201C038DA
:10267000E438E00001020201020208060000000046
:10268000000000000000000000F80402000000014B
:102690000204000204F8000000040201000090603F
:1026A000F86090000000010000002020FC202000C5
:1026B000000001000000000000000000080600000B
:1026C000000020202020200000000000000000006A
:1026D000000000000002000000000080601C0200FA
:1026E000040300000000F8040404F80001020202E0
:1026F00001000008FC000000000203020000188432
:102700004424180003020202020008042424D80012
:1027100001020202010040B088FC800000000003BA
:1027200002003C242424C400010202020100F82417
:10273000242CC0000102020201000C04E41C04006D
:10274000000003000000D8242424D8000102020263
:10275000010038444444F800000302020100000074
:102760001000000000000200000000002000000037
:102770000000060000000020508804020000000055
:102780000102909090909000000000000000000274
:10279000048850200002010000001804C42418001E
:1027A000000002000000F804E494F80001020202B4
:1027B000020000E09CF0800002030000030204FC21
:1027C0002424D800020302020100F80404040C00CF
:1027D00001020202010004FC0404F80002030202E8
:1027E000010004FC24740C0002030202030004FC38
:1027F00024740C00020302000000F0080444CC40E2
:1028000000010202010004FC2020FC04020300007D
:1028100003020404FC040400020203020200000498
:1028200004FC040406040403000004FC24D00C048B
:1028300002030200030204FC04000000020302027F
:102840000203FC3CC03CFC0003000300030004FC4A
:1028500030C4FC04020302000300F8040404F8007E
:1028600001020202010004FC2424180002030200F9
:102870000000F8848404F80001020207050004FC4B
:1028800024649800020302000302182424448C00EC
:102890000302020201000C04FC040C00000203020B
:1028A000000004FC0000FC04000102020100047CA2
:1028B00080E01C040000030000001CE03CE01C0061
:1028C000000300030000049C609C0400020300035A
:1028D0000200041CE01C04000002030200000C843F
:1028E000641C04000203020203000000FE02020056
:1028F000000007040400000E30C0000000000001CA
:102900000200000202FE00000004040700000004B0
:1029100002040000000000000000000000000000B1
:102920000808080808080000020000000000000075
:1029300000000040A0A0C00000010202030204FC4D
:102940002020C00000030202010000C0202060001F
:1029500000010202020000C02024FC00000102026B
:10296000030200C0A0A0C00000010202020000207B
:10297000F82424040002030202000040A0A060200A
:1029800000070A0A0A0404FC2020C0000203020017
:1029900003020020E4000000000203020000000027
:1029A00020E4000008080807000004FC80E0202064
:1029B0000203020003020404FC00000002020302FE
:1029C0000200E020E020C00003000300030020E03C
:1029D0002020C00002030200030200C02020C0002B
:1029E00000010202010020E02020C000080F0A02BE
:1029F000010000C02020E0000001020A0F0820E0D2
:102A0000402020000203020000000060A0A020007F
:102A10000002020203000020F82000000000010272
:102A2000020020E00020E00000010202030220E09A
:102A3000208060200000030100006080E0806000D2
:102A400000030003000020608060200002030003F8
:102A5000020020E02080602008080701000000201C
:102A6000A0602000000203020200000020DE02003D
:102A7000000000070400000000FF00000000000F3D
:102A800000000002DE200000000407000000020138
:102A9000020404020000000000000000000000002A
:102AA00000000000000000000000000000F800002E
:102AB0000000000000333000000000100C06100C75
:102AC0000600000000000000000040C07840C07810
:102AD0004000043F04043F040400007088FC0830F8
:102AE0000000001820FF211E0000F008F000E01890
:102AF000000000211C031E211E0000F00888700049
:102B000000001E2123241927211010160E0000009A
:102B100000000000000000000000000000E01804B9
:102B20000200000000071820400000020418E00026
:102B300000000040201807000000404080F0804066
:102B400040000202010F01020200000000F000003C
:102B500000000101011F0101010000000000000050
:102B6000000080B0700000000000000000000000C5
:102B7000000000010101010101010000000000004E
:102B80000000003030000000000000000000806005
:102B90001804006018060100000000E0100808108A
:102BA000E000000F102020100F00001010F80000AF
:102BB00000000020203F2020000000700808088846
:102BC0007000003028242221300000300888884816
:102BD00030000018202020110E000000C02010F846
:102BE000000000070424243F240000F80888880817
:102BF00008000019212020110E0000E0108888181C
:102C00000000000F112020110E0000380808C838FD
:102C100008000000003F00000000007088080888DD
:102C20007000001C222121221C0000E01008081066
:102C3000E0000000312222110F00000000C0C0009F
:102C400000000000003030000000000000800000A4
:102C500000000000806000000000000080402010A4
:102C6000080000010204081020004040404040409D
:102C70004000040404040404040000081020408000
:102C80000000002010080402010000704808080835
:102C9000F0000000003036010000C030C828E81005
:102CA000E0000718272423140B000000C038E000C0
:102CB0000000203C23020227382008F8888888700A
:102CC0000000203F202020110E00C0300808080816
:102CD0003800071820202010080008F808080810FD
:102CE000E000203F202020100F0008F88888E80826
:102CF0001000203F20202320180008F88888E808CA
:102D00001000203F200003000000C03008080838F1
:102D1000000007182020221E020008F80800000802
:102D2000F808203F210101213F20000808F8080889
:102D300000000020203F2020000000000808F808C4
:102D40000800C08080807F00000008F888C0281834
:102D50000800203F20012638200008F80800000065
:102D60000000203F20202020300008F8F800F8F86C
:102D70000800203F003F003F200008F830C0000856
:102D8000F808203F200007183F00E010080808104E
:102D9000E0000F10202020100F0008F80808080895
:102DA000F000203F210101010000E0100808081098
:102DB000E0000F18242438504F0008F888888888CD
:102DC0007000203F2000030C3020007088080808A5
:102DD00038000038202121221C00180808F80808B3
:102DE00018000000203F2000000008F8080000083C
:102DF000F808001F202020201F000878880000C845
:102E00003808000007380E010000F80800F8000834
:102E1000F800033C0700073C03000818688080683E
:102E2000180820302C03032C30200838C800C8387C
:102E300008000000203F2000000010080808C838E3
:102E400008002038262120201800000000FE020281
:102E500002000000007F40404000000C30C0000035
:102E60000000000000010638C00000020202FE005F
:102E70000000004040407F00000000000402020209
:102E8000040000000000000000000000000000003E
:102E9000000080808080808080800002020400002A
:102EA0000000000000000000000000008080808022
:102EB00000000019242222223F2008F80080800010
:102EC0000000003F112020110E00000000808080D3
:102ED0000000000E112020201100000000808088DA
:102EE000F800000E112020103F200000808080801C
:102EF0000000001F222222221300008080F0888818
:102F000088180020203F2020000000008080808062
:102F10008000006B94949493600008F80080808097
:102F20000000203F210000203F20008098980000F2
:102F300000000020203F2020000000000080989822
:102F4000000000C08080807F000008F800008080C2
:102F50008000203F24022D302000000808F80000E7
:102F600000000020203F20200000808080808080A2
:102F70008000203F20003F20003F80800080808034
:102F80000000203F210000203F2000008080808042
:102F90000000001F202020201F0080800080800073
:102FA000000080FFA12020110E0000000080808022
:102FB0008000000E112020A0FF8080808000808093
:102FC000800020203F2120000100000080808080C0
:102FD00080000033242424241900008080E08080B5
:102FE00000000000001F2020000080800000008002
:102FF0008000001F202020103F2080808000008063
:10300000808000010E300806010080800080008072
:1030100080800F300C030C300F0000808000808017
:1030200080000020312E0E31200080808000008042
:10303000808080818E7018060100008080808080F2
:1030400080000021302C2221300000000000807C14
:10305000020200000000003F404000000000FF00AE
:10306000000000000000FF0000000002027C800061
:1030700000000040403F0000000000060101020285
:103080000404000000000000000008070000000029
:10309000E8030000200001000807C700020000004C
:1030A00063000000010000000000000000000000BC
:1030B000080000001800000000300000E0300000B0
:1030C0000000202010000000D8230000F030000095
:1030D00010002020A8160000F023000000000000CF
:1030E00001000000CDCC4C3D6666E63E05000000C8
:04000005000000C136
:00000001FF
