:020000040000FA
:1000000090162020D5000000D9000000DB00000081
:1000100000000000000000000000000000000000E0
:10002000000000000000000000000000DD000000F3
:100030000000000000000000DF000000E100000000
:10004000E30000009D060000E3000000E300000064
:10005000E3000000E3000000E3000000E300000014
:1000600000000000E3000000E300000000000000CA
:1000700000000000E3000000E3000000B9180000E9
:10008000E3000000E300000049180000E300000066
:10009000E3000000E300000000000000000000009A
:1000A000E3000000E300000000000000000000008A
:1000B000E300000000000000E3000000E300000097
:1000C0000348854600F048F90048004745190000FC
:1000D0009016202003480047FEE7FEE7FEE7FEE714
:1000E000FEE7FEE7C1000000F0B51FB488B00B9931
:1000F0000998002448400999C00F4900490809910E
:10010000C0070B990090490049080B91099908987C
:10011000A64608431CD00B990A98084318D00998A2
:1001200001244000420D4800410D099824050003B8
:10013000000B204309900B980003000B20430B9009
:1001400050181C494018002201901446104605E042
:10015000002001460DB0F0BD032801DA034600E09F
:1001600003239C46C11A0AAE0AE05F0008ADED5BAE
:100170004F00F75B7D430027AA187C41491C5B1E9A
:100180006145F2DD410004AB5A522104120C0A43CE
:10019000240C401C0828DFDB01980290009970466F
:1001A00001910090059B049A0799069800F082F847
:1001B000D0E700000DFCFFFF0EB5C217C10F504085
:1001C000CA0740180021054B0293019200910A468C
:1001D0000B4600F06FF803B000BD000033040000D0
:1001E000CB0FDB07490010B5490802460A4307D088
:1001F0000A0D07240903E401090B121B002A01DC84
:10020000002010BDC900440F0C43C100E018D20506
:10021000801800F001F810BD002904DA401C4900E4
:1002200001D140084000704770B40024050C05D18E
:100230001024000402D1002921D01124050E01D17F
:1002400000020834050F01D10001241D850F01D1E2
:100250008000A41C002801DB4000641C002908D099
:1002600020252E1B0D46F540A14000D00121294339
:10027000084301061B1B000ADB1D02D5002070BCD1
:100280007047DB05181880180029F8DA401C49006F
:10029000F5D170BC40084000704710B5002B08DA5B
:1002A0000024401C614192185B411A4301D140086F
:1002B000400010BDF0B51FB482B005460C0003D05D
:1002C000084601F02DFC02E001F02AFC2030024635
:1002D00000902146284600F051F8049B059A0446F8
:1002E0000F4618431143084314D0184610431BD03F
:1002F000009840210A1A1846059900F04FF8054663
:100300000E46009A0599049800F038F8084305D085
:10031000012004E02046394607B0F0BD0020C11797
:1003200005430E432C43374300990E986305401A4A
:100330007905E40A00220C43FD0A0A3002D50020A8
:100340000146E9E70105101969410C9C0D9D001952
:100350006941FFF7A2FFDFE7064C0125064E05E0E5
:10036000E36807CC2B430C3C98471034B442F7D3D6
:10037000FFF7AAFEA81B0000C81B000010B5202A2A
:1003800004DB0146203A9140002010BD914020231B
:100390009C1A0346E3401943904010BD10B5202A33
:1003A00004DB0846203AD040002110BD0B46D34064
:1003B000D0402024A21A91400843194610BD811E46
:1003C000091F00BFFCD2704770B582B00B794A7923
:1003D000002A24D0174A21242401202B00D0703475
:1003E0008218002B00D18824156C3F4E35402D1902
:1003F0001564556C35402C1954641468774D2C40A5
:10040000146054682C4054600024146254628F2499
:10041000E443156D25401565556D254055656A46C3
:1004200013718B79537109680091114600F004F83B
:1004300002B070BD38180000F0B5664A8218294B2A
:10044000C318087920280DD000281DD10C68641E1F
:100450005460D56E244C25408835D56616467036D6
:1004600088251DE00C68641E5460D46E1E4D2C401F
:100470001E4EA419D466146F2C40A41914670124CD
:1004800065071B4C16460BE00C6864085460D66E7A
:10049000154C26400525ED017619D66616467036B0
:1004A000376827402F433760D46A4C4D2C40D462C4
:1004B000146B2C4014630024D46414658F24E4432B
:1004C000D56F2540D5671D6825401D6049790143DA
:1004D000BD2008401168074B0B40C018801C1060FD
:1004E000F0BDC0468418000024F93FF0010400006C
:1004F000FFFFFFCF4000FFCFB0B5364A80184A68F3
:1005000042600A78222A57D8930001A4E3589F46F4
:10051000AF050000B9050000AF050000B9050000F7
:10052000B9050000B9050000B9050000B9050000D3
:10053000B9050000B9050000B9050000B9050000C3
:10054000B9050000B9050000B9050000B9050000B3
:100550009D050000B90500009D050000B9050000DB
:10056000B9050000B9050000B9050000B905000093
:10057000B9050000B9050000B9050000B905000083
:10058000B9050000B9050000B9050000B905000073
:100590009D050000B90500009D05000003231B0711
:1005A00004689C4301235B07E318036004E0032312
:1005B0001B0704689C4304600B69C360CB68064C4E
:1005C0001C40C36A054D1D402B19C362097A1143B3
:1005D0000160B0BD04180000777702008888FDFF35
:1005E00010B507239B04194092008018024A8458D2
:1005F0009C436118815010BD3018000010B5029C5A
:10060000A400001911431943014A815010BDC0468E
:100610005018000092008018014A81507047C0466F
:100620001018000010B50122120383180C789C608A
:100630004B7883508978014A815010BD0C1100001D
:10064000B0B51122120283580124A34383508B7842
:100650000C881C438B882343094C1C408358094D4C
:100660001D402B1983508B79CC791C43097A214387
:100670007E231940801842689A4351184160B0BDEA
:1006800018670000E798FDFF10B5012212038318D8
:100690000C789C604978815010BD0000F0B587202F
:1006A000C2033C49084610380468204610403A4BC3
:1006B000186001202304394B09D4E5030FD5C60384
:1006C0001F68374D2D68374206D06D1E05E01E6845
:1006D000334D2D68F603F8D56D1C314E3560A503FA
:1006E00009D464020FD545041E682E4C24682E429E
:1006F00006D0641E05E01D682A4C24686D02F8D5FA
:10070000641C284D2C600C6814430C601968490760
:1007100001D5254908701968490702D422490022E9
:100720000A70020621490B68DB0101D51E4B587087
:100730000B68134202D11C4A0023537002050B6858
:10074000DB0201D5184B98700B68134202D1164A90
:1007500000239370C2040B681B0301D5124BD870A1
:100760000B68134202D1104A0023D3700A680B6849
:100770001B0602D59209904300E002200A68D205C8
:1007800000D403200968890500D4042008490870B2
:10079000F0BDC04648100A401406202080130A40CD
:1007A000080020200C0020208506202080330A40ED
:1007B00004002020F0B581B002480646803680272C
:1007C00002E0C04610002020602100227254402325
:1007D000F2542024325532763274327232703546F9
:1007E00060352A762A742A72354640352A762A746C
:1007F0002A72354620352A762A742A723546083DF3
:100800002A703546103D2A703546183D2A70354607
:10081000203D2A703546283D2A703546303D2A70E5
:100820003546383D2A703546403D2A703546483DAC
:100830002A703546503D2A703546583D2A70354657
:10084000603D2A703546683D2A703546703D2A70F5
:100850003546783D2A703546803D2A7001252D02A7
:100860007619203FB0D107468137802600937A540D
:10087000009BFA543A553A763A743A723A700B46FB
:10088000394660310A760A740A72394640310A766E
:100890000A740A72394620310A760A740A72394695
:1008A00008390A70394610390A70394618390A7001
:1008B000394620390A70394628390A7039463039A4
:1008C0000A70394638390A70394640390A70394653
:1008D00048390A70394650390A70394658390A7011
:1008E000394660390A70394668390A7039467039B4
:1008F0000A70394678390A707919803F3A70203E7B
:100900000F461946B3D10746823780267A5400999C
:100910007A543A553A763A743A723A7039466031B6
:100920000A760A740A72394640310A760A740A72E3
:10093000394620310A760A740A72394608390A7033
:10094000394610390A70394618390A703946203943
:100950000A70394628390A70394630390A703946E2
:1009600038390A70394640390A70394648390A70B0
:10097000394650390A70394658390A703946603953
:100980000A70394668390A70394670390A70394632
:1009900078390A707919803F3A70203E0F4619461F
:1009A000B4D10746833780267A5400997A543A5551
:1009B0003A763A743A723A70394660310A760A7475
:1009C0000A72394640310A760A740A723946203171
:1009D0000A760A740A72394608390A70394610399B
:1009E0000A70394618390A70394620390A70394672
:1009F00028390A70394630390A70394638390A7050
:100A0000394640390A70394648390A7039465039F2
:100A10000A70394658390A70394660390A703946C1
:100A200068390A70394670390A70394678390A705F
:100A30007919803F3A70203E0F461946B4D10746D7
:100A4000843780267A5400997A543A553A763A7423
:100A50003A723A70394660310A760A740A72394637
:100A600040310A760A740A72394620310A760A74CD
:100A70000A72394608390A70394610390A703946FF
:100A800018390A70394620390A70394628390A70EF
:100A9000394630390A70394638390A703946403992
:100AA0000A70394648390A70394650390A70394651
:100AB00058390A70394660390A70394668390A70FF
:100AC000394670390A70394678390A707919803F89
:100AD0003A70203E0F461946B4D107468537802626
:100AE0007A5400997A543A553A763A743A723A708E
:100AF000394660310A760A740A72394640310A76FC
:100B00000A740A72394620310A760A740A72394622
:100B100008390A70394610390A70394618390A708E
:100B2000394620390A70394628390A703946303931
:100B30000A70394638390A70394640390A703946E0
:100B400048390A70394650390A70394658390A709E
:100B5000394660390A70394668390A703946703941
:100B60000A70394678390A707919803F3A70203E08
:100B70000F461946B4D10746863780267A54009925
:100B80007A543A553A763A743A723A703946603144
:100B90000A760A740A72394640310A760A740A7271
:100BA000394620310A760A740A72394608390A70C1
:100BB000394610390A70394618390A7039462039D1
:100BC0000A70394628390A70394630390A70394670
:100BD00038390A70394640390A70394648390A703E
:100BE000394650390A70394658390A7039466039E1
:100BF0000A70394668390A70394670390A703946C0
:100C000078390A707919803F3A70203E0F461946AC
:100C1000B4D17F30802637468255425400994254E1
:100C200002550276027402720270014660310A7641
:100C30000A740A72014640310A760A740A72014641
:100C400020310A760A740A72014608390A70014690
:100C500010390A70014618390A70014620390A70A5
:100C6000014628390A70014630390A700146383980
:100C70000A70014640390A70014648390A70014637
:100C800050390A70014658390A70014660390A70B5
:100C9000014668390A70014670390A70411978387E
:100CA0000270203F08461946B6D100F0F3FA01B0B1
:100CB000F0BD0000F0B581B0AE200024214600F068
:100CC00063FB2046214600F05FFB1020214600F028
:100CD0005BFB40252846214600F056FB812021463B
:100CE00000F052FBCF20214600F04EFBA120214610
:100CF00000F04AFBC820214600F046FBA6200090E9
:100D0000214600F041FBA820214600F03DFB3F209A
:100D1000214600F039FBD320214600F035FB204668
:100D2000214600F031FBD520214600F02DFB802725
:100D30003846214600F028FBD920214600F024FB4C
:100D4000F120214600F020FBDA20214600F01CFBB8
:100D50001220214600F018FBDB20214600F014FB96
:100D60002846214600F010FB20263046214600F0A0
:100D70000BFB0220214600F007FB8D20214600F0EE
:100D800003FB1420214600F0FFFAA420214600F0C6
:100D9000FBFA0098214600F0F7FA02480346803338
:100DA00002E0C0461000202060215C545C559C5538
:100DB0001C761C741C721C701A46603214761474F3
:100DC00014721A4640321476147414721A46203281
:100DD0001476147414721A46083A14701A46103AAB
:100DE00014701A46183A14701A46203A14701A46AB
:100DF000283A14701A46303A14701A46383A147069
:100E00001A46403A14701A46483A14701A46503A34
:100E100014701A46583A14701A46603A14701A46FA
:100E2000683A14701A46703A14701A46783A147078
:100E30001A46803A1470012212029B18203FB3D147
:100E400007468137802300967C547C55009EBC5514
:100E50003C763C743C723C702E463D4660352C76A8
:100E60002C742C723D4640352C762C742C723D46E9
:100E700020352C762C742C723D46083D2C703D4656
:100E8000103D2C703D46183D2C703D46203D2C7089
:100E90003D46283D2C703D46303D2C703D46383D4A
:100EA0002C703D46403D2C703D46483D2C703D46E3
:100EB000503D2C703D46583D2C703D46603D2C7099
:100EC0003D46683D2C703D46703D2C703D46783D5A
:100ED0002C70BD18803F3C70203B2F463546B3D167
:100EE0000746823780237C547C55009D7C553C7698
:100EF0003C743C723C703D4660352C762C742C72F0
:100F00003D4640352C762C742C723D4620352C768F
:100F10002C742C723D46083D2C703D46103D2C70C3
:100F20003D46183D2C703D46203D2C703D46283DE9
:100F30002C703D46303D2C703D46383D2C703D4672
:100F4000403D2C703D46483D2C703D46503D2C7038
:100F50003D46583D2C703D46603D2C703D46683DF9
:100F60002C703D46703D2C703D46783D2C70BD1870
:100F7000803F3C70203B2F463546B4D1074683372F
:100F800080237C547C55009D7C553C763C743C729F
:100F90003C703D4660352C762C742C723D464035B5
:100FA0002C762C742C723D4620352C762C742C72A9
:100FB0003D46083D2C703D46103D2C703D46183D89
:100FC0002C703D46203D2C703D46283D2C703D4602
:100FD000303D2C703D46383D2C703D46403D2C70D8
:100FE0003D46483D2C703D46503D2C703D46583D99
:100FF0002C703D46603D2C703D46683D2C703D4652
:10100000703D2C703D46783D2C70BD18803F3C7083
:10101000203B2F463546B4D10746843780237C5485
:101020007C55009D7C553C763C743C723C703D4642
:1010300060352C762C742C723D4640352C762C7401
:101040002C723D4620352C762C742C723D46083D82
:101050002C703D46103D2C703D46183D2C703D4691
:10106000203D2C703D46283D2C703D46303D2C7077
:101070003D46383D2C703D46403D2C703D46483D38
:101080002C703D46503D2C703D46583D2C703D46E1
:10109000603D2C703D46683D2C703D46703D2C7087
:1010A0003D46783D2C70BD18803F3C70203B2F465C
:1010B0003546B4D10746853780237C547C55009D46
:1010C0007C553C763C743C723C703D4660352C76D9
:1010D0002C742C723D4640352C762C742C723D4677
:1010E00020352C762C742C723D46083D2C703D46E4
:1010F000103D2C703D46183D2C703D46203D2C7017
:101100003D46283D2C703D46303D2C703D46383DD7
:101110002C703D46403D2C703D46483D2C703D4670
:10112000503D2C703D46583D2C703D46603D2C7026
:101130003D46683D2C703D46703D2C703D46783DE7
:101140002C70BD18803F3C70203B2F463546B4D1F3
:101150000746863780237C547C55009D7C553C7621
:101160003C743C723C703D4660352C762C742C727D
:101170003D4640352C762C742C723D4620352C761D
:101180002C742C723D46083D2C703D46103D2C7051
:101190003D46183D2C703D46203D2C703D46283D77
:1011A0002C703D46303D2C703D46383D2C703D4600
:1011B000403D2C703D46483D2C703D46503D2C70C6
:1011C0003D46583D2C703D46603D2C703D46683D87
:1011D0002C703D46703D2C703D46783D2C70BD18FE
:1011E000803F3C70203B2F463546B4D17F30802372
:1011F0001F46C45444544455009D44550476047419
:1012000004720470054660352C762C742C720546E9
:1012100040352C762C742C72054620352C762C7497
:101220002C720546083D2C700546103D2C70054675
:10123000183D2C700546203D2C700546283D2C702D
:101240000546303D2C700546383D2C700546403D26
:101250002C700546483D2C700546503D2C700546C7
:10126000583D2C700546603D2C700546683D2C703D
:101270000546703D2C70851878380470203F28464C
:101280003546B6D100F006F8AF20002100F07CF81A
:1012900001B0F0BDF0B585B000203A4F0290503853
:1012A000C0B20024214600F06FF82046214600F02D
:1012B0006BF81020214600F067F8022559480560B8
:1012C000012606600A24204600F01AFB55480561F5
:1012D000204600F015FB53480661204600F010FB45
:1012E000782000F027FA4F480560204600F008FB00
:1012F0004C480660204600F003FB4A480661204641
:1013000000F0FEFA402000F015FA0495454805600B
:10131000204600F0F5FA434806600546204600F0F6
:10132000EFFA03962E61204600F0EAFA8026019734
:10133000387800F0FFF93B49049808600A242046F9
:1013400000F0DEFA039D37480560204600F0D8FA29
:1013500034480561204600F0D3FA761E0837002E87
:10136000E6D1304C049D2561039820600A2000F0EE
:10137000C7FA2560019F7F1C0298401C08288DD168
:1013800005B0F0BD10002020F0B583B001910290AF
:10139000244F02263E6001253D600A24204600F0CD
:1013A000AFFA3E61204600F0ABFA3D61204600F006
:1013B000A7FA782000F0BEF93E60204600F0A0FABF
:1013C0003D60204600F09CFA3D61204600F098FA0E
:1013D0000199481E8141880100F0ACF93E60204629
:1013E00000F08EFA3D60204600F08AFA3D6120460A
:1013F00000F086FA029800F09DF93E60204600F069
:101400007FFA3D60204600F07BFA3D61204600F007
:1014100077FA3E613D60204600F072FA3E6003B00C
:10142000F0BDC04690120A4010B52848872181605F
:101430000122130726490B6088234361D2070A6003
:1014400082220265234A531C4365234B4363234B8B
:1014500081241C605C609C609C618464DA601A6119
:101460005A615A630460446082619A649A63DA62E2
:101470008265C2650266426608463038184A0260D4
:101480000A6018480168184A0A4302600169174A4D
:101490000A4302611648016A164A11430162016853
:1014A00011430160FF20000313490A6802430A60E8
:1014B0000869124A02430A611148016A114A11433C
:1014C000016201681143016010BDC04604804240C2
:1014D000D0120A408100040081000100888042404F
:1014E0008371040090130A40300000400510000092
:1014F00028100A400480430090330A40C0030300D0
:1015000028300A40C003180170B582B0194C1A493E
:101510002046FFF787F819492046FEF755FF0025BA
:101520000095204629462A462B46FFF767F82046B5
:1015300029462A46FFF754F8204629462A46FFF74F
:1015400069F801260096204629462A462B46FFF7D1
:1015500055F8204629463246FFF742F820462946EC
:101560003246FFF757F8064886600321016002B053
:1015700070BDC04600208640761B00007C1B00002A
:10158000003186400D48002101600D490A46083AA5
:1015900013680320834313600A6801239A430A6097
:1015A0001A020B6893430B60FF210902054A136876
:1015B0008B438003181810607047C04608030B4027
:1015C00008010B4000E400E00548042101601F21F0
:1015D000416000218160016805220A430260704772
:1015E00010E000E010B50D4C0D492046FFF71AF849
:1015F0000C492046FEF780FF0B4801680122114389
:101600000160FF20000409490B6883430320800523
:10161000181808600648026010BDC04600008640E9
:10162000841B0000881B00002810864010E400E0A6
:101630000811864010B5194C19492046FFF724F8C7
:1016400018492046FEF7FCFF0320C1031648026834
:101650008A4302600169154A0A40113202614169F8
:1016600017220A4328218A434261426801210A4025
:1016700043688B439A1842608A020D4B1C681443DE
:101680001C60FF2212060B4B1C6894438A07A218A9
:101690001A6002680A43026010BDC0460080104014
:1016A0009C1B00009E1B0000009110400000FFFFEB
:1016B000289010400CE400E080B500F017F8FFF728
:1016C000B3FEFFF75FFFFFF71FFFFFF78BFFFFF78B
:1016D000B1FFFFF779FFB820024900220A540249FE
:1016E0000A5480BD580520209C042020B0B50A482B
:1016F0000A4941600A4A51600A4B59600A4C6160CC
:101700000A4D69600A490160116019602160296011
:101710001020FEF754FEB0BD00080A40030000B1DF
:1017200000280A40002886400008864000881040B3
:1017300001000026F0B581B0044640B2414E0028B9
:1017400002D40220306101E0022030600A252846E0
:1017500000F0D6F801273760284600F0D1F837614D
:10176000600602D40220306101E0022030600A25C8
:10177000284600F0C5F83760284600F0C1F8376108
:10178000A00602D40220306101E0022030600A2568
:10179000284600F0B5F83760284600F0B1F8376108
:1017A000E00602D40220306101E0022030600A2508
:1017B000284600F0A5F83760284600F0A1F8376108
:1017C000200702D40220306101E0022030600A25A7
:1017D000284600F095F83760284600F091F8376108
:1017E000600702D40220306101E0022030600A2547
:1017F000284600F085F83760284600F081F8376108
:10180000A00702D40220306101E0022030600A25E6
:10181000284600F075F83760284600F071F8376107
:10182000E00702D10220306101E0022030600A248A
:10183000204600F065F83760204600F061F8376117
:1018400001B0F0BD90120A401248006800061FD097
:1018500011480178491C017010480178491C017039
:101860000F480178491C01700E480178491C01702D
:10187000C9B208290CD1002101700B48026801602F
:101880000A4802600A48026801605042094908603B
:101890007047C046201086409804202099042020DC
:1018A0009A0420209B04202008002020900420205F
:1018B0000C0020209404202010B50C480068C0B211
:1018C0000B2812D10A484168CAB20260094C20783C
:1018D000094A1154401C2070C0B22C2805D106487A
:1018E000064900F009F90020207010BD209010403A
:1018F0002091104084062020580620201806202021
:10190000B0B50F490B684001262206E0E41A0D1F0E
:101910002D686419A218824210D21C460B689C42A2
:1019200008D10B689C4205D10B689C4202D10B6820
:101930009C42F3D09C42E9D9E41AEBE7B0BDC04623
:1019400018E000E0FFF7B8FE0A48016801221143E1
:101950000160D0030849086002230B6092040A600A
:10196000064908600B600A60FFF7A4F9FEF722FF42
:10197000FEE7C0460438864080E200E000E100E077
:10198000F0B581B00C460546007869780918A8784A
:101990000A18E97852182B79D2186B79D218AB79DA
:1019A000D218EB79D2182B7AD2186B7AD218D2B21D
:1019B000AB7A9A423ED10902081800B2FEF7FCFB4E
:1019C0003F221706002632463B46FEF78DFB1B4B97
:1019D0003246FEF789FBFEF703FC2060287969791F
:1019E0000902081800B2FEF7E7FB32463B46FEF755
:1019F0007BFB3246114BFEF777FBFEF7F1FB606095
:101A0000A879E9790902081800B2FEF7D5FB324639
:101A10003B46FEF769FB3246084BFEF765FBFEF7D7
:101A2000DFFBA060287A697A09020818E0600120CB
:101A300001B0F0BD002001B0F0BDC046008066409E
:101A4000F0B581B00C460546007869780918A87889
:101A50000A18E97852182B79D2186B79D218AB7919
:101A6000D218EB79D2182B7AD2186B7AD218D2B25C
:101A7000AB7A9A423AD10902081800B2FEF79CFBF1
:101A80003F221706002632463B46FEF72DFB194B38
:101A90003246FEF729FBFEF7A3FB2060287969791F
:101AA0000902081800B2FEF787FB32463B46FEF7F4
:101AB0001BFB32460F4BFEF717FBFEF791FB6060F6
:101AC000A879E979E6600902081800B2FEF774FB0C
:101AD00032463B46FEF708FB3246064BFEF704FB58
:101AE000FEF77EFBA060012001B0F0BD002001B038
:101AF000F0BDC04600409F40B0B50C4605460B30D7
:101B00001031FFF79DFF002808D0163520342846F5
:101B10002146FFF735FF411E8841B0BD0020B0BD12
:101B20002021020C01D010211046020A01D01046DB
:101B30000839020901D01046091F820801D0104659
:101B4000891E420801D0881E7047081A704700009D
:101B500002E008C8121F08C1002AFAD1704700002D
:101B60007047000000000000002001E001C1121FCA
:101B7000002AFBD17047080700000000E8030000BE
:101B8000200001000807C7000200000063000000F9
:101B9000010000000000000000000000080000003C
:101BA0001800000000300000C81B000000002020CA
:101BB00008000000501B0000D01B0000080020207F
:101BC00088160000681B00000100000005000000EE
:04000005000000C136
:00000001FF
