:020000040000FA
:1000000008172020D5000000D9000000DB00000008
:1000100000000000000000000000000000000000E0
:10002000000000000000000000000000DD000000F3
:100030000000000000000000DF000000E100000000
:10004000E3000000A9060000E3000000E300000058
:10005000E3000000E3000000E3000000E300000014
:1000600000000000E3000000E300000000000000CA
:1000700000000000E3000000E3000000691C000035
:10008000E3000000E3000000051C0000E3000000A6
:10009000E3000000E300000000000000000000009A
:1000A000E3000000E300000000000000000000008A
:1000B000E300000000000000E3000000E300000097
:1000C0000348854600F048F900480047F51C000049
:1000D0000817202003480047FEE7FEE7FEE7FEE79B
:1000E000FEE7FEE7C1000000F0B51FB488B00B9931
:1000F0000998002448400999C00F4900490809910E
:10010000C0070B990090490049080B91099908987C
:10011000A64608431CD00B990A98084318D00998A2
:1001200001244000420D4800410D099824050003B8
:10013000000B204309900B980003000B20430B9009
:1001400050181C494018002201901446104605E042
:10015000002001460DB0F0BD032801DA034600E09F
:1001600003239C46C11A0AAE0AE05F0008ADED5BAE
:100170004F00F75B7D430027AA187C41491C5B1E9A
:100180006145F2DD410004AB5A522104120C0A43CE
:10019000240C401C0828DFDB01980290009970466F
:1001A00001910090059B049A0799069800F082F847
:1001B000D0E700000DFCFFFF0EB5C217C10F504085
:1001C000CA0740180021054B0293019200910A468C
:1001D0000B4600F06FF803B000BD000033040000D0
:1001E000CB0FDB07490010B5490802460A4307D088
:1001F0000A0D07240903E401090B121B002A01DC84
:10020000002010BDC900440F0C43C100E018D20506
:10021000801800F001F810BD002904DA401C4900E4
:1002200001D140084000704770B40024050C05D18E
:100230001024000402D1002921D01124050E01D17F
:1002400000020834050F01D10001241D850F01D1E2
:100250008000A41C002801DB4000641C002908D099
:1002600020252E1B0D46F540A14000D00121294339
:10027000084301061B1B000ADB1D02D5002070BCD1
:100280007047DB05181880180029F8DA401C49006F
:10029000F5D170BC40084000704710B5002B08DA5B
:1002A0000024401C614192185B411A4301D140086F
:1002B000400010BDF0B51FB482B005460C0003D05D
:1002C000084601F01FFE02E001F01CFE203002464D
:1002D00000902146284600F057F8049B059A0446F2
:1002E0000F4618431143084314D0184610431BD03F
:1002F000009840210A1A1846059900F055F805465D
:100300000E46009A0599049800F03EF8084305D07F
:10031000012004E02046394607B0F0BD0020C11797
:1003200005430E432C43374300990E986305401A4A
:100330007905E40A00220C43FD0A0A3002D50020A8
:100340000146E9E70105101969410C9C0D9D001952
:100350006941FFF7A2FFDFE71CB509480090094893
:10036000019005460126009C05E0E36807CC334375
:100370000C3C98471034AC42F7D3FFF7A5FE0000C1
:100380009C1F0000BC1F000010B5202A04DB0146A2
:10039000203A9140002010BD914020239C1A034632
:1003A000E3401943904010BD10B5202A04DB0846F5
:1003B000203AD040002110BD0B46D340D04020242D
:1003C000A21A91400843194610BD811E091F00BFA3
:1003D000FCD2704770B582B00B794A79002A24D0DC
:1003E000174A21242401202B00D070348218002BBE
:1003F00000D18824156C3F4E35402D191564556C7D
:1004000035402C1954641468774D2C40146054689E
:100410002C4054600024146254628F24E443156D10
:1004200025401565556D254055656A4613718B79D4
:10043000537109680091114600F004F802B070BDD4
:1004400038180000F0B5664A8218294BC31808799D
:1004500020280DD000281DD10C68641E5460D56E74
:10046000244C25408835D5661646703688251DE013
:100470000C68641E5460D46E1E4D2C401E4EA41990
:10048000D466146F2C40A4191467012465071B4C13
:1004900016460BE00C6864085460D66E154C264076
:1004A0000525ED017619D666164670363768274061
:1004B0002F433760D46A4C4D2C40D462146B2C40CF
:1004C00014630024D46414658F24E443D56F25405D
:1004D000D5671D6825401D6049790143BD2008404E
:1004E0001168074B0B40C018801C1060F0BDC0465F
:1004F0008418000024F93FF001040000FFFFFFCF43
:100500004000FFCFB0B5364A80184A6842600A788A
:10051000222A57D8930001A4E3589F46BB05000048
:10052000C5050000BB050000C5050000C5050000AD
:10053000C5050000C5050000C5050000C505000093
:10054000C5050000C5050000C5050000C505000083
:10055000C5050000C5050000C5050000A90500008F
:10056000C5050000A9050000C5050000C50500007F
:10057000C5050000C5050000C5050000C505000053
:10058000C5050000C5050000C5050000C505000043
:10059000C5050000C5050000C5050000A90500004F
:1005A000C5050000A905000003231B0704689C4340
:1005B00001235B07E318036004E003231B070468BF
:1005C0009C4304600B69C360CB68064C1C40C36A43
:1005D000054D1D402B19C362097A11430160B0BD5E
:1005E00004180000777702008888FDFF10B5072304
:1005F0009B04194092008018024A84589C43611859
:10060000815010BD3018000010B5029CA4000019E4
:1006100011431943014A815010BDC04650180000D3
:1006200092008018014A81507047C046101800009F
:1006300010B50122120383180C789C604B7883500C
:100640008978014A815010BD0C110000B0B511220B
:10065000120283580124A34383508B780C881C43D7
:100660008B882343094C1C408358094D1D402B198E
:1006700083508B79CC791C43097A21437E2319401E
:10068000801842689A4351184160B0BD1867000055
:10069000E798FDFF10B50122120383180C789C60C7
:1006A0004978815010BD0000F0B58720C2033C4955
:1006B000084610380468204610403A4B1860012064
:1006C0002304394B09D4E5030FD5C6031F68374D02
:1006D0002D68374206D06D1E05E01E68334D2D682B
:1006E000F603F8D56D1C314E3560A50309D46402BC
:1006F0000FD545041E682E4C24682E4206D0641E79
:1007000005E01D682A4C24686D02F8D5641C284D4C
:100710002C600C6814430C601968490701D5254901
:1007200008701968490702D4224900220A7002069B
:1007300021490B68DB0101D51E4B58700B68134231
:1007400002D11C4A0023537002050B68DB0201D55D
:10075000184B98700B68134202D1164A002393700D
:10076000C2040B681B0301D5124BD87008681042F5
:1007700002D110480022C270086840220240504254
:1007800050410A68120600D402200A68D20500D43B
:1007900003200968890500D4042008490870F0BDC9
:1007A00048100A408C06202080130A4008002020B0
:1007B0000C002020FD06202080330A400400202069
:1007C000014880210160704790120A40B0B502488C
:1007D0000346F833802401E0100020200021197026
:1007E0001A46083A11701A46103A11701A46183A09
:1007F00011701A46203A11701A46283A11701A469A
:10080000303A11701A46383A11701A46403A11704F
:100810001A46483A11701A46503A11701A46583A18
:1008200011701A46603A11701A46683A11701A46E9
:10083000703A11701A46783A11701A46803A11705F
:100840001A46883A11701A46903A11701A46983A28
:1008500011701A46A03A11701A46A83A11701A4639
:10086000B03A11701A46B83A11701A46C03A11706F
:100870001A46C83A11701A46D03A11701A46D83A38
:1008800011701A46E03A11701A46E83A11701A4689
:10089000F03A11701A46F83A1170012212029B18B0
:1008A000203C9BD10446F934802321702546083D25
:1008B00029702546103D29702546183D297025468A
:1008C000203D29702546283D29702546303D297058
:1008D0002546383D29702546403D29702546483D2E
:1008E00029702546503D29702546583D29702546DA
:1008F000603D29702546683D29702546703D297068
:100900002546783D29702546803D29702546883D3D
:1009100029702546903D29702546983D2970254629
:10092000A03D29702546A83D29702546B03D297077
:100930002546B83D29702546C03D29702546C83D4D
:1009400029702546D03D29702546D83D2970254679
:10095000E03D29702546E83D29702546F03D297087
:10096000A518F83C2170203B2C469ED10446FA3451
:10097000802321702546083D29702546103D2970A9
:100980002546183D29702546203D29702546283DDD
:1009900029702546303D29702546383D2970254669
:1009A000403D29702546483D29702546503D297017
:1009B0002546583D29702546603D29702546683DED
:1009C00029702546703D29702546783D29702546B9
:1009D000803D29702546883D29702546903D297027
:1009E0002546983D29702546A03D29702546A83DFD
:1009F00029702546B03D29702546B83D2970254609
:100A0000C03D29702546C83D29702546D03D297036
:100A10002546D83D29702546E03D29702546E83D0C
:100A200029702546F03D2970A518F83C2170203B1F
:100A30002C469ED10446FB34802321702546083D78
:100A400029702546103D29702546183D29702546F8
:100A5000203D29702546283D29702546303D2970C6
:100A60002546383D29702546403D29702546483D9C
:100A700029702546503D29702546583D2970254648
:100A8000603D29702546683D29702546703D2970D6
:100A90002546783D29702546803D29702546883DAC
:100AA00029702546903D29702546983D2970254698
:100AB000A03D29702546A83D29702546B03D2970E6
:100AC0002546B83D29702546C03D29702546C83DBC
:100AD00029702546D03D29702546D83D29702546E8
:100AE000E03D29702546E83D29702546F03D2970F6
:100AF000A518F83C2170203B2C469ED10446FC34BE
:100B0000802321702546083D29702546103D297017
:100B10002546183D29702546203D29702546283D4B
:100B200029702546303D29702546383D29702546D7
:100B3000403D29702546483D29702546503D297085
:100B40002546583D29702546603D29702546683D5B
:100B500029702546703D29702546783D2970254627
:100B6000803D29702546883D29702546903D297095
:100B70002546983D29702546A03D29702546A83D6B
:100B800029702546B03D29702546B83D2970254677
:100B9000C03D29702546C83D29702546D03D2970A5
:100BA0002546D83D29702546E03D29702546E83D7B
:100BB00029702546F03D2970A518F83C2170203B8E
:100BC0002C469ED10446FD34802321702546083DE5
:100BD00029702546103D29702546183D2970254667
:100BE000203D29702546283D29702546303D297035
:100BF0002546383D29702546403D29702546483D0B
:100C000029702546503D29702546583D29702546B6
:100C1000603D29702546683D29702546703D297044
:100C20002546783D29702546803D29702546883D1A
:100C300029702546903D29702546983D2970254606
:100C4000A03D29702546A83D29702546B03D297054
:100C50002546B83D29702546C03D29702546C83D2A
:100C600029702546D03D29702546D83D2970254656
:100C7000E03D29702546E83D29702546F03D297064
:100C8000A518F83C2170203B2C469ED10446FE342A
:100C9000802321702546083D29702546103D297086
:100CA0002546183D29702546203D29702546283DBA
:100CB00029702546303D29702546383D2970254646
:100CC000403D29702546483D29702546503D2970F4
:100CD0002546583D29702546603D29702546683DCA
:100CE00029702546703D29702546783D2970254696
:100CF000803D29702546883D29702546903D297004
:100D00002546983D29702546A03D29702546A83DD9
:100D100029702546B03D29702546B83D29702546E5
:100D2000C03D29702546C83D29702546D03D297013
:100D30002546D83D29702546E03D29702546E83DE9
:100D400029702546F03D2970A518F83C2170203BFC
:100D50002C469ED1FF30802301700446083C217050
:100D60000446103C21700446183C21700446203C87
:100D700021700446283C21700446303C2170044612
:100D8000383C21700446403C21700446483C2170A8
:100D90000446503C21700446583C21700446603C97
:100DA00021700446683C21700446703C2170044662
:100DB000783C21700446803C21700446883C2170B8
:100DC0000446903C21700446983C21700446A03CA7
:100DD00021700446A83C21700446B03C21700446B2
:100DE000B83C21700446C03C21700446C83C2170C8
:100DF0000446D03C21700446D83C21700446E03CB7
:100E000021700446E83C21700446F03C21708418AF
:100E1000F8380170203B20469ED100F09FFBB0BD0A
:100E2000F0B581B0AE200024214600F011FC204630
:100E3000214600F00DFC1020214600F009FC40275F
:100E40003846214600F004FC8120214600F000FCD9
:100E5000CF20214600F0FCFBA120214600F0F8FB4A
:100E6000C820214600F0F4FBA6263046214600F0BB
:100E7000EFFBA820214600F0EBFB3F20214600F0CD
:100E8000E7FBD320214600F0E3FB2046214600F09B
:100E9000DFFBD520214600F0DBFB802528462146DC
:100EA00000F0D6FBD920214600F0D2FBF1202146EC
:100EB00000F0CEFBDA20214600F0CAFB12202146CA
:100EC00000F0C6FBDB20214600F0C2FB384621467D
:100ED00000F0BEFB2020214600F0BAFB0220214694
:100EE00000F0B6FB8D20214600F0B2FB1420214615
:100EF00000F0AEFBA420214600F0AAFB30462146BC
:100F000000F0A6FB01480246F83201E01000202064
:100F10001470114608390C70114610390C701146C6
:100F200018390C70114620390C70114628390C7094
:100F3000114630390C70114638390C701146403961
:100F40000C70114648390C70114650390C7011461E
:100F500058390C70114660390C70114668390C70A4
:100F6000114670390C70114678390C701146803971
:100F70000C70114688390C70114690390C7011466E
:100F800098390C701146A0390C701146A8390C70B4
:100F90001146B0390C701146B8390C701146C03981
:100FA0000C701146C8390C701146D0390C701146BE
:100FB000D8390C701146E0390C701146E8390C70C4
:100FC0001146F0390C701146F8390C7001210902F4
:100FD0005218203D9CD10346F93380221C701D46D7
:100FE000083D2C701D46103D2C701D46183D2C7080
:100FF0001D46203D2C701D46283D2C701D46303D61
:101000002C701D46383D2C701D46403D2C701D46F1
:10101000483D2C701D46503D2C701D46583D2C708F
:101020001D46603D2C701D46683D2C701D46703D70
:101030002C701D46783D2C701D46803D2C701D4641
:10104000883D2C701D46903D2C701D46983D2C709F
:101050001D46A03D2C701D46A83D2C701D46B03D80
:101060002C701D46B83D2C701D46C03D2C701D4691
:10107000C83D2C701D46D03D2C701D46D83D2C70AF
:101080001D46E03D2C701D46E83D2C701D46F03D90
:101090002C705D18F83B1C70203A2B469ED10346FD
:1010A000FA3380221C701D46083D2C701D46103DF1
:1010B0002C701D46183D2C701D46203D2C701D4681
:1010C000283D2C701D46303D2C701D46383D2C703F
:1010D0001D46403D2C701D46483D2C701D46503D20
:1010E0002C701D46583D2C701D46603D2C701D46D1
:1010F000683D2C701D46703D2C701D46783D2C704F
:101100001D46803D2C701D46883D2C701D46903D2F
:101110002C701D46983D2C701D46A03D2C701D4620
:10112000A83D2C701D46B03D2C701D46B83D2C705E
:101130001D46C03D2C701D46C83D2C701D46D03D3F
:101140002C701D46D83D2C701D46E03D2C701D4670
:10115000E83D2C701D46F03D2C705D18F83B1C706E
:10116000203A2B469ED10346FB3380221C701D463D
:10117000083D2C701D46103D2C701D46183D2C70EE
:101180001D46203D2C701D46283D2C701D46303DCF
:101190002C701D46383D2C701D46403D2C701D4660
:1011A000483D2C701D46503D2C701D46583D2C70FE
:1011B0001D46603D2C701D46683D2C701D46703DDF
:1011C0002C701D46783D2C701D46803D2C701D46B0
:1011D000883D2C701D46903D2C701D46983D2C700E
:1011E0001D46A03D2C701D46A83D2C701D46B03DEF
:1011F0002C701D46B83D2C701D46C03D2C701D4600
:10120000C83D2C701D46D03D2C701D46D83D2C701D
:101210001D46E03D2C701D46E83D2C701D46F03DFE
:101220002C705D18F83B1C70203A2B469ED103466B
:10123000FC3380221C701D46083D2C701D46103D5D
:101240002C701D46183D2C701D46203D2C701D46EF
:10125000283D2C701D46303D2C701D46383D2C70AD
:101260001D46403D2C701D46483D2C701D46503D8E
:101270002C701D46583D2C701D46603D2C701D463F
:10128000683D2C701D46703D2C701D46783D2C70BD
:101290001D46803D2C701D46883D2C701D46903D9E
:1012A0002C701D46983D2C701D46A03D2C701D468F
:1012B000A83D2C701D46B03D2C701D46B83D2C70CD
:1012C0001D46C03D2C701D46C83D2C701D46D03DAE
:1012D0002C701D46D83D2C701D46E03D2C701D46DF
:1012E000E83D2C701D46F03D2C705D18F83B1C70DD
:1012F000203A2B469ED10346FD3380221C701D46AA
:10130000083D2C701D46103D2C701D46183D2C705C
:101310001D46203D2C701D46283D2C701D46303D3D
:101320002C701D46383D2C701D46403D2C701D46CE
:10133000483D2C701D46503D2C701D46583D2C706C
:101340001D46603D2C701D46683D2C701D46703D4D
:101350002C701D46783D2C701D46803D2C701D461E
:10136000883D2C701D46903D2C701D46983D2C707C
:101370001D46A03D2C701D46A83D2C701D46B03D5D
:101380002C701D46B83D2C701D46C03D2C701D466E
:10139000C83D2C701D46D03D2C701D46D83D2C708C
:1013A0001D46E03D2C701D46E83D2C701D46F03D6D
:1013B0002C705D18F83B1C70203A2B469ED10346DA
:1013C000FE3380221C701D46083D2C701D46103DCA
:1013D0002C701D46183D2C701D46203D2C701D465E
:1013E000283D2C701D46303D2C701D46383D2C701C
:1013F0001D46403D2C701D46483D2C701D46503DFD
:101400002C701D46583D2C701D46603D2C701D46AD
:10141000683D2C701D46703D2C701D46783D2C702B
:101420001D46803D2C701D46883D2C701D46903D0C
:101430002C701D46983D2C701D46A03D2C701D46FD
:10144000A83D2C701D46B03D2C701D46B83D2C703B
:101450001D46C03D2C701D46C83D2C701D46D03D1C
:101460002C701D46D83D2C701D46E03D2C701D464D
:10147000E83D2C701D46F03D2C705D18F83B1C704B
:10148000203A2B469ED1FF30802204700346083B51
:101490001C700346103B1C700346183B1C7003462F
:1014A000203B1C700346283B1C700346303B1C70DD
:1014B0000346383B1C700346403B1C700346483BC8
:1014C0001C700346503B1C700346583B1C7003467F
:1014D000603B1C700346683B1C700346703B1C70ED
:1014E0000346783B1C700346803B1C700346883BD8
:1014F0001C700346903B1C700346983B1C700346CF
:10150000A03B1C700346A83B1C700346B03B1C70FC
:101510000346B83B1C700346C03B1C700346C83BE7
:101520001C700346D03B1C700346D83B1C7003461E
:10153000E03B1C700346E83B1C700346F03B1C700C
:101540004318F8380470203A18469ED100F006F887
:10155000AF20002100F07CF801B0F0BDF0B585B0FF
:1015600000203A4F02905038C0B20024214600F0CB
:101570006FF82046214600F06BF81020214600F05D
:1015800067F8022559480560012606600A242046AE
:1015900000F08EFB55480561204600F089FB53485A
:1015A0000661204600F084FB782000F07BFA4F486B
:1015B0000560204600F07CFB4C480660204600F0A9
:1015C00077FB4A480661204600F072FB402000F09D
:1015D00069FA049545480560204600F069FB4348D8
:1015E00006600546204600F063FB03962E61204608
:1015F00000F05EFB80260197387800F053FA3B49F3
:10160000049808600A24204600F052FB039D3748E6
:101610000560204600F04CFB34480561204600F090
:1016200047FB761E0837002EE6D1304C049D25611D
:10163000039820600A2000F03BFB2560019F7F1C7F
:101640000298401C08288DD105B0F0BD1000202064
:10165000F0B583B001910290244F02263E6001252F
:101660003D600A24204600F023FB3E61204600F046
:101670001FFB3D61204600F01BFB782000F012FAB2
:101680003E60204600F014FB3D60204600F010FB59
:101690003D61204600F00CFB0199481E8141880104
:1016A00000F000FA3E60204600F002FB3D6020465C
:1016B00000F0FEFA3D61204600F0FAFA029800F0D0
:1016C000F1F93E60204600F0F3FA3D60204600F05C
:1016D000EFFA3D61204600F0EBFA3E613D602046A6
:1016E00000F0E6FA3E6003B0F0BDC04690120A403A
:1016F00010B52B498723CB640124E20529480260F9
:101700000B6522060260284A936023070360882342
:101710005361E307036082231365244B5C1C54650B
:10172000234C546381240C604C608C608C61946405
:10173000CB600B614B614B631460546093618B64AD
:101740008B63CB629365D36513665366014630396C
:10175000184A0A60026018480168184A0A43026081
:101760000169174A0A4302611648016A164A114381
:101770000162016811430160FF20000313490A68F8
:1017800002430A600869124A02430A611148016A69
:10179000114A1143016201681143016010BDC04646
:1017A00088804240D0120A400480424081000400F8
:1017B000810001008371040090130A403000004052
:1017C0000510000028100A400480430090330A40AE
:1017D000C003030028300A40C0031801F0B581B0EF
:1017E000194C1A492046FEF723FF19492046FEF7F7
:1017F00029FE00250095204629462A462B46FEF75D
:1018000003FF204629462A46FEF7F0FE114E2046E9
:1018100031462A46FEF704FF012700972046294655
:101820002A462B46FEF7F0FE204629463A46FEF7AA
:10183000DDFE204631463A46FEF7F2FE0648876056
:101840000321016001B0F0BD00A086405E1F0000D2
:10185000641F00001027000000B1864070B582B000
:10186000194C1A492046FEF7E3FE19492046FEF7B7
:10187000B1FD00250095204629462A462B46FEF755
:10188000C3FE204629462A46FEF7B0FE20462946DA
:101890002A46FEF7C5FE01260096204629462A461E
:1018A0002B46FEF7B1FE204629463246FEF79EFE45
:1018B000204629463246FEF7B3FE064886600321DD
:1018C000016002B070BDC046002086406C1F000061
:1018D000701F0000003186400D48002101600D4955
:1018E0000A46083A13680320834313600A680123F9
:1018F0009A430A601A020B6893430B60FF210902A6
:10190000054A13688B438003181810607047C0465F
:1019100008030B4008010B4000E400E005480421E7
:1019200001601F21416000218160016805220A4396
:101930000260704710E000E010B50D4C0D492046E4
:10194000FEF776FE0C492046FEF7DCFD0B480168E9
:10195000012211430160FF20000409490B68834301
:1019600003208005181808600648026010BDC046B4
:1019700000008640781F00007C1F00002810864071
:1019800010E400E00811864010B5194C19492046B2
:10199000FEF780FE18492046FEF758FE0320C103DB
:1019A000164802688A4302600169154A0A401132EA
:1019B0000261416917220A4328218A434261426831
:1019C00001210A4043688B439A1842608A020D4BFA
:1019D0001C6814431C60FF2212060B4B1C689443C6
:1019E0008A07A2181A6002680A43026010BDC04646
:1019F00000801040901F0000921F000000911040D6
:101A00000000FFFF289010400CE400E080B500F0DB
:101A10001FF8FFF76DFEFFF75FFFFFF7DFFEFFF731
:101A20001DFFFFF789FFFFF7AFFFFFF777FFB82034
:101A3000044900220A547421034B5A5403490A549E
:101A400080BDC046140520209C042020D005202005
:101A500070B50C480C4941600C4A51600C4B596000
:101A60000C4C61600C4D69600C4E71600C4901605A
:101A7000116019602160296031601020FEF7A5FC1B
:101A800070BDC04600080A40030000B100280A40AB
:101A900000A8864000288640000886400088104044
:101AA00001000026F0B581B0044640B2AC4E0028DB
:101AB00002D40220306101E0022030600A2528466D
:101AC00000F0F6F801273760284600F0F1F837619A
:101AD000600602D40220306101E0022030600A2555
:101AE000284600F0E5F83760284600F0E1F8376155
:101AF000A00602D40220306101E0022030600A25F5
:101B0000284600F0D5F83760284600F0D1F8376154
:101B1000E00602D40220306101E0022030600A2594
:101B2000284600F0C5F83760284600F0C1F8376154
:101B3000200702D40220306101E0022030600A2533
:101B4000284600F0B5F83760284600F0B1F8376154
:101B5000600702D40220306101E0022030600A25D3
:101B6000284600F0A5F83760284600F0A1F8376154
:101B7000A00702D40220306101E0022030600A2573
:101B8000284600F095F83760284600F091F8376154
:101B9000E00702D10220306101E0022030600A2417
:101BA000204600F085F83760204600F081F8376164
:101BB00001B0F0BDF0B581B00C46014601273803F5
:101BC0007A03674E012902DB3060326102E0326045
:101BD000306149420A4D00222846FEF721FDB80334
:101BE000B904012C02DB3060316102E03160306108
:101BF0006442012228462146FEF712FD01B0F0BDE5
:101C000000A0864080B51048006800061AD00F4A30
:101C10001168002010600E4A136810600D4A1360AE
:101C20000D4A13785B1C13700C4A13785B1C1370FD
:101C30000B4A13785B1C137049420A4A1160014633
:101C4000FFF7B8FF80BDC046201086400800202066
:101C50000C002020940420209804202099042020A7
:101C60009A0420209004202010B50C480068C0B2CF
:101C70000B2812D10A484168CAB20260094C207888
:101C8000094A1154401C2070C0B22C2805D10648C6
:101C9000064900F025F90020207010BD209010406A
:101CA00020911040FC062020D00620209006202005
:101CB000B0B50F490B684001262206E0E41A0D1F5B
:101CC0002D686419A218824210D21C460B68A342E8
:101CD00008D10B68A34205D10B68A34202D10B685F
:101CE000A342F3D09C42E9D9E41AEBE7B0BDC04669
:101CF00018E000E0FFF78AFE16480168012421433E
:101D00000160E0031449086002220A60A5040D6026
:101D1000124908600A600D60FFF782F8FEF756FD71
:101D200020030F49086060030861A00308600D618B
:101D30007D20C4000B4DFFF711FCFEF741FD002292
:101D400028462146FEF76CFC012228462146FEF774
:101D500067FCF0E704B8864080E200E000E100E0C4
:101D600090120A4000208640F0B581B00C4605462E
:101D7000007869780918A8780A18E97852182B7938
:101D8000D2186B79D218AB79D218EB79D2182B7A9A
:101D9000D2186B7AD218D2B2AB7A9A423ED10902EB
:101DA000081800B2FEF708FA3F221706002632464E
:101DB0003B46FEF799F91B4B3246FEF795F9FEF7C5
:101DC0000FFA2060287969790902081800B2FEF735
:101DD000F3F932463B46FEF787F93246114BFEF7E0
:101DE00083F9FEF7FDF96060A879E979090208181E
:101DF00000B2FEF7E1F932463B46FEF775F932468E
:101E0000084BFEF771F9FEF7EBF9A060287A697AC2
:101E100009020818E060012001B0F0BD002001B007
:101E2000F0BDC04600806640F0B581B00C46054666
:101E3000007869780918A8780A18E97852182B7977
:101E4000D2186B79D218AB79D218EB79D2182B7AD9
:101E5000D2186B7AD218D2B2AB7A9A423AD109022E
:101E6000081800B2FEF7A8F93F22170600263246EE
:101E70003B46FEF739F9194B3246FEF735F9FEF7C6
:101E8000AFF92060287969790902081800B2FEF7D5
:101E900093F932463B46FEF727F932460F4BFEF7E1
:101EA00023F9FEF79DF96060A879E979E6600902F7
:101EB000081800B2FEF780F932463B46FEF714F9E7
:101EC0003246064BFEF710F9FEF78AF9A0600120B2
:101ED00001B0F0BD002001B0F0BDC04600409F4001
:101EE000B0B50C4605460B301031FFF79DFF0028BA
:101EF00006D01635203428462146FFF735FFB0BD01
:101F00000020B0BD2021020C01D010211046020A91
:101F100001D010460839020901D01046091F820875
:101F200001D01046891E420801D0881E7047081A49
:101F3000704700000000000002E008C8121F08C13E
:101F4000002AFAD17047000070470000000000002E
:101F5000002001E001C1121F002AFBD170470807D1
:101F6000000000001027000000010000080700002A
:101F7000E8030000200001000807C700020000007D
:101F800063000000010000000000000000000000ED
:101F9000080000001800000000300000C01F000012
:101FA0000000202008000000381F0000C81F0000AB
:101FB0000800202000170000501F00000000000053
:081FC000010000000500000013
:04000005000000C136
:00000001FF
