:020000040000FA
:10000000D8172020D5000000D9000000DB00000038
:1000100000000000000000000000000000000000E0
:10002000000000000000000000000000DD000000F3
:100030000000000000000000DF000000E100000000
:10004000E3000000450E0000E3000000E3000000B4
:10005000E3000000E3000000E3000000E300000014
:1000600000000000E3000000E300000000000000CA
:1000700000000000E3000000E3000000B9250000DC
:10008000E3000000E300000019240000E30000008A
:10009000E3000000E300000000000000000000009A
:1000A000E3000000E300000000000000000000008A
:1000B000E300000000000000E3000000E300000097
:1000C0000348854600F0A8FC004800479529000039
:1000D000D817202003480047FEE7FEE7FEE7FEE7CB
:1000E000FEE7FEE7C1000000F8B502464A40D40F23
:1000F00042004B0052085B089A4202D20246084670
:1001000011464A0023D0C30D4A00DDB2120EAD1ACB
:10011000202D35DA49020126490AF6058A19002CF4
:1001200000D0524220214F1B1146B9402A411018DD
:10013000C20D9A4221D0002C17D0012D08DCDA051F
:10014000801AD20F8019D207DBB200F066FBF8BD2F
:10015000DA05801A012340001B06C01880185A4295
:100160008018CA0F1043490007E04908C20711432D
:10017000DA05801A80194008801800F046FBF8BDA7
:1001800061000122511A001BF7E70122D2075140FA
:10019000AAE70122D2075040A6E7024670B54A40BE
:1001A000D30FDB0740002DD04A002AD0010E140ED9
:1001B000000212020919400A520A8418E501044695
:1001C0005443000A120A2E045043A4194219200C69
:1001D000C543AA18120C0125AD03521C5219120472
:1001E0007F39240400D0521C104301D44000491E22
:1001F000C2B20C06C0092018401C4008802A02D058
:1002000003E0002070BD40084000002900DA002013
:10021000184370BDF0B507460846584087B0C00F78
:10022000049048000E46590040084908BC1A88410D
:1002300005D2384631461E4617460B460246580040
:10024000400810434CD0300D039040055900400D3C
:10025000490D0590401A0290402872DA18030121D6
:10026000000B09050843019004980092002805D06E
:100270000199524200208841009201900298402149
:100280000A1A0199009800F08CFA05460C466B4654
:1002900007CB00F0A7FAC0197141039A0E0D002395
:1002A000D71756401A467A40164344D0049A002A7B
:1002B0002DD0029A012A039A15DC1205C01A914129
:1002C00001263605001C7141D20F059ED20700930E
:1002D000019202962A46234600F0E5FA07B0F0BDE7
:1002E00038463146FAE71605224A0F46B218C01AB8
:1002F000B74101210905001C4F4100187F411146FB
:1003000018187941E20F10436D19644113E0E207B8
:100310006D0815436408C2071443039A01261205A9
:10032000C01A91413605001C7141CE074008304388
:100330004908C01851412A46234600F0A7FACDE7E4
:10034000FFE7049801224000C117121A00238B41D5
:1003500004983146C417381AA141EEE730B401249D
:10036000E407634030BC55E730B40124E407614042
:1003700030BC4FE70000E0FFF0B51FB488B00B9928
:100380000998002448400999C00F4900490809917B
:10039000C0070B990090490049080B9109990898EA
:1003A000A64608431CD00B990A98084318D0099810
:1003B00001244000420D4800410D09982405000326
:1003C000000B204309900B980003000B20430B9077
:1003D00050181C494018002201901446104605E0B0
:1003E000002001460DB0F0BD032801DA034600E00D
:1003F00003239C46C11A0AAE0AE05F0008ADED5B1C
:100400004F00F75B7D430027AA187C41491C5B1E07
:100410006145F2DD410004AB5A522104120C0A433B
:10042000240C401C0828DFDB0198029000997046DC
:1004300001910090059B049A0799069800F033FA01
:10044000D0E700000DFCFFFFF0B50C465C4085B026
:10045000E40FE40703944C00002664085900944616
:10046000490802460296224321D062460A431ED022
:100470006200570D4A000E032303550D0124024666
:100480002C492405781B1B0B360B401823432643AD
:10049000614600901C46501AB44103D30098401C9A
:1004A000009002E0921800985B41002803DA0020D7
:1004B000014605B0F0BD002001210905074686462A
:1004C00011E064461D46141BB54106D36546521B18
:1004D000B341744607430C43A646CD07400849087C
:1004E000284392185B4105460D43EAD11046184354
:1004F00013D06046194650407140084306D060460C
:10050000101AB34106D20122002306E00022012383
:10051000DB0702E00122D243531000987446010524
:10052000381C6141029C039D0019694100F0AEF93D
:10053000BFE70000FD0300000122D207002800DB16
:10054000101A002900DB511A814201D201207047A4
:10055000002070470122D207002800DB101A002972
:1005600000DB511A814201D30120704700207047FF
:100570000122D207002800DB101A002900DB511AE3
:10058000814201D901207047002070470122D20723
:10059000002800DB101A002900DB511A814201D12A
:1005A000012070470020704710B5002904DB0C467D
:1005B0000121C9074042A141002B04DB1C46012355
:1005C000DB075242A341101A8B4101D2012010BD1A
:1005D000002010BD10B5002904DB0C460121C9071D
:1005E0004042A141002B04DB1C460123DB075242A1
:1005F000A341101A8B4101D3012010BD002010BD72
:1006000010B5002904DB0C460121C9074042A14175
:10061000002B04DB1C460123DB075242A34142406E
:100620004B401A4301D0002010BD012010BDC2175D
:10063000C10F504010B54018CA079623002100F0A2
:10064000ECF810BD0EB5C217C10F5040CA074018D4
:100650000021054B0293019200910A460B4600F0DF
:1006600022F903B000BD0000330400000EB50549B7
:100670000291002100910A460B46019100F013F906
:1006800003B000BD33040000C20F4100400201234B
:10069000400ADB05D207090EC0187F2901DA0020C5
:1006A0007047962903DC9623591AC84001E0963911
:1006B0008840002AF4D040427047000070B5CD0F4A
:1006C0004A0009030123090B1B0519430B4BED07D6
:1006D0000024520D9A4201DA002070BD074B3433DA
:1006E0009A4203DC9A1A00F06CF802E004495118AF
:1006F00088402C43F1D0404270BD0000FF03000051
:10070000CDFBFFFFC20FD207400040080BD0C10D48
:100710000723DB01C91840020905400A1143C2083A
:10072000400711437047002001467047CB0FDB079D
:10073000490010B5490802460A4307D00A0D0724AC
:100740000903E401090B121B002A01DC002010BD83
:10075000C900440F0C43C100E018D205801800F016
:1007600054F810BD70B50446002903D000202022A3
:10077000012310E0002801D00020C043C046C0463D
:100780000DE02546D5408D4205D30D469540641BAE
:100790001D46954040191546521E002DF1DC21469C
:1007A00070BD10B5202A04DB0146203A914000209C
:1007B00010BD914020239C1A0346E340194390400A
:1007C00010BD10B5202A04DB0846203AD040002195
:1007D00010BD0B46D340D0402024A21A91400843BC
:1007E000194610BD10B5202A06DBCB170846203A63
:1007F0001041C1170B4306E00B461341D0402024A3
:10080000A21A91400843194610BD002904DA401C81
:10081000490001D140084000704770B40024050C25
:1008200005D11024000402D1002921D01124050E85
:1008300001D100020834050F01D10001241D850FEC
:1008400001D18000A41C002801DB4000641C0029A9
:1008500008D020252E1B0D46F540A14000D00121D7
:100860002943084301061B1B000ADB1D02D500209B
:1008700070BC7047DB05181880180029F8DA401C96
:100880004900F5D170BC40084000704710B5002BFE
:1008900008DA0024401C614192185B411A4301D1DF
:1008A0004008400010BDF0B51FB482B005460C00F2
:1008B00003D0084602F0FAF902E002F0F7F920301E
:1008C0000246009021462846FFF76BFF049B059ADD
:1008D00004460F4618431143084314D018461043EA
:1008E0001BD0009840210A1A18460599FFF769FFA6
:1008F00005460E46009A05990498FFF752FF0843F3
:1009000005D0012004E02046394607B0F0BD0020A4
:10091000C11705430E432C43374300990E986305D6
:10092000401A7905E40A00220C43FD0A0A3002D578
:1009300000200146E9E70105101969410C9C0D9D55
:1009400000196941FFF7A2FFDFE7FEB500231A4651
:100950001B1A8A4103DB0020014603B0F0BD4A00A8
:100960000D0301212D0B0905520D0D43D10702D1B5
:1009700000186D41521E5110FF31FF310131002727
:1009800004463E4638460097019102460121002068
:100990000905FFF716FFC3197141F818324684465E
:1009A0008E464A4161462846611A904104D360460A
:1009B000241A954176461F46241900986D41401C23
:1009C00000903428E1DDF91930467041091BA84137
:1009D00003D20022D243134601E0002213460198BD
:1009E0000105381C7141FFF751FFB6E710B500292A
:1009F00004DB0124E40740428C412146002B04DB48
:100A00001C460123DB075242A3418B4200D18242A4
:100A100010BD000000000000064C0125064E05E058
:100A2000E36807CC2B430C3C98471034B442F7D30F
:100A3000FFF74AFB84470000A447000070B54B0055
:100A40005B0803430BD04B005C0D00263346654228
:100A5000B341D417AD1AA34102DB0020014670BD9B
:100A600012053018514170BDF0B583B002910446B3
:100A700010461946FFF789FB07462060616AFFF7B9
:100A800033FB0090606233493846FFF755FD054659
:100A900031493846FFF728FB002D3E4600D1064677
:100AA0002E493046FFF764FD05462D493046FFF7D5
:100AB0001BFB002D354600D1054638462549FFF77A
:100AC00049FD002805D125493046FFF751FD002892
:100AD00000D125600298C76800213846FFF756FD0F
:100AE0000028019513D10120C6077E40009D2846AD
:100AF0003146FFF721FD002800D12E462846394611
:100B0000FFF736FD002800D13746676200E0009FFE
:100B100002990D6848688968029161680091019E98
:100B200066603946FFF739FB044628463146FFF731
:100B300034FB2146FFF7D8FA044630460099FFF708
:100B400024FB01460298FFF728FB2146FFF7CCFA69
:100B500003B0F0BD000034430000B4C3000034C350
:100B60000000B443811E091F00BFFCD27047000083
:100B700070B582B00B794A79002A24D0174A212413
:100B80002401202B00D070348218002B00D188243F
:100B9000156C3F4E35402D191564556C35402C1998
:100BA00054641468774D2C40146054682C40546091
:100BB0000024146254628F24E443156D25401565AA
:100BC000556D254055656A4613718B7953710968D7
:100BD0000091114600F004F802B070BD3818000012
:100BE000F0B5664A8218294BC318087920280DD021
:100BF00000281DD10C68641E5460D56E244C25401D
:100C00008835D5661646703688251DE00C68641E4A
:100C10005460D46E1E4D2C401E4EA419D466146F21
:100C20002C40A4191467012465071B4C16460BE0E1
:100C30000C6864085460D66E154C26400525ED01FD
:100C40007619D66616467036376827402F433760C8
:100C5000D46A4C4D2C40D462146B2C401463002495
:100C6000D46414658F24E443D56F2540D5671D688F
:100C700025401D6049790143BD2008401168074B9C
:100C80000B40C018801C1060F0BDC04684180000E6
:100C900024F93FF001040000FFFFFFCF4000FFCF29
:100CA000B0B5364A80184A6842600A78222A57D876
:100CB000930001A4E3589F46570D0000610D00000A
:100CC000570D0000610D0000610D0000610D000076
:100CD000610D0000610D0000610D0000610D00005C
:100CE000610D0000610D0000610D0000610D00004C
:100CF000610D0000610D0000450D0000610D000058
:100D0000450D0000610D0000610D0000610D000047
:100D1000610D0000610D0000610D0000610D00001B
:100D2000610D0000610D0000610D0000610D00000B
:100D3000610D0000610D0000450D0000610D000017
:100D4000450D000003231B0704689C4301235B0738
:100D5000E318036004E003231B0704689C4304605A
:100D60000B69C360CB68064C1C40C36A054D1D402F
:100D70002B19C362097A11430160B0BD0418000049
:100D8000777702008888FDFF10B507239B04194080
:100D900092008018024A84589C436118815010BD0B
:100DA0003018000010B5029CA4000019114319432B
:100DB000014A815010BDC0465018000092008018B2
:100DC000014A81507047C0461018000010B501223A
:100DD000120383180C789C604B7883508978014A01
:100DE000815010BD0C110000B0B5112212028358C1
:100DF0000124A34383508B780C881C438B882343A6
:100E0000094C1C408358094D1D402B1983508B7988
:100E1000CC791C43097A21437E231940801842680B
:100E20009A4351184160B0BD18670000E798FDFF74
:100E300010B50122120383180C789C604978815008
:100E400010BD0000F0B581B08720C20334490846C8
:100E50001038046820461040324B186001202304EB
:100E6000314B09D4E5030FD5C6031F682F4D2D68FC
:100E7000374206D06D1E05E01E682C4D2D68F60326
:100E8000F8D56D1C294E3560A50309D464020FD531
:100E900045041E68264C24682E4206D0641E05E0D8
:100EA0001D68234C24686D02F8D5641C204D2C600D
:100EB0000C6814430C601968490701D51D49087076
:100EC0001968490702D41B4900220A7002061A4910
:100ED0000B68DB0101D5174B58700B68134202D128
:100EE000144A0023537002050B68DB0201D5114B35
:100EF00098700B68134202D10E4A00239370C2040B
:100F00000B681B0301D50B4BD8700868104202D147
:100F100008480021C17001F0FFFC01B0F0BDC046DF
:100F200048100A404C06202080130A402000202050
:100F300024002020D007202080330A40034880214D
:100F400001600121090201607047C046A0120A40F9
:100F5000044880210160044901220A7011020160E5
:100F60007047C04690120A40CC042020F0B581B0F2
:100F7000024806468036802702E0C046280020202E
:100F80006021002272544023F254202432553276DC
:100F9000327432723270354660352A762A742A727B
:100FA000354640352A762A742A72354620352A7607
:100FB0002A742A723546083D2A703546103D2A703B
:100FC0003546183D2A703546203D2A703546283D65
:100FD0002A703546303D2A703546383D2A703546F0
:100FE000403D2A703546483D2A703546503D2A70AE
:100FF0003546583D2A703546603D2A703546683D75
:101000002A703546703D2A703546783D2A7035463F
:10101000803D2A7001252D027619203FB0D1074668
:101020008137802600937A54009BFA543A553A76D9
:101030003A743A723A700B46394660310A760A744D
:101040000A72394640310A760A740A7239462031EA
:101050000A760A740A72394608390A703946103914
:101060000A70394618390A70394620390A703946EB
:1010700028390A70394630390A70394638390A70C9
:10108000394640390A70394648390A70394650396C
:101090000A70394658390A70394660390A7039463B
:1010A00068390A70394670390A70394678390A70D9
:1010B0007919803F3A70203E0F461946B3D1074652
:1010C000823780267A5400997A543A553A763A749F
:1010D0003A723A70394660310A760A740A723946B1
:1010E00040310A760A740A72394620310A760A7447
:1010F0000A72394608390A70394610390A70394679
:1011000018390A70394620390A70394628390A7068
:10111000394630390A70394638390A70394640390B
:101120000A70394648390A70394650390A703946CA
:1011300058390A70394660390A70394668390A7078
:10114000394670390A70394678390A707919803F02
:101150003A70203E0F461946B4D1074683378026A1
:101160007A5400997A543A553A763A743A723A7007
:10117000394660310A760A740A72394640310A7675
:101180000A740A72394620310A760A740A7239469C
:1011900008390A70394610390A70394618390A7008
:1011A000394620390A70394628390A7039463039AB
:1011B0000A70394638390A70394640390A7039465A
:1011C00048390A70394650390A70394658390A7018
:1011D000394660390A70394668390A7039467039BB
:1011E0000A70394678390A707919803F3A70203E82
:1011F0000F461946B4D10746843780267A540099A1
:101200007A543A553A763A743A723A7039466031BD
:101210000A760A740A72394640310A760A740A72EA
:10122000394620310A760A740A72394608390A703A
:10123000394610390A70394618390A70394620394A
:101240000A70394628390A70394630390A703946E9
:1012500038390A70394640390A70394648390A70B7
:10126000394650390A70394658390A70394660395A
:101270000A70394668390A70394670390A70394639
:1012800078390A707919803F3A70203E0F46194626
:10129000B4D10746853780267A5400997A543A5556
:1012A0003A763A743A723A70394660310A760A747C
:1012B0000A72394640310A760A740A723946203178
:1012C0000A760A740A72394608390A7039461039A2
:1012D0000A70394618390A70394620390A70394679
:1012E00028390A70394630390A70394638390A7057
:1012F000394640390A70394648390A7039465039FA
:101300000A70394658390A70394660390A703946C8
:1013100068390A70394670390A70394678390A7066
:101320007919803F3A70203E0F461946B4D10746DE
:10133000863780267A5400997A543A553A763A7428
:101340003A723A70394660310A760A740A7239463E
:1013500040310A760A740A72394620310A760A74D4
:101360000A72394608390A70394610390A70394606
:1013700018390A70394620390A70394628390A70F6
:10138000394630390A70394638390A703946403999
:101390000A70394648390A70394650390A70394658
:1013A00058390A70394660390A70394668390A7006
:1013B000394670390A70394678390A707919803F90
:1013C0003A70203E0F461946B4D17F30802637460A
:1013D00082554254009942540255027602740272B8
:1013E0000270014660310A760A740A720146403181
:1013F0000A760A740A72014620310A760A740A7261
:10140000014608390A70014610390A700146183938
:101410000A70014620390A70014628390A700146CF
:1014200030390A70014638390A70014640390A706D
:10143000014648390A70014650390A700146583948
:101440000A70014660390A70014668390A7001461F
:1014500070390A70411978380270203F08461946E1
:10146000B6D100F0F3FA01B0F0BD0000F0B581B0E4
:10147000AE200024214600F049FD2046214600F020
:1014800045FD1020214600F041FD4025284621461B
:1014900000F03CFD8120214600F038FDCF202146A0
:1014A00000F034FDA120214600F030FDC820214687
:1014B00000F02CFDA6200090214600F027FDA8207A
:1014C000214600F023FD3F20214600F01FFDD320E0
:1014D000214600F01BFD2046214600F017FDD520D7
:1014E000214600F013FD80273846214600F00EFD0E
:1014F000D920214600F00AFDF120214600F006FD2A
:10150000DA20214600F002FD1220214600F0FEFC08
:10151000DB20214600F0FAFC2846214600F0F6FCCC
:1015200020263046214600F0F1FC0220214600F042
:10153000EDFC8D20214600F0E9FC1420214600F04E
:10154000E5FCA420214600F0E1FC0098214600F0D3
:10155000DDFC02480346803302E0C046280020201C
:1015600060215C545C559C551C761C741C721C706C
:101570001A4660321476147414721A464032147685
:10158000147414721A4620321476147414721A46A3
:10159000083A14701A46103A14701A46183A147021
:1015A0001A46203A14701A46283A14701A46303AED
:1015B00014701A46383A14701A46403A14701A4693
:1015C000483A14701A46503A14701A46583A147031
:1015D0001A46603A14701A46683A14701A46703AFD
:1015E00014701A46783A14701A46803A1470012220
:1015F00012029B18203FB3D1074681378023009603
:101600007C547C55009EBC553C763C743C723C70CE
:101610002E463D4660352C762C742C723D46403566
:101620002C762C742C723D4620352C762C742C7222
:101630003D46083D2C703D46103D2C703D46183D02
:101640002C703D46203D2C703D46283D2C703D467B
:10165000303D2C703D46383D2C703D46403D2C7051
:101660003D46483D2C703D46503D2C703D46583D12
:101670002C703D46603D2C703D46683D2C703D46CB
:10168000703D2C703D46783D2C70BD18803F3C70FD
:10169000203B2F463546B3D10746823780237C5402
:1016A0007C55009D7C553C763C743C723C703D46BC
:1016B00060352C762C742C723D4640352C762C747B
:1016C0002C723D4620352C762C742C723D46083DFC
:1016D0002C703D46103D2C703D46183D2C703D460B
:1016E000203D2C703D46283D2C703D46303D2C70F1
:1016F0003D46383D2C703D46403D2C703D46483DB2
:101700002C703D46503D2C703D46583D2C703D465A
:10171000603D2C703D46683D2C703D46703D2C7000
:101720003D46783D2C70BD18803F3C70203B2F46D5
:101730003546B4D10746833780237C547C55009DC1
:101740007C553C763C743C723C703D4660352C7652
:101750002C742C723D4640352C762C742C723D46F0
:1017600020352C762C742C723D46083D2C703D465D
:10177000103D2C703D46183D2C703D46203D2C7090
:101780003D46283D2C703D46303D2C703D46383D51
:101790002C703D46403D2C703D46483D2C703D46EA
:1017A000503D2C703D46583D2C703D46603D2C70A0
:1017B0003D46683D2C703D46703D2C703D46783D61
:1017C0002C70BD18803F3C70203B2F463546B4D16D
:1017D0000746843780237C547C55009D7C553C769D
:1017E0003C743C723C703D4660352C762C742C72F7
:1017F0003D4640352C762C742C723D4620352C7697
:101800002C742C723D46083D2C703D46103D2C70CA
:101810003D46183D2C703D46203D2C703D46283DF0
:101820002C703D46303D2C703D46383D2C703D4679
:10183000403D2C703D46483D2C703D46503D2C703F
:101840003D46583D2C703D46603D2C703D46683D00
:101850002C703D46703D2C703D46783D2C70BD1877
:10186000803F3C70203B2F463546B4D10746853734
:1018700080237C547C55009D7C553C763C743C72A6
:101880003C703D4660352C762C742C723D464035BC
:101890002C762C742C723D4620352C762C742C72B0
:1018A0003D46083D2C703D46103D2C703D46183D90
:1018B0002C703D46203D2C703D46283D2C703D4609
:1018C000303D2C703D46383D2C703D46403D2C70DF
:1018D0003D46483D2C703D46503D2C703D46583DA0
:1018E0002C703D46603D2C703D46683D2C703D4659
:1018F000703D2C703D46783D2C70BD18803F3C708B
:10190000203B2F463546B4D10746863780237C548A
:101910007C55009D7C553C763C743C723C703D4649
:1019200060352C762C742C723D4640352C762C7408
:101930002C723D4620352C762C742C723D46083D89
:101940002C703D46103D2C703D46183D2C703D4698
:10195000203D2C703D46283D2C703D46303D2C707E
:101960003D46383D2C703D46403D2C703D46483D3F
:101970002C703D46503D2C703D46583D2C703D46E8
:10198000603D2C703D46683D2C703D46703D2C708E
:101990003D46783D2C70BD18803F3C70203B2F4663
:1019A0003546B4D17F3080231F46C4544454445537
:1019B000009D445504760474047204700546603535
:1019C0002C762C742C72054640352C762C742C7297
:1019D000054620352C762C742C720546083D2C705B
:1019E0000546103D2C700546183D2C700546203DDF
:1019F0002C700546283D2C700546303D2C70054660
:101A0000383D2C700546403D2C700546483D2C70F5
:101A10000546503D2C700546583D2C700546603DEE
:101A20002C700546683D2C700546703D2C7085185D
:101A300078380470203F28463546B6D100F006F8C5
:101A4000AF20002100F062FA01B0F0BDF0B585B022
:101A50000020CF4F02905038C0B20024214600F041
:101A600055FA2046214600F051FA1020214600F098
:101A70004DFA022531480560012606600A242046F9
:101A800000F0CCFD2D480561204600F0C7FD2B4835
:101A90000661204600F0C2FD782000F00BFC2748CC
:101AA0000560204600F0BAFD24480660204600F09C
:101AB000B5FD22480661204600F0B0FD402000F050
:101AC000F9FB04951D480560204600F0A7FD1B4862
:101AD00006600546204600F0A1FD03962E612046D3
:101AE00000F09CFD80260197387800F0E3FB134955
:101AF000049808600A24204600F090FD039D0F48DA
:101B00000560204600F08AFD0C480561204600F083
:101B100085FD761E0837002EE6D1084C049D256110
:101B2000039820600A2000F079FD2560019F7F1C4A
:101B30000298401C08288DD105B0F0BD90120A40D3
:101B4000F0B58BB00A9103900620082B04460AD00A
:101B50005C07D908002C00D0491C5C084C43E4B257
:101B6000002C00D10CE1109F203AD1B200914843E3
:101B700084490A18580801900025039E029308978B
:101B800009E00646079C049A069D641E521C6D1CC3
:101B9000002C00D1F4E0082B10460ED0102B07D0FB
:101BA0000C2B00D0ECE00C2000994843774902E070
:101BB000009800017449081840190990069504928C
:101BC000079407230A9A10461840012529468140A8
:101BD0000596F0B2C0006E4C2018D2B2D408065D53
:101BE00032460A438E43002F114600D03146002F63
:101BF00000D016460022099FBA560992D20700D09B
:101C0000314601550A99491CCAB219402F468F40E6
:101C1000D408065D31463943BE43089F002F0A466B
:101C200000D03246002F00D00E460999890700D512
:101C3000324602550A99891CCAB219402F468F4074
:101C4000D408065D31463943BE43089F002F0A463B
:101C500000D03246002F00D00E460999490700D522
:101C6000324602550A99C91CCAB219402F468F4004
:101C7000D408065D31463943BE43089F002F0A460B
:101C800000D03246002F00D00E460999090700D532
:101C9000324602550A99091DCAB219402F468F4093
:101CA000D408065D31463943BE43089F002F0A46DB
:101CB00000D03246002F00D00E460999C90600D543
:101CC000324602550A99491DCAB219402F468F4023
:101CD000D408065D31463943BE43089F002F0A46AB
:101CE00000D03246002F00D00E460999890600D553
:101CF000324602550A99891DCAB219402F468F40B3
:101D0000D408065D31463943BE43089F002F0A467A
:101D100000D03246002F00D00E460999490600D562
:101D2000324602550A99C91D0B409D40C9B2CC08E4
:101D3000025D1146A9431543002F0A4600D02A46EA
:101D4000002F029B059E00D00D460999002900D462
:101D50002A460255701C082B00D112E7C1B2039A23
:101D6000891A019A9142079C02D10A9A08320A9272
:101D7000049A019DA942039E00D105E7064603E7A8
:101D80000BB0F0BDC83A000064410000F03C000018
:101D900028002020F0B58BB01C46119D109E0692A5
:101DA000002A0891079009950A9654D4002C00D176
:101DB000A8E00A984108082800D1891C0591671EEF
:101DC00060420390A01E02907D20C000019000267A
:101DD0004D4D049411E00A4602430899079B304692
:101DE000059C6043C018C0B20A9BFFF7A9FE7F1E86
:101DF000761C049CA64200D184E0F04303998842FB
:101E000001D101211AE0032100190840029A921B16
:101E1000032A01D2012105E03A468A4301216943A0
:101E2000121FFCD1002809D0012801D10A2004E0AA
:101E3000022801D0019800E0642041430698FEF793
:101E400091FC0A21FEF78EFC0998009030200029B1
:101E5000C1D10246C1E700952D223346FFF770FE3F
:101E60007008082E00D1801C0590002C4AD00698DE
:101E700040420690661E60420490A01E03907D20A2
:101E8000C00002900025204F0EE00A460243089948
:101E9000079B05986D1C6843C018C0B20A9BFFF7EA
:101EA0004FFE761EA5422DD0E8430499884201D109
:101EB00001211AE0032100190840039A521B032A4A
:101EC00001D2012105E032468A4301217943121FE4
:101ED000FCD1002809D0012801D10A2004E0022801
:101EE00001D0029800E0642041430698FEF73AFCD6
:101EF0000A21FEF737FC0998009030200029C4D150
:101F00000246C4E70BB0F0BD10270000F0B583B067
:101F100001910290244F02263E6001253D600A2473
:101F2000204600F07BFB3E61204600F077FB3D61E0
:101F3000204600F073FB782000F0BCF93E6020469C
:101F400000F06CFB3D60204600F068FB3D612046E0
:101F500000F064FB0199481E8141880100F0AAF954
:101F60003E60204600F05AFB3D60204600F056FBE4
:101F70003D61204600F052FB029800F09BF93E6064
:101F8000204600F04BFB3D60204600F047FB3D61E2
:101F9000204600F043FB3E613D60204600F03EFBE2
:101FA0003E6003B0F0BDC04690120A4010B528480C
:101FB000872181600122130726490B608823436132
:101FC000D2070A6082220265234A531C4365234BD1
:101FD0004363234B81241C605C609C609C6184642F
:101FE000DA601A615A615A630460446082619A64DB
:101FF0009A63DA628265C2650266426608463038D4
:10200000184A02600A6018480168184A0A430260C8
:102010000169174A0A4302611648016A164A1143C8
:102020000162016811430160FF20000313490A683F
:1020300002430A600869124A02430A611148016AB0
:10204000114A1143016201681143016010BDC0468D
:1020500004804240D0120A40810004008100010047
:10206000888042408371040090130A403000004091
:102070000510000028100A400480430090330A40F5
:10208000C003030028300A40C003180170B582B0B5
:10209000E04C19492046FEF799FE18492046FEF704
:1020A00067FD00250095204629462A462B46FEF767
:1020B00079FE204629462A46FEF766FE2046294636
:1020C0002A46FEF77BFE01260096204629462A4630
:1020D0002B46FEF767FE204629463246FEF754FEA1
:1020E000204629463246FEF769FE054886600321F0
:1020F000016002B070BDC046544700005847000060
:10210000003186400D48002101600D490A46083A19
:1021100013680320834313600A6801239A430A600B
:102120001A020B6893430B60FF210902054A1368EA
:102130008B438003181810607047C04608030B409B
:1021400008010B4000E400E00548042101601F2164
:10215000416000218160016805220A4302607047E6
:1021600010E000E010B50D4C0D492046FEF72EFEA4
:102170000C492046FEF794FD0B48016801221143EB
:102180000160FF20000409490B6883430320800598
:10219000181808600648026010BDC046000086405E
:1021A00060470000644700002810864010E400E00B
:1021B0000811864010B5194C19492046FEF738FE23
:1021C00018492046FEF710FE0320C1031648026896
:1021D0008A4302600169154A0A401132026141696D
:1021E00017220A4328218A434261426801210A409A
:1021F00043688B439A1842608A020D4B1C68144353
:102200001C60FF2212060B4B1C6894438A07A2181D
:102210001A6002680A43026010BDC0460080104088
:10222000784700007A470000009110400000FFFF4F
:10223000289010400CE400E080B500F017F8FFF79C
:10224000B5FEFFF75FFFFFF721FFFFF78BFFFFF7FB
:10225000B1FFFFF779FFB820024900220A54024972
:102260000A5480BD90052020D4042020B0B50A482F
:102270000A4941600A4A51600A4B59600A4C616040
:102280000A4D69600A490160116019602160296086
:102290001020FEF767FCB0BD00080A40030000B143
:1022A00000280A4000288640000886400088104028
:1022B00001000026F0B581B0044640B2544E00281B
:1022C00002D40220306101E0022030600A25284655
:1022D00000F0A4F901273760284600F09FF9376124
:1022E000600602D40220306101E0022030600A253D
:1022F000284600F093F93760284600F08FF93761DF
:10230000A00602D40220306101E0022030600A25DC
:10231000284600F083F93760284600F07FF93761DE
:10232000E00602D40220306101E0022030600A257C
:10233000284600F073F93760284600F06FF93761DE
:10234000200702D40220306101E0022030600A251B
:10235000284600F063F93760284600F05FF93761DE
:10236000600702D40220306101E0022030600A25BB
:10237000284600F053F93760284600F04FF93761DE
:10238000A00702D40220306101E0022030600A255B
:10239000284600F043F93760284600F03FF93761DE
:1023A000E00702D10220306101E0022030600A24FF
:1023B000204600F033F93760204600F02FF93761EE
:1023C00001B0F0BDF0B581B00C46014601273803DD
:1023D0007A030F4E012902DB3060326102E0326085
:1023E000306149420B4D00222846FEF7E7FCB80356
:1023F000B904012C02DB3060316102E031603061F0
:102400006442012228462146FEF7D8FC01B0F0BD07
:1024100090120A4000208640F0B587B0534800680B
:10242000000600D1A0E0524C2078401C207051489A
:102430000178491C0170504D2878401C28704F4E7F
:102440003078401C3070142000F050F920780228B9
:1024500001D1002020702878042854D10020287051
:10246000B820A1490858B8314968FEF75FF903461A
:102470006848826A424828304249FEF7F5FA054624
:102480004148C5604069FEF7D2F806902946FDF73D
:102490007CFE07463D4C2146FEF74EF800282646B6
:1024A00000D13E463A4F30463946FEF745F80028FF
:1024B00000D13E463046FEF7E7F80646354806604E
:1024C00028460699FDF710FE05462146FEF734F82A
:1024D000002800D12C4620463946FEF72DF800286A
:1024E00000D13C462046FEF7CFF801462A4801605D
:1024F0002548007E002802D00020014600E030463A
:10250000FFF760FF1D4E3078082821D10027377073
:102510002248046807601C4821490A680F6051423C
:10252000046041603B48806AFEF7ECF805460E46C1
:102530002046FEF787F81B4A059204971A4A039231
:102540001A4A02920196009502460B4600F088F85E
:10255000174801780C2901D1002101701548017834
:10256000102901D10021017007B0F0BD2010864074
:10257000CD042020CE042020CF042020D004202011
:102580008007202008002020B0042020000048C43C
:1025900000004844A8042020AC0420202000202073
:1025A000240020200000F03FE17AA43F7B14AE47D6
:1025B000D1042020D2042020B0B512480068C0B257
:1025C0000B281ED110484168CAB202600F4D28780E
:1025D0000F4A1154401C2870C0B22C2811D10C484D
:1025E0000C4C214600F04EFB00212970A56A2846BC
:1025F000FDF7B0FF002804D107492846FDF774FD18
:10260000A062B0BD2090104020911040BC06202058
:1026100090062020500620200000B443B0B50F499A
:102620000B684001262206E0E41A0D1F2D6864198C
:10263000A218824210D21C460B689C4208D10B683B
:102640009C4205D10B689C4202D10B689C42F3D09E
:102650009C42E9D9E41AEBE7B0BDC04618E000E0BF
:10266000F0B583B00C46054608980999A54AA84BD1
:10267000FDF782FE0022A54BFDF7E6FE06460F465B
:102680000A9A0B9B28462146FDF776FE04460290E7
:102690000D4601913046394601F074F802460B466A
:1026A00020462946FDF768FE00900D463046394623
:1026B00001F0B4F806460F46904C0CCC0098294621
:1026C000083CFDF7A7FD03C40298019932463B463A
:1026D000083CFDF751FEA268E368FDF79BFDA06092
:1026E000E16003B0F0BDC046C0062020F0B587B061
:1026F000814E3178002914D0012900D0C7E0B24AB8
:10270000136801218B431360A14A1278042A1CD15B
:102710007B4801767F48017079480021416107B00C
:10272000F0BDA94B19680122114319609849097835
:10273000012900920490F34818D0022925D10024E1
:10274000046044608460C4601BE06D4B1976012A0C
:1027500000D19EE0032A00D1A6E0022ADCD1E9489C
:102760000021016041608160C160D5E70024E44937
:102770000A70046044608460C4607D208000604909
:10278000486106942246234602E01CC80068069071
:10279000DB4800780001DB490F1838697969FDF7DB
:1027A000DDFD06460D46B869F9692246069BFDF730
:1027B000D5FD07460C4632462B4600F015FF059026
:1027C0000691384621463A462346FDF7D5FD044694
:1027D0000F463046294632462B46FDF7CDFD2246B0
:1027E000C84C3B46FDF716FD01F066F80391B02199
:1027F000029060500022059D2846069F39460192AE
:102800001346FDF7D1FE06463E493F4B28460D468E
:1028100039462A46FDF7FEFC002E00D10598002E11
:1028200000D10699E84B019AFDF7A6FD384B2A46E0
:10283000FDF70AFEB822A0502046B030039D456047
:10284000B83461600498FDF711FF02460B46029808
:102850002946FDF7BFFE002819D1FEF779FBA84BEA
:102860001878421C1A702B480078A7490978D2B210
:102870008A4205D1002803D00098187007B0F0BD37
:102880008A4204D1002802D11D480099017607B080
:10289000F0BD9C4A00249A4D2970146054609460E5
:1028A000D46034701C7637E797480678701E0001B4
:1028B000944F3C182269636921CF06902946083F4E
:1028C000FDF79EFE002800D026E7A269E369BC68F8
:1028D000F96820460591FDF793FE002800D01BE71C
:1028E000701C8949087030013818069901614561EA
:1028F00084610599C1610FE718002020C0062020DF
:10290000B0042020282D4454FB211940008066404B
:10291000FB210940D4072020F0B581B00126370201
:1029200074021A4D2868400605D4FEF711FB28688A
:10293000000605D507E0FEF701FB2868000609D46C
:10294000FEF706FB02262868384208D02868204295
:1029500014D110E0FEF7F2FA2868384206D1FEF7EB
:10296000F7FA2868204206D0032607E0FEF7E6FAC9
:102970002868204206D1FEF7EBFA042604480670C8
:1029800001B0F0BDFEF7DAFA0026F7E780330A401F
:1029900019002020FFF750FC0B4801680122114369
:1029A0000160D0030949086002230B6092040A60A9
:1029B000074908600B600A60FEF758FDFEF7D6FA7B
:1029C00000F008F8FCE7C0460438864080E200E0EA
:1029D00000E100E0F0B587B047484069FDF754FEDC
:1029E000024601200C2100910D46049101900646FB
:1029F00000270424384639462346FFF7CBF93E48E2
:102A0000806AFDF741FE024600950196322006904D
:102A1000394605972346FFF7BDF9384802780095F7
:102A200001960A25384629462346FFF7B3F934486C
:102A30000278049F00970196069829462346FFF7DF
:102A4000A9F9B0202F4A105811461546B0314968EF
:102A5000FDF734FE02460097019603961427059869
:102A600039462346FFF796F9B82029462858B83149
:102A70004968FDF723FE0246049D009501960698DD
:102A800039462346FFF786F91E4903C9FDF716FEAE
:102A900002460095039D01951E2705983946234659
:102AA000FFF778F917498868C968FDF707FE0246FD
:102AB000049E00960195069839462346FFF76AF969
:102AC0001148027800960195282705983946234633
:102AD000FFF760F90B49086B496BFDF7EFFD024604
:102AE00000960195069839462346FFF753F9FEF7FD
:102AF000ADFF07B0F0BDC0465006202018002020D2
:102B00001B002020C00620201A002020F0B581B034
:102B10000C460546007869780918A8780A18E978FB
:102B200052182B79D2186B79D218AB79D218EB796D
:102B3000D2182B7AD2186B7AD218D2B2AB7A9A42C8
:102B40003ED10902081800B2FDF77CFD3F221706AE
:102B5000002632463B46FDF70FFC1B4B3246FDF785
:102B60000BFCFDF7E3FD206028796979090208185C
:102B700000B2FDF767FD32463B46FDF7FDFB3246EE
:102B8000114BFDF7F9FBFDF7D1FD6060A879E979FC
:102B90000902081800B2FDF755FD32463B46FDF725
:102BA000EBFB3246084BFDF7E7FBFDF7BFFDA060EE
:102BB000287A697A09020818E060012001B0F0BDA6
:102BC000002001B0F0BDC04600806640F0B581B085
:102BD0000C460546007869780918A8780A18E9783B
:102BE00052182B79D2186B79D218AB79D218EB79AD
:102BF000D2182B7AD2186B7AD218D2B2AB7A9A4208
:102C00003AD10902081800B2FDF71CFD3F22170651
:102C1000002632463B46FDF7AFFB194B3246FDF727
:102C2000ABFBFDF783FD206028796979090208185C
:102C300000B2FDF707FD32463B46FDF79DFB3246ED
:102C40000F4BFDF799FBFDF771FD6060A879E979FD
:102C5000E6600902081800B2FDF7F4FC32463B4674
:102C6000FDF78AFB3246064BFDF786FBFDF75EFD5E
:102C7000A060012001B0F0BD002001B0F0BDC04651
:102C800000409F40B0B50C4605460B301031FFF7B1
:102C90009DFF002808D01635203428462146FFF72E
:102CA00035FF411E8841B0BD0020B0BD2021020C7F
:102CB00001D010211046020A01D01046083902093D
:102CC00001D01046091F820801D01046891E420813
:102CD00001D0881E7047081A7047F0B4040C8BB2FC
:102CE000264682B25E430D0C1046370C584336041C
:102CF00080190021794116466E43370C360480193D
:102D0000794126466E438919F0BC70474900CA02D2
:102D10000243100000D004204A0D01D001221043CC
:102D2000044A490D914201D102210843012800D1F2
:102D300005207047FF070000F7B596B01446002144
:102D4000A160D160179909914D00CD496D088D4260
:102D500005DC179961602060002019B0F0BDC949F9
:102D6000C94E8D4238DAD32709997F050029C74A11
:102D70001799334617DDFDF7F1FAB54206D0C44A7C
:102D8000C44BFDF7EBFA6160206009E03A46C14BA5
:102D9000FDF7E4FAC04AC14BFDF7E0FA616020603C
:102DA000012019B0F0BDFDF735FAB54206D0B84A9A
:102DB000B84BFDF72FFA6160206009E03A46B54B49
:102DC000FDF728FAB44AB54BFDF724FA616020609C
:102DD0000020C04319B0F0BDB1498D42179977DC8E
:102DE000490049080746AF4AAF4B0491FDF7C4FAC2
:102DF0000022AE4BFDF70EFAFDF760FC0A90FDF7DE
:102E000021FCA24A334603910290FDF7B5FA3A46F7
:102E1000049BFDF7A9FA06460F469D4A9D4B039970
:102E20000298FDF7A9FA2A0D01250C9232463B467D
:102E3000FDF79AFA61602060032D39D04800410DFA
:102E40000C98401A690169181139814230DA9849A1
:102E50002801794408960D90081804974368026881
:102E600003990298FDF788FA02460B4607910690EF
:102E700004990898FDF772FA06460F46049B089AD3
:102E8000FDF772FA079B069AFDF768FA05918949E2
:102E9000049079440D984018C36882680399029899
:102EA000FDF76AFA059B049AFDF758FA6D1CBDE719
:102EB0000998002809DA01226068D2075040606052
:102EC0000A9819B04042F0BD02E00A9819B0F0BD6E
:102ED00009030122090B12050E9089181798109109
:102EE00040007549400D40184111C006C00E0D91BB
:102EF00013902021081A14900020069005250790B1
:102F0000139800280D980CD0401982006B48784423
:102F1000875813998F40101841681498C1400F4387
:102F200004E04019810066487844475810993846B3
:102F3000FFF7D3FE06460A9138460E99FFF7CDFEFD
:102F40008A190A9B8A4201D2012100E00021C91896
:102F50008C46AF00694679188B684E68C318834267
:102F600001D2012000E0002096193618002802D076
:102F7000964202D903E0964201D2012000E00020EF
:102F8000624612184E6068468B60C25128466D1E1C
:102F90000028B5DC0121029849074018800F1390E2
:102FA000029805998000039E049D0B91FDF74AFB52
:102FB000074630460891FDF759FB1D22D243FDF725
:102FC0003DFD10900F912846FDF750FB3D22D24366
:102FD000FDF734FD0E900D910B98FDF747FB5D2238
:102FE000D243FDF72BFD0B910C900D9B0E9AFDF734
:102FF00011F90F9B109AFDF70DF93A46089BFDF762
:1030000009F900250E463A462846089BFDF7A6F921
:103010000F9B109AFDF7A2F90D9B0E9AFDF79EF9F2
:103020000B9B0C9AFDF7A0F9264A274BFDF7A4F954
:1030300007460D91254A264B31462846FDF79CF957
:103040003A460D9BFDF7E6F80F4615220C909206C6
:103050001D4B31462846FDF78FF93B460C9AFDF78C
:10306000D9F8179A002A05DA139A524213920122CC
:10307000D207514061602060139819B0F0BD000084
:10308000FB21E93F7CD90240FB21F93F000040547D
:103090003163621A61B4D03D7370032E8A19A33B69
:1030A000FB21394183C8C96D305FE43F0000E03F38
:1030B0007A0B00003A0B00000BFCFFFFEE0A000049
:1030C000D40A0000182D4454FB21F93D3326A611E3
:1030D000460B113CF0B51FB44E00F9207608800570
:1030E00084B00F46864204DA0498FDF7E7FA002818
:1030F00038D0049A3B4610461946FDF73DF9044680
:1031000002462C480D460B460621784400F05CF838
:1031100022462B46FDF730F9019100903946079B76
:10312000069A0498FDF728F9074602912046294699
:10313000019B009AFDF720F93A46029BFDF70EF934
:10314000074600220091D24320462946FDF776FC2F
:10315000194A96420ADA3A46009BFDF7FFF8002228
:10316000164B23E00020154909B0F0BD144A9642E1
:1031700002DD0024134D03E001225205B51A00249C
:1031800022462B46FDF7EAF80646019122462B46D9
:1031900000200A49FDF7E2F80D4604463A4630465B
:1031A000009B0199FDF7DAF822462B46FDF7DCF883
:1031B00009B0F0BD8A0800003333D33F0000F03F70
:1031C0000000E93F0000D23FF8B504464F1EC8009A
:1031D0000838211815461E46086849683A460623ED
:1031E0009A4310D02A463346FDF7C6F83A46D20035
:1031F000083AA3181A687F1E5B68FDF70BF80622D1
:103200003B469343EED1022F23D0042F11D0062F3B
:103210002FD12A463346FDF7AFF8E36AA26AFCF7DE
:10322000F9FF2A463346FDF7A7F8636A226AFCF7DE
:10323000F1FF2A463346FDF79FF8E369A269FCF7E0
:10324000E9FF2A463346FDF797F863692269FCF7E0
:10325000E1FF2A463346FDF78FF8E368A268FCF7E2
:10326000D9FF2A463346FDF787F863682268FCF7E2
:10327000D1FFF8BDF0B51FB4054648000C46F92152
:103280004008890586B088420BDA28462146FFF7B8
:103290003DFD042801D100F075F8284621460BB009
:1032A000F0BD2A46234610461946FDF765F8064646
:1032B0000F462A462346FDF75FF800902548019106
:1032C00032463B4605217844FFF77EFF0290109876
:1032D0000391002829D0204A204B01990098FDF73E
:1032E0004BF80490059168460FC8FDF745F8002299
:1032F00001910090D24309990898FDF79FFB019B2B
:10330000009AFDF72BF832463B46FDF735F8099B4E
:10331000089AFDF723F8059B049AFDF71FF82A4643
:103320002346FDF721F80BB0F0BD0B463046394679
:10333000029AFDF721F8084A084BFCF76BFF019B46
:10334000009AFDF719F82A462346FCF763FF0BB0F5
:10335000F0BD0000D6070000495555555555C5BF6D
:1033600010B50122FDF76AFB10BD10B5FCF752FF46
:1033700010BD002210B5134610461146FDF764F843
:1033800010BD0000034A10B500201107FDF756FBE1
:1033900010BD000001FDFFFF02E008C8121F08C1B8
:1033A000002AFAD1704700007047000000000000BA
:1033B000002001E001C1121F002AFBD1704700006C
:1033C000014908607047000004002020F0B589B072
:1033D00004460D464800069172494008884215DBB4
:1033E0007149884203DC884207D1002C05D0204671
:1033F0002946FFF7B5FF09B0F0BD6C48002D02DD8E
:103400006B4909B0F0BD6B4909B0F0BD6A4988420B
:1034100011DA6A4988420BDA20462946FFF776FC22
:10342000042801D1FFF7AEFF2046294609B0F0BDC0
:103430000026F6435DE06D0061496D08884232DA8E
:103440006049884219DA0026012332469B0720464C
:103450002946FCF7DFFE0746019101222046294656
:10346000FDF7ECFA0022584BFCF778FF3A46019B37
:10347000FCF7EAFF04460D463BE001260022524BD2
:1034800020462946FCF7C6FE0746009100224E4B17
:1034900020462946FCF762FF3A46009BFCF7D4FF22
:1034A00004460D4625E04949884219DA02260022E1
:1034B000474B20462946FCF75FFF0022424BFCF7B2
:1034C000A9FE074602910022414B20462946FCF7FF
:1034D00045FF3A46029BFCF7B7FF04460D4608E05D
:1034E000032622462B4600203A49FCF7ADFF04464E
:1034F0000D4622462B4610461946FCF73DFF07466F
:103500000B4602460191FCF737FF02460290324813
:103510000B46039106217844FFF756FE3A46019B7D
:10352000FCF72AFF00902D48019105217844039B68
:10353000029AFFF749FE039B029AFCF71DFF024621
:103540000B4601990098002E0BDAFCF763FE224629
:103550002B46FCF711FF22462B46FCF705FF09B06E
:10356000F0BDFCF757FE22462B46FCF705FF1C4A30
:10357000F6007A4493191A685B68FCF7EFFE22465E
:103580002B46FCF7EBFE174A7A4493191A685B68DE
:10359000FCF7EAFE069A002AE1DA0122D20751403E
:1035A00009B0F0BD000010440000F07F182D445415
:1035B000FB21F93FFB21F9BF0000DC3F0000203E6A
:1035C0000000F33F0000E63F0000F03F00800340B2
:1035D0000000F83F0000F0BF4E040000100400009F
:1035E000AA03000074030000F0B51FB4039A029D03
:1035F00053006E422E439446F40F5B084A00574E28
:1036000052081C438E46B44205D847420743FC0F7C
:103610001443B44205D92A466346FFF7A6FE05B017
:10362000F0BD4F4E66442E430AD0CC0F6646B61707
:1036300002273E40264304464A4F144304D00BE081
:10364000FFF7C4FE05B0F0BD002EFBD0012EF9D06F
:10365000022E32D0032E34D01C462C430BD03F4CCC
:10366000A34216D1A2420AD1012189078B438A4382
:10367000114603930DE0704600280FDB25E03A4D1C
:103680007D44002E0ED0012E10D0022E15D0032E18
:1036900017D0A2421DD17046002816DA31483349AE
:1036A00005B0F0BD6968286805B0F0BD0122696801
:1036B000D2072868514005B0F0BD38462C4905B006
:1036C000F0BD38462B4905B0F0BD26482A4905B063
:1036D000F0BDD21A12153C2A02DD224D264C12E012
:1036E0006346002B05DA3C23DA4202DA00252C4639
:1036F00009E0039B029AFCF7A7FE49004908FFF77F
:1037000065FE05460C46002E12D0012E0DD01B4A38
:103710001B4B022E2846214618D0FCF71FFE3A46C6
:10372000134BFCF71BFE05B0F0BD0120C007444061
:103730000022134628462146FDF758F902D10220FF
:10374000FFF73EFE2846214605B0F0BDFCF706FE19
:103750003A46074BFCF708FE05B0F0BD0000F07FCD
:10376000000010C0182D445444030000FB21F9BF91
:10377000FB210940FB2109C0FB21F93F075C143301
:1037800026A6A13C00B54A00224B520887B09A42B7
:1037900002DC0022134625E01F4B9A4208D1002884
:1037A00008D10120FFF70CFEFFF7E3FD07B000BDD5
:1037B0009A4203DBFFF7D4FD07B000BD02AAFFF772
:1037C000BBFA8107890F0BD0012001290ED00229F5
:1037D00016D0009002A80FC8FFF74CFD07B000BD3F
:1037E00002A80FC8FFF776FC07B000BD009002A842
:1037F0000FC8FFF73FFD0122D207514007B000BDBF
:1038000002A80FC8FFF766FC0122D207514007B09B
:1038100000BD0000FB21E93F0000F07F00B54A0039
:10382000234B520887B09A4203DC002213460092D1
:1038300029E0204B9A4208D1002808D10120FFF747
:10384000BFFDFFF796FD07B000BD9A4203DBFFF70F
:1038500087FD07B000BD02AAFFF76EFA8107890F46
:10386000012000290CD0012911D0022915D002A86D
:103870000FC8FFF72FFC0122D207514007B000BD4F
:10388000009002A80FC8FFF7F5FC07B000BD02A822
:103890000FC8FFF71FFC07B000BD009002A80FC8BB
:1038A000FFF7E8FC0122D207514007B000BD00003D
:1038B000FB21E93F0000F07FF8B506460C46FDF716
:1038C00044F8051E0F4600D00120014349000B4873
:1038D0004908411AC90F0DD0002E01D0012100E086
:1038E00000210C4361004908401AC00F02D1012099
:1038F000FFF766FD28463946F8BD00000000F07F5E
:103900004FBB610567ACDD3F182D4454FB21E93FF7
:103910009BF681D20B73EF3F182D4454FB21F93FE6
:10392000E2652F227F2B7A3C075C143326A6813C6C
:10393000BDCBF07A8807703C075C143326A6913C17
:10394000C4EB98999999C9BF711623FEC671BCBF83
:103950006D9A74AFF2B0B3BF9AFDDE522DDEADBFEB
:103960002F6C6A2C44B4A2BF0D5555555555D53F03
:10397000FF8300922449C23F6E204CC5CD45B73F1E
:10398000513DD0A0660DB13FEB0D76244B7BA93F96
:1039900011DA22E33AAD903F4C5555555555A53FA8
:1039A0007751C1166CC156BF9015CB19A001FA3ED4
:1039B000AD529C804F7E92BEC4B1B4BD9EEE213EFE
:1039C000D43888BEE9FAA8BD00000000000000005D
:1039D00000004054FB21F93F3163621A61B4D03DCD
:1039E0000000601A61B4D03D7370032E8A19A33BA6
:1039F0000000002E8A19A33BC14920259A837B39F8
:103A000000000000000000006E83F9A22915444E5A
:103A1000D15727FCC0DD34F5999562DB4190433CDA
:103A2000AB6351FE61C5BBDE3A6E24B7E0D24D42B6
:103A3000EA2E49061C92D1091CEB1DFE3EA729B1B6
:103A4000F53582E88444BB2E26709CE9417E5FB444
:103A500039D69139F43953838B5F849C3B28F9BD67
:103A6000FF97F81F0F9805DE8B112FEF1F6D0A5A75
:103A7000CF7E366DB709CB27663F464F2DEA5F9E56
:103A8000C7BA27757BF1E5EBF739073DEA92528A11
:103A9000B15FFB6B085D8D1F4630035600000000D0
:103AA000A6F810111111813FD561C119A0012ABFDB
:103AB0007DFEB157E31DC73EEB9C2B8AE6E55ABE5F
:103AC0007CD5CF5A3AD9E53D000000000000000047
:103AD000002F000000000700070000147F147F146F
:103AE00000242A7F2A1200626408132300364955F5
:103AF000225000000503000000001C2241000000CD
:103B000041221C000014083E08140008083E080862
:103B1000000000A0600000080808080800006060BD
:103B20000000002010080402003E5149453E0000FC
:103B3000427F4000004261514946002141454B31DE
:103B4000001814127F10002745454539003C4A49AA
:103B5000493000017109050300364949493600061C
:103B60004949291E00003636000000005636000084
:103B700000081422410000141414141400004122FF
:103B8000140800020151090600324959513E007CD7
:103B90001211127C007F49494936003E41414122C1
:103BA000007F4141221C007F49494941007F0909AA
:103BB0000901003E4149497A007F0808087F00005A
:103BC000417F4100002040413F01007F0814224115
:103BD000007F40404040007F020C027F007F0408CD
:103BE000107F003E4141413E007F09090906003E29
:103BF0004151215E007F0919294600464949493152
:103C00000001017F0101003F4040403F001F204074
:103C1000201F003F4038403F006314081463000732
:103C20000870080700615149454300007F41410089
:103C300000552A552A55000041417F000004020129
:103C40000204004040404040000001020400002007
:103C500054545478007F4844443800384444442045
:103C600000384444487F00385454541800087E09F2
:103C700001020018A4A4A47C007F080404780000BA
:103C8000447D4000004080847D00007F1028440077
:103C90000000417F4000007C04180478007C080488
:103CA000047800384444443800FC242424180018C4
:103CB000242418FC007C08040408004854545420B0
:103CC00000043F444020003C4040207C001C204039
:103CD000201C003C4030403C004428102844001C7C
:103CE000A0A0A07C004464544C4414141414141474
:103CF0000000000000000000000000000000FC00C8
:103D00000000000002000000000C020C0200000095
:103D10000000000090D0BCD0BC9000030003000065
:103D20001824FE448C000302070201001824D8B0B6
:103D30004C80000300010201C038E438E0000102B9
:103D4000020102020806000000000000000000005E
:103D5000000000F80402000000010204000204F860
:103D600000000004020100009060F8609000000074
:103D7000010000002020FC202000000001000000C5
:103D800000000000000008060000000020202020A5
:103D90002000000000000000000000000000000201
:103DA000000000000080601C02000403000000000E
:103DB000F8040404F8000102020201000008FC00FB
:103DC00000000002030200001884442418000302CB
:103DD0000202020008042424D800010202020100A9
:103DE00040B088FC80000000000302003C24242432
:103DF000C400010202020100F824242CC0000102C8
:103E0000020201000C04E41C040000000300000096
:103E1000D8242424D800010202020100384444447A
:103E2000F800000302020100000010000000000082
:103E3000020000000000200000000000060000005A
:103E40000020508804020000000001029090909031
:103E500090000000000000000002048850200002D2
:103E6000010000001804C424180000000200000033
:103E7000F804E494F80001020202020000E09CF061
:103E8000800002030000030204FC2424D800020383
:103E900002020100F80404040C0001020202010005
:103EA00004FC0404F80002030202010004FC247470
:103EB0000C0002030202030004FC24740C00020341
:103EC00002000000F0080444CC400001020201009E
:103ED00004FC2020FC040203000003020404FC0490
:103EE0000400020203020200000404FC04040604AD
:103EF0000403000004FC24D00C04020302000302AB
:103F000004FC04000000020302020203FC3CC03C6B
:103F1000FC0003000300030004FC30C4FC040203A3
:103F200002000300F8040404F80001020202010088
:103F300004FC24241800020302000000F884840416
:103F4000F80001020207050004FC24649800020343
:103F500002000302182424448C0003020202010020
:103F60000C04FC040C0000020302000004FC00002E
:103F7000FC04000102020100047C80E01C0400003B
:103F8000030000001CE03CE01C00000300030000F4
:103F9000049C609C0400020300030200041CE01C5B
:103FA00004000002030200000C84641C04000203ED
:103FB000020203000000FE020200000007040400E9
:103FC000000E30C00000000000010200000202FEEE
:103FD00000000004040700000004020400000000C8
:103FE00000000000000000000000080808080808A1
:103FF0000000020000000000000000000040A0A03F
:10400000C00000010202030204FC2020C0000003E3
:104010000202010000C02020600000010202020034
:1040200000C02024FC0000010202030200C0A0A086
:10403000C0000001020202000020F8242404000253
:10404000030202000040A0A0602000070A0A0A0440
:1040500004FC2020C0000203020003020020E40050
:104060000000000203020000000020E40000080835
:104070000807000004FC80E0202002030200030285
:104080000404FC000000020203020200E020E02021
:10409000C00003000300030020E02020C000020352
:1040A0000200030200C02020C00000010202010043
:1040B00020E02020C000080F0A02010000C02020DC
:1040C000E0000001020A0F0820E040202000020367
:1040D000020000000060A0A0200000020202030015
:1040E0000020F820000000000102020020E0002073
:1040F000E00000010202030220E0208060200000B6
:10410000030100006080E080600000030003000005
:1041100020608060200002030003020020E0208075
:1041200060200808070100000020A06020000002B5
:1041300003020200000020DE02000000000704006D
:10414000000000FF00000000000F00000002DE2061
:104150000000000407000000020102040402000045
:10416000000000000000000000000000000000004F
:1041700000000000000000F8000000000000003314
:104180003000000000100C06100C060000000000BB
:104190000000000040C07840C0784000043F0404A4
:1041A0003F040400007088FC08300000001820FF65
:1041B000211E0000F008F000E018000000211C03A0
:1041C0001E211E0000F00888700000001E2123241C
:1041D0001927211010160E0000000000000000003A
:1041E00000000000000000E01804020000000007CA
:1041F0001820400000020418E000000000402018D1
:1042000007000000404080F0804040000202010FA3
:1042100001020200000000F0000000000101011F87
:1042200001010100000000000000000080B07000EB
:10423000000000000000000000000000000101017B
:10424000010101010000000000000000003030000A
:1042500000000000000000008060180400601806E4
:104260000100000000E010080810E000000F10201E
:1042700020100F00001010F8000000000020203F68
:1042800020200000007008080888700000302824F2
:104290002221300000300888884830000018202093
:1042A00020110E000000C02010F8000000070424B8
:1042B000243F240000F808888808080000192120FD
:1042C00020110E0000E0108888180000000F112057
:1042D00020110E0000380808C83808000000003F10
:1042E000000000000070880808887000001C22216F
:1042F00021221C0000E010080810E000000031221C
:1043000022110F00000000C0C000000000000030BB
:10431000300000000000008000000000000080600D
:10432000000000000000804020100800000102048E
:104330000810200040404040404040000404040475
:104340000404040000081020408000000020100831
:1043500004020100007048080808F0000000003066
:1043600036010000C030C828E810E00007182724F4
:1043700023140B000000C038E0000000203C2302A2
:104380000227382008F8888888700000203F202005
:1043900020110E00C0300808080838000718202037
:1043A0002010080008F808080810E000203F20202E
:1043B00020100F0008F88888E8081000203F20200F
:1043C0002320180008F88888E8081000203F200003
:1043D00003000000C030080808380000071820203B
:1043E000221E020008F808000008F808203F2101FA
:1043F00001213F20000808F8080800000020203FA5
:104400002020000000000808F8080800C080808014
:104410007F00000008F888C028180800203F20010D
:104420002638200008F8080000000000203F202067
:104430002020300008F8F800F8F80800203F003F7E
:10444000003F200008F830C00008F808203F200096
:1044500007183F00E01008080810E0000F102020A7
:1044600020100F0008F808080808F000203F21017C
:1044700001010000E01008080810E0000F182424D3
:1044800038504F0008F8888888887000203F200046
:10449000030C3020007088080808380000382021FC
:1044A00021221C00180808F8080818000000203F06
:1044B0002000000008F808000008F808001F20206D
:1044C00020201F000878880000C83808000007383E
:1044D0000E010000F80800F80008F800033C07008F
:1044E000073C0300081868808068180820302C03F7
:1044F000032C30200838C800C83808000000203FCE
:104500002000000010080808C838080020382621BC
:1045100020201800000000FE020202000000007FC0
:1045200040404000000C30C00000000000000001CE
:104530000638C00000020202FE00000000404040B9
:104540007F000000000004020202040000000000DE
:10455000000000000000000000000000808080805B
:104560008080808000020204000000000000000043
:1045700000000000000080808080000000192422DC
:1045800022223F2008F8008080000000003F112018
:1045900020110E000000008080800000000E11201D
:1045A00020201100000000808088F800000E1120FB
:1045B00020103F200000808080800000001F222209
:1045C00022221300008080F0888888180020203F75
:1045D000202000000000808080808000006B949488
:1045E0009493600008F8008080800000203F210044
:1045F00000203F2000809898000000000020203F0D
:1046000020200000000000809898000000C08080FA
:10461000807F000008F8000080808000203F240296
:104620002D302000000808F8000000000020203F86
:10463000202000008080808080808000203F20003B
:104640003F20003F8080008080800000203F2100CC
:1046500000203F200000808080800000001F20207C
:1046600020201F00808000808000000080FFA120AB
:1046700020110E000000008080808000000E1120BC
:1046800020A0FF80808080008080800020203F214B
:1046900020000100000080808080800000332424FE
:1046A00024241900008080E0808000000000001FAA
:1046B000202000008080000000808000001F20205B
:1046C00020103F20808080000080808000010E301C
:1046D0000806010080800080008080800F300C037D
:1046E0000C300F0000808000808080000020312E80
:1046F0000E312000808080000080808080818E705C
:104700001806010000808080808080000021302C0D
:104710002221300000000000807C02020000000026
:10472000003F404000000000FF00000000000000CB
:10473000FF0000000002027C800000000040403FBB
:104740000000000000060101020204040000000055
:104750000000000008070000E8030000200001003E
:104760000807C7000200000063000000010000000D
:104770000000000000000000080000001800000019
:1047800000300000A84700000000202020000000AA
:1047900098330000C847000020002020B817000010
:1047A000B033000000000000010000000000000025
:1047B0000000804000000000000000000000000039
:0847C0000105010100000000E9
:04000005000000C136
:00000001FF
