:020000040000FA
:1000000060072020D5000000D9000000DB000000C0
:1000100000000000000000000000000000000000E0
:10002000000000000000000000000000DD000000F3
:100030000000000000000000DF000000E100000000
:10004000E3000000B90D0000E3000000E300000041
:10005000E3000000E3000000E3000000E300000014
:1000600000000000E3000000E300000000000000CA
:1000700000000000E3000000E3000000AD140000F9
:10008000E3000000E300000011130000E3000000A3
:10009000E3000000E300000000000000000000009A
:1000A000E3000000E300000000000000000000008A
:1000B000E300000000000000E3000000E300000097
:1000C0000348854600F044FC00480047191800002A
:1000D0006007202003480047FEE7FEE7FEE7FEE753
:1000E000FEE7FEE7C1000000F8B502464A40D40F23
:1000F00042004B0052085B089A4202D20246084670
:1001000011464A0023D0C30D4A00DDB2120EAD1ACB
:10011000202D35DA49020126490AF6058A19002CF4
:1001200000D0524220214F1B1146B9402A411018DD
:10013000C20D9A4221D0002C17D0012D08DCDA051F
:10014000801AD20F8019D207DBB200F003FBF8BD92
:10015000DA05801A012340001B06C01880185A4295
:100160008018CA0F1043490007E04908C20711432D
:10017000DA05801A80194008801800F0E3FAF8BD0B
:1001800061000122511A001BF7E70122D2075140FA
:10019000AAE70122D2075040A6E7024670B54A40BE
:1001A000D30FDB0740002DD04A002AD0010E140ED9
:1001B000000212020919400A520A8418E501044695
:1001C0005443000A120A2E045043A4194219200C69
:1001D000C543AA18120C0125AD03521C5219120472
:1001E0007F39240400D0521C104301D44000491E22
:1001F000C2B20C06C0092018401C4008802A02D058
:1002000003E0002070BD40084000002900DA002013
:10021000184370BDF0B507460846584087B0C00F78
:10022000049048000E46590040084908BC1A88410D
:1002300005D2384631461E4617460B460246580040
:10024000400810434CD0300D039040055900400D3C
:10025000490D0590401A0290402872DA18030121D6
:10026000000B09050843019004980092002805D06E
:100270000199524200208841009201900298402149
:100280000A1A0199009800F03AFA05460C466B46A6
:1002900007CB00F044FAC0197141039A0E0D0023F8
:1002A000D71756401A467A40164344D0049A002A7B
:1002B0002DD0029A012A039A15DC1205C01A914129
:1002C00001263605001C7141D20F059ED20700930E
:1002D000019202962A46234600F082FA07B0F0BD4A
:1002E00038463146FAE71605224A0F46B218C01AB8
:1002F000B74101210905001C4F4100187F411146FB
:1003000018187941E20F10436D19644113E0E207B8
:100310006D0815436408C2071443039A01261205A9
:10032000C01A91413605001C7141CE074008304388
:100330004908C01851412A46234600F044FACDE747
:10034000FFE7049801224000C117121A00238B41D5
:1003500004983146C417381AA141EEE730B401249D
:10036000E407634030BC55E730B40124E407614042
:1003700030BC4FE70000E0FFF0B51FB488B00B9928
:100380000998002448400999C00F4900490809917B
:10039000C0070B990090490049080B9109990898EA
:1003A000A64608431CD00B990A98084318D0099810
:1003B00001244000420D4800410D09982405000326
:1003C000000B204309900B980003000B20430B9077
:1003D00050181C494018002201901446104605E0B0
:1003E000002001460DB0F0BD032801DA034600E00D
:1003F00003239C46C11A0AAE0AE05F0008ADED5B1C
:100400004F00F75B7D430027AA187C41491C5B1E07
:100410006145F2DD410004AB5A522104120C0A433B
:10042000240C401C0828DFDB0198029000997046DC
:1004300001910090059B049A0799069800F0D0F965
:10044000D0E700000DFCFFFFF0B50C465C4085B026
:10045000E40FE40703944C00002664085900944616
:10046000490802460296224321D062460A431ED022
:100470006200570D4A000E032303550D0124024666
:100480002C492405781B1B0B360B401823432643AD
:10049000614600901C46501AB44103D30098401C9A
:1004A000009002E0921800985B41002803DA0020D7
:1004B000014605B0F0BD002001210905074686462A
:1004C00011E064461D46141BB54106D36546521B18
:1004D000B341744607430C43A646CD07400849087C
:1004E000284392185B4105460D43EAD11046184354
:1004F00013D06046194650407140084306D060460C
:10050000101AB34106D20122002306E00022012383
:10051000DB0702E00122D243531000987446010524
:10052000381C6141029C039D0019694100F04BF9A0
:10053000BFE70000FD0300000122D207002800DB16
:10054000101A002900DB511A814201D201207047A4
:10055000002070470122D207002800DB101A002972
:1005600000DB511A814201D90120704700207047F9
:100570000122D207002800DB101A002900DB511AE3
:10058000814201D1012070470020704710B5002939
:1005900004DB0C460121C9074042A141002B04DBCA
:1005A0001C460123DB075242A341101A8B4101D2A2
:1005B000012010BD002010BD10B5002904DB0C4641
:1005C0000121C9074042A141002B04DB1C46012345
:1005D000DB075242A341101A8B4101D3012010BD09
:1005E000002010BD10B5002904DB0C460121C9070D
:1005F0004042A141002B04DB1C460123DB07524291
:10060000A34142404B401A4301D0002010BD0120BD
:1006100010BDC217C10F504010B54018CA0796232D
:10062000002100F097F810BD0EB5C217C10F504061
:10063000CA0740180021054B0293019200910A4617
:100640000B4600F0CDF803B000BD000033040000FD
:100650000EB505490291002100910A460B46019111
:1006600000F0BEF803B000BD33040000C20F41002B
:1006700040020123400ADB05D207090EC0187F297A
:1006800001DA00207047962903DC9623591AC840E6
:1006900001E096398840002AF4D040427047C20FEA
:1006A000D207400040080BD0C10D0723DB01C91859
:1006B00040020905400A1143C20840071143704730
:1006C000002001467047CB0FDB07490010B54908F1
:1006D00002460A4307D00A0D07240903E401090B67
:1006E000121B002A01DC002010BDC900440F0C437E
:1006F000C100E018D205801800F024F810BD10B534
:10070000202A04DB0146203A9140002010BD914090
:1007100020239C1A0346E3401943904010BD10B5B6
:10072000202A06DBCB170846203A1041C1170B439D
:1007300006E00B461341D0402024A21A9140084302
:10074000194610BD002904DA401C490001D14008B7
:100750004000704770B40024050C05D1102400043B
:1007600002D1002921D01124050E01D10002083444
:10077000050F01D10001241D850F01D18000A41CAB
:10078000002801DB4000641C002908D020252E1B16
:100790000D46F540A14000D0012129430843010640
:1007A0001B1B000ADB1D02D5002070BC7047DB0557
:1007B000181880180029F8DA401C4900F5D170BCDF
:1007C00040084000704710B5002B08DA0024401C98
:1007D000614192185B411A4301D14008400010BDAD
:1007E000F0B51FB482B005460C0003D0084601F0F6
:1007F000FDF802E001F0FAF82030024600902146B0
:100800002846FFF77CFF049B059A04460F461843D1
:100810001143084314D0184610431BD000984021C0
:100820000A1A1846059900F0A5F805460E46009AE2
:1008300005990498FFF763FF084305D0012004E001
:100840002046394607B0F0BD0020C11705430E43CE
:100850002C43374300990E986305401A7905E40A42
:1008600000220C43FD0A0A3002D500200146E9E7C8
:100870000105101969410C9C0D9D00196941FFF794
:10088000A2FFDFE7FEB500231A461B1A8A4103DBED
:100890000020014603B0F0BD4A000D0301212D0BDD
:1008A0000905520D0D43D10702D100186D41521EAA
:1008B0005110FF31FF310131002704463E463846D2
:1008C00000970191024601210020090500F052F82D
:1008D000C3197141F818324684468E464A41614632
:1008E0002846611A904104D36046241A9541764601
:1008F0001F46241900986D41401C00903428E1DD0A
:10090000F91930467041091BA84103D20022D24395
:10091000134601E00022134601980105381C71417D
:10092000FFF751FFB6E7000010B5002904DB0124F2
:10093000E40740428C412146002B04DB1C46012386
:10094000DB075242A3418B4200D1824210BD00001E
:10095000064C0125064E05E0E36807CC2B430C3C12
:1009600098471034B442F7D3FFF7AEFB38280000A5
:100970005828000010B5202A04DB0846203AD04051
:10098000002110BD0B46D340D0402024A21A914034
:100990000843194610BD70B54B005B0803430BD0EC
:1009A0004B005C0D002633466542B341D417AD1AA7
:1009B000A34102DB0020014670BD120530185141F1
:1009C00070BD000070B5CD0F4A0009030123090B6B
:1009D0001B0519430B4BED070024520D9A4201DA17
:1009E000002070BD074B34339A4203DC9A1AFFF79C
:1009F000C1FF02E00449511888402C43F1D0404225
:100A000070BD0000FF030000CDFBFFFFF0B583B019
:100A10000F46054610461946FFF7B7FB0446286007
:100A2000696AFFF761FB064668620197FF6800216B
:100A30003846FFF79DFD0028029413D10120C4071A
:100A40007C4030462146FFF777FD002800D1344630
:100A500030463946FFF77EFD002800D127466F62F9
:100A6000019901E0374601990E684868896801914B
:100A700069680091029C6C603946FFF78EFB054661
:100A800030462146FFF789FB2946FFF72DFB054637
:100A900020460099FFF779FB01460198FFF77DFB9F
:100AA0002946FFF721FB03B0F0BDF0B583B00F4638
:100AB000054610461946FFF768FB04462860696A38
:100AC000FFF712FB064668620197FF68002138466F
:100AD000FFF74EFD0028029413D10120C4077C408B
:100AE00030462146FFF728FD002800D13446304625
:100AF0003946FFF72FFD002800D127466F62019984
:100B000001E0374601990E68486889680191696873
:100B10000091029C6C603946FFF73FFB054630466A
:100B20002146FFF73AFB2946FFF7DEFA0546204645
:100B30000099FFF72AFB01460198FFF72EFB294693
:100B4000FFF7D2FA03B0F0BD811E091F00BFFCD22F
:100B500070470000F0B5664A8218294BC31808791F
:100B600020280DD000281DD10C68641E5460D56E5D
:100B7000244C25408835D5661646703688251DE0FC
:100B80000C68641E5460D46E1E4D2C401E4EA41979
:100B9000D466146F2C40A4191467012465071B4CFC
:100BA00016460BE00C6864085460D66E154C26405F
:100BB0000525ED017619D66616467036376827404A
:100BC0002F433760D46A4C4D2C40D462146B2C40B8
:100BD00014630024D46414658F24E443D56F254046
:100BE000D5671D6825401D6049790143BD20084037
:100BF0001168074B0B40C018801C1060F0BDC04648
:100C00008418000024F93FF001040000FFFFFFCF2B
:100C10004000FFCFB0B5364A80184A6842600A7873
:100C2000222A57D8930001A4E3589F46CB0C00001A
:100C3000D50C0000CB0C0000D50C0000D50C00003A
:100C4000D50C0000D50C0000D50C0000D50C000020
:100C5000D50C0000D50C0000D50C0000D50C000010
:100C6000D50C0000D50C0000D50C0000B90C00001C
:100C7000D50C0000B90C0000D50C0000D50C00000C
:100C8000D50C0000D50C0000D50C0000D50C0000E0
:100C9000D50C0000D50C0000D50C0000D50C0000D0
:100CA000D50C0000D50C0000D50C0000B90C0000DC
:100CB000D50C0000B90C000003231B0704689C43FB
:100CC00001235B07E318036004E003231B070468A8
:100CD0009C4304600B69C360CB68064C1C40C36A2C
:100CE000054D1D402B19C362097A11430160B0BD47
:100CF00004180000777702008888FDFF10B50723ED
:100D00009B04194092008018024A84589C43611841
:100D1000815010BD3018000010B5029CA4000019CD
:100D200011431943014A815010BDC04650180000BC
:100D300092008018014A81507047C0461018000088
:100D400010B50122120383180C789C604B788350F5
:100D50008978014A815010BD0C110000B0B51122F4
:100D6000120283580124A34383508B780C881C43C0
:100D70008B882343094C1C408358094D1D402B1977
:100D800083508B79CC791C43097A21437E23194007
:100D9000801842689A4351184160B0BD186700003E
:100DA000E798FDFF10B50122120383180C789C60B0
:100DB0004978815010BD0000F0B58720C1031B4861
:100DC0000246103A126813460B40194C2360012466
:100DD00013046E4B09D4D5030FD5E6031F68154DD8
:100DE0002D68374206D06D1E05E01E68114D2D6836
:100DF000F603F8D56D1C0F4E3560950309D45202E9
:100E00000FD564041B680C4A1268234206D0521E98
:100E100005E01B68084A12685B02F8D5521C064BB5
:100E20001A6002680A430260F0BDC04648100A40DA
:100E3000B0012020380020203C002020B0B55248CE
:100E4000017802291AD0012932D0002953D14F4903
:100E50000A684F4B1C680968490C04250D40210D98
:100E600002240C405103C90F611849191A68D20CA9
:100E700008231340C9183ED001213BE043490A68CA
:100E8000434B1C680968490C04250D40240D0221C0
:100E90000C405203D20FA21852191B68DB0C082415
:100EA0001C4012193B4B1A880ED014321A8022E0D3
:100EB00036490A68520301D4012118E0344A136804
:100EC0009B020BD4022112E0002404701C804B20F2
:100ED0008000824200D801212F480BE009680903F5
:100EE00001D4032103E011684902C5D40421022280
:100EF00002702A4801702948027827490978012997
:100F000003D1012A01D1012304E0022922D1012ABF
:100F100020D10223234C2370002302290DD1002B62
:100F20000BD00223204C2370121F5342534102293D
:100F30000DD1002B0BD0022107E0141F6342634147
:100F40000129F4D1042AF2D10121184A117000219B
:100F50000170B0BD012903D1022A01D1012304E0AF
:100F6000022908D1022A06D102230D4C2370D41E77
:100F700063426341D1E7D41E634263410129CCD16E
:100F8000032ACAD10123CDE70906202080130A4095
:100F900080330A40460020204400202048002020C2
:100FA000410020204000202042002020430020203B
:100FB00070B5284A8720D0640121CC05264B1C60DF
:100FC000106508061860254C822020652449481CBD
:100FD000606524486063244D65668126166056600E
:100FE000966096612566E565A165A664D16011618C
:100FF0005161516326606660A16191649163D16221
:101000001A46303A194C14601C60194A1368194C7E
:101010001C4314601369184C1C431461174A136A6B
:10102000174C234313621368234313608139154A15
:1010300013680B431360BF30116901431161232012
:10104000C00411490A6A02430A620A6802430A603C
:1010500070BDC04688804240D0120A4004804240A1
:1010600081000400810001008100060083710400FA
:1010700090130A40100000400510000028100A409C
:101080000480430090330A4028300A4070B582B093
:101090009E4C19492046FFF753FE18492046FFF79A
:1010A00059FD00250095204629462A462B46FFF784
:1010B00033FE204629462A46FFF720FE10492046E7
:1010C0002A46FFF735FE01260096204629462A4685
:1010D0002B46FFF721FE204629463246FFF70EFE3B
:1010E000084920463246FFF723FE07488660032161
:1010F000016002B070BDC046082800000C28000046
:10110000CF0700008813000000B186400C48002182
:1011100001600C48014608390A6803239A430A60B3
:101120000168012291430160110202688A43026052
:10113000FF20000204490A6882430A607047C046E3
:1011400008030B4008010B4000E400E005480421BF
:1011500001601F21416000218160016805220A436E
:101160000260704710E000E010B50D4C0D492046BC
:10117000FFF7E6FD0C492046FFF74CFD0B480168E0
:10118000012211430160FF20000409490B688343D9
:1011900003208005181808600648026010BDC0468C
:1011A00000008640142800001828000028108640FF
:1011B00010E400E00811864010B5194C194920468A
:1011C000FFF7F0FD18492046FFF7C8FD0320C103D3
:1011D000164802688A4302600169154A0A400832CB
:1011E000026141692C220A4313218A434261426809
:1011F00001210A4043688B439A1842608A020D4BD2
:101200001C6814431C60FF2212060B4B1C6894439D
:101210008A07A2181A6002680A43026010BDC0461D
:10122000008010402C2800002E2800000091104063
:101230000000FFFF289010400CE400E080B500F0B3
:1012400019F8FFF7B5FEFFF761FFFFF71FFFFFF784
:101250008BFFFFF7B1FFFFF779FFB82003490022AA
:101260000A54742002490A5480BDC046F40020206C
:101270007C002020B0B50A480A4941600A4A516002
:101280000A4B59600A4C61600A4D69600A49016065
:1012900011601960216029601020FFF755FCB0BD76
:1012A00000080A40030000B100280A4000A8864058
:1012B000000886400088104001000026F0B581B08B
:1012C0000C460146012738037A030F4E012902DB41
:1012D0003060326102E03260306149420B4D0022E1
:1012E0002846FFF725FDB803B904012C02DB306066
:1012F000316102E0316030616442012228462146BA
:10130000FFF716FD01B0F0BD90120A4000A0864024
:10131000F0B589B052480068000600D19DE05149FF
:10132000086800270F6050490D680F604F494D60F5
:101330000B464F4A1178491C11704E4A1178491CCE
:1013400011704D4A1178491C117044421C60684864
:10135000806AFFF7A4F9089007912046FFF764F927
:1013600004460E462846FFF75FF902460B464348FF
:1013700005900497424803904248029007980190D4
:10138000089800902046314600F022F9374DA868B1
:10139000FFF76CF9296800F0ADF83B4908600120BF
:1013A000C407A8686040FFF761F9696800F0D6F8E3
:1013B000364908600A200146FFF780FF2C4908786B
:1013C00002281DD10F704A488269314831493B4695
:1013D000FFF76BFB0546304E3146FFF7BBF80028A0
:1013E00001D1654000E02D4D28463146FFF7A4F8B5
:1013F000002800D135461D488560322000F036F9BE
:101400001C490878032821D10F707B20C100964A1F
:10141000505851184968FFF756F903463448826A14
:101420001B481F49FFF7F2FA04461E4D2946FFF7F5
:1014300083F8002800D125461B4C28462146FFF79B
:101440007BF8002800D12546084885600A490878BD
:10145000042802D10F70FFF7F1FC09B0F0BDC046BF
:1014600020108640380020203C00202064002020EE
:1014700078002020790020207A00202000002740DA
:10148000E17A743F7B14AE474C00202050002020AE
:101490000C0620202000202000007A4400007AC49E
:1014A000100020200000C8C20000C84210B50C483F
:1014B0000068C0B20B2812D10A484168CAB2026063
:1014C000094C2078094A1154401C2070C0B22C28C5
:1014D00005D10648064900F075FA0020207010BDBD
:1014E000209010402091104020022020F401202064
:1014F000B4012020B0B5451A164801680560681A85
:10150000FFF787F804462846FFF783F801462C4882
:101510000068FEF742FE05462A4800682146FEF7AD
:101520003CFE2946FEF7E0FD04460B4D2868FFF718
:1015300070F801462046FEF7D7FDFFF797F82860C0
:10154000E1210901884202DC2049884201DA296050
:101550000846B0BD5800202054002020B0B5451AE0
:10156000164801680560681AFFF753F804462846D4
:10157000FFF74FF8014612480068FEF70EFE0546D9
:10158000104800682146FEF708FE2946FEF7ACFD2C
:1015900004460D4D2868FFF73CF801462046FEF74B
:1015A000A3FDFFF763F82860E1210901884202DC0E
:1015B0000649884201DA29600846B0BD6000202053
:1015C0000C002020080020205C002020F0F1FFFF0C
:1015D000F0B583B0FEF71EFE0026224B3246FEF722
:1015E000CBFE04460D4608980999864A874BFEF7BC
:1015F000C3FEC54B3246FEF727FF06460F460A9A42
:101600000B9B20462946FEF7B7FE044602900D4686
:1016100001913046394600F055FF02460B46204600
:101620002946FEF7A9FE00900D463046394600F0E7
:1016300095FF06460F46714C0CCC00982946083C95
:10164000FEF7E8FD03C40298019932463B46083C88
:10165000FEF792FEA268E368FEF7DCFDA060E160A1
:1016600003B0F0BD0000E03F28022020F0B587B0B5
:10167000604E3178012927D0002900D0B7E06549B4
:101680000A78012A0ED100220A7061490A78531C97
:101690000B701101594A511838CA126808461030A7
:1016A00038C0CA6154490A78012A00D09FE0544AE0
:1016B0000123137000220A7050490A604A608A6050
:1016C000CA60337007B0F0BD05904B490878012817
:1016D0000DD14B4A0120107000240C7047490C605A
:1016E0004C608C60CC6006942246234605E043485B
:1016F0001CC8006806904248007800013F490F1856
:1017000038697969FEF72AFE06460D46B869F96917
:101710002246069BFEF722FE07460C4632462B4623
:1017200000F002FE01900691384621463A462346D3
:10173000FEF722FE04460F463046294632462B4627
:10174000FEF71AFE22463B46FEF764FD00F054FF0A
:1017500003913D210A0104902849029288500025F6
:10176000019F3846069C21462A462B46FEF70EFF6F
:101770000646244A244B384621461446FEF74AFDC5
:10178000002E00D13846002E00D106995E4B2A4625
:10179000FEF7F2FD1D4B2246FEF756FE7B22D200DD
:1017A000164B985002981818039D45609818416090
:1017B0000598FEF74DFF02460B46049C204629463D
:1017C000FEF7FAFE002812D10022204629461346D1
:1017D000FEF708FF00280AD10D480078421C08488F
:1017E0000178491CCBB29A4200D10121017007B0A7
:1017F000F0BDC046080620204000202028022020FE
:1018000031002020282D4454FB211940FB210940A0
:101810003000202042002020FFF710FD084801681A
:10182000012211430160D0030649086002230B60C6
:1018300092040A60044908600B600A60FEE7C04633
:1018400004B8864080E200E000E100E0F0B581B03D
:101850000C460546007869780918A8780A18E978CE
:1018600052182B79D2186B79D218AB79D218EB7940
:10187000D2182B7AD2186B7AD218D2B2AB7A9A429B
:101880003ED10902081800B2FEF7CEFE3F2217062D
:10189000002632463B46FEF76FFD1B4B3246FEF7F5
:1018A0006BFDFEF710FF206028796979090208189E
:1018B00000B2FEF7B9FE32463B46FEF75DFD32460A
:1018C000114BFEF759FDFEF7FEFE6060A879E9793D
:1018D0000902081800B2FEF7A7FE32463B46FEF7A3
:1018E0004BFD3246084BFEF747FDFEF7ECFEA060CD
:1018F000287A697A09020818E060012001B0F0BD79
:10190000002001B0F0BDC04600806640F0B581B057
:101910000C460546007869780918A8780A18E9780D
:1019200052182B79D2186B79D218AB79D218EB797F
:10193000D2182B7AD2186B7AD218D2B2AB7A9A42DA
:101940003AD10902081800B2FEF76EFE3F221706D0
:10195000002632463B46FEF70FFD194B3246FEF796
:101960000BFDFEF7B0FE206028796979090208189E
:1019700000B2FEF759FE32463B46FEF7FDFC32460A
:101980000F4BFEF7F9FCFEF79EFE6060A879E9793F
:10199000E6600902081800B2FEF746FE32463B46F2
:1019A000FEF7EAFC3246064BFEF7E6FCFEF78BFE3E
:1019B000A060012001B0F0BD002001B0F0BDC04624
:1019C00000409F40B0B50C4605460B301031FFF784
:1019D0009DFF002808D01635203428462146FFF701
:1019E00035FF411E8841B0BD0020B0BD2021020C52
:1019F00001D010211046020A01D010460839020910
:101A000001D01046091F820801D01046891E4208E5
:101A100001D0881E7047081A7047F0B4040C8BB2CE
:101A2000264682B25E430D0C1046370C58433604EE
:101A300080190021794116466E43370C360480190F
:101A4000794126466E438919F0BC70474900CA02A5
:101A50000243100000D004204A0D01D0012210439F
:101A6000044A490D914201D102210843012800D1C5
:101A700005207047FF070000F7B596B01446002117
:101A8000A160D160179909914D00CD496D088D4233
:101A900005DC179961602060002019B0F0BDC949CC
:101AA000C94E8D4238DAD32709997F050029C74AE4
:101AB0001799334617DDFEF751FCB54206D0C44AEC
:101AC000C44BFEF74BFC6160206009E03A46C14B15
:101AD000FEF744FCC04AC14BFEF740FC6160206049
:101AE000012019B0F0BDFEF795FBB54206D0B84A0B
:101AF000B84BFEF78FFB6160206009E03A46B54BBA
:101B0000FEF788FBB44AB54BFEF784FB61602060AA
:101B10000020C04319B0F0BDB1498D42179977DC60
:101B2000490049080746AF4AAF4B0491FEF724FC31
:101B30000022AE4BFEF76EFBFEF744FF0A90FEF765
:101B400073FDA24A334603910290FEF715FC3A4614
:101B5000049BFEF709FC06460F469D4A9D4B0399E0
:101B60000298FEF709FC2A0D01250C9232463B46ED
:101B7000FEF7FAFB61602060032D39D04800410D6B
:101B80000C98401A690169181139814230DA984974
:101B90002801794408960D90081804974368026854
:101BA00003990298FEF7E8FB02460B460791069060
:101BB00004990898FEF7D2FB06460F46049B089A44
:101BC000FEF7D2FB079B069AFEF7C8FB05918949F1
:101BD000049079440D984018C3688268039902986C
:101BE000FEF7CAFB059B049AFEF7B8FB6D1CBDE728
:101BF0000998002809DA01226068D2075040606025
:101C00000A9819B04042F0BD02E00A9819B0F0BD40
:101C100009030122090B12050E90891817981091DB
:101C200040007549400D40184111C006C00E0D918D
:101C300013902021081A1490002006900525079083
:101C4000139800280D980CD0401982006B487844F6
:101C5000875813998F40101841681498C1400F435A
:101C600004E0401981006648784447581099384686
:101C7000FFF7D3FE06460A9138460E99FFF7CDFED0
:101C80008A190A9B8A4201D2012100E00021C91869
:101C90008C46AF00694679188B684E68C31883423A
:101CA00001D2012000E0002096193618002802D049
:101CB000964202D903E0964201D2012000E00020C2
:101CC000624612184E6068468B60C25128466D1EEF
:101CD0000028B5DC0121029849074018800F1390B5
:101CE000029805998000039E049D0B91FEF79CFCD1
:101CF000074630460891FEF7ABFC1D22D243FEF7A3
:101D00004AFE10900F912846FEF7A2FC3D22D243D6
:101D1000FEF741FE0E900D910B98FEF799FC5D22A7
:101D2000D243FEF738FE0B910C900D9B0E9AFEF7F6
:101D300071FA0F9B109AFEF76DFA3A46089BFEF770
:101D400069FA00250E463A462846089BFEF706FB30
:101D50000F9B109AFEF702FB0D9B0E9AFEF7FEFA00
:101D60000B9B0C9AFEF700FB264A274BFEF704FB61
:101D700007460D91254A264B31462846FEF7FCFAC8
:101D80003A460D9BFEF746FA0F4615220C90920636
:101D90001D4B31462846FEF7EFFA3B460C9AFEF7FC
:101DA00039FA179A002A05DA139A5242139201223D
:101DB000D207514061602060139819B0F0BD000057
:101DC000FB21E93F7CD90240FB21F93F0000405450
:101DD0003163621A61B4D03D7370032E8A19A33B3C
:101DE000FB21394183C8C96D305FE43F0000E03F0B
:101DF0007A0B00003A0B00000BFCFFFFEE0A00001C
:101E0000D40A0000182D4454FB21F93D3326A611B5
:101E1000460B113CF0B51FB44E00F9207608800542
:101E200084B00F46864204DA0498FEF7CBFD002802
:101E300038D0049A3B4610461946FEF79DFA0446F0
:101E400002462C480D460B460621784400F05CF80B
:101E500022462B46FEF790FA019100903946079BE7
:101E6000069A0498FEF788FA07460291204629460A
:101E7000019B009AFEF780FA3A46029BFEF76EFA43
:101E8000074600220091D24320462946FEF783FDF3
:101E9000194A96420ADA3A46009BFEF75FFA002298
:101EA000164B23E00020154909B0F0BD144A9642B4
:101EB00002DD0024134D03E001225205B51A00246F
:101EC00022462B46FEF74AFA0646019122462B4649
:101ED00000200A49FEF742FA0D4604463A463046CB
:101EE000009B0199FEF73AFA22462B46FEF73CFA90
:101EF00009B0F0BD8A0800003333D33F0000F03F43
:101F00000000E93F0000D23FF8B504464F1EC8006C
:101F10000838211815461E46086849683A460623BF
:101F20009A4310D02A463346FEF726FA3A46D200A4
:101F3000083AA3181A687F1E5B68FEF76BF9062241
:101F40003B469343EED1022F23D0042F11D0062F0E
:101F50002FD12A463346FEF70FFAE36AA26AFEF74C
:101F600059F92A463346FEF707FA636A226AFEF7F2
:101F700051F92A463346FEF7FFF9E369A269FEF7F5
:101F800049F92A463346FEF7F7F963692269FEF7F5
:101F900041F92A463346FEF7EFF9E368A268FEF7F7
:101FA00039F92A463346FEF7E7F963682268FEF7F7
:101FB00031F9F8BDF0B51FB4054648000C46F921CB
:101FC0004008890586B088420BDA28462146FFF78B
:101FD0003DFD042801D100F075F8284621460BB0DC
:101FE000F0BD2A46234610461946FEF7C5F90646B7
:101FF0000F462A462346FEF7BFF900902548019177
:1020000032463B4605217844FFF77EFF0290109848
:102010000391002829D0204A204B01990098FEF70F
:10202000ABF90490059168460FC8FEF7A5F90022A8
:1020300001910090D24309990898FEF7ACFC019BEE
:10204000009AFEF78BF932463B46FEF795F9099B5D
:10205000089AFEF783F9059B049AFEF77FF92A4652
:102060002346FEF781F90BB0F0BD0B4630463946EA
:10207000029AFEF781F9084A084BFEF7CBF8019B5C
:10208000009AFEF779F92A462346FEF7C3F80BB00B
:10209000F0BD0000D6070000495555555555C5BF40
:1020A00010B50122FEF777FC10BD10B5FEF7B2F8AF
:1020B00010BD002210B5134610461146FEF7C4F9B4
:1020C00010BD0000034A10B500201107FEF763FCA5
:1020D00010BD000001FDFFFF02E008C8121F08C18B
:1020E000002AFAD17047000070470000000000008D
:1020F000002001E001C1121F002AFBD1704700003F
:10210000014908607047000004002020F0B589B044
:1021100004460D464800069172494008884215DB86
:102120007149884203DC884207D1002C05D0204643
:102130002946FFF7B5FF09B0F0BD6C48002D02DD60
:102140006B4909B0F0BD6B4909B0F0BD6A498842DE
:1021500011DA6A4988420BDA20462946FFF776FCF5
:10216000042801D1FFF7AEFF2046294609B0F0BD93
:102170000026F6435DE06D0061496D08884232DA61
:102180006049884219DA0026012332469B0720461F
:102190002946FEF73FF807460191012220462946CD
:1021A000FEF7F9FB0022584BFEF7D8F83A46019BA0
:1021B000FEF74AF904460D463BE001260022524B49
:1021C00020462946FEF726F80746009100224E4B8E
:1021D00020462946FEF7C2F83A46009BFEF734F93E
:1021E00004460D4625E04949884219DA02260022B4
:1021F000474B20462946FEF7BFF80022424BFEF728
:1022000009F8074602910022414B20462946FEF775
:10221000A5F83A46029BFEF717F904460D4608E07A
:10222000032622462B4600203A49FEF70DF90446C4
:102230000D4622462B4610461946FEF79DF80746E6
:102240000B4602460191FEF797F80246029032488B
:102250000B46039106217844FFF756FE3A46019B50
:10226000FEF78AF800902D48019105217844039BE0
:10227000029AFFF749FE039B029AFEF77DF8024699
:102280000B4601990098002E0BDAFDF7C3FF22469A
:102290002B46FEF771F822462B46FEF765F809B08B
:1022A000F0BDFDF7B7FF22462B46FEF765F81C4A46
:1022B000F6007A4493191A685B68FEF74FF82246D5
:1022C0002B46FEF74BF8174A7A4493191A685B6855
:1022D000FEF74AF8069A002AE1DA0122D2075140B5
:1022E00009B0F0BD000010440000F07F182D4454E8
:1022F000FB21F93FFB21F9BF0000DC3F0000203E3D
:102300000000F33F0000E63F0000F03F0080034084
:102310000000F83F0000F0BF4E0400001004000071
:10232000AA03000074030000F0B51FB4039A029DD5
:1023300053006E422E439446F40F5B084A00574EFA
:1023400052081C438E46B44205D847420743FC0F4F
:102350001443B44205D92A466346FFF7A6FE05B0EA
:10236000F0BD4F4E66442E430AD0CC0F6646B617DA
:1023700002273E40264304464A4F144304D00BE054
:10238000FFF7C4FE05B0F0BD002EFBD0012EF9D042
:10239000022E32D0032E34D01C462C430BD03F4C9F
:1023A000A34216D1A2420AD1012189078B438A4355
:1023B000114603930DE0704600280FDB25E03A4DEF
:1023C0007D44002E0ED0012E10D0022E15D0032EEB
:1023D00017D0A2421DD17046002816DA3148334981
:1023E00005B0F0BD6968286805B0F0BD01226968D4
:1023F000D2072868514005B0F0BD38462C4905B0D9
:10240000F0BD38462B4905B0F0BD26482A4905B035
:10241000F0BDD21A12153C2A02DD224D264C12E0E4
:102420006346002B05DA3C23DA4202DA00252C460B
:1024300009E0039B029AFEF707F849004908FFF7F5
:1024400065FE05460C46002E12D0012E0DD01B4A0B
:102450001B4B022E2846214618D0FDF77FFF3A4637
:10246000134BFDF77BFF05B0F0BD0120C0074440D2
:102470000022134628462146FEF756FA02D10220D2
:10248000FFF73EFE2846214605B0F0BDFDF766FF8A
:102490003A46074BFDF768FF05B0F0BD0000F07F3E
:1024A000000010C0182D445444030000FB21F9BF64
:1024B000FB210940FB2109C0FB21F93F075C1433D4
:1024C00026A6A13C00B54A00224B520887B09A428A
:1024D00002DC0022134625E01F4B9A4208D1002857
:1024E00008D10120FFF70CFEFFF7E3FD07B000BDA8
:1024F0009A4203DBFFF7D4FD07B000BD02AAFFF745
:10250000BBFA8107890F0BD0012001290ED00229C7
:1025100016D0009002A80FC8FFF74CFD07B000BD11
:1025200002A80FC8FFF776FC07B000BD009002A814
:102530000FC8FFF73FFD0122D207514007B000BD91
:1025400002A80FC8FFF766FC0122D207514007B06E
:1025500000BD0000FB21E93F0000F07F00B54A000C
:10256000234B520887B09A4203DC002213460092A4
:1025700029E0204B9A4208D1002808D10120FFF71A
:10258000BFFDFFF796FD07B000BD9A4203DBFFF7E2
:1025900087FD07B000BD02AAFFF76EFA8107890F19
:1025A000012000290CD0012911D0022915D002A840
:1025B0000FC8FFF72FFC0122D207514007B000BD22
:1025C000009002A80FC8FFF7F5FC07B000BD02A8F5
:1025D0000FC8FFF71FFC07B000BD009002A80FC88E
:1025E000FFF7E8FC0122D207514007B000BD000010
:1025F000FB21E93F0000F07FF8B506460C46FEF7E8
:1026000041F9051E0F4600D00120014349000B4847
:102610004908411AC90F0DD0002E01D0012100E058
:1026200000210C4361004908401AC00F02D101206B
:10263000FFF766FD28463946F8BD00000000F07F30
:102640004FBB610567ACDD3F182D4454FB21E93FCA
:102650009BF681D20B73EF3F182D4454FB21F93FB9
:10266000E2652F227F2B7A3C075C143326A6813C3F
:10267000BDCBF07A8807703C075C143326A6913CEA
:10268000C4EB98999999C9BF711623FEC671BCBF56
:102690006D9A74AFF2B0B3BF9AFDDE522DDEADBFBE
:1026A0002F6C6A2C44B4A2BF0D5555555555D53FD6
:1026B000FF8300922449C23F6E204CC5CD45B73FF1
:1026C000513DD0A0660DB13FEB0D76244B7BA93F69
:1026D00011DA22E33AAD903F4C5555555555A53F7B
:1026E0007751C1166CC156BF9015CB19A001FA3EA7
:1026F000AD529C804F7E92BEC4B1B4BD9EEE213ED1
:10270000D43888BEE9FAA8BD00000000000000002F
:1027100000004054FB21F93F3163621A61B4D03D9F
:102720000000601A61B4D03D7370032E8A19A33B78
:102730000000002E8A19A33BC14920259A837B39CA
:1027400000000000000000006E83F9A22915444E2D
:10275000D15727FCC0DD34F5999562DB4190433CAD
:10276000AB6351FE61C5BBDE3A6E24B7E0D24D4289
:10277000EA2E49061C92D1091CEB1DFE3EA729B189
:10278000F53582E88444BB2E26709CE9417E5FB417
:1027900039D69139F43953838B5F849C3B28F9BD3A
:1027A000FF97F81F0F9805DE8B112FEF1F6D0A5A48
:1027B000CF7E366DB709CB27663F464F2DEA5F9E29
:1027C000C7BA27757BF1E5EBF739073DEA92528AE4
:1027D000B15FFB6B085D8D1F4630035600000000A3
:1027E000A6F810111111813FD561C119A0012ABFAE
:1027F0007DFEB157E31DC73EEB9C2B8AE6E55ABE32
:102800007CD5CF5A3AD9E53D0807000010270000D3
:10281000000100000807C70002000000630000007C
:10282000010000000000000000000000080000009F
:102830001800000000300000582800000000202090
:1028400038000000D8200000902800003800202028
:1028500028070000F0200000010000000000000038
:102860000000003F0000803F33335340A69B443BB1
:10287000000070420000803F00008C420000000019
:102880000000000000000000010100000000000046
:04000005000000C136
:00000001FF
